{
  "contractName": "Comments",
  "abi": [
    {
      "inputs": [],
      "stateMutability": "nonpayable",
      "type": "constructor"
    },
    {
      "anonymous": false,
      "inputs": [
        {
          "indexed": false,
          "internalType": "string",
          "name": "commentContent",
          "type": "string"
        },
        {
          "indexed": false,
          "internalType": "string",
          "name": "timeStamp",
          "type": "string"
        },
        {
          "indexed": false,
          "internalType": "string",
          "name": "commenterName",
          "type": "string"
        }
      ],
      "name": "Comment",
      "type": "event"
    },
    {
      "inputs": [
        {
          "internalType": "uint256",
          "name": "",
          "type": "uint256"
        }
      ],
      "name": "commentStructs",
      "outputs": [
        {
          "internalType": "uint256",
          "name": "commentId",
          "type": "uint256"
        },
        {
          "internalType": "string",
          "name": "commentContent",
          "type": "string"
        },
        {
          "internalType": "string",
          "name": "timeStamp",
          "type": "string"
        },
        {
          "internalType": "string",
          "name": "commenterName",
          "type": "string"
        }
      ],
      "stateMutability": "view",
      "type": "function"
    },
    {
      "inputs": [
        {
          "internalType": "string",
          "name": "_timeStamp",
          "type": "string"
        },
        {
          "internalType": "string",
          "name": "_commentContent",
          "type": "string"
        },
        {
          "internalType": "string",
          "name": "_commenterName",
          "type": "string"
        }
      ],
      "name": "createComment",
      "outputs": [],
      "stateMutability": "nonpayable",
      "type": "function"
    },
    {
      "inputs": [],
      "name": "getComments",
      "outputs": [
        {
          "components": [
            {
              "internalType": "uint256",
              "name": "commentId",
              "type": "uint256"
            },
            {
              "internalType": "string",
              "name": "commentContent",
              "type": "string"
            },
            {
              "internalType": "string",
              "name": "timeStamp",
              "type": "string"
            },
            {
              "internalType": "string",
              "name": "commenterName",
              "type": "string"
            }
          ],
          "internalType": "struct Comments.CommentStruct[]",
          "name": "",
          "type": "tuple[]"
        }
      ],
      "stateMutability": "view",
      "type": "function"
    }
  ],
  "bytecode": "0x608060405234801561001057600080fd5b5060008081905550610f06806100276000396000f3fe608060405234801561001057600080fd5b50600436106100415760003560e01c806391f3410c146100465780639753176714610064578063b1c8384014610080575b600080fd5b61004e6100b3565b60405161005b91906107e2565b60405180910390f35b61007e6004803603810190610079919061094d565b610332565b005b61009a60048036038101906100959190610a20565b610416565b6040516100aa9493929190610aa6565b60405180910390f35b60606000805467ffffffffffffffff8111156100d2576100d1610822565b5b60405190808252806020026020018201604052801561010b57816020015b6100f86105de565b8152602001906001900390816100f05790505b50905060005b60005481101561032a57600160008281526020019081526020016000206040518060800160405290816000820154815260200160018201805461015390610b2f565b80601f016020809104026020016040519081016040528092919081815260200182805461017f90610b2f565b80156101cc5780601f106101a1576101008083540402835291602001916101cc565b820191906000526020600020905b8154815290600101906020018083116101af57829003601f168201915b505050505081526020016002820180546101e590610b2f565b80601f016020809104026020016040519081016040528092919081815260200182805461021190610b2f565b801561025e5780601f106102335761010080835404028352916020019161025e565b820191906000526020600020905b81548152906001019060200180831161024157829003601f168201915b5050505050815260200160038201805461027790610b2f565b80601f01602080910402602001604051908101604052809291908181526020018280546102a390610b2f565b80156102f05780601f106102c5576101008083540402835291602001916102f0565b820191906000526020600020905b8154815290600101906020018083116102d357829003601f168201915b50505050508152505082828151811061030c5761030b610b60565b5b6020026020010181905250808061032290610bbe565b915050610111565b508091505090565b60005460016000805481526020019081526020016000206000018190555081600160008054815260200190815260200160002060010190816103749190610db2565b5082600160008054815260200190815260200160002060020190816103999190610db2565b5080600160008054815260200190815260200160002060030190816103be9190610db2565b506000808154809291906103d190610bbe565b91905055507fa0e8593a0629e68d34402df54e0d210ebeb2529a24ca825bd26619c234b8f62c82848360405161040993929190610e84565b60405180910390a1505050565b600160205280600052604060002060009150905080600001549080600101805461043f90610b2f565b80601f016020809104026020016040519081016040528092919081815260200182805461046b90610b2f565b80156104b85780601f1061048d576101008083540402835291602001916104b8565b820191906000526020600020905b81548152906001019060200180831161049b57829003601f168201915b5050505050908060020180546104cd90610b2f565b80601f01602080910402602001604051908101604052809291908181526020018280546104f990610b2f565b80156105465780601f1061051b57610100808354040283529160200191610546565b820191906000526020600020905b81548152906001019060200180831161052957829003601f168201915b50505050509080600301805461055b90610b2f565b80601f016020809104026020016040519081016040528092919081815260200182805461058790610b2f565b80156105d45780601f106105a9576101008083540402835291602001916105d4565b820191906000526020600020905b8154815290600101906020018083116105b757829003601f168201915b5050505050905084565b6040518060800160405280600081526020016060815260200160608152602001606081525090565b600081519050919050565b600082825260208201905092915050565b6000819050602082019050919050565b6000819050919050565b61064581610632565b82525050565b600081519050919050565b600082825260208201905092915050565b60005b8381101561068557808201518184015260208101905061066a565b60008484015250505050565b6000601f19601f8301169050919050565b60006106ad8261064b565b6106b78185610656565b93506106c7818560208601610667565b6106d081610691565b840191505092915050565b60006080830160008301516106f3600086018261063c565b506020830151848203602086015261070b82826106a2565b9150506040830151848203604086015261072582826106a2565b9150506060830151848203606086015261073f82826106a2565b9150508091505092915050565b600061075883836106db565b905092915050565b6000602082019050919050565b600061077882610606565b6107828185610611565b93508360208202850161079485610622565b8060005b858110156107d057848403895281516107b1858261074c565b94506107bc83610760565b925060208a01995050600181019050610798565b50829750879550505050505092915050565b600060208201905081810360008301526107fc818461076d565b905092915050565b6000604051905090565b600080fd5b600080fd5b600080fd5b600080fd5b7f4e487b7100000000000000000000000000000000000000000000000000000000600052604160045260246000fd5b61085a82610691565b810181811067ffffffffffffffff8211171561087957610878610822565b5b80604052505050565b600061088c610804565b90506108988282610851565b919050565b600067ffffffffffffffff8211156108b8576108b7610822565b5b6108c182610691565b9050602081019050919050565b82818337600083830152505050565b60006108f06108eb8461089d565b610882565b90508281526020810184848401111561090c5761090b61081d565b5b6109178482856108ce565b509392505050565b600082601f83011261093457610933610818565b5b81356109448482602086016108dd565b91505092915050565b6000806000606084860312156109665761096561080e565b5b600084013567ffffffffffffffff81111561098457610983610813565b5b6109908682870161091f565b935050602084013567ffffffffffffffff8111156109b1576109b0610813565b5b6109bd8682870161091f565b925050604084013567ffffffffffffffff8111156109de576109dd610813565b5b6109ea8682870161091f565b9150509250925092565b6109fd81610632565b8114610a0857600080fd5b50565b600081359050610a1a816109f4565b92915050565b600060208284031215610a3657610a3561080e565b5b6000610a4484828501610a0b565b91505092915050565b610a5681610632565b82525050565b600082825260208201905092915050565b6000610a788261064b565b610a828185610a5c565b9350610a92818560208601610667565b610a9b81610691565b840191505092915050565b6000608082019050610abb6000830187610a4d565b8181036020830152610acd8186610a6d565b90508181036040830152610ae18185610a6d565b90508181036060830152610af58184610a6d565b905095945050505050565b7f4e487b7100000000000000000000000000000000000000000000000000000000600052602260045260246000fd5b60006002820490506001821680610b4757607f821691505b602082108103610b5a57610b59610b00565b5b50919050565b7f4e487b7100000000000000000000000000000000000000000000000000000000600052603260045260246000fd5b7f4e487b7100000000000000000000000000000000000000000000000000000000600052601160045260246000fd5b6000610bc982610632565b91507fffffffffffffffffffffffffffffffffffffffffffffffffffffffffffffffff8203610bfb57610bfa610b8f565b5b600182019050919050565b60008190508160005260206000209050919050565b60006020601f8301049050919050565b600082821b905092915050565b600060088302610c687fffffffffffffffffffffffffffffffffffffffffffffffffffffffffffffffff82610c2b565b610c728683610c2b565b95508019841693508086168417925050509392505050565b6000819050919050565b6000610caf610caa610ca584610632565b610c8a565b610632565b9050919050565b6000819050919050565b610cc983610c94565b610cdd610cd582610cb6565b848454610c38565b825550505050565b600090565b610cf2610ce5565b610cfd818484610cc0565b505050565b5b81811015610d2157610d16600082610cea565b600181019050610d03565b5050565b601f821115610d6657610d3781610c06565b610d4084610c1b565b81016020851015610d4f578190505b610d63610d5b85610c1b565b830182610d02565b50505b505050565b600082821c905092915050565b6000610d8960001984600802610d6b565b1980831691505092915050565b6000610da28383610d78565b9150826002028217905092915050565b610dbb8261064b565b67ffffffffffffffff811115610dd457610dd3610822565b5b610dde8254610b2f565b610de9828285610d25565b600060209050601f831160018114610e1c5760008415610e0a578287015190505b610e148582610d96565b865550610e7c565b601f198416610e2a86610c06565b60005b82811015610e5257848901518255600182019150602085019450602081019050610e2d565b86831015610e6f5784890151610e6b601f891682610d78565b8355505b6001600288020188555050505b505050505050565b60006060820190508181036000830152610e9e8186610a6d565b90508181036020830152610eb28185610a6d565b90508181036040830152610ec68184610a6d565b905094935050505056fea2646970667358221220eb48e3ed876881fb1ff836bf1b8976431970114ef8645896c4dd28fd96d40f0a64736f6c63430008110033",
  "immutableReferences": {},
  "source": "// SPDX-License-Identifier: GPL-3.0\r\npragma solidity >=0.8.0;\r\n\r\ncontract Maincontract {\r\n    uint256 userCounts;\r\n    uint256 verifiedUserCounts;\r\n\r\n    constructor() {\r\n        userCounts = 0;\r\n        verifiedUserCounts = 0;\r\n    }\r\n\r\n    struct UserStruct {\r\n        address walletId;\r\n        address userContractAddress;\r\n        string userName;\r\n        string password;\r\n        bool isVerified;\r\n    }\r\n\r\n    event User(\r\n        address walletId,\r\n        address userContractAddress,\r\n        string userName,\r\n        string password,\r\n        bool isVerified\r\n    );\r\n\r\n    mapping(address => UserStruct) public userStructs;\r\n    mapping(string => address) public userNameToWalletId;\r\n\r\n    function createUser(\r\n        address _walletId,\r\n        string memory _userName,\r\n        string memory _password\r\n    ) public {\r\n        address uca = address(new UserContract(_walletId));\r\n        userStructs[_walletId].walletId = _walletId;\r\n        userStructs[_walletId].userName = _userName;\r\n        userStructs[_walletId].password = _password;\r\n        userStructs[_walletId].isVerified = false;\r\n        userStructs[_walletId].userContractAddress = uca;\r\n        userCounts++;\r\n        userNameToWalletId[_userName] = _walletId;\r\n        emit User(_walletId, uca, _userName, _password, false);\r\n    }\r\n\r\n    function getUser(address _walletId)\r\n        public\r\n        view\r\n        returns (\r\n            address,\r\n            string memory,\r\n            string memory,\r\n            bool,\r\n            address\r\n        )\r\n    {\r\n        if (userStructs[_walletId].walletId == address(0)) {\r\n            return (\r\n                address(0),\r\n                \"account does not exist\",\r\n                \"\",\r\n                false,\r\n                address(0)\r\n            );\r\n        }\r\n        return (\r\n            userStructs[_walletId].walletId,\r\n            userStructs[_walletId].userName,\r\n            userStructs[_walletId].password,\r\n            userStructs[_walletId].isVerified,\r\n            userStructs[_walletId].userContractAddress\r\n        );\r\n    }\r\n\r\n    function getUserByUserName(string memory _userName)\r\n        public\r\n        view\r\n        returns (\r\n            address,\r\n            string memory,\r\n            string memory,\r\n            bool,\r\n            address\r\n        )\r\n    {\r\n        address _walletId = userNameToWalletId[_userName];\r\n        if (userStructs[_walletId].walletId == address(0)) {\r\n            return (\r\n                address(0),\r\n                \"account does not exist\",\r\n                \"\",\r\n                false,\r\n                address(0)\r\n            );\r\n        }\r\n        return (\r\n            userStructs[_walletId].walletId,\r\n            userStructs[_walletId].userName,\r\n            userStructs[_walletId].password,\r\n            userStructs[_walletId].isVerified,\r\n            userStructs[_walletId].userContractAddress\r\n        );\r\n    }\r\n\r\n    function getUserCount() public view returns (uint256) {\r\n        return userCounts;\r\n    }\r\n\r\n    function getVerifiedUserCount() public view returns (uint256) {\r\n        return verifiedUserCounts;\r\n    }\r\n\r\n    function verifyUser(address _walletId) public {\r\n        userStructs[_walletId].isVerified = true;\r\n        verifiedUserCounts++;\r\n    }\r\n\r\n    function makePost(\r\n        address _walletId,\r\n        string memory _postContent,\r\n        string memory timeStamp\r\n    ) public {\r\n        UserContract uc = UserContract(\r\n            userStructs[_walletId].userContractAddress\r\n        );\r\n        uc.createPost(\r\n            _postContent,\r\n            timeStamp,\r\n            userStructs[_walletId].userName,\r\n            userStructs[_walletId].isVerified\r\n        );\r\n    }\r\n\r\n    function makeComment(\r\n        uint256 _postId,\r\n        string memory _postOwner,\r\n        string memory _commentContent,\r\n        string memory timeStamp,\r\n        address _commenterWalletId\r\n    ) public {\r\n        address _walletId = userNameToWalletId[_postOwner];\r\n        UserContract uc = UserContract(\r\n            userStructs[_walletId].userContractAddress\r\n        );\r\n        string memory _commenter = userStructs[_commenterWalletId].userName;\r\n        uc.createComment(timeStamp, _commentContent, _commenter, _postId);\r\n    }\r\n\r\n    function getCommnents(uint256 _postId, string memory _postOwner)\r\n        public\r\n        view\r\n        returns (Comments.CommentStruct[] memory)\r\n    {\r\n        address _walletId = userNameToWalletId[_postOwner];\r\n        UserContract uc = UserContract(\r\n            userStructs[_walletId].userContractAddress\r\n        );\r\n        return uc.getComments(_postId);\r\n    }\r\n\r\n    function likePost(\r\n        string memory _userName,\r\n        uint256 _postId,\r\n        address _myWalletId\r\n    ) public {\r\n        address _walletId = userNameToWalletId[_userName];\r\n        UserContract uc = UserContract(\r\n            userStructs[_walletId].userContractAddress\r\n        );\r\n        uc.likePost(_postId);\r\n        UserContract ucf = UserContract(\r\n            userStructs[_myWalletId].userContractAddress\r\n        );\r\n        // concat postId and userName\r\n        // string memory _postIdAndUserName = string(\r\n        //     abi.encodePacked(_postId, \" \", _userName)\r\n        // );\r\n        ucf.updateMylikes(_postId, _userName);\r\n    }\r\n\r\n    function followUser(address _walletId, address _followingId) public {\r\n        UserContract uc = UserContract(\r\n            userStructs[_walletId].userContractAddress\r\n        );\r\n        uc.followSomeone(_followingId);\r\n        UserContract ucf = UserContract(\r\n            userStructs[_followingId].userContractAddress\r\n        );\r\n        ucf.updateFollowersCount();\r\n    }\r\n\r\n    function getFollowing(address _walletId)\r\n        public\r\n        view\r\n        returns (address[] memory)\r\n    {\r\n        UserContract uc = UserContract(\r\n            userStructs[_walletId].userContractAddress\r\n        );\r\n        return uc.getFollowing();\r\n    }\r\n\r\n    function getFollowersCount(address _walletId)\r\n        public\r\n        view\r\n        returns (uint256)\r\n    {\r\n        UserContract uc = UserContract(\r\n            userStructs[_walletId].userContractAddress\r\n        );\r\n        return uc.getFollowersCount();\r\n    }\r\n\r\n    function getPostCount(address _walletId) public view returns (uint256) {\r\n        UserContract uc = UserContract(\r\n            userStructs[_walletId].userContractAddress\r\n        );\r\n        return uc.getPostCount();\r\n    }\r\n\r\n    function getCommentCount(address _walletId) public view returns (uint256) {\r\n        UserContract uc = UserContract(\r\n            userStructs[_walletId].userContractAddress\r\n        );\r\n        return uc.getCommentCount();\r\n    }\r\n\r\n    function getLikeCount(address _walletId) public view returns (uint256) {\r\n        UserContract uc = UserContract(\r\n            userStructs[_walletId].userContractAddress\r\n        );\r\n        return uc.getLikeCount();\r\n    }\r\n\r\n    function getMyLikes(address _walletId)\r\n        public\r\n        view\r\n        returns (UserContract.myLikeStruct[] memory)\r\n    {\r\n        UserContract uc = UserContract(\r\n            userStructs[_walletId].userContractAddress\r\n        );\r\n        return uc.getMyLikes();\r\n    }\r\n}\r\n\r\n///////////////////////////////////////////////////////////////////////////////////////////////////////////////////////////////////////\r\n\r\ncontract UserContract {\r\n    uint256 postCounts;\r\n    uint256 commentCounts;\r\n    uint256 likeCounts;\r\n    address owner;\r\n    uint256 followersCount;\r\n    address[] following;\r\n    myLikeStruct[] myLikes;\r\n\r\n    constructor(address walletId) {\r\n        owner = walletId;\r\n        postCounts = 0;\r\n        commentCounts = 0;\r\n        likeCounts = 0;\r\n    }\r\n\r\n    struct PostStruct {\r\n        uint256 postId;\r\n        string postContent;\r\n        uint256 likeCount;\r\n        uint256 commentCount;\r\n        string timeStamp;\r\n        string userName;\r\n        bool isVerified;\r\n        address commentContractAddress;\r\n    }\r\n\r\n    struct myLikeStruct {\r\n        uint256 postId;\r\n        string userName;\r\n    }\r\n    event Post(\r\n        uint256 postId,\r\n        string postContent,\r\n        uint256 likeCount,\r\n        uint256 commentCount,\r\n        string timeStamp,\r\n        string userName,\r\n        bool isVerified,\r\n        address commentContractAddress\r\n    );\r\n\r\n    event Like(uint256 likeCount);\r\n\r\n    mapping(uint256 => PostStruct) public postStructs;\r\n\r\n    // mapping(uint256 => CommentStruct) public commentStructs;\r\n\r\n    function createPost(\r\n        string memory _postContent,\r\n        string memory _timeStamp,\r\n        string memory userName,\r\n        bool isVerified\r\n    ) public {\r\n        postStructs[postCounts].postId = postCounts;\r\n        postStructs[postCounts].postContent = _postContent;\r\n        postStructs[postCounts].likeCount = 0;\r\n        postStructs[postCounts].commentCount = 0;\r\n        postStructs[postCounts].timeStamp = _timeStamp;\r\n        postStructs[postCounts].userName = userName;\r\n        postStructs[postCounts].isVerified = isVerified;\r\n        postStructs[postCounts].commentContractAddress = address(\r\n            new Comments()\r\n        );\r\n        postCounts++;\r\n        emit Post(\r\n            postCounts,\r\n            _postContent,\r\n            0,\r\n            0,\r\n            _timeStamp,\r\n            userName,\r\n            isVerified,\r\n            address(new Comments())\r\n        );\r\n    }\r\n\r\n    function createComment(\r\n        string memory _timeStamp,\r\n        string memory _commentContent,\r\n        string memory _commenterName,\r\n        uint256 _postId\r\n    ) public {\r\n        Comments cc = Comments(postStructs[_postId].commentContractAddress);\r\n        cc.createComment(_timeStamp, _commentContent, _commenterName);\r\n    }\r\n\r\n    function getComments(uint256 _postId)\r\n        public\r\n        view\r\n        returns (Comments.CommentStruct[] memory)\r\n    {\r\n        Comments cc = Comments(postStructs[_postId].commentContractAddress);\r\n        return cc.getComments();\r\n    }\r\n\r\n    function likePost(uint256 _postId) public {\r\n        postStructs[_postId].likeCount++;\r\n        emit Like(postStructs[_postId].likeCount);\r\n    }\r\n\r\n    function updateMylikes(uint256 _postId, string memory _userName) public {\r\n        myLikes.push(myLikeStruct(_postId, _userName));\r\n    }\r\n\r\n    function followSomeone(address _walletId) public {\r\n        following.push(_walletId);\r\n    }\r\n\r\n    function updateFollowersCount() public {\r\n        followersCount++;\r\n    }\r\n\r\n    function getFollowersCount() public view returns (uint256) {\r\n        return followersCount;\r\n    }\r\n\r\n    function getFollowing() public view returns (address[] memory) {\r\n        return following;\r\n    }\r\n\r\n    function getPosts() public view returns (PostStruct[] memory) {\r\n        PostStruct[] memory posts = new PostStruct[](postCounts);\r\n        for (uint256 i = 0; i < postCounts; i++) {\r\n            posts[i] = postStructs[i];\r\n        }\r\n        return posts;\r\n    }\r\n\r\n    // function getComments() public view returns (CommentStruct[] memory) {\r\n\r\n    // }\r\n\r\n    function getPostCount() public view returns (uint256) {\r\n        return postCounts;\r\n    }\r\n\r\n    function getCommentCount() public view returns (uint256) {\r\n        return commentCounts;\r\n    }\r\n\r\n    function getLikeCount() public view returns (uint256) {\r\n        return likeCounts;\r\n    }\r\n\r\n    function getMyLikes() public view returns (myLikeStruct[] memory) {\r\n        return myLikes;\r\n    }\r\n}\r\n\r\ncontract Comments {\r\n    uint256 commentCounts;\r\n\r\n    constructor() {\r\n        commentCounts = 0;\r\n    }\r\n\r\n    struct CommentStruct {\r\n        uint256 commentId;\r\n        string commentContent;\r\n        string timeStamp;\r\n        string commenterName;\r\n    }\r\n    event Comment(\r\n        string commentContent,\r\n        string timeStamp,\r\n        string commenterName\r\n    );\r\n    mapping(uint256 => CommentStruct) public commentStructs;\r\n\r\n    function createComment(\r\n        string memory _timeStamp,\r\n        string memory _commentContent,\r\n        string memory _commenterName\r\n    ) public {\r\n        commentStructs[commentCounts].commentId = commentCounts;\r\n        commentStructs[commentCounts].commentContent = _commentContent;\r\n        commentStructs[commentCounts].timeStamp = _timeStamp;\r\n        commentStructs[commentCounts].commenterName = _commenterName;\r\n        commentCounts++;\r\n        emit Comment(_commentContent, _timeStamp, _commenterName);\r\n    }\r\n\r\n    function getComments() public view returns (CommentStruct[] memory) {\r\n        CommentStruct[] memory comments = new CommentStruct[](commentCounts);\r\n        for (uint256 i = 0; i < commentCounts; i++) {\r\n            comments[i] = commentStructs[i];\r\n        }\r\n        return comments;\r\n    }\r\n}\r\n",
  "sourcePath": "D:\\Users\\Desktop\\BOOOKS\\SEMESTER 7\\BCT\\Project\\DE-Verse\\smartcontract\\contracts\\Main.sol",
  "compiler": {
    "name": "solc",
    "version": "0.8.17+commit.8df45f5f.Emscripten.clang"
  },
  "schemaVersion": "3.4.10",
  "updatedAt": "2022-12-23T22:20:57.453Z",
  "devdoc": {
    "kind": "dev",
    "methods": {},
    "version": 1
  },
  "userdoc": {
    "kind": "user",
    "methods": {},
    "version": 1
  }
}