{
  "contractName": "Maincontract",
  "abi": [
    {
      "inputs": [],
      "stateMutability": "nonpayable",
      "type": "constructor"
    },
    {
      "anonymous": false,
      "inputs": [
        {
          "indexed": false,
          "internalType": "uint256",
          "name": "postId",
          "type": "uint256"
        },
        {
          "indexed": false,
          "internalType": "string",
          "name": "postContent",
          "type": "string"
        },
        {
          "indexed": false,
          "internalType": "uint256",
          "name": "likeCount",
          "type": "uint256"
        },
        {
          "indexed": false,
          "internalType": "uint256",
          "name": "commentCount",
          "type": "uint256"
        },
        {
          "indexed": false,
          "internalType": "string",
          "name": "timeStamp",
          "type": "string"
        },
        {
          "indexed": false,
          "internalType": "string",
          "name": "userName",
          "type": "string"
        },
        {
          "indexed": false,
          "internalType": "bool",
          "name": "isVerified",
          "type": "bool"
        }
      ],
      "name": "Post",
      "type": "event"
    },
    {
      "anonymous": false,
      "inputs": [
        {
          "indexed": false,
          "internalType": "address",
          "name": "walletId",
          "type": "address"
        },
        {
          "indexed": false,
          "internalType": "address",
          "name": "userContractAddress",
          "type": "address"
        },
        {
          "indexed": false,
          "internalType": "string",
          "name": "userName",
          "type": "string"
        },
        {
          "indexed": false,
          "internalType": "string",
          "name": "password",
          "type": "string"
        },
        {
          "indexed": false,
          "internalType": "bool",
          "name": "isVerified",
          "type": "bool"
        }
      ],
      "name": "User",
      "type": "event"
    },
    {
      "inputs": [
        {
          "internalType": "uint256",
          "name": "",
          "type": "uint256"
        }
      ],
      "name": "numberToWalletId",
      "outputs": [
        {
          "internalType": "address",
          "name": "",
          "type": "address"
        }
      ],
      "stateMutability": "view",
      "type": "function",
      "constant": true
    },
    {
      "inputs": [
        {
          "internalType": "string",
          "name": "",
          "type": "string"
        }
      ],
      "name": "userNameToWalletId",
      "outputs": [
        {
          "internalType": "address",
          "name": "",
          "type": "address"
        }
      ],
      "stateMutability": "view",
      "type": "function",
      "constant": true
    },
    {
      "inputs": [
        {
          "internalType": "uint256",
          "name": "",
          "type": "uint256"
        }
      ],
      "name": "userNames",
      "outputs": [
        {
          "internalType": "string",
          "name": "",
          "type": "string"
        }
      ],
      "stateMutability": "view",
      "type": "function",
      "constant": true
    },
    {
      "inputs": [
        {
          "internalType": "address",
          "name": "",
          "type": "address"
        }
      ],
      "name": "userStructs",
      "outputs": [
        {
          "internalType": "address",
          "name": "walletId",
          "type": "address"
        },
        {
          "internalType": "address",
          "name": "userContractAddress",
          "type": "address"
        },
        {
          "internalType": "string",
          "name": "userName",
          "type": "string"
        },
        {
          "internalType": "string",
          "name": "password",
          "type": "string"
        },
        {
          "internalType": "bool",
          "name": "isVerified",
          "type": "bool"
        },
        {
          "internalType": "uint256",
          "name": "creationBlock",
          "type": "uint256"
        }
      ],
      "stateMutability": "view",
      "type": "function",
      "constant": true
    },
    {
      "inputs": [
        {
          "internalType": "address",
          "name": "_walletId",
          "type": "address"
        },
        {
          "internalType": "string",
          "name": "_userName",
          "type": "string"
        },
        {
          "internalType": "string",
          "name": "_password",
          "type": "string"
        }
      ],
      "name": "createUser",
      "outputs": [],
      "stateMutability": "nonpayable",
      "type": "function"
    },
    {
      "inputs": [],
      "name": "getAllUserNames",
      "outputs": [
        {
          "internalType": "string[]",
          "name": "",
          "type": "string[]"
        }
      ],
      "stateMutability": "view",
      "type": "function",
      "constant": true
    },
    {
      "inputs": [],
      "name": "checkAndVerifyUser",
      "outputs": [],
      "stateMutability": "nonpayable",
      "type": "function"
    },
    {
      "inputs": [
        {
          "internalType": "address",
          "name": "_walletId",
          "type": "address"
        }
      ],
      "name": "getUser",
      "outputs": [
        {
          "internalType": "address",
          "name": "",
          "type": "address"
        },
        {
          "internalType": "string",
          "name": "",
          "type": "string"
        },
        {
          "internalType": "string",
          "name": "",
          "type": "string"
        },
        {
          "internalType": "bool",
          "name": "",
          "type": "bool"
        },
        {
          "internalType": "address",
          "name": "",
          "type": "address"
        }
      ],
      "stateMutability": "view",
      "type": "function",
      "constant": true
    },
    {
      "inputs": [
        {
          "internalType": "string",
          "name": "_userName",
          "type": "string"
        }
      ],
      "name": "getUserByUserName",
      "outputs": [
        {
          "internalType": "address",
          "name": "",
          "type": "address"
        },
        {
          "internalType": "string",
          "name": "",
          "type": "string"
        },
        {
          "internalType": "string",
          "name": "",
          "type": "string"
        },
        {
          "internalType": "bool",
          "name": "",
          "type": "bool"
        },
        {
          "internalType": "address",
          "name": "",
          "type": "address"
        }
      ],
      "stateMutability": "view",
      "type": "function",
      "constant": true
    },
    {
      "inputs": [],
      "name": "getUserCount",
      "outputs": [
        {
          "internalType": "uint256",
          "name": "",
          "type": "uint256"
        }
      ],
      "stateMutability": "view",
      "type": "function",
      "constant": true
    },
    {
      "inputs": [],
      "name": "getVerifiedUserCount",
      "outputs": [
        {
          "internalType": "uint256",
          "name": "",
          "type": "uint256"
        }
      ],
      "stateMutability": "view",
      "type": "function",
      "constant": true
    },
    {
      "inputs": [
        {
          "internalType": "address",
          "name": "_walletId",
          "type": "address"
        },
        {
          "internalType": "string",
          "name": "_postContent",
          "type": "string"
        },
        {
          "internalType": "string",
          "name": "timeStamp",
          "type": "string"
        }
      ],
      "name": "makePost",
      "outputs": [],
      "stateMutability": "nonpayable",
      "type": "function"
    },
    {
      "inputs": [
        {
          "internalType": "string",
          "name": "_comment",
          "type": "string"
        },
        {
          "internalType": "string",
          "name": "_postOwner",
          "type": "string"
        },
        {
          "internalType": "uint256",
          "name": "_postId",
          "type": "uint256"
        }
      ],
      "name": "makeComment",
      "outputs": [],
      "stateMutability": "nonpayable",
      "type": "function"
    },
    {
      "inputs": [
        {
          "internalType": "string",
          "name": "_postOwner",
          "type": "string"
        }
      ],
      "name": "getComments",
      "outputs": [
        {
          "internalType": "string[]",
          "name": "",
          "type": "string[]"
        }
      ],
      "stateMutability": "view",
      "type": "function",
      "constant": true
    },
    {
      "inputs": [
        {
          "internalType": "string",
          "name": "_userName",
          "type": "string"
        },
        {
          "internalType": "uint256",
          "name": "_postId",
          "type": "uint256"
        },
        {
          "internalType": "address",
          "name": "_myWalletId",
          "type": "address"
        }
      ],
      "name": "likePost",
      "outputs": [],
      "stateMutability": "nonpayable",
      "type": "function"
    },
    {
      "inputs": [
        {
          "internalType": "address",
          "name": "_walletId",
          "type": "address"
        },
        {
          "internalType": "address",
          "name": "_followingId",
          "type": "address"
        }
      ],
      "name": "followUser",
      "outputs": [],
      "stateMutability": "nonpayable",
      "type": "function"
    },
    {
      "inputs": [
        {
          "internalType": "address",
          "name": "_walletId",
          "type": "address"
        }
      ],
      "name": "getFollowing",
      "outputs": [
        {
          "internalType": "address[]",
          "name": "",
          "type": "address[]"
        }
      ],
      "stateMutability": "view",
      "type": "function",
      "constant": true
    },
    {
      "inputs": [
        {
          "internalType": "address",
          "name": "_walletId",
          "type": "address"
        }
      ],
      "name": "getFollowersCount",
      "outputs": [
        {
          "internalType": "uint256",
          "name": "",
          "type": "uint256"
        }
      ],
      "stateMutability": "view",
      "type": "function",
      "constant": true
    },
    {
      "inputs": [
        {
          "internalType": "address",
          "name": "_walletId",
          "type": "address"
        }
      ],
      "name": "getPosts",
      "outputs": [
        {
          "components": [
            {
              "internalType": "uint256",
              "name": "postId",
              "type": "uint256"
            },
            {
              "internalType": "string",
              "name": "postContent",
              "type": "string"
            },
            {
              "internalType": "uint256",
              "name": "likeCount",
              "type": "uint256"
            },
            {
              "internalType": "uint256",
              "name": "commentCount",
              "type": "uint256"
            },
            {
              "internalType": "string",
              "name": "timeStamp",
              "type": "string"
            },
            {
              "internalType": "string",
              "name": "userName",
              "type": "string"
            },
            {
              "internalType": "bool",
              "name": "isVerified",
              "type": "bool"
            }
          ],
          "internalType": "struct UserContract.PostStruct[]",
          "name": "",
          "type": "tuple[]"
        }
      ],
      "stateMutability": "view",
      "type": "function",
      "constant": true
    },
    {
      "inputs": [],
      "name": "getAllUsersAddress",
      "outputs": [
        {
          "internalType": "address[]",
          "name": "",
          "type": "address[]"
        }
      ],
      "stateMutability": "view",
      "type": "function",
      "constant": true
    },
    {
      "inputs": [
        {
          "internalType": "address",
          "name": "_walletId",
          "type": "address"
        }
      ],
      "name": "getCommentCount",
      "outputs": [
        {
          "internalType": "uint256",
          "name": "",
          "type": "uint256"
        }
      ],
      "stateMutability": "view",
      "type": "function",
      "constant": true
    },
    {
      "inputs": [
        {
          "internalType": "address",
          "name": "_walletId",
          "type": "address"
        }
      ],
      "name": "getLikeCount",
      "outputs": [
        {
          "internalType": "uint256",
          "name": "",
          "type": "uint256"
        }
      ],
      "stateMutability": "view",
      "type": "function",
      "constant": true
    },
    {
      "inputs": [
        {
          "internalType": "address",
          "name": "_walletId",
          "type": "address"
        }
      ],
      "name": "getMyLikes",
      "outputs": [
        {
          "components": [
            {
              "internalType": "uint256",
              "name": "postId",
              "type": "uint256"
            },
            {
              "internalType": "string",
              "name": "userName",
              "type": "string"
            }
          ],
          "internalType": "struct UserContract.myLikeStruct[]",
          "name": "",
          "type": "tuple[]"
        }
      ],
      "stateMutability": "view",
      "type": "function",
      "constant": true
    }
  ],
  "bytecode": "0x608060405234801561001057600080fd5b50600080819055506000600181905550615f558061002f6000396000f3fe60806040523480156200001157600080fd5b50600436106200016c5760003560e01c80635f329fb211620000d5578063b5cb15f71162000087578063b5cb15f7146200047c578063be6c8987146200049e578063be9a09cf14620004d8578063cce8f1ae14620004f8578063d8236dff1462000504578063e94456a7146200053a576200016c565b80635f329fb2146200035c5780636f77926b146200039257806370c63fcc14620003cc57806380cf7dee1462000402578063840f65511462000438578063a9b2e715146200045a576200016c565b80633eaf1c27116200012f5780633eaf1c2714620002585780634c787ce114620002785780634caf9d0b146200029a5780634ceb48fd14620002d05780634d1a307214620002f05780634ebd3aea1462000326576200016c565b80630b6b553714620001715780630c8273e614620001a757806319447eb614620001c757806325e9ccf914620002025780633c4100861462000238575b600080fd5b6200018f6004803603810190620001899190620027aa565b62000570565b6040516200019e919062002821565b60405180910390f35b620001c56004803603810190620001bf91906200286f565b620005b0565b005b620001e56004803603810190620001df9190620028b6565b6200075f565b604051620001f996959493929190620029b0565b60405180910390f35b6200022060048036038101906200021a9190620028b6565b62000908565b6040516200022f919062002a2b565b60405180910390f35b62000256600480360381019062000250919062002b99565b620009ea565b005b62000276600480360381019062000270919062002c33565b62000b66565b005b6200028262000d6b565b60405162000291919062002d7c565b60405180910390f35b620002b86004803603810190620002b29190620028b6565b62000dfb565b604051620002c7919062002f9c565b60405180910390f35b620002ee6004803603810190620002e8919062002b99565b62000ee3565b005b6200030e6004803603810190620003089190620028b6565b620015ff565b6040516200031d9190620030d1565b60405180910390f35b6200034460048036038101906200033e9190620027aa565b620016e7565b604051620003539190620030f5565b60405180910390f35b6200037a6004803603810190620003749190620028b6565b6200179c565b60405162000389919062002a2b565b60405180910390f35b620003b06004803603810190620003aa9190620028b6565b6200187e565b604051620003c395949392919062003119565b60405180910390f35b620003ea6004803603810190620003e4919062003184565b62001c52565b604051620003f99190620032a5565b60405180910390f35b6200042060048036038101906200041a919062003184565b62001d80565b6040516200042f919062002821565b60405180910390f35b6200044262001dc9565b604051620004519190620032a5565b60405180910390f35b6200046462001eac565b60405162000473919062002a2b565b60405180910390f35b6200048662001eb6565b60405162000495919062002a2b565b60405180910390f35b620004bc6004803603810190620004b6919062003184565b62001ebf565b604051620004cf95949392919062003119565b60405180910390f35b620004f66004803603810190620004f09190620032c9565b620022da565b005b6200050262002408565b005b6200052260048036038101906200051c9190620028b6565b62002583565b60405162000531919062002d7c565b60405180910390f35b620005586004803603810190620005529190620028b6565b6200266b565b60405162000567919062002a2b565b60405180910390f35b600481815481106200058157600080fd5b906000526020600020016000915054906101000a900473ffffffffffffffffffffffffffffffffffffffff1681565b6000600260008473ffffffffffffffffffffffffffffffffffffffff1673ffffffffffffffffffffffffffffffffffffffff16815260200190815260200160002060010160009054906101000a900473ffffffffffffffffffffffffffffffffffffffff1690508073ffffffffffffffffffffffffffffffffffffffff166399c50dd1836040518263ffffffff1660e01b815260040162000652919062002821565b600060405180830381600087803b1580156200066d57600080fd5b505af115801562000682573d6000803e3d6000fd5b505050506000600260008473ffffffffffffffffffffffffffffffffffffffff1673ffffffffffffffffffffffffffffffffffffffff16815260200190815260200160002060010160009054906101000a900473ffffffffffffffffffffffffffffffffffffffff1690508073ffffffffffffffffffffffffffffffffffffffff166360f2e3786040518163ffffffff1660e01b8152600401600060405180830381600087803b1580156200073657600080fd5b505af11580156200074b573d6000803e3d6000fd5b505050506200075962002408565b50505050565b60026020528060005260406000206000915090508060000160009054906101000a900473ffffffffffffffffffffffffffffffffffffffff16908060010160009054906101000a900473ffffffffffffffffffffffffffffffffffffffff1690806002018054620007d09062003392565b80601f0160208091040260200160405190810160405280929190818152602001828054620007fe9062003392565b80156200084f5780601f1062000823576101008083540402835291602001916200084f565b820191906000526020600020905b8154815290600101906020018083116200083157829003601f168201915b505050505090806003018054620008669062003392565b80601f0160208091040260200160405190810160405280929190818152602001828054620008949062003392565b8015620008e55780601f10620008b957610100808354040283529160200191620008e5565b820191906000526020600020905b815481529060010190602001808311620008c757829003601f168201915b5050505050908060040160009054906101000a900460ff16908060050154905086565b600080600260008473ffffffffffffffffffffffffffffffffffffffff1673ffffffffffffffffffffffffffffffffffffffff16815260200190815260200160002060010160009054906101000a900473ffffffffffffffffffffffffffffffffffffffff1690508073ffffffffffffffffffffffffffffffffffffffff1663e22bce276040518163ffffffff1660e01b8152600401602060405180830381865afa158015620009bc573d6000803e3d6000fd5b505050506040513d601f19601f82011682018060405250810190620009e29190620033de565b915050919050565b6000600260008573ffffffffffffffffffffffffffffffffffffffff1673ffffffffffffffffffffffffffffffffffffffff16815260200190815260200160002060010160009054906101000a900473ffffffffffffffffffffffffffffffffffffffff1690508073ffffffffffffffffffffffffffffffffffffffff1663e71ef23d8484600260008973ffffffffffffffffffffffffffffffffffffffff1673ffffffffffffffffffffffffffffffffffffffff168152602001908152602001600020600201600260008a73ffffffffffffffffffffffffffffffffffffffff1673ffffffffffffffffffffffffffffffffffffffff16815260200190815260200160002060040160009054906101000a900460ff166040518563ffffffff1660e01b815260040162000b229493929190620034b5565b600060405180830381600087803b15801562000b3d57600080fd5b505af115801562000b52573d6000803e3d6000fd5b5050505062000b6062002408565b50505050565b600060038460405162000b7a919062003559565b908152602001604051809103902060009054906101000a900473ffffffffffffffffffffffffffffffffffffffff1690506000600260008373ffffffffffffffffffffffffffffffffffffffff1673ffffffffffffffffffffffffffffffffffffffff16815260200190815260200160002060010160009054906101000a900473ffffffffffffffffffffffffffffffffffffffff1690508073ffffffffffffffffffffffffffffffffffffffff1663725009d3856040518263ffffffff1660e01b815260040162000c4d919062002a2b565b600060405180830381600087803b15801562000c6857600080fd5b505af115801562000c7d573d6000803e3d6000fd5b505050506000600260008573ffffffffffffffffffffffffffffffffffffffff1673ffffffffffffffffffffffffffffffffffffffff16815260200190815260200160002060010160009054906101000a900473ffffffffffffffffffffffffffffffffffffffff1690508073ffffffffffffffffffffffffffffffffffffffff1663eb058a2f86886040518363ffffffff1660e01b815260040162000d2592919062003572565b600060405180830381600087803b15801562000d4057600080fd5b505af115801562000d55573d6000803e3d6000fd5b5050505062000d6362002408565b505050505050565b6060600480548060200260200160405190810160405280929190818152602001828054801562000df157602002820191906000526020600020905b8160009054906101000a900473ffffffffffffffffffffffffffffffffffffffff1673ffffffffffffffffffffffffffffffffffffffff168152602001906001019080831162000da6575b5050505050905090565b60606000600260008473ffffffffffffffffffffffffffffffffffffffff1673ffffffffffffffffffffffffffffffffffffffff16815260200190815260200160002060010160009054906101000a900473ffffffffffffffffffffffffffffffffffffffff1690508073ffffffffffffffffffffffffffffffffffffffff166341f3004a6040518163ffffffff1660e01b8152600401600060405180830381865afa15801562000eb0573d6000803e3d6000fd5b505050506040513d6000823e3d601f19601f8201168201806040525081019062000edb91906200387f565b915050919050565b600073ffffffffffffffffffffffffffffffffffffffff16600260008573ffffffffffffffffffffffffffffffffffffffff1673ffffffffffffffffffffffffffffffffffffffff16815260200190815260200160002060000160009054906101000a900473ffffffffffffffffffffffffffffffffffffffff1673ffffffffffffffffffffffffffffffffffffffff161462000fb7576040517f08c379a000000000000000000000000000000000000000000000000000000000815260040162000fae9062003920565b60405180910390fd5b600073ffffffffffffffffffffffffffffffffffffffff1660038360405162000fe1919062003559565b908152602001604051809103902060009054906101000a900473ffffffffffffffffffffffffffffffffffffffff1673ffffffffffffffffffffffffffffffffffffffff161462001069576040517f08c379a0000000000000000000000000000000000000000000000000000000008152600401620010609062003920565b60405180910390fd5b60005b60048054905081101562001142578373ffffffffffffffffffffffffffffffffffffffff1660048281548110620010a857620010a762003942565b5b9060005260206000200160009054906101000a900473ffffffffffffffffffffffffffffffffffffffff1673ffffffffffffffffffffffffffffffffffffffff16036200112c576040517f08c379a0000000000000000000000000000000000000000000000000000000008152600401620011239062003920565b60405180910390fd5b80806200113990620039a0565b9150506200106c565b5060005b6005805490508110156200121f578260405160200162001167919062003559565b604051602081830303815290604052805190602001206005828154811062001194576200119362003942565b5b90600052602060002001604051602001620011b0919062003a7c565b604051602081830303815290604052805190602001200362001209576040517f08c379a0000000000000000000000000000000000000000000000000000000008152600401620012009062003920565b60405180910390fd5b80806200121690620039a0565b91505062001146565b5060008360405162001231906200274d565b6200123d919062002821565b604051809103906000f0801580156200125a573d6000803e3d6000fd5b50905083600260008673ffffffffffffffffffffffffffffffffffffffff1673ffffffffffffffffffffffffffffffffffffffff16815260200190815260200160002060000160006101000a81548173ffffffffffffffffffffffffffffffffffffffff021916908373ffffffffffffffffffffffffffffffffffffffff16021790555082600260008673ffffffffffffffffffffffffffffffffffffffff1673ffffffffffffffffffffffffffffffffffffffff16815260200190815260200160002060020190816200132f919062003c52565b5081600260008673ffffffffffffffffffffffffffffffffffffffff1673ffffffffffffffffffffffffffffffffffffffff168152602001908152602001600020600301908162001381919062003c52565b506000600260008673ffffffffffffffffffffffffffffffffffffffff1673ffffffffffffffffffffffffffffffffffffffff16815260200190815260200160002060040160006101000a81548160ff02191690831515021790555080600260008673ffffffffffffffffffffffffffffffffffffffff1673ffffffffffffffffffffffffffffffffffffffff16815260200190815260200160002060010160006101000a81548173ffffffffffffffffffffffffffffffffffffffff021916908373ffffffffffffffffffffffffffffffffffffffff16021790555043600260008673ffffffffffffffffffffffffffffffffffffffff1673ffffffffffffffffffffffffffffffffffffffff1681526020019081526020016000206005018190555083600384604051620014b8919062003559565b908152602001604051809103902060006101000a81548173ffffffffffffffffffffffffffffffffffffffff021916908373ffffffffffffffffffffffffffffffffffffffff1602179055506005839080600181540180825580915050600190039060005260206000200160009091909190915090816200153a919062003c52565b506004849080600181540180825580915050600190039060005260206000200160009091909190916101000a81548173ffffffffffffffffffffffffffffffffffffffff021916908373ffffffffffffffffffffffffffffffffffffffff160217905550600080815480929190620015b290620039a0565b91905055507f2041b7a4351ac706257b308fda32769804e2afadd729e9b0ef211b0dd03312fc848285856000604051620015f195949392919062003d39565b60405180910390a150505050565b60606000600260008473ffffffffffffffffffffffffffffffffffffffff1673ffffffffffffffffffffffffffffffffffffffff16815260200190815260200160002060010160009054906101000a900473ffffffffffffffffffffffffffffffffffffffff1690508073ffffffffffffffffffffffffffffffffffffffff1663ecf0a45d6040518163ffffffff1660e01b8152600401600060405180830381865afa158015620016b4573d6000803e3d6000fd5b505050506040513d6000823e3d601f19601f82011682018060405250810190620016df919062003f13565b915050919050565b60058181548110620016f857600080fd5b906000526020600020016000915090508054620017159062003392565b80601f0160208091040260200160405190810160405280929190818152602001828054620017439062003392565b8015620017945780601f10620017685761010080835404028352916020019162001794565b820191906000526020600020905b8154815290600101906020018083116200177657829003601f168201915b505050505081565b600080600260008473ffffffffffffffffffffffffffffffffffffffff1673ffffffffffffffffffffffffffffffffffffffff16815260200190815260200160002060010160009054906101000a900473ffffffffffffffffffffffffffffffffffffffff1690508073ffffffffffffffffffffffffffffffffffffffff166316e31ea36040518163ffffffff1660e01b8152600401602060405180830381865afa15801562001850573d6000803e3d6000fd5b505050506040513d601f19601f82011682018060405250810190620018769190620033de565b915050919050565b6000606080600080600073ffffffffffffffffffffffffffffffffffffffff16600260008873ffffffffffffffffffffffffffffffffffffffff1673ffffffffffffffffffffffffffffffffffffffff16815260200190815260200160002060000160009054906101000a900473ffffffffffffffffffffffffffffffffffffffff1673ffffffffffffffffffffffffffffffffffffffff16036200197c5760008060006040518060400160405280601681526020017f6163636f756e7420646f6573206e6f742065786973740000000000000000000081525091906040518060200160405280600081525091909450945094509450945062001c49565b600260008773ffffffffffffffffffffffffffffffffffffffff1673ffffffffffffffffffffffffffffffffffffffff16815260200190815260200160002060000160009054906101000a900473ffffffffffffffffffffffffffffffffffffffff16600260008873ffffffffffffffffffffffffffffffffffffffff1673ffffffffffffffffffffffffffffffffffffffff168152602001908152602001600020600201600260008973ffffffffffffffffffffffffffffffffffffffff1673ffffffffffffffffffffffffffffffffffffffff168152602001908152602001600020600301600260008a73ffffffffffffffffffffffffffffffffffffffff1673ffffffffffffffffffffffffffffffffffffffff16815260200190815260200160002060040160009054906101000a900460ff16600260008b73ffffffffffffffffffffffffffffffffffffffff1673ffffffffffffffffffffffffffffffffffffffff16815260200190815260200160002060010160009054906101000a900473ffffffffffffffffffffffffffffffffffffffff1683805462001b249062003392565b80601f016020809104026020016040519081016040528092919081815260200182805462001b529062003392565b801562001ba35780601f1062001b775761010080835404028352916020019162001ba3565b820191906000526020600020905b81548152906001019060200180831162001b8557829003601f168201915b5050505050935082805462001bb89062003392565b80601f016020809104026020016040519081016040528092919081815260200182805462001be69062003392565b801562001c375780601f1062001c0b5761010080835404028352916020019162001c37565b820191906000526020600020905b81548152906001019060200180831162001c1957829003601f168201915b50505050509250945094509450945094505b91939590929450565b6060600060038360405162001c68919062003559565b908152602001604051809103902060009054906101000a900473ffffffffffffffffffffffffffffffffffffffff1690506000600260008373ffffffffffffffffffffffffffffffffffffffff1673ffffffffffffffffffffffffffffffffffffffff16815260200190815260200160002060010160009054906101000a900473ffffffffffffffffffffffffffffffffffffffff1690508073ffffffffffffffffffffffffffffffffffffffff166391f3410c6040518163ffffffff1660e01b8152600401600060405180830381865afa15801562001d4c573d6000803e3d6000fd5b505050506040513d6000823e3d601f19601f8201168201806040525081019062001d7791906200405b565b92505050919050565b6003818051602081018201805184825260208301602085012081835280955050505050506000915054906101000a900473ffffffffffffffffffffffffffffffffffffffff1681565b60606005805480602002602001604051908101604052809291908181526020016000905b8282101562001ea357838290600052602060002001805462001e0f9062003392565b80601f016020809104026020016040519081016040528092919081815260200182805462001e3d9062003392565b801562001e8e5780601f1062001e625761010080835404028352916020019162001e8e565b820191906000526020600020905b81548152906001019060200180831162001e7057829003601f168201915b50505050508152602001906001019062001ded565b50505050905090565b6000600154905090565b60008054905090565b6000606080600080600060038760405162001edb919062003559565b908152602001604051809103902060009054906101000a900473ffffffffffffffffffffffffffffffffffffffff169050600073ffffffffffffffffffffffffffffffffffffffff16600260008373ffffffffffffffffffffffffffffffffffffffff1673ffffffffffffffffffffffffffffffffffffffff16815260200190815260200160002060000160009054906101000a900473ffffffffffffffffffffffffffffffffffffffff1673ffffffffffffffffffffffffffffffffffffffff1603620020035760008060006040518060400160405280601681526020017f6163636f756e7420646f6573206e6f742065786973740000000000000000000081525091906040518060200160405280600081525091909550955095509550955050620022d1565b600260008273ffffffffffffffffffffffffffffffffffffffff1673ffffffffffffffffffffffffffffffffffffffff16815260200190815260200160002060000160009054906101000a900473ffffffffffffffffffffffffffffffffffffffff16600260008373ffffffffffffffffffffffffffffffffffffffff1673ffffffffffffffffffffffffffffffffffffffff168152602001908152602001600020600201600260008473ffffffffffffffffffffffffffffffffffffffff1673ffffffffffffffffffffffffffffffffffffffff168152602001908152602001600020600301600260008573ffffffffffffffffffffffffffffffffffffffff1673ffffffffffffffffffffffffffffffffffffffff16815260200190815260200160002060040160009054906101000a900460ff16600260008673ffffffffffffffffffffffffffffffffffffffff1673ffffffffffffffffffffffffffffffffffffffff16815260200190815260200160002060010160009054906101000a900473ffffffffffffffffffffffffffffffffffffffff16838054620021ab9062003392565b80601f0160208091040260200160405190810160405280929190818152602001828054620021d99062003392565b80156200222a5780601f10620021fe576101008083540402835291602001916200222a565b820191906000526020600020905b8154815290600101906020018083116200220c57829003601f168201915b505050505093508280546200223f9062003392565b80601f01602080910402602001604051908101604052809291908181526020018280546200226d9062003392565b8015620022be5780601f106200229257610100808354040283529160200191620022be565b820191906000526020600020905b815481529060010190602001808311620022a057829003601f168201915b5050505050925095509550955095509550505b91939590929450565b6000600383604051620022ee919062003559565b908152602001604051809103902060009054906101000a900473ffffffffffffffffffffffffffffffffffffffff1690506000600260008373ffffffffffffffffffffffffffffffffffffffff1673ffffffffffffffffffffffffffffffffffffffff16815260200190815260200160002060010160009054906101000a900473ffffffffffffffffffffffffffffffffffffffff1690508073ffffffffffffffffffffffffffffffffffffffff1663f72ead1386856040518363ffffffff1660e01b8152600401620023c3929190620040ac565b600060405180830381600087803b158015620023de57600080fd5b505af1158015620023f3573d6000803e3d6000fd5b505050506200240162002408565b5050505050565b60005b6004805490508110156200258057436005600260006004858154811062002437576200243662003942565b5b9060005260206000200160009054906101000a900473ffffffffffffffffffffffffffffffffffffffff1673ffffffffffffffffffffffffffffffffffffffff1673ffffffffffffffffffffffffffffffffffffffff16815260200190815260200160002060050154620024ac9190620040e0565b10156200256a5760016002600060048481548110620024d057620024cf62003942565b5b9060005260206000200160009054906101000a900473ffffffffffffffffffffffffffffffffffffffff1673ffffffffffffffffffffffffffffffffffffffff1673ffffffffffffffffffffffffffffffffffffffff16815260200190815260200160002060040160006101000a81548160ff021916908315150217905550600160008154809291906200256490620039a0565b91905055505b80806200257790620039a0565b9150506200240b565b50565b60606000600260008473ffffffffffffffffffffffffffffffffffffffff1673ffffffffffffffffffffffffffffffffffffffff16815260200190815260200160002060010160009054906101000a900473ffffffffffffffffffffffffffffffffffffffff1690508073ffffffffffffffffffffffffffffffffffffffff166323f147026040518163ffffffff1660e01b8152600401600060405180830381865afa15801562002638573d6000803e3d6000fd5b505050506040513d6000823e3d601f19601f8201168201806040525081019062002663919062004208565b915050919050565b600080600260008473ffffffffffffffffffffffffffffffffffffffff1673ffffffffffffffffffffffffffffffffffffffff16815260200190815260200160002060010160009054906101000a900473ffffffffffffffffffffffffffffffffffffffff1690508073ffffffffffffffffffffffffffffffffffffffff1663c4d67b096040518163ffffffff1660e01b8152600401602060405180830381865afa1580156200271f573d6000803e3d6000fd5b505050506040513d601f19601f82011682018060405250810190620027459190620033de565b915050919050565b611cc6806200425a83390190565b6000604051905090565b600080fd5b600080fd5b6000819050919050565b62002784816200276f565b81146200279057600080fd5b50565b600081359050620027a48162002779565b92915050565b600060208284031215620027c357620027c262002765565b5b6000620027d38482850162002793565b91505092915050565b600073ffffffffffffffffffffffffffffffffffffffff82169050919050565b60006200280982620027dc565b9050919050565b6200281b81620027fc565b82525050565b600060208201905062002838600083018462002810565b92915050565b6200284981620027fc565b81146200285557600080fd5b50565b60008135905062002869816200283e565b92915050565b6000806040838503121562002889576200288862002765565b5b6000620028998582860162002858565b9250506020620028ac8582860162002858565b9150509250929050565b600060208284031215620028cf57620028ce62002765565b5b6000620028df8482850162002858565b91505092915050565b600081519050919050565b600082825260208201905092915050565b60005b838110156200292457808201518184015260208101905062002907565b60008484015250505050565b6000601f19601f8301169050919050565b60006200294e82620028e8565b6200295a8185620028f3565b93506200296c81856020860162002904565b620029778162002930565b840191505092915050565b60008115159050919050565b620029998162002982565b82525050565b620029aa816200276f565b82525050565b600060c082019050620029c7600083018962002810565b620029d6602083018862002810565b8181036040830152620029ea818762002941565b9050818103606083015262002a00818662002941565b905062002a1160808301856200298e565b62002a2060a08301846200299f565b979650505050505050565b600060208201905062002a4260008301846200299f565b92915050565b600080fd5b600080fd5b7f4e487b7100000000000000000000000000000000000000000000000000000000600052604160045260246000fd5b62002a8c8262002930565b810181811067ffffffffffffffff8211171562002aae5762002aad62002a52565b5b80604052505050565b600062002ac36200275b565b905062002ad1828262002a81565b919050565b600067ffffffffffffffff82111562002af45762002af362002a52565b5b62002aff8262002930565b9050602081019050919050565b82818337600083830152505050565b600062002b3262002b2c8462002ad6565b62002ab7565b90508281526020810184848401111562002b515762002b5062002a4d565b5b62002b5e84828562002b0c565b509392505050565b600082601f83011262002b7e5762002b7d62002a48565b5b813562002b9084826020860162002b1b565b91505092915050565b60008060006060848603121562002bb55762002bb462002765565b5b600062002bc58682870162002858565b935050602084013567ffffffffffffffff81111562002be95762002be86200276a565b5b62002bf78682870162002b66565b925050604084013567ffffffffffffffff81111562002c1b5762002c1a6200276a565b5b62002c298682870162002b66565b9150509250925092565b60008060006060848603121562002c4f5762002c4e62002765565b5b600084013567ffffffffffffffff81111562002c705762002c6f6200276a565b5b62002c7e8682870162002b66565b935050602062002c918682870162002793565b925050604062002ca48682870162002858565b9150509250925092565b600081519050919050565b600082825260208201905092915050565b6000819050602082019050919050565b62002ce581620027fc565b82525050565b600062002cf9838362002cda565b60208301905092915050565b6000602082019050919050565b600062002d1f8262002cae565b62002d2b818562002cb9565b935062002d388362002cca565b8060005b8381101562002d6f57815162002d53888262002ceb565b975062002d608362002d05565b92505060018101905062002d3c565b5085935050505092915050565b6000602082019050818103600083015262002d98818462002d12565b905092915050565b600081519050919050565b600082825260208201905092915050565b6000819050602082019050919050565b62002dd7816200276f565b82525050565b600082825260208201905092915050565b600062002dfb82620028e8565b62002e07818562002ddd565b935062002e1981856020860162002904565b62002e248162002930565b840191505092915050565b62002e3a8162002982565b82525050565b600060e08301600083015162002e5a600086018262002dcc565b506020830151848203602086015262002e74828262002dee565b915050604083015162002e8b604086018262002dcc565b50606083015162002ea0606086018262002dcc565b506080830151848203608086015262002eba828262002dee565b91505060a083015184820360a086015262002ed6828262002dee565b91505060c083015162002eed60c086018262002e2f565b508091505092915050565b600062002f06838362002e40565b905092915050565b6000602082019050919050565b600062002f288262002da0565b62002f34818562002dab565b93508360208202850162002f488562002dbc565b8060005b8581101562002f8a578484038952815162002f68858262002ef8565b945062002f758362002f0e565b925060208a0199505060018101905062002f4c565b50829750879550505050505092915050565b6000602082019050818103600083015262002fb8818462002f1b565b905092915050565b600081519050919050565b600082825260208201905092915050565b6000819050602082019050919050565b600060408301600083015162003006600086018262002dcc565b506020830151848203602086015262003020828262002dee565b9150508091505092915050565b60006200303b838362002fec565b905092915050565b6000602082019050919050565b60006200305d8262002fc0565b62003069818562002fcb565b9350836020820285016200307d8562002fdc565b8060005b85811015620030bf57848403895281516200309d85826200302d565b9450620030aa8362003043565b925060208a0199505060018101905062003081565b50829750879550505050505092915050565b60006020820190508181036000830152620030ed818462003050565b905092915050565b6000602082019050818103600083015262003111818462002941565b905092915050565b600060a08201905062003130600083018862002810565b818103602083015262003144818762002941565b905081810360408301526200315a818662002941565b90506200316b60608301856200298e565b6200317a608083018462002810565b9695505050505050565b6000602082840312156200319d576200319c62002765565b5b600082013567ffffffffffffffff811115620031be57620031bd6200276a565b5b620031cc8482850162002b66565b91505092915050565b600081519050919050565b600082825260208201905092915050565b6000819050602082019050919050565b60006200320f838362002dee565b905092915050565b6000602082019050919050565b60006200323182620031d5565b6200323d8185620031e0565b9350836020820285016200325185620031f1565b8060005b8581101562003293578484038952815162003271858262003201565b94506200327e8362003217565b925060208a0199505060018101905062003255565b50829750879550505050505092915050565b60006020820190508181036000830152620032c1818462003224565b905092915050565b600080600060608486031215620032e557620032e462002765565b5b600084013567ffffffffffffffff8111156200330657620033056200276a565b5b620033148682870162002b66565b935050602084013567ffffffffffffffff8111156200333857620033376200276a565b5b620033468682870162002b66565b9250506040620033598682870162002793565b9150509250925092565b7f4e487b7100000000000000000000000000000000000000000000000000000000600052602260045260246000fd5b60006002820490506001821680620033ab57607f821691505b602082108103620033c157620033c062003363565b5b50919050565b600081519050620033d88162002779565b92915050565b600060208284031215620033f757620033f662002765565b5b60006200340784828501620033c7565b91505092915050565b60008190508160005260206000209050919050565b60008154620034348162003392565b620034408186620028f3565b945060018216600081146200345e57600181146200347557620034ac565b60ff198316865281151560200286019350620034ac565b620034808562003410565b60005b83811015620034a45781548189015260018201915060208101905062003483565b808801955050505b50505092915050565b60006080820190508181036000830152620034d1818762002941565b90508181036020830152620034e7818662002941565b90508181036040830152620034fd818562003425565b90506200350e60608301846200298e565b95945050505050565b600081905092915050565b60006200352f82620028e8565b6200353b818562003517565b93506200354d81856020860162002904565b80840191505092915050565b600062003567828462003522565b915081905092915050565b60006040820190506200358960008301856200299f565b81810360208301526200359d818462002941565b90509392505050565b600067ffffffffffffffff821115620035c457620035c362002a52565b5b602082029050602081019050919050565b600080fd5b600080fd5b600080fd5b6000620035fb620035f58462002ad6565b62002ab7565b9050828152602081018484840111156200361a576200361962002a4d565b5b6200362784828562002904565b509392505050565b600082601f83011262003647576200364662002a48565b5b815162003659848260208601620035e4565b91505092915050565b6200366d8162002982565b81146200367957600080fd5b50565b6000815190506200368d8162003662565b92915050565b600060e08284031215620036ac57620036ab620035da565b5b620036b860e062002ab7565b90506000620036ca84828501620033c7565b600083015250602082015167ffffffffffffffff811115620036f157620036f0620035df565b5b620036ff848285016200362f565b60208301525060406200371584828501620033c7565b60408301525060606200372b84828501620033c7565b606083015250608082015167ffffffffffffffff811115620037525762003751620035df565b5b62003760848285016200362f565b60808301525060a082015167ffffffffffffffff811115620037875762003786620035df565b5b62003795848285016200362f565b60a08301525060c0620037ab848285016200367c565b60c08301525092915050565b6000620037ce620037c884620035a6565b62002ab7565b90508083825260208201905060208402830185811115620037f457620037f3620035d5565b5b835b818110156200384257805167ffffffffffffffff8111156200381d576200381c62002a48565b5b8086016200382c898262003693565b85526020850194505050602081019050620037f6565b5050509392505050565b600082601f83011262003864576200386362002a48565b5b815162003876848260208601620037b7565b91505092915050565b60006020828403121562003898576200389762002765565b5b600082015167ffffffffffffffff811115620038b957620038b86200276a565b5b620038c7848285016200384c565b91505092915050565b7f7573657220616c72656164792065786973747300000000000000000000000000600082015250565b600062003908601383620028f3565b91506200391582620038d0565b602082019050919050565b600060208201905081810360008301526200393b81620038f9565b9050919050565b7f4e487b7100000000000000000000000000000000000000000000000000000000600052603260045260246000fd5b7f4e487b7100000000000000000000000000000000000000000000000000000000600052601160045260246000fd5b6000620039ad826200276f565b91507fffffffffffffffffffffffffffffffffffffffffffffffffffffffffffffffff8203620039e257620039e162003971565b5b600182019050919050565b60008154620039fc8162003392565b62003a08818662003517565b9450600182166000811462003a26576001811462003a3c5762003a73565b60ff198316865281151582028601935062003a73565b62003a478562003410565b60005b8381101562003a6b5781548189015260018201915060208101905062003a4a565b838801955050505b50505092915050565b600062003a8a8284620039ed565b915081905092915050565b60006020601f8301049050919050565b600082821b905092915050565b60006008830262003ae47fffffffffffffffffffffffffffffffffffffffffffffffffffffffffffffffff8262003aa5565b62003af0868362003aa5565b95508019841693508086168417925050509392505050565b6000819050919050565b600062003b3362003b2d62003b27846200276f565b62003b08565b6200276f565b9050919050565b6000819050919050565b62003b4f8362003b12565b62003b6762003b5e8262003b3a565b84845462003ab2565b825550505050565b600090565b62003b7e62003b6f565b62003b8b81848462003b44565b505050565b5b8181101562003bb35762003ba760008262003b74565b60018101905062003b91565b5050565b601f82111562003c025762003bcc8162003410565b62003bd78462003a95565b8101602085101562003be7578190505b62003bff62003bf68562003a95565b83018262003b90565b50505b505050565b600082821c905092915050565b600062003c276000198460080262003c07565b1980831691505092915050565b600062003c42838362003c14565b9150826002028217905092915050565b62003c5d82620028e8565b67ffffffffffffffff81111562003c795762003c7862002a52565b5b62003c85825462003392565b62003c9282828562003bb7565b600060209050601f83116001811462003cca576000841562003cb5578287015190505b62003cc1858262003c34565b86555062003d31565b601f19841662003cda8662003410565b60005b8281101562003d045784890151825560018201915060208501945060208101905062003cdd565b8683101562003d24578489015162003d20601f89168262003c14565b8355505b6001600288020188555050505b505050505050565b600060a08201905062003d50600083018862002810565b62003d5f602083018762002810565b818103604083015262003d73818662002941565b9050818103606083015262003d89818562002941565b905062003d9a60808301846200298e565b9695505050505050565b600067ffffffffffffffff82111562003dc25762003dc162002a52565b5b602082029050602081019050919050565b60006040828403121562003dec5762003deb620035da565b5b62003df8604062002ab7565b9050600062003e0a84828501620033c7565b600083015250602082015167ffffffffffffffff81111562003e315762003e30620035df565b5b62003e3f848285016200362f565b60208301525092915050565b600062003e6262003e5c8462003da4565b62002ab7565b9050808382526020820190506020840283018581111562003e885762003e87620035d5565b5b835b8181101562003ed657805167ffffffffffffffff81111562003eb15762003eb062002a48565b5b80860162003ec0898262003dd3565b8552602085019450505060208101905062003e8a565b5050509392505050565b600082601f83011262003ef85762003ef762002a48565b5b815162003f0a84826020860162003e4b565b91505092915050565b60006020828403121562003f2c5762003f2b62002765565b5b600082015167ffffffffffffffff81111562003f4d5762003f4c6200276a565b5b62003f5b8482850162003ee0565b91505092915050565b600067ffffffffffffffff82111562003f825762003f8162002a52565b5b602082029050602081019050919050565b600062003faa62003fa48462003f64565b62002ab7565b9050808382526020820190506020840283018581111562003fd05762003fcf620035d5565b5b835b818110156200401e57805167ffffffffffffffff81111562003ff95762003ff862002a48565b5b8086016200400889826200362f565b8552602085019450505060208101905062003fd2565b5050509392505050565b600082601f83011262004040576200403f62002a48565b5b81516200405284826020860162003f93565b91505092915050565b60006020828403121562004074576200407362002765565b5b600082015167ffffffffffffffff8111156200409557620040946200276a565b5b620040a38482850162004028565b91505092915050565b60006040820190508181036000830152620040c8818562002941565b9050620040d960208301846200299f565b9392505050565b6000620040ed826200276f565b9150620040fa836200276f565b925082820190508082111562004115576200411462003971565b5b92915050565b600067ffffffffffffffff82111562004139576200413862002a52565b5b602082029050602081019050919050565b6000815190506200415b816200283e565b92915050565b60006200417862004172846200411b565b62002ab7565b905080838252602082019050602084028301858111156200419e576200419d620035d5565b5b835b81811015620041cb5780620041b688826200414a565b845260208401935050602081019050620041a0565b5050509392505050565b600082601f830112620041ed57620041ec62002a48565b5b8151620041ff84826020860162004161565b91505092915050565b60006020828403121562004221576200422062002765565b5b600082015167ffffffffffffffff8111156200424257620042416200276a565b5b6200425084828501620041d5565b9150509291505056fe60806040523480156200001157600080fd5b5060405162001cc638038062001cc6833981810160405281019062000037919062000100565b80600360006101000a81548173ffffffffffffffffffffffffffffffffffffffff021916908373ffffffffffffffffffffffffffffffffffffffff16021790555060008081905550600060018190555060006002819055505062000132565b600080fd5b600073ffffffffffffffffffffffffffffffffffffffff82169050919050565b6000620000c8826200009b565b9050919050565b620000da81620000bb565b8114620000e657600080fd5b50565b600081519050620000fa81620000cf565b92915050565b60006020828403121562000119576200011862000096565b5b60006200012984828501620000e9565b91505092915050565b611b8480620001426000396000f3fe608060405234801561001057600080fd5b50600436106100ea5760003560e01c806399c50dd11161008c578063e71ef23d11610066578063e71ef23d1461021b578063eb058a2f14610237578063ecf0a45d14610253578063f72ead1314610271576100ea565b806399c50dd1146101c3578063c4d67b09146101df578063e22bce27146101fd576100ea565b806360f2e378116100c857806360f2e378146101495780636f94a36614610153578063725009d31461018957806391f3410c146101a5576100ea565b806316e31ea3146100ef57806323f147021461010d57806341f3004a1461012b575b600080fd5b6100f761028d565b6040516101049190610d1a565b60405180910390f35b610115610297565b6040516101229190610e25565b60405180910390f35b610133610325565b604051610140919061106d565b60405180910390f35b6101516105d3565b005b61016d600480360381019061016891906110cf565b6105ed565b6040516101809796959493929190611155565b60405180910390f35b6101a3600480360381019061019e91906110cf565b6107d4565b005b6101ad610850565b6040516101ba919061129b565b60405180910390f35b6101dd60048036038101906101d891906112e9565b610929565b005b6101e761098f565b6040516101f49190610d1a565b60405180910390f35b610205610999565b6040516102129190610d1a565b60405180910390f35b61023560048036038101906102309190611477565b6109a3565b005b610251600480360381019061024c9190611532565b610afc565b005b61025b610b62565b604051610268919061168d565b60405180910390f35b61028b600480360381019061028691906116af565b610c5d565b005b6000600154905090565b6060600580548060200260200160405190810160405280929190818152602001828054801561031b57602002820191906000526020600020905b8160009054906101000a900473ffffffffffffffffffffffffffffffffffffffff1673ffffffffffffffffffffffffffffffffffffffff16815260200190600101908083116102d1575b5050505050905090565b60606000805467ffffffffffffffff81111561034457610343611320565b5b60405190808252806020026020018201604052801561037d57816020015b61036a610cc2565b8152602001906001900390816103625790505b50905060005b6000548110156105cb57600860008281526020019081526020016000206040518060e0016040529081600082015481526020016001820180546103c59061173a565b80601f01602080910402602001604051908101604052809291908181526020018280546103f19061173a565b801561043e5780601f106104135761010080835404028352916020019161043e565b820191906000526020600020905b81548152906001019060200180831161042157829003601f168201915b50505050508152602001600282015481526020016003820154815260200160048201805461046b9061173a565b80601f01602080910402602001604051908101604052809291908181526020018280546104979061173a565b80156104e45780601f106104b9576101008083540402835291602001916104e4565b820191906000526020600020905b8154815290600101906020018083116104c757829003601f168201915b505050505081526020016005820180546104fd9061173a565b80601f01602080910402602001604051908101604052809291908181526020018280546105299061173a565b80156105765780601f1061054b57610100808354040283529160200191610576565b820191906000526020600020905b81548152906001019060200180831161055957829003601f168201915b505050505081526020016006820160009054906101000a900460ff1615151515815250508282815181106105ad576105ac61176b565b5b602002602001018190525080806105c3906117c9565b915050610383565b508091505090565b600460008154809291906105e6906117c9565b9190505550565b60086020528060005260406000206000915090508060000154908060010180546106169061173a565b80601f01602080910402602001604051908101604052809291908181526020018280546106429061173a565b801561068f5780601f106106645761010080835404028352916020019161068f565b820191906000526020600020905b81548152906001019060200180831161067257829003601f168201915b5050505050908060020154908060030154908060040180546106b09061173a565b80601f01602080910402602001604051908101604052809291908181526020018280546106dc9061173a565b80156107295780601f106106fe57610100808354040283529160200191610729565b820191906000526020600020905b81548152906001019060200180831161070c57829003601f168201915b50505050509080600501805461073e9061173a565b80601f016020809104026020016040519081016040528092919081815260200182805461076a9061173a565b80156107b75780601f1061078c576101008083540402835291602001916107b7565b820191906000526020600020905b81548152906001019060200180831161079a57829003601f168201915b5050505050908060060160009054906101000a900460ff16905087565b6008600082815260200190815260200160002060020160008154809291906107fb906117c9565b91905055507f447c5d872ffc7fa2763b13dd068980191537823d15b95a6566333782d757d94560086000838152602001908152602001600020600201546040516108459190610d1a565b60405180910390a150565b60606007805480602002602001604051908101604052809291908181526020016000905b828210156109205783829060005260206000200180546108939061173a565b80601f01602080910402602001604051908101604052809291908181526020018280546108bf9061173a565b801561090c5780601f106108e15761010080835404028352916020019161090c565b820191906000526020600020905b8154815290600101906020018083116108ef57829003601f168201915b505050505081526020019060010190610874565b50505050905090565b6005819080600181540180825580915050600190039060005260206000200160009091909190916101000a81548173ffffffffffffffffffffffffffffffffffffffff021916908373ffffffffffffffffffffffffffffffffffffffff16021790555050565b6000600254905090565b6000600454905090565b60005460086000805481526020019081526020016000206000018190555083600860008054815260200190815260200160002060010190816109e591906119bd565b50600060086000805481526020019081526020016000206002018190555060006008600080548152602001908152602001600020600301819055508260086000805481526020019081526020016000206004019081610a4491906119bd565b508160086000805481526020019081526020016000206005019081610a6991906119bd565b5080600860008054815260200190815260200160002060060160006101000a81548160ff021916908315150217905550600080815480929190610aab906117c9565b91905055507f689bb0330c1c7078d60ff9632a4be061f5411d6c6d3cfc8960e175d277f6a53e60005485600080878787604051610aee9796959493929190611aca565b60405180910390a150505050565b60066040518060400160405280848152602001838152509080600181540180825580915050600190039060005260206000209060020201600090919091909150600082015181600001556020820151816001019081610b5b91906119bd565b5050505050565b60606006805480602002602001604051908101604052809291908181526020016000905b82821015610c54578382906000526020600020906002020160405180604001604052908160008201548152602001600182018054610bc39061173a565b80601f0160208091040260200160405190810160405280929190818152602001828054610bef9061173a565b8015610c3c5780601f10610c1157610100808354040283529160200191610c3c565b820191906000526020600020905b815481529060010190602001808311610c1f57829003601f168201915b50505050508152505081526020019060010190610b86565b50505050905090565b600782908060018154018082558091505060019003906000526020600020016000909190919091509081610c9191906119bd565b50600860008281526020019081526020016000206003016000815480929190610cb9906117c9565b91905055505050565b6040518060e001604052806000815260200160608152602001600081526020016000815260200160608152602001606081526020016000151581525090565b6000819050919050565b610d1481610d01565b82525050565b6000602082019050610d2f6000830184610d0b565b92915050565b600081519050919050565b600082825260208201905092915050565b6000819050602082019050919050565b600073ffffffffffffffffffffffffffffffffffffffff82169050919050565b6000610d8c82610d61565b9050919050565b610d9c81610d81565b82525050565b6000610dae8383610d93565b60208301905092915050565b6000602082019050919050565b6000610dd282610d35565b610ddc8185610d40565b9350610de783610d51565b8060005b83811015610e18578151610dff8882610da2565b9750610e0a83610dba565b925050600181019050610deb565b5085935050505092915050565b60006020820190508181036000830152610e3f8184610dc7565b905092915050565b600081519050919050565b600082825260208201905092915050565b6000819050602082019050919050565b610e7c81610d01565b82525050565b600081519050919050565b600082825260208201905092915050565b60005b83811015610ebc578082015181840152602081019050610ea1565b60008484015250505050565b6000601f19601f8301169050919050565b6000610ee482610e82565b610eee8185610e8d565b9350610efe818560208601610e9e565b610f0781610ec8565b840191505092915050565b60008115159050919050565b610f2781610f12565b82525050565b600060e083016000830151610f456000860182610e73565b5060208301518482036020860152610f5d8282610ed9565b9150506040830151610f726040860182610e73565b506060830151610f856060860182610e73565b5060808301518482036080860152610f9d8282610ed9565b91505060a083015184820360a0860152610fb78282610ed9565b91505060c0830151610fcc60c0860182610f1e565b508091505092915050565b6000610fe38383610f2d565b905092915050565b6000602082019050919050565b600061100382610e47565b61100d8185610e52565b93508360208202850161101f85610e63565b8060005b8581101561105b578484038952815161103c8582610fd7565b945061104783610feb565b925060208a01995050600181019050611023565b50829750879550505050505092915050565b600060208201905081810360008301526110878184610ff8565b905092915050565b6000604051905090565b600080fd5b600080fd5b6110ac81610d01565b81146110b757600080fd5b50565b6000813590506110c9816110a3565b92915050565b6000602082840312156110e5576110e4611099565b5b60006110f3848285016110ba565b91505092915050565b600082825260208201905092915050565b600061111882610e82565b61112281856110fc565b9350611132818560208601610e9e565b61113b81610ec8565b840191505092915050565b61114f81610f12565b82525050565b600060e08201905061116a600083018a610d0b565b818103602083015261117c818961110d565b905061118b6040830188610d0b565b6111986060830187610d0b565b81810360808301526111aa818661110d565b905081810360a08301526111be818561110d565b90506111cd60c0830184611146565b98975050505050505050565b600081519050919050565b600082825260208201905092915050565b6000819050602082019050919050565b60006112118383610ed9565b905092915050565b6000602082019050919050565b6000611231826111d9565b61123b81856111e4565b93508360208202850161124d856111f5565b8060005b85811015611289578484038952815161126a8582611205565b945061127583611219565b925060208a01995050600181019050611251565b50829750879550505050505092915050565b600060208201905081810360008301526112b58184611226565b905092915050565b6112c681610d81565b81146112d157600080fd5b50565b6000813590506112e3816112bd565b92915050565b6000602082840312156112ff576112fe611099565b5b600061130d848285016112d4565b91505092915050565b600080fd5b600080fd5b7f4e487b7100000000000000000000000000000000000000000000000000000000600052604160045260246000fd5b61135882610ec8565b810181811067ffffffffffffffff8211171561137757611376611320565b5b80604052505050565b600061138a61108f565b9050611396828261134f565b919050565b600067ffffffffffffffff8211156113b6576113b5611320565b5b6113bf82610ec8565b9050602081019050919050565b82818337600083830152505050565b60006113ee6113e98461139b565b611380565b90508281526020810184848401111561140a5761140961131b565b5b6114158482856113cc565b509392505050565b600082601f83011261143257611431611316565b5b81356114428482602086016113db565b91505092915050565b61145481610f12565b811461145f57600080fd5b50565b6000813590506114718161144b565b92915050565b6000806000806080858703121561149157611490611099565b5b600085013567ffffffffffffffff8111156114af576114ae61109e565b5b6114bb8782880161141d565b945050602085013567ffffffffffffffff8111156114dc576114db61109e565b5b6114e88782880161141d565b935050604085013567ffffffffffffffff8111156115095761150861109e565b5b6115158782880161141d565b925050606061152687828801611462565b91505092959194509250565b6000806040838503121561154957611548611099565b5b6000611557858286016110ba565b925050602083013567ffffffffffffffff8111156115785761157761109e565b5b6115848582860161141d565b9150509250929050565b600081519050919050565b600082825260208201905092915050565b6000819050602082019050919050565b60006040830160008301516115d26000860182610e73565b50602083015184820360208601526115ea8282610ed9565b9150508091505092915050565b600061160383836115ba565b905092915050565b6000602082019050919050565b60006116238261158e565b61162d8185611599565b93508360208202850161163f856115aa565b8060005b8581101561167b578484038952815161165c85826115f7565b94506116678361160b565b925060208a01995050600181019050611643565b50829750879550505050505092915050565b600060208201905081810360008301526116a78184611618565b905092915050565b600080604083850312156116c6576116c5611099565b5b600083013567ffffffffffffffff8111156116e4576116e361109e565b5b6116f08582860161141d565b9250506020611701858286016110ba565b9150509250929050565b7f4e487b7100000000000000000000000000000000000000000000000000000000600052602260045260246000fd5b6000600282049050600182168061175257607f821691505b6020821081036117655761176461170b565b5b50919050565b7f4e487b7100000000000000000000000000000000000000000000000000000000600052603260045260246000fd5b7f4e487b7100000000000000000000000000000000000000000000000000000000600052601160045260246000fd5b60006117d482610d01565b91507fffffffffffffffffffffffffffffffffffffffffffffffffffffffffffffffff82036118065761180561179a565b5b600182019050919050565b60008190508160005260206000209050919050565b60006020601f8301049050919050565b600082821b905092915050565b6000600883026118737fffffffffffffffffffffffffffffffffffffffffffffffffffffffffffffffff82611836565b61187d8683611836565b95508019841693508086168417925050509392505050565b6000819050919050565b60006118ba6118b56118b084610d01565b611895565b610d01565b9050919050565b6000819050919050565b6118d48361189f565b6118e86118e0826118c1565b848454611843565b825550505050565b600090565b6118fd6118f0565b6119088184846118cb565b505050565b5b8181101561192c576119216000826118f5565b60018101905061190e565b5050565b601f8211156119715761194281611811565b61194b84611826565b8101602085101561195a578190505b61196e61196685611826565b83018261190d565b50505b505050565b600082821c905092915050565b600061199460001984600802611976565b1980831691505092915050565b60006119ad8383611983565b9150826002028217905092915050565b6119c682610e82565b67ffffffffffffffff8111156119df576119de611320565b5b6119e9825461173a565b6119f4828285611930565b600060209050601f831160018114611a275760008415611a15578287015190505b611a1f85826119a1565b865550611a87565b601f198416611a3586611811565b60005b82811015611a5d57848901518255600182019150602085019450602081019050611a38565b86831015611a7a5784890151611a76601f891682611983565b8355505b6001600288020188555050505b505050505050565b6000819050919050565b6000611ab4611aaf611aaa84611a8f565b611895565b610d01565b9050919050565b611ac481611a99565b82525050565b600060e082019050611adf600083018a610d0b565b8181036020830152611af1818961110d565b9050611b006040830188611abb565b611b0d6060830187611abb565b8181036080830152611b1f818661110d565b905081810360a0830152611b33818561110d565b9050611b4260c0830184611146565b9897505050505050505056fea26469706673582212207cf06a136deb74d08b42fb3c154dd8ad0d2b3b35227a85e7664827cf15fa4a2864736f6c63430008110033a2646970667358221220a67d4ac40ee32dff5ada0854a09a2664dd0b19e4f021f154d0d84a24f1a31f6b64736f6c63430008110033",
  "immutableReferences": {},
  "source": "// SPDX-License-Identifier: GPL-3.0\r\npragma solidity >=0.8.0;\r\n\r\ncontract Maincontract {\r\n    uint256 userCounts;\r\n    uint256 verifiedUserCounts;\r\n\r\n    constructor() {\r\n        userCounts = 0;\r\n        verifiedUserCounts = 0;\r\n    }\r\n\r\n    struct UserStruct {\r\n        address walletId;\r\n        address userContractAddress;\r\n        string userName;\r\n        string password;\r\n        bool isVerified;\r\n        uint256 creationBlock;\r\n    }\r\n    struct PostStruct {\r\n        uint256 postId;\r\n        string postContent;\r\n        uint256 likeCount;\r\n        uint256 commentCount;\r\n        string timeStamp;\r\n        string userName;\r\n        bool isVerified;\r\n    }\r\n\r\n    event User(\r\n        address walletId,\r\n        address userContractAddress,\r\n        string userName,\r\n        string password,\r\n        bool isVerified\r\n    );\r\n    event Post(\r\n        uint256 postId,\r\n        string postContent,\r\n        uint256 likeCount,\r\n        uint256 commentCount,\r\n        string timeStamp,\r\n        string userName,\r\n        bool isVerified\r\n    );\r\n\r\n    mapping(address => UserStruct) public userStructs;\r\n    mapping(string => address) public userNameToWalletId;\r\n    address[] public numberToWalletId;\r\n    string[] public userNames;\r\n\r\n    function createUser(\r\n        address _walletId,\r\n        string memory _userName,\r\n        string memory _password\r\n    ) public {\r\n        require(\r\n            userStructs[_walletId].walletId == address(0),\r\n            \"user already exists\"\r\n        );\r\n        require(\r\n            userNameToWalletId[_userName] == address(0),\r\n            \"user already exists\"\r\n        );\r\n        for (uint256 i = 0; i < numberToWalletId.length; i++) {\r\n            require(numberToWalletId[i] != _walletId, \"user already exists\");\r\n        }\r\n        for (uint256 i = 0; i < userNames.length; i++) {\r\n            require(\r\n                keccak256(abi.encodePacked(userNames[i])) !=\r\n                    keccak256(abi.encodePacked(_userName)),\r\n                \"user already exists\"\r\n            );\r\n        }\r\n\r\n        address uca = address(new UserContract(_walletId));\r\n        userStructs[_walletId].walletId = _walletId;\r\n        userStructs[_walletId].userName = _userName;\r\n        userStructs[_walletId].password = _password;\r\n        userStructs[_walletId].isVerified = false;\r\n        userStructs[_walletId].userContractAddress = uca;\r\n        userStructs[_walletId].creationBlock = block.number;\r\n        userNameToWalletId[_userName] = _walletId;\r\n        userNames.push(_userName);\r\n        numberToWalletId.push(_walletId);\r\n        userCounts++;\r\n\r\n        emit User(_walletId, uca, _userName, _password, false);\r\n    }\r\n\r\n    function getAllUserNames() public view returns (string[] memory) {\r\n        return userNames;\r\n    }\r\n\r\n    function checkAndVerifyUser() public {\r\n        for (uint256 i = 0; i < numberToWalletId.length; i++) {\r\n            if (\r\n                userStructs[numberToWalletId[i]].creationBlock + 5 <\r\n                block.number\r\n            ) {\r\n                userStructs[numberToWalletId[i]].isVerified = true;\r\n                verifiedUserCounts++;\r\n            }\r\n        }\r\n    }\r\n\r\n    function getUser(address _walletId)\r\n        public\r\n        view\r\n        returns (\r\n            address,\r\n            string memory,\r\n            string memory,\r\n            bool,\r\n            address\r\n        )\r\n    {\r\n        if (userStructs[_walletId].walletId == address(0)) {\r\n            return (\r\n                address(0),\r\n                \"account does not exist\",\r\n                \"\",\r\n                false,\r\n                address(0)\r\n            );\r\n        }\r\n        return (\r\n            userStructs[_walletId].walletId,\r\n            userStructs[_walletId].userName,\r\n            userStructs[_walletId].password,\r\n            userStructs[_walletId].isVerified,\r\n            userStructs[_walletId].userContractAddress\r\n        );\r\n    }\r\n\r\n    function getUserByUserName(string memory _userName)\r\n        public\r\n        view\r\n        returns (\r\n            address,\r\n            string memory,\r\n            string memory,\r\n            bool,\r\n            address\r\n        )\r\n    {\r\n        address _walletId = userNameToWalletId[_userName];\r\n        if (userStructs[_walletId].walletId == address(0)) {\r\n            return (\r\n                address(0),\r\n                \"account does not exist\",\r\n                \"\",\r\n                false,\r\n                address(0)\r\n            );\r\n        }\r\n        return (\r\n            userStructs[_walletId].walletId,\r\n            userStructs[_walletId].userName,\r\n            userStructs[_walletId].password,\r\n            userStructs[_walletId].isVerified,\r\n            userStructs[_walletId].userContractAddress\r\n        );\r\n    }\r\n\r\n    function getUserCount() public view returns (uint256) {\r\n        return userCounts;\r\n    }\r\n\r\n    function getVerifiedUserCount() public view returns (uint256) {\r\n        return verifiedUserCounts;\r\n    }\r\n\r\n    function makePost(\r\n        address _walletId,\r\n        string memory _postContent,\r\n        string memory timeStamp\r\n    ) public {\r\n        UserContract uc = UserContract(\r\n            userStructs[_walletId].userContractAddress\r\n        );\r\n        uc.createPost(\r\n            _postContent,\r\n            timeStamp,\r\n            userStructs[_walletId].userName,\r\n            userStructs[_walletId].isVerified\r\n        );\r\n\r\n        checkAndVerifyUser();\r\n    }\r\n\r\n    function makeComment(\r\n        string memory _comment,\r\n        string memory _postOwner,\r\n        uint256 _postId\r\n    ) public {\r\n        address _walletId = userNameToWalletId[_postOwner];\r\n        UserContract uc = UserContract(\r\n            userStructs[_walletId].userContractAddress\r\n        );\r\n        uc.createComment(_comment, _postId);\r\n\r\n        checkAndVerifyUser();\r\n    }\r\n\r\n    function getComments(string memory _postOwner)\r\n        public\r\n        view\r\n        returns (string[] memory)\r\n    {\r\n        address _walletId = userNameToWalletId[_postOwner];\r\n        UserContract uc = UserContract(\r\n            userStructs[_walletId].userContractAddress\r\n        );\r\n        return uc.getComments();\r\n    }\r\n\r\n    function likePost(\r\n        string memory _userName,\r\n        uint256 _postId,\r\n        address _myWalletId\r\n    ) public {\r\n        address _walletId = userNameToWalletId[_userName];\r\n        UserContract uc = UserContract(\r\n            userStructs[_walletId].userContractAddress\r\n        );\r\n        uc.likePost(_postId);\r\n        UserContract ucf = UserContract(\r\n            userStructs[_myWalletId].userContractAddress\r\n        );\r\n        ucf.updateMylikes(_postId, _userName);\r\n\r\n        checkAndVerifyUser();\r\n    }\r\n\r\n    function followUser(address _walletId, address _followingId) public {\r\n        UserContract uc = UserContract(\r\n            userStructs[_walletId].userContractAddress\r\n        );\r\n        uc.followSomeone(_followingId);\r\n        UserContract ucf = UserContract(\r\n            userStructs[_followingId].userContractAddress\r\n        );\r\n        ucf.updateFollowersCount();\r\n\r\n        checkAndVerifyUser();\r\n    }\r\n\r\n    function getFollowing(address _walletId)\r\n        public\r\n        view\r\n        returns (address[] memory)\r\n    {\r\n        UserContract uc = UserContract(\r\n            userStructs[_walletId].userContractAddress\r\n        );\r\n        return uc.getFollowing();\r\n    }\r\n\r\n    function getFollowersCount(address _walletId)\r\n        public\r\n        view\r\n        returns (uint256)\r\n    {\r\n        UserContract uc = UserContract(\r\n            userStructs[_walletId].userContractAddress\r\n        );\r\n        return uc.getFollowersCount();\r\n    }\r\n\r\n    function getPosts(address _walletId)\r\n        public\r\n        view\r\n        returns (UserContract.PostStruct[] memory)\r\n    {\r\n        UserContract uc = UserContract(\r\n            userStructs[_walletId].userContractAddress\r\n        );\r\n        return uc.getPosts();\r\n    }\r\n\r\n    function getAllUsersAddress() public view returns (address[] memory) {\r\n        return numberToWalletId;\r\n    }\r\n\r\n    function getCommentCount(address _walletId) public view returns (uint256) {\r\n        UserContract uc = UserContract(\r\n            userStructs[_walletId].userContractAddress\r\n        );\r\n        return uc.getCommentCount();\r\n    }\r\n\r\n    function getLikeCount(address _walletId) public view returns (uint256) {\r\n        UserContract uc = UserContract(\r\n            userStructs[_walletId].userContractAddress\r\n        );\r\n        return uc.getLikeCount();\r\n    }\r\n\r\n    function getMyLikes(address _walletId)\r\n        public\r\n        view\r\n        returns (UserContract.myLikeStruct[] memory)\r\n    {\r\n        UserContract uc = UserContract(\r\n            userStructs[_walletId].userContractAddress\r\n        );\r\n        return uc.getMyLikes();\r\n    }\r\n}\r\n\r\n///////////////////////////////////////////////////////////////////////////////////////////////////////////////////////////////////////\r\n\r\ncontract UserContract {\r\n    uint256 postCounts;\r\n    uint256 commentCounts;\r\n    uint256 likeCounts;\r\n    address owner;\r\n    uint256 followersCount;\r\n    address[] following;\r\n    myLikeStruct[] myLikes;\r\n    string[] comments;\r\n\r\n    constructor(address walletId) {\r\n        owner = walletId;\r\n        postCounts = 0;\r\n        commentCounts = 0;\r\n        likeCounts = 0;\r\n    }\r\n\r\n    struct PostStruct {\r\n        uint256 postId;\r\n        string postContent;\r\n        uint256 likeCount;\r\n        uint256 commentCount;\r\n        string timeStamp;\r\n        string userName;\r\n        bool isVerified;\r\n    }\r\n\r\n    struct myLikeStruct {\r\n        uint256 postId;\r\n        string userName;\r\n    }\r\n    event Post(\r\n        uint256 postId,\r\n        string postContent,\r\n        uint256 likeCount,\r\n        uint256 commentCount,\r\n        string timeStamp,\r\n        string userName,\r\n        bool isVerified\r\n    );\r\n    event Like(uint256 likeCount);\r\n\r\n    mapping(uint256 => PostStruct) public postStructs;\r\n\r\n    function createPost(\r\n        string memory _postContent,\r\n        string memory timeStamp,\r\n        string memory userName,\r\n        bool isVerified\r\n    ) public {\r\n        postStructs[postCounts].postId = postCounts;\r\n        postStructs[postCounts].postContent = _postContent;\r\n        postStructs[postCounts].likeCount = 0;\r\n        postStructs[postCounts].commentCount = 0;\r\n        postStructs[postCounts].timeStamp = timeStamp;\r\n        postStructs[postCounts].userName = userName;\r\n        postStructs[postCounts].isVerified = isVerified;\r\n\r\n        postCounts++;\r\n        emit Post(\r\n            postCounts,\r\n            _postContent,\r\n            0,\r\n            0,\r\n            timeStamp,\r\n            userName,\r\n            isVerified\r\n        );\r\n    }\r\n\r\n    function createComment(string memory _commentContent, uint256 _postId)\r\n        public\r\n    {\r\n        comments.push(_commentContent);\r\n        postStructs[_postId].commentCount++;\r\n    }\r\n\r\n    function getComments() public view returns (string[] memory) {\r\n        return comments;\r\n    }\r\n\r\n    function likePost(uint256 _postId) public {\r\n        postStructs[_postId].likeCount++;\r\n        emit Like(postStructs[_postId].likeCount);\r\n    }\r\n\r\n    function updateMylikes(uint256 _postId, string memory _userName) public {\r\n        myLikes.push(myLikeStruct(_postId, _userName));\r\n    }\r\n\r\n    function followSomeone(address _walletId) public {\r\n        following.push(_walletId);\r\n    }\r\n\r\n    function updateFollowersCount() public {\r\n        followersCount++;\r\n    }\r\n\r\n    function getFollowersCount() public view returns (uint256) {\r\n        return followersCount;\r\n    }\r\n\r\n    function getFollowing() public view returns (address[] memory) {\r\n        return following;\r\n    }\r\n\r\n    function getPosts() public view returns (PostStruct[] memory) {\r\n        PostStruct[] memory posts = new PostStruct[](postCounts);\r\n        for (uint256 i = 0; i < postCounts; i++) {\r\n            posts[i] = postStructs[i];\r\n        }\r\n        return posts;\r\n    }\r\n\r\n    function getCommentCount() public view returns (uint256) {\r\n        return commentCounts;\r\n    }\r\n\r\n    function getLikeCount() public view returns (uint256) {\r\n        return likeCounts;\r\n    }\r\n\r\n    function getMyLikes() public view returns (myLikeStruct[] memory) {\r\n        return myLikes;\r\n    }\r\n}\r\n",
  "sourcePath": "D:\\Users\\Desktop\\BOOOKS\\SEMESTER 7\\BCT\\Project\\DE-Verse\\smartcontract\\contracts\\Main.sol",
  "compiler": {
    "name": "solc",
    "version": "0.8.17+commit.8df45f5f.Emscripten.clang"
  },
  "schemaVersion": "3.4.10",
  "updatedAt": "2022-12-25T15:01:58.929Z",
  "networkType": "ethereum",
  "devdoc": {
    "kind": "dev",
    "methods": {},
    "version": 1
  },
  "userdoc": {
    "kind": "user",
    "methods": {},
    "version": 1
  }
}