{
  "contractName": "Maincontract",
  "abi": [
    {
      "inputs": [],
      "stateMutability": "nonpayable",
      "type": "constructor"
    },
    {
      "anonymous": false,
      "inputs": [
        {
          "indexed": false,
          "internalType": "address",
          "name": "walletId",
          "type": "address"
        },
        {
          "indexed": false,
          "internalType": "address",
          "name": "userContractAddress",
          "type": "address"
        },
        {
          "indexed": false,
          "internalType": "string",
          "name": "userName",
          "type": "string"
        },
        {
          "indexed": false,
          "internalType": "string",
          "name": "password",
          "type": "string"
        },
        {
          "indexed": false,
          "internalType": "bool",
          "name": "isVerified",
          "type": "bool"
        }
      ],
      "name": "User",
      "type": "event"
    },
    {
      "inputs": [
        {
          "internalType": "string",
          "name": "",
          "type": "string"
        }
      ],
      "name": "userNameToWalletId",
      "outputs": [
        {
          "internalType": "address",
          "name": "",
          "type": "address"
        }
      ],
      "stateMutability": "view",
      "type": "function",
      "constant": true
    },
    {
      "inputs": [
        {
          "internalType": "address",
          "name": "",
          "type": "address"
        }
      ],
      "name": "userStructs",
      "outputs": [
        {
          "internalType": "address",
          "name": "walletId",
          "type": "address"
        },
        {
          "internalType": "address",
          "name": "userContractAddress",
          "type": "address"
        },
        {
          "internalType": "string",
          "name": "userName",
          "type": "string"
        },
        {
          "internalType": "string",
          "name": "password",
          "type": "string"
        },
        {
          "internalType": "bool",
          "name": "isVerified",
          "type": "bool"
        }
      ],
      "stateMutability": "view",
      "type": "function",
      "constant": true
    },
    {
      "inputs": [
        {
          "internalType": "address",
          "name": "_walletId",
          "type": "address"
        },
        {
          "internalType": "string",
          "name": "_userName",
          "type": "string"
        },
        {
          "internalType": "string",
          "name": "_password",
          "type": "string"
        }
      ],
      "name": "createUser",
      "outputs": [],
      "stateMutability": "nonpayable",
      "type": "function"
    },
    {
      "inputs": [
        {
          "internalType": "address",
          "name": "_walletId",
          "type": "address"
        }
      ],
      "name": "getUser",
      "outputs": [
        {
          "internalType": "address",
          "name": "",
          "type": "address"
        },
        {
          "internalType": "string",
          "name": "",
          "type": "string"
        },
        {
          "internalType": "string",
          "name": "",
          "type": "string"
        },
        {
          "internalType": "bool",
          "name": "",
          "type": "bool"
        },
        {
          "internalType": "address",
          "name": "",
          "type": "address"
        }
      ],
      "stateMutability": "view",
      "type": "function",
      "constant": true
    },
    {
      "inputs": [
        {
          "internalType": "string",
          "name": "_userName",
          "type": "string"
        }
      ],
      "name": "getUserByUserName",
      "outputs": [
        {
          "internalType": "address",
          "name": "",
          "type": "address"
        },
        {
          "internalType": "string",
          "name": "",
          "type": "string"
        },
        {
          "internalType": "string",
          "name": "",
          "type": "string"
        },
        {
          "internalType": "bool",
          "name": "",
          "type": "bool"
        },
        {
          "internalType": "address",
          "name": "",
          "type": "address"
        }
      ],
      "stateMutability": "view",
      "type": "function",
      "constant": true
    },
    {
      "inputs": [],
      "name": "getUserCount",
      "outputs": [
        {
          "internalType": "uint256",
          "name": "",
          "type": "uint256"
        }
      ],
      "stateMutability": "view",
      "type": "function",
      "constant": true
    },
    {
      "inputs": [],
      "name": "getVerifiedUserCount",
      "outputs": [
        {
          "internalType": "uint256",
          "name": "",
          "type": "uint256"
        }
      ],
      "stateMutability": "view",
      "type": "function",
      "constant": true
    },
    {
      "inputs": [
        {
          "internalType": "address",
          "name": "_walletId",
          "type": "address"
        }
      ],
      "name": "verifyUser",
      "outputs": [],
      "stateMutability": "nonpayable",
      "type": "function"
    },
    {
      "inputs": [
        {
          "internalType": "address",
          "name": "_walletId",
          "type": "address"
        },
        {
          "internalType": "string",
          "name": "_postContent",
          "type": "string"
        },
        {
          "internalType": "string",
          "name": "timeStamp",
          "type": "string"
        }
      ],
      "name": "makePost",
      "outputs": [],
      "stateMutability": "nonpayable",
      "type": "function"
    },
    {
      "inputs": [
        {
          "internalType": "address",
          "name": "_walletId",
          "type": "address"
        },
        {
          "internalType": "uint256",
          "name": "_postId",
          "type": "uint256"
        },
        {
          "internalType": "string",
          "name": "_commentContent",
          "type": "string"
        }
      ],
      "name": "makeComment",
      "outputs": [],
      "stateMutability": "nonpayable",
      "type": "function"
    },
    {
      "inputs": [
        {
          "internalType": "address",
          "name": "_walletId",
          "type": "address"
        },
        {
          "internalType": "uint256",
          "name": "_postId",
          "type": "uint256"
        }
      ],
      "name": "likePost",
      "outputs": [],
      "stateMutability": "nonpayable",
      "type": "function"
    },
    {
      "inputs": [
        {
          "internalType": "address",
          "name": "_walletId",
          "type": "address"
        },
        {
          "internalType": "address",
          "name": "_followingId",
          "type": "address"
        }
      ],
      "name": "followUser",
      "outputs": [],
      "stateMutability": "nonpayable",
      "type": "function"
    },
    {
      "inputs": [
        {
          "internalType": "address",
          "name": "_walletId",
          "type": "address"
        }
      ],
      "name": "getFollowing",
      "outputs": [
        {
          "internalType": "address[]",
          "name": "",
          "type": "address[]"
        }
      ],
      "stateMutability": "view",
      "type": "function",
      "constant": true
    },
    {
      "inputs": [
        {
          "internalType": "address",
          "name": "_walletId",
          "type": "address"
        }
      ],
      "name": "getFollowersCount",
      "outputs": [
        {
          "internalType": "uint256",
          "name": "",
          "type": "uint256"
        }
      ],
      "stateMutability": "view",
      "type": "function",
      "constant": true
    },
    {
      "inputs": [
        {
          "internalType": "address",
          "name": "_walletId",
          "type": "address"
        }
      ],
      "name": "getPosts",
      "outputs": [
        {
          "components": [
            {
              "internalType": "uint256",
              "name": "postId",
              "type": "uint256"
            },
            {
              "internalType": "string",
              "name": "postContent",
              "type": "string"
            },
            {
              "internalType": "uint256",
              "name": "likeCount",
              "type": "uint256"
            },
            {
              "internalType": "uint256",
              "name": "commentCount",
              "type": "uint256"
            },
            {
              "internalType": "string",
              "name": "timeStamp",
              "type": "string"
            },
            {
              "internalType": "string",
              "name": "userName",
              "type": "string"
            },
            {
              "internalType": "bool",
              "name": "isVerified",
              "type": "bool"
            }
          ],
          "internalType": "struct UserContract.PostStruct[]",
          "name": "",
          "type": "tuple[]"
        }
      ],
      "stateMutability": "view",
      "type": "function",
      "constant": true
    },
    {
      "inputs": [
        {
          "internalType": "address",
          "name": "_walletId",
          "type": "address"
        }
      ],
      "name": "getComments",
      "outputs": [
        {
          "components": [
            {
              "internalType": "uint256",
              "name": "commentId",
              "type": "uint256"
            },
            {
              "internalType": "string",
              "name": "commentContent",
              "type": "string"
            },
            {
              "internalType": "uint256",
              "name": "likeCount",
              "type": "uint256"
            }
          ],
          "internalType": "struct UserContract.CommentStruct[]",
          "name": "",
          "type": "tuple[]"
        }
      ],
      "stateMutability": "view",
      "type": "function",
      "constant": true
    },
    {
      "inputs": [
        {
          "internalType": "address",
          "name": "_walletId",
          "type": "address"
        }
      ],
      "name": "getPostCount",
      "outputs": [
        {
          "internalType": "uint256",
          "name": "",
          "type": "uint256"
        }
      ],
      "stateMutability": "view",
      "type": "function",
      "constant": true
    },
    {
      "inputs": [
        {
          "internalType": "address",
          "name": "_walletId",
          "type": "address"
        }
      ],
      "name": "getCommentCount",
      "outputs": [
        {
          "internalType": "uint256",
          "name": "",
          "type": "uint256"
        }
      ],
      "stateMutability": "view",
      "type": "function",
      "constant": true
    },
    {
      "inputs": [
        {
          "internalType": "address",
          "name": "_walletId",
          "type": "address"
        }
      ],
      "name": "getLikeCount",
      "outputs": [
        {
          "internalType": "uint256",
          "name": "",
          "type": "uint256"
        }
      ],
      "stateMutability": "view",
      "type": "function",
      "constant": true
    }
  ],
  "bytecode": "0x608060405234801561001057600080fd5b506000808190555060006001819055506150238061002f6000396000f3fe60806040523480156200001157600080fd5b50600436106200013c5760003560e01c80635f329fb211620000bd578063a9b2e715116200007b578063a9b2e71514620003b9578063b5cb15f714620003db578063be6c898714620003fd578063d8236dff1462000437578063e94456a7146200046d576200013c565b80635f329fb214620002bd5780636f77926b14620002f357806380cf7dee146200032d57806385f5eac11462000363578063a4c7fafa1462000383576200013c565b80633c410086116200010b5780633c41008614620002075780634835152914620002275780634caf9d0b14620002475780634ceb48fd146200027d5780634d813120146200029d576200013c565b80630c8273e6146200014157806317fe375f146200016157806319447eb6146200019757806325e9ccf914620001d1575b600080fd5b6200015f600480360381019062000159919062001d9e565b620004a3565b005b6200017f600480360381019062000179919062001de5565b62000648565b6040516200018e919062001ff2565b60405180910390f35b620001b56004803603810190620001af919062001de5565b62000730565b604051620001c895949392919062002096565b60405180910390f35b620001ef6004803603810190620001e9919062001de5565b620008d3565b604051620001fe919062002112565b60405180910390f35b6200022560048036038101906200021f919062002280565b620009b5565b005b6200024560048036038101906200023f91906200234b565b62000b27565b005b6200026560048036038101906200025f919062001de5565b62000c02565b6040516200027491906200252b565b60405180910390f35b6200029b600480360381019062000295919062002280565b62000cea565b005b620002bb6004803603810190620002b5919062001de5565b62000fe8565b005b620002db6004803603810190620002d5919062001de5565b62001060565b604051620002ea919062002112565b60405180910390f35b6200031160048036038101906200030b919062001de5565b62001142565b604051620003249594939291906200254f565b60405180910390f35b6200034b6004803603810190620003459190620025ba565b62001516565b6040516200035a91906200260b565b60405180910390f35b6200038160048036038101906200037b919062002628565b6200155f565b005b620003a160048036038101906200039b919062001de5565b6200163d565b604051620003b0919062002112565b60405180910390f35b620003c36200171f565b604051620003d2919062002112565b60405180910390f35b620003e562001729565b604051620003f4919062002112565b60405180910390f35b6200041b6004803603810190620004159190620025ba565b62001732565b6040516200042e9594939291906200254f565b60405180910390f35b6200045560048036038101906200044f919062001de5565b62001b4d565b60405162000464919062002771565b60405180910390f35b6200048b600480360381019062000485919062001de5565b62001c35565b6040516200049a919062002112565b60405180910390f35b6000600260008473ffffffffffffffffffffffffffffffffffffffff1673ffffffffffffffffffffffffffffffffffffffff16815260200190815260200160002060010160009054906101000a900473ffffffffffffffffffffffffffffffffffffffff1690508073ffffffffffffffffffffffffffffffffffffffff166399c50dd1836040518263ffffffff1660e01b81526004016200054591906200260b565b600060405180830381600087803b1580156200056057600080fd5b505af115801562000575573d6000803e3d6000fd5b505050506000600260008473ffffffffffffffffffffffffffffffffffffffff1673ffffffffffffffffffffffffffffffffffffffff16815260200190815260200160002060010160009054906101000a900473ffffffffffffffffffffffffffffffffffffffff1690508073ffffffffffffffffffffffffffffffffffffffff166360f2e3786040518163ffffffff1660e01b8152600401600060405180830381600087803b1580156200062957600080fd5b505af11580156200063e573d6000803e3d6000fd5b5050505050505050565b60606000600260008473ffffffffffffffffffffffffffffffffffffffff1673ffffffffffffffffffffffffffffffffffffffff16815260200190815260200160002060010160009054906101000a900473ffffffffffffffffffffffffffffffffffffffff1690508073ffffffffffffffffffffffffffffffffffffffff166391f3410c6040518163ffffffff1660e01b8152600401600060405180830381865afa158015620006fd573d6000803e3d6000fd5b505050506040513d6000823e3d601f19601f82011682018060405250810190620007289190620029be565b915050919050565b60026020528060005260406000206000915090508060000160009054906101000a900473ffffffffffffffffffffffffffffffffffffffff16908060010160009054906101000a900473ffffffffffffffffffffffffffffffffffffffff1690806002018054620007a19062002a3e565b80601f0160208091040260200160405190810160405280929190818152602001828054620007cf9062002a3e565b8015620008205780601f10620007f45761010080835404028352916020019162000820565b820191906000526020600020905b8154815290600101906020018083116200080257829003601f168201915b505050505090806003018054620008379062002a3e565b80601f0160208091040260200160405190810160405280929190818152602001828054620008659062002a3e565b8015620008b65780601f106200088a57610100808354040283529160200191620008b6565b820191906000526020600020905b8154815290600101906020018083116200089857829003601f168201915b5050505050908060040160009054906101000a900460ff16905085565b600080600260008473ffffffffffffffffffffffffffffffffffffffff1673ffffffffffffffffffffffffffffffffffffffff16815260200190815260200160002060010160009054906101000a900473ffffffffffffffffffffffffffffffffffffffff1690508073ffffffffffffffffffffffffffffffffffffffff1663e22bce276040518163ffffffff1660e01b8152600401602060405180830381865afa15801562000987573d6000803e3d6000fd5b505050506040513d601f19601f82011682018060405250810190620009ad919062002a73565b915050919050565b6000600260008573ffffffffffffffffffffffffffffffffffffffff1673ffffffffffffffffffffffffffffffffffffffff16815260200190815260200160002060010160009054906101000a900473ffffffffffffffffffffffffffffffffffffffff1690508073ffffffffffffffffffffffffffffffffffffffff1663e71ef23d8484600260008973ffffffffffffffffffffffffffffffffffffffff1673ffffffffffffffffffffffffffffffffffffffff168152602001908152602001600020600201600260008a73ffffffffffffffffffffffffffffffffffffffff1673ffffffffffffffffffffffffffffffffffffffff16815260200190815260200160002060040160009054906101000a900460ff166040518563ffffffff1660e01b815260040162000aed949392919062002b4a565b600060405180830381600087803b15801562000b0857600080fd5b505af115801562000b1d573d6000803e3d6000fd5b5050505050505050565b6000600260008473ffffffffffffffffffffffffffffffffffffffff1673ffffffffffffffffffffffffffffffffffffffff16815260200190815260200160002060010160009054906101000a900473ffffffffffffffffffffffffffffffffffffffff1690508073ffffffffffffffffffffffffffffffffffffffff1663725009d3836040518263ffffffff1660e01b815260040162000bc9919062002112565b600060405180830381600087803b15801562000be457600080fd5b505af115801562000bf9573d6000803e3d6000fd5b50505050505050565b60606000600260008473ffffffffffffffffffffffffffffffffffffffff1673ffffffffffffffffffffffffffffffffffffffff16815260200190815260200160002060010160009054906101000a900473ffffffffffffffffffffffffffffffffffffffff1690508073ffffffffffffffffffffffffffffffffffffffff166341f3004a6040518163ffffffff1660e01b8152600401600060405180830381865afa15801562000cb7573d6000803e3d6000fd5b505050506040513d6000823e3d601f19601f8201168201806040525081019062000ce2919062002df8565b915050919050565b60008360405162000cfb9062001d17565b62000d0791906200260b565b604051809103906000f08015801562000d24573d6000803e3d6000fd5b50905083600260008673ffffffffffffffffffffffffffffffffffffffff1673ffffffffffffffffffffffffffffffffffffffff16815260200190815260200160002060000160006101000a81548173ffffffffffffffffffffffffffffffffffffffff021916908373ffffffffffffffffffffffffffffffffffffffff16021790555082600260008673ffffffffffffffffffffffffffffffffffffffff1673ffffffffffffffffffffffffffffffffffffffff168152602001908152602001600020600201908162000df9919062003006565b5081600260008673ffffffffffffffffffffffffffffffffffffffff1673ffffffffffffffffffffffffffffffffffffffff168152602001908152602001600020600301908162000e4b919062003006565b506000600260008673ffffffffffffffffffffffffffffffffffffffff1673ffffffffffffffffffffffffffffffffffffffff16815260200190815260200160002060040160006101000a81548160ff02191690831515021790555080600260008673ffffffffffffffffffffffffffffffffffffffff1673ffffffffffffffffffffffffffffffffffffffff16815260200190815260200160002060010160006101000a81548173ffffffffffffffffffffffffffffffffffffffff021916908373ffffffffffffffffffffffffffffffffffffffff16021790555060008081548092919062000f3c906200311c565b91905055508360038460405162000f549190620031ab565b908152602001604051809103902060006101000a81548173ffffffffffffffffffffffffffffffffffffffff021916908373ffffffffffffffffffffffffffffffffffffffff1602179055507f2041b7a4351ac706257b308fda32769804e2afadd729e9b0ef211b0dd03312fc84828585600060405162000fda95949392919062002096565b60405180910390a150505050565b6001600260008373ffffffffffffffffffffffffffffffffffffffff1673ffffffffffffffffffffffffffffffffffffffff16815260200190815260200160002060040160006101000a81548160ff0219169083151502179055506001600081548092919062001058906200311c565b919050555050565b600080600260008473ffffffffffffffffffffffffffffffffffffffff1673ffffffffffffffffffffffffffffffffffffffff16815260200190815260200160002060010160009054906101000a900473ffffffffffffffffffffffffffffffffffffffff1690508073ffffffffffffffffffffffffffffffffffffffff166316e31ea36040518163ffffffff1660e01b8152600401602060405180830381865afa15801562001114573d6000803e3d6000fd5b505050506040513d601f19601f820116820180604052508101906200113a919062002a73565b915050919050565b6000606080600080600073ffffffffffffffffffffffffffffffffffffffff16600260008873ffffffffffffffffffffffffffffffffffffffff1673ffffffffffffffffffffffffffffffffffffffff16815260200190815260200160002060000160009054906101000a900473ffffffffffffffffffffffffffffffffffffffff1673ffffffffffffffffffffffffffffffffffffffff1603620012405760008060006040518060400160405280601681526020017f6163636f756e7420646f6573206e6f74206578697374000000000000000000008152509190604051806020016040528060008152509190945094509450945094506200150d565b600260008773ffffffffffffffffffffffffffffffffffffffff1673ffffffffffffffffffffffffffffffffffffffff16815260200190815260200160002060000160009054906101000a900473ffffffffffffffffffffffffffffffffffffffff16600260008873ffffffffffffffffffffffffffffffffffffffff1673ffffffffffffffffffffffffffffffffffffffff168152602001908152602001600020600201600260008973ffffffffffffffffffffffffffffffffffffffff1673ffffffffffffffffffffffffffffffffffffffff168152602001908152602001600020600301600260008a73ffffffffffffffffffffffffffffffffffffffff1673ffffffffffffffffffffffffffffffffffffffff16815260200190815260200160002060040160009054906101000a900460ff16600260008b73ffffffffffffffffffffffffffffffffffffffff1673ffffffffffffffffffffffffffffffffffffffff16815260200190815260200160002060010160009054906101000a900473ffffffffffffffffffffffffffffffffffffffff16838054620013e89062002a3e565b80601f0160208091040260200160405190810160405280929190818152602001828054620014169062002a3e565b8015620014675780601f106200143b5761010080835404028352916020019162001467565b820191906000526020600020905b8154815290600101906020018083116200144957829003601f168201915b505050505093508280546200147c9062002a3e565b80601f0160208091040260200160405190810160405280929190818152602001828054620014aa9062002a3e565b8015620014fb5780601f10620014cf57610100808354040283529160200191620014fb565b820191906000526020600020905b815481529060010190602001808311620014dd57829003601f168201915b50505050509250945094509450945094505b91939590929450565b6003818051602081018201805184825260208301602085012081835280955050505050506000915054906101000a900473ffffffffffffffffffffffffffffffffffffffff1681565b6000600260008573ffffffffffffffffffffffffffffffffffffffff1673ffffffffffffffffffffffffffffffffffffffff16815260200190815260200160002060010160009054906101000a900473ffffffffffffffffffffffffffffffffffffffff1690508073ffffffffffffffffffffffffffffffffffffffff166340a1798584846040518363ffffffff1660e01b815260040162001603929190620031c4565b600060405180830381600087803b1580156200161e57600080fd5b505af115801562001633573d6000803e3d6000fd5b5050505050505050565b600080600260008473ffffffffffffffffffffffffffffffffffffffff1673ffffffffffffffffffffffffffffffffffffffff16815260200190815260200160002060010160009054906101000a900473ffffffffffffffffffffffffffffffffffffffff1690508073ffffffffffffffffffffffffffffffffffffffff1663bcc954076040518163ffffffff1660e01b8152600401602060405180830381865afa158015620016f1573d6000803e3d6000fd5b505050506040513d601f19601f8201168201806040525081019062001717919062002a73565b915050919050565b6000600154905090565b60008054905090565b600060608060008060006003876040516200174e9190620031ab565b908152602001604051809103902060009054906101000a900473ffffffffffffffffffffffffffffffffffffffff169050600073ffffffffffffffffffffffffffffffffffffffff16600260008373ffffffffffffffffffffffffffffffffffffffff1673ffffffffffffffffffffffffffffffffffffffff16815260200190815260200160002060000160009054906101000a900473ffffffffffffffffffffffffffffffffffffffff1673ffffffffffffffffffffffffffffffffffffffff1603620018765760008060006040518060400160405280601681526020017f6163636f756e7420646f6573206e6f74206578697374000000000000000000008152509190604051806020016040528060008152509190955095509550955095505062001b44565b600260008273ffffffffffffffffffffffffffffffffffffffff1673ffffffffffffffffffffffffffffffffffffffff16815260200190815260200160002060000160009054906101000a900473ffffffffffffffffffffffffffffffffffffffff16600260008373ffffffffffffffffffffffffffffffffffffffff1673ffffffffffffffffffffffffffffffffffffffff168152602001908152602001600020600201600260008473ffffffffffffffffffffffffffffffffffffffff1673ffffffffffffffffffffffffffffffffffffffff168152602001908152602001600020600301600260008573ffffffffffffffffffffffffffffffffffffffff1673ffffffffffffffffffffffffffffffffffffffff16815260200190815260200160002060040160009054906101000a900460ff16600260008673ffffffffffffffffffffffffffffffffffffffff1673ffffffffffffffffffffffffffffffffffffffff16815260200190815260200160002060010160009054906101000a900473ffffffffffffffffffffffffffffffffffffffff1683805462001a1e9062002a3e565b80601f016020809104026020016040519081016040528092919081815260200182805462001a4c9062002a3e565b801562001a9d5780601f1062001a715761010080835404028352916020019162001a9d565b820191906000526020600020905b81548152906001019060200180831162001a7f57829003601f168201915b5050505050935082805462001ab29062002a3e565b80601f016020809104026020016040519081016040528092919081815260200182805462001ae09062002a3e565b801562001b315780601f1062001b055761010080835404028352916020019162001b31565b820191906000526020600020905b81548152906001019060200180831162001b1357829003601f168201915b5050505050925095509550955095509550505b91939590929450565b60606000600260008473ffffffffffffffffffffffffffffffffffffffff1673ffffffffffffffffffffffffffffffffffffffff16815260200190815260200160002060010160009054906101000a900473ffffffffffffffffffffffffffffffffffffffff1690508073ffffffffffffffffffffffffffffffffffffffff166323f147026040518163ffffffff1660e01b8152600401600060405180830381865afa15801562001c02573d6000803e3d6000fd5b505050506040513d6000823e3d601f19601f8201168201806040525081019062001c2d9190620032e5565b915050919050565b600080600260008473ffffffffffffffffffffffffffffffffffffffff1673ffffffffffffffffffffffffffffffffffffffff16815260200190815260200160002060010160009054906101000a900473ffffffffffffffffffffffffffffffffffffffff1690508073ffffffffffffffffffffffffffffffffffffffff1663c4d67b096040518163ffffffff1660e01b8152600401602060405180830381865afa15801562001ce9573d6000803e3d6000fd5b505050506040513d601f19601f8201168201806040525081019062001d0f919062002a73565b915050919050565b611cb7806200333783390190565b6000604051905090565b600080fd5b600080fd5b600073ffffffffffffffffffffffffffffffffffffffff82169050919050565b600062001d668262001d39565b9050919050565b62001d788162001d59565b811462001d8457600080fd5b50565b60008135905062001d988162001d6d565b92915050565b6000806040838503121562001db85762001db762001d2f565b5b600062001dc88582860162001d87565b925050602062001ddb8582860162001d87565b9150509250929050565b60006020828403121562001dfe5762001dfd62001d2f565b5b600062001e0e8482850162001d87565b91505092915050565b600081519050919050565b600082825260208201905092915050565b6000819050602082019050919050565b6000819050919050565b62001e588162001e43565b82525050565b600081519050919050565b600082825260208201905092915050565b60005b8381101562001e9a57808201518184015260208101905062001e7d565b60008484015250505050565b6000601f19601f8301169050919050565b600062001ec48262001e5e565b62001ed0818562001e69565b935062001ee281856020860162001e7a565b62001eed8162001ea6565b840191505092915050565b600060608301600083015162001f12600086018262001e4d565b506020830151848203602086015262001f2c828262001eb7565b915050604083015162001f43604086018262001e4d565b508091505092915050565b600062001f5c838362001ef8565b905092915050565b6000602082019050919050565b600062001f7e8262001e17565b62001f8a818562001e22565b93508360208202850162001f9e8562001e33565b8060005b8581101562001fe0578484038952815162001fbe858262001f4e565b945062001fcb8362001f64565b925060208a0199505060018101905062001fa2565b50829750879550505050505092915050565b600060208201905081810360008301526200200e818462001f71565b905092915050565b620020218162001d59565b82525050565b600082825260208201905092915050565b6000620020458262001e5e565b62002051818562002027565b93506200206381856020860162001e7a565b6200206e8162001ea6565b840191505092915050565b60008115159050919050565b620020908162002079565b82525050565b600060a082019050620020ad600083018862002016565b620020bc602083018762002016565b8181036040830152620020d0818662002038565b90508181036060830152620020e6818562002038565b9050620020f7608083018462002085565b9695505050505050565b6200210c8162001e43565b82525050565b600060208201905062002129600083018462002101565b92915050565b600080fd5b600080fd5b7f4e487b7100000000000000000000000000000000000000000000000000000000600052604160045260246000fd5b620021738262001ea6565b810181811067ffffffffffffffff8211171562002195576200219462002139565b5b80604052505050565b6000620021aa62001d25565b9050620021b8828262002168565b919050565b600067ffffffffffffffff821115620021db57620021da62002139565b5b620021e68262001ea6565b9050602081019050919050565b82818337600083830152505050565b6000620022196200221384620021bd565b6200219e565b90508281526020810184848401111562002238576200223762002134565b5b62002245848285620021f3565b509392505050565b600082601f8301126200226557620022646200212f565b5b81356200227784826020860162002202565b91505092915050565b6000806000606084860312156200229c576200229b62001d2f565b5b6000620022ac8682870162001d87565b935050602084013567ffffffffffffffff811115620022d057620022cf62001d34565b5b620022de868287016200224d565b925050604084013567ffffffffffffffff81111562002302576200230162001d34565b5b62002310868287016200224d565b9150509250925092565b620023258162001e43565b81146200233157600080fd5b50565b60008135905062002345816200231a565b92915050565b6000806040838503121562002365576200236462001d2f565b5b6000620023758582860162001d87565b9250506020620023888582860162002334565b9150509250929050565b600081519050919050565b600082825260208201905092915050565b6000819050602082019050919050565b620023c98162002079565b82525050565b600060e083016000830151620023e9600086018262001e4d565b506020830151848203602086015262002403828262001eb7565b91505060408301516200241a604086018262001e4d565b5060608301516200242f606086018262001e4d565b506080830151848203608086015262002449828262001eb7565b91505060a083015184820360a086015262002465828262001eb7565b91505060c08301516200247c60c0860182620023be565b508091505092915050565b6000620024958383620023cf565b905092915050565b6000602082019050919050565b6000620024b78262002392565b620024c381856200239d565b935083602082028501620024d785620023ae565b8060005b85811015620025195784840389528151620024f7858262002487565b945062002504836200249d565b925060208a01995050600181019050620024db565b50829750879550505050505092915050565b60006020820190508181036000830152620025478184620024aa565b905092915050565b600060a08201905062002566600083018862002016565b81810360208301526200257a818762002038565b9050818103604083015262002590818662002038565b9050620025a1606083018562002085565b620025b0608083018462002016565b9695505050505050565b600060208284031215620025d357620025d262001d2f565b5b600082013567ffffffffffffffff811115620025f457620025f362001d34565b5b62002602848285016200224d565b91505092915050565b600060208201905062002622600083018462002016565b92915050565b60008060006060848603121562002644576200264362001d2f565b5b6000620026548682870162001d87565b9350506020620026678682870162002334565b925050604084013567ffffffffffffffff8111156200268b576200268a62001d34565b5b62002699868287016200224d565b9150509250925092565b600081519050919050565b600082825260208201905092915050565b6000819050602082019050919050565b620026da8162001d59565b82525050565b6000620026ee8383620026cf565b60208301905092915050565b6000602082019050919050565b60006200271482620026a3565b620027208185620026ae565b93506200272d83620026bf565b8060005b8381101562002764578151620027488882620026e0565b97506200275583620026fa565b92505060018101905062002731565b5085935050505092915050565b600060208201905081810360008301526200278d818462002707565b905092915050565b600067ffffffffffffffff821115620027b357620027b262002139565b5b602082029050602081019050919050565b600080fd5b600080fd5b600080fd5b600081519050620027e4816200231a565b92915050565b600062002801620027fb84620021bd565b6200219e565b90508281526020810184848401111562002820576200281f62002134565b5b6200282d84828562001e7a565b509392505050565b600082601f8301126200284d576200284c6200212f565b5b81516200285f848260208601620027ea565b91505092915050565b600060608284031215620028815762002880620027c9565b5b6200288d60606200219e565b905060006200289f84828501620027d3565b600083015250602082015167ffffffffffffffff811115620028c657620028c5620027ce565b5b620028d48482850162002835565b6020830152506040620028ea84828501620027d3565b60408301525092915050565b60006200290d620029078462002795565b6200219e565b90508083825260208201905060208402830185811115620029335762002932620027c4565b5b835b818110156200298157805167ffffffffffffffff8111156200295c576200295b6200212f565b5b8086016200296b898262002868565b8552602085019450505060208101905062002935565b5050509392505050565b600082601f830112620029a357620029a26200212f565b5b8151620029b5848260208601620028f6565b91505092915050565b600060208284031215620029d757620029d662001d2f565b5b600082015167ffffffffffffffff811115620029f857620029f762001d34565b5b62002a06848285016200298b565b91505092915050565b7f4e487b7100000000000000000000000000000000000000000000000000000000600052602260045260246000fd5b6000600282049050600182168062002a5757607f821691505b60208210810362002a6d5762002a6c62002a0f565b5b50919050565b60006020828403121562002a8c5762002a8b62001d2f565b5b600062002a9c84828501620027d3565b91505092915050565b60008190508160005260206000209050919050565b6000815462002ac98162002a3e565b62002ad5818662002027565b9450600182166000811462002af3576001811462002b0a5762002b41565b60ff19831686528115156020028601935062002b41565b62002b158562002aa5565b60005b8381101562002b395781548189015260018201915060208101905062002b18565b808801955050505b50505092915050565b6000608082019050818103600083015262002b66818762002038565b9050818103602083015262002b7c818662002038565b9050818103604083015262002b92818562002aba565b905062002ba3606083018462002085565b95945050505050565b600067ffffffffffffffff82111562002bca5762002bc962002139565b5b602082029050602081019050919050565b62002be68162002079565b811462002bf257600080fd5b50565b60008151905062002c068162002bdb565b92915050565b600060e0828403121562002c255762002c24620027c9565b5b62002c3160e06200219e565b9050600062002c4384828501620027d3565b600083015250602082015167ffffffffffffffff81111562002c6a5762002c69620027ce565b5b62002c788482850162002835565b602083015250604062002c8e84828501620027d3565b604083015250606062002ca484828501620027d3565b606083015250608082015167ffffffffffffffff81111562002ccb5762002cca620027ce565b5b62002cd98482850162002835565b60808301525060a082015167ffffffffffffffff81111562002d005762002cff620027ce565b5b62002d0e8482850162002835565b60a08301525060c062002d248482850162002bf5565b60c08301525092915050565b600062002d4762002d418462002bac565b6200219e565b9050808382526020820190506020840283018581111562002d6d5762002d6c620027c4565b5b835b8181101562002dbb57805167ffffffffffffffff81111562002d965762002d956200212f565b5b80860162002da5898262002c0c565b8552602085019450505060208101905062002d6f565b5050509392505050565b600082601f83011262002ddd5762002ddc6200212f565b5b815162002def84826020860162002d30565b91505092915050565b60006020828403121562002e115762002e1062001d2f565b5b600082015167ffffffffffffffff81111562002e325762002e3162001d34565b5b62002e408482850162002dc5565b91505092915050565b60006020601f8301049050919050565b600082821b905092915050565b60006008830262002e987fffffffffffffffffffffffffffffffffffffffffffffffffffffffffffffffff8262002e59565b62002ea4868362002e59565b95508019841693508086168417925050509392505050565b6000819050919050565b600062002ee762002ee162002edb8462001e43565b62002ebc565b62001e43565b9050919050565b6000819050919050565b62002f038362002ec6565b62002f1b62002f128262002eee565b84845462002e66565b825550505050565b600090565b62002f3262002f23565b62002f3f81848462002ef8565b505050565b5b8181101562002f675762002f5b60008262002f28565b60018101905062002f45565b5050565b601f82111562002fb65762002f808162002aa5565b62002f8b8462002e49565b8101602085101562002f9b578190505b62002fb362002faa8562002e49565b83018262002f44565b50505b505050565b600082821c905092915050565b600062002fdb6000198460080262002fbb565b1980831691505092915050565b600062002ff6838362002fc8565b9150826002028217905092915050565b620030118262001e5e565b67ffffffffffffffff8111156200302d576200302c62002139565b5b62003039825462002a3e565b6200304682828562002f6b565b600060209050601f8311600181146200307e576000841562003069578287015190505b62003075858262002fe8565b865550620030e5565b601f1984166200308e8662002aa5565b60005b82811015620030b85784890151825560018201915060208501945060208101905062003091565b86831015620030d85784890151620030d4601f89168262002fc8565b8355505b6001600288020188555050505b505050505050565b7f4e487b7100000000000000000000000000000000000000000000000000000000600052601160045260246000fd5b6000620031298262001e43565b91507fffffffffffffffffffffffffffffffffffffffffffffffffffffffffffffffff82036200315e576200315d620030ed565b5b600182019050919050565b600081905092915050565b6000620031818262001e5e565b6200318d818562003169565b93506200319f81856020860162001e7a565b80840191505092915050565b6000620031b9828462003174565b915081905092915050565b6000604082019050620031db600083018562002101565b8181036020830152620031ef818462002038565b90509392505050565b600067ffffffffffffffff82111562003216576200321562002139565b5b602082029050602081019050919050565b600081519050620032388162001d6d565b92915050565b6000620032556200324f84620031f8565b6200219e565b905080838252602082019050602084028301858111156200327b576200327a620027c4565b5b835b81811015620032a8578062003293888262003227565b8452602084019350506020810190506200327d565b5050509392505050565b600082601f830112620032ca57620032c96200212f565b5b8151620032dc8482602086016200323e565b91505092915050565b600060208284031215620032fe57620032fd62001d2f565b5b600082015167ffffffffffffffff8111156200331f576200331e62001d34565b5b6200332d84828501620032b2565b9150509291505056fe60806040523480156200001157600080fd5b5060405162001cb738038062001cb7833981810160405281019062000037919062000100565b80600360006101000a81548173ffffffffffffffffffffffffffffffffffffffff021916908373ffffffffffffffffffffffffffffffffffffffff16021790555060008081905550600060018190555060006002819055505062000132565b600080fd5b600073ffffffffffffffffffffffffffffffffffffffff82169050919050565b6000620000c8826200009b565b9050919050565b620000da81620000bb565b8114620000e657600080fd5b50565b600081519050620000fa81620000cf565b92915050565b60006020828403121562000119576200011862000096565b5b60006200012984828501620000e9565b91505092915050565b611b7580620001426000396000f3fe608060405234801561001057600080fd5b50600436106100ea5760003560e01c806391f3410c1161008c578063bcc9540711610066578063bcc954071461022d578063c4d67b091461024b578063e22bce2714610269578063e71ef23d14610287576100ea565b806391f3410c146101c157806399c50dd1146101df578063b1c83840146101fb576100ea565b806341f3004a116100c857806341f3004a1461014757806360f2e378146101655780636f94a3661461016f578063725009d3146101a5576100ea565b806316e31ea3146100ef57806323f147021461010d57806340a179851461012b575b600080fd5b6100f76102a3565b6040516101049190610dbc565b60405180910390f35b6101156102ad565b6040516101229190610ec7565b60405180910390f35b6101456004803603810190610140919061106f565b61033b565b005b61014f610424565b60405161015c91906112e0565b60405180910390f35b61016d6106d2565b005b61018960048036038101906101849190611302565b6106ec565b60405161019c9796959493929190611388565b60405180910390f35b6101bf60048036038101906101ba9190611302565b6108d3565b005b6101c961094f565b6040516101d6919061151e565b60405180910390f35b6101f960048036038101906101f4919061156c565b610ab5565b005b61021560048036038101906102109190611302565b610b1b565b60405161022493929190611599565b60405180910390f35b610235610bcd565b6040516102429190610dbc565b60405180910390f35b610253610bd6565b6040516102609190610dbc565b60405180910390f35b610271610be0565b60405161027e9190610dbc565b60405180910390f35b6102a1600480360381019061029c9190611603565b610bea565b005b6000600154905090565b6060600580548060200260200160405190810160405280929190818152602001828054801561033157602002820191906000526020600020905b8160009054906101000a900473ffffffffffffffffffffffffffffffffffffffff1673ffffffffffffffffffffffffffffffffffffffff16815260200190600101908083116102e7575b5050505050905090565b6001546007600060015481526020019081526020016000206000018190555080600760006001548152602001908152602001600020600101908161037f91906118ca565b506000600760006001548152602001908152602001600020600201819055506006600083815260200190815260200160002060030160008154809291906103c5906119cb565b9190505550600160008154809291906103dd906119cb565b91905055507fb355fcd66e2b46067119b64e24bea4f5f0478651710a06cc627f7b5e94fa04d460015482600060405161041893929190611a4e565b60405180910390a15050565b60606000805467ffffffffffffffff81111561044357610442610f44565b5b60405190808252806020026020018201604052801561047c57816020015b610469610d43565b8152602001906001900390816104615790505b50905060005b6000548110156106ca57600660008281526020019081526020016000206040518060e0016040529081600082015481526020016001820180546104c4906116ed565b80601f01602080910402602001604051908101604052809291908181526020018280546104f0906116ed565b801561053d5780601f106105125761010080835404028352916020019161053d565b820191906000526020600020905b81548152906001019060200180831161052057829003601f168201915b50505050508152602001600282015481526020016003820154815260200160048201805461056a906116ed565b80601f0160208091040260200160405190810160405280929190818152602001828054610596906116ed565b80156105e35780601f106105b8576101008083540402835291602001916105e3565b820191906000526020600020905b8154815290600101906020018083116105c657829003601f168201915b505050505081526020016005820180546105fc906116ed565b80601f0160208091040260200160405190810160405280929190818152602001828054610628906116ed565b80156106755780601f1061064a57610100808354040283529160200191610675565b820191906000526020600020905b81548152906001019060200180831161065857829003601f168201915b505050505081526020016006820160009054906101000a900460ff1615151515815250508282815181106106ac576106ab611a8c565b5b602002602001018190525080806106c2906119cb565b915050610482565b508091505090565b600460008154809291906106e5906119cb565b9190505550565b6006602052806000526040600020600091509050806000015490806001018054610715906116ed565b80601f0160208091040260200160405190810160405280929190818152602001828054610741906116ed565b801561078e5780601f106107635761010080835404028352916020019161078e565b820191906000526020600020905b81548152906001019060200180831161077157829003601f168201915b5050505050908060020154908060030154908060040180546107af906116ed565b80601f01602080910402602001604051908101604052809291908181526020018280546107db906116ed565b80156108285780601f106107fd57610100808354040283529160200191610828565b820191906000526020600020905b81548152906001019060200180831161080b57829003601f168201915b50505050509080600501805461083d906116ed565b80601f0160208091040260200160405190810160405280929190818152602001828054610869906116ed565b80156108b65780601f1061088b576101008083540402835291602001916108b6565b820191906000526020600020905b81548152906001019060200180831161089957829003601f168201915b5050505050908060060160009054906101000a900460ff16905087565b6006600082815260200190815260200160002060020160008154809291906108fa906119cb565b91905055507f447c5d872ffc7fa2763b13dd068980191537823d15b95a6566333782d757d94560066000838152602001908152602001600020600201546040516109449190610dbc565b60405180910390a150565b6060600060015467ffffffffffffffff81111561096f5761096e610f44565b5b6040519080825280602002602001820160405280156109a857816020015b610995610d82565b81526020019060019003908161098d5790505b50905060005b600154811015610aad5760076000828152602001908152602001600020604051806060016040529081600082015481526020016001820180546109f0906116ed565b80601f0160208091040260200160405190810160405280929190818152602001828054610a1c906116ed565b8015610a695780601f10610a3e57610100808354040283529160200191610a69565b820191906000526020600020905b815481529060010190602001808311610a4c57829003601f168201915b50505050508152602001600282015481525050828281518110610a8f57610a8e611a8c565b5b60200260200101819052508080610aa5906119cb565b9150506109ae565b508091505090565b6005819080600181540180825580915050600190039060005260206000200160009091909190916101000a81548173ffffffffffffffffffffffffffffffffffffffff021916908373ffffffffffffffffffffffffffffffffffffffff16021790555050565b6007602052806000526040600020600091509050806000015490806001018054610b44906116ed565b80601f0160208091040260200160405190810160405280929190818152602001828054610b70906116ed565b8015610bbd5780601f10610b9257610100808354040283529160200191610bbd565b820191906000526020600020905b815481529060010190602001808311610ba057829003601f168201915b5050505050908060020154905083565b60008054905090565b6000600254905090565b6000600454905090565b6000546006600080548152602001908152602001600020600001819055508360066000805481526020019081526020016000206001019081610c2c91906118ca565b50600060066000805481526020019081526020016000206002018190555060006006600080548152602001908152602001600020600301819055508260066000805481526020019081526020016000206004019081610c8b91906118ca565b508160066000805481526020019081526020016000206005019081610cb091906118ca565b5080600660008054815260200190815260200160002060060160006101000a81548160ff021916908315150217905550600080815480929190610cf2906119cb565b91905055507f689bb0330c1c7078d60ff9632a4be061f5411d6c6d3cfc8960e175d277f6a53e60005485600080878787604051610d359796959493929190611abb565b60405180910390a150505050565b6040518060e001604052806000815260200160608152602001600081526020016000815260200160608152602001606081526020016000151581525090565b60405180606001604052806000815260200160608152602001600081525090565b6000819050919050565b610db681610da3565b82525050565b6000602082019050610dd16000830184610dad565b92915050565b600081519050919050565b600082825260208201905092915050565b6000819050602082019050919050565b600073ffffffffffffffffffffffffffffffffffffffff82169050919050565b6000610e2e82610e03565b9050919050565b610e3e81610e23565b82525050565b6000610e508383610e35565b60208301905092915050565b6000602082019050919050565b6000610e7482610dd7565b610e7e8185610de2565b9350610e8983610df3565b8060005b83811015610eba578151610ea18882610e44565b9750610eac83610e5c565b925050600181019050610e8d565b5085935050505092915050565b60006020820190508181036000830152610ee18184610e69565b905092915050565b6000604051905090565b600080fd5b600080fd5b610f0681610da3565b8114610f1157600080fd5b50565b600081359050610f2381610efd565b92915050565b600080fd5b600080fd5b6000601f19601f8301169050919050565b7f4e487b7100000000000000000000000000000000000000000000000000000000600052604160045260246000fd5b610f7c82610f33565b810181811067ffffffffffffffff82111715610f9b57610f9a610f44565b5b80604052505050565b6000610fae610ee9565b9050610fba8282610f73565b919050565b600067ffffffffffffffff821115610fda57610fd9610f44565b5b610fe382610f33565b9050602081019050919050565b82818337600083830152505050565b600061101261100d84610fbf565b610fa4565b90508281526020810184848401111561102e5761102d610f2e565b5b611039848285610ff0565b509392505050565b600082601f83011261105657611055610f29565b5b8135611066848260208601610fff565b91505092915050565b6000806040838503121561108657611085610ef3565b5b600061109485828601610f14565b925050602083013567ffffffffffffffff8111156110b5576110b4610ef8565b5b6110c185828601611041565b9150509250929050565b600081519050919050565b600082825260208201905092915050565b6000819050602082019050919050565b61110081610da3565b82525050565b600081519050919050565b600082825260208201905092915050565b60005b83811015611140578082015181840152602081019050611125565b60008484015250505050565b600061115782611106565b6111618185611111565b9350611171818560208601611122565b61117a81610f33565b840191505092915050565b60008115159050919050565b61119a81611185565b82525050565b600060e0830160008301516111b860008601826110f7565b50602083015184820360208601526111d0828261114c565b91505060408301516111e560408601826110f7565b5060608301516111f860608601826110f7565b5060808301518482036080860152611210828261114c565b91505060a083015184820360a086015261122a828261114c565b91505060c083015161123f60c0860182611191565b508091505092915050565b600061125683836111a0565b905092915050565b6000602082019050919050565b6000611276826110cb565b61128081856110d6565b935083602082028501611292856110e7565b8060005b858110156112ce57848403895281516112af858261124a565b94506112ba8361125e565b925060208a01995050600181019050611296565b50829750879550505050505092915050565b600060208201905081810360008301526112fa818461126b565b905092915050565b60006020828403121561131857611317610ef3565b5b600061132684828501610f14565b91505092915050565b600082825260208201905092915050565b600061134b82611106565b611355818561132f565b9350611365818560208601611122565b61136e81610f33565b840191505092915050565b61138281611185565b82525050565b600060e08201905061139d600083018a610dad565b81810360208301526113af8189611340565b90506113be6040830188610dad565b6113cb6060830187610dad565b81810360808301526113dd8186611340565b905081810360a08301526113f18185611340565b905061140060c0830184611379565b98975050505050505050565b600081519050919050565b600082825260208201905092915050565b6000819050602082019050919050565b600060608301600083015161145060008601826110f7565b5060208301518482036020860152611468828261114c565b915050604083015161147d60408601826110f7565b508091505092915050565b60006114948383611438565b905092915050565b6000602082019050919050565b60006114b48261140c565b6114be8185611417565b9350836020820285016114d085611428565b8060005b8581101561150c57848403895281516114ed8582611488565b94506114f88361149c565b925060208a019950506001810190506114d4565b50829750879550505050505092915050565b6000602082019050818103600083015261153881846114a9565b905092915050565b61154981610e23565b811461155457600080fd5b50565b60008135905061156681611540565b92915050565b60006020828403121561158257611581610ef3565b5b600061159084828501611557565b91505092915050565b60006060820190506115ae6000830186610dad565b81810360208301526115c08185611340565b90506115cf6040830184610dad565b949350505050565b6115e081611185565b81146115eb57600080fd5b50565b6000813590506115fd816115d7565b92915050565b6000806000806080858703121561161d5761161c610ef3565b5b600085013567ffffffffffffffff81111561163b5761163a610ef8565b5b61164787828801611041565b945050602085013567ffffffffffffffff81111561166857611667610ef8565b5b61167487828801611041565b935050604085013567ffffffffffffffff81111561169557611694610ef8565b5b6116a187828801611041565b92505060606116b2878288016115ee565b91505092959194509250565b7f4e487b7100000000000000000000000000000000000000000000000000000000600052602260045260246000fd5b6000600282049050600182168061170557607f821691505b602082108103611718576117176116be565b5b50919050565b60008190508160005260206000209050919050565b60006020601f8301049050919050565b600082821b905092915050565b6000600883026117807fffffffffffffffffffffffffffffffffffffffffffffffffffffffffffffffff82611743565b61178a8683611743565b95508019841693508086168417925050509392505050565b6000819050919050565b60006117c76117c26117bd84610da3565b6117a2565b610da3565b9050919050565b6000819050919050565b6117e1836117ac565b6117f56117ed826117ce565b848454611750565b825550505050565b600090565b61180a6117fd565b6118158184846117d8565b505050565b5b818110156118395761182e600082611802565b60018101905061181b565b5050565b601f82111561187e5761184f8161171e565b61185884611733565b81016020851015611867578190505b61187b61187385611733565b83018261181a565b50505b505050565b600082821c905092915050565b60006118a160001984600802611883565b1980831691505092915050565b60006118ba8383611890565b9150826002028217905092915050565b6118d382611106565b67ffffffffffffffff8111156118ec576118eb610f44565b5b6118f682546116ed565b61190182828561183d565b600060209050601f8311600181146119345760008415611922578287015190505b61192c85826118ae565b865550611994565b601f1984166119428661171e565b60005b8281101561196a57848901518255600182019150602085019450602081019050611945565b868310156119875784890151611983601f891682611890565b8355505b6001600288020188555050505b505050505050565b7f4e487b7100000000000000000000000000000000000000000000000000000000600052601160045260246000fd5b60006119d682610da3565b91507fffffffffffffffffffffffffffffffffffffffffffffffffffffffffffffffff8203611a0857611a0761199c565b5b600182019050919050565b6000819050919050565b6000611a38611a33611a2e84611a13565b6117a2565b610da3565b9050919050565b611a4881611a1d565b82525050565b6000606082019050611a636000830186610dad565b8181036020830152611a758185611340565b9050611a846040830184611a3f565b949350505050565b7f4e487b7100000000000000000000000000000000000000000000000000000000600052603260045260246000fd5b600060e082019050611ad0600083018a610dad565b8181036020830152611ae28189611340565b9050611af16040830188611a3f565b611afe6060830187611a3f565b8181036080830152611b108186611340565b905081810360a0830152611b248185611340565b9050611b3360c0830184611379565b9897505050505050505056fea2646970667358221220902874781a55f6c1f373bf274ebc806860d76a34a80d20d8c1ca577110ac322564736f6c63430008110033a26469706673582212204e8feb7a1dcc753a616983af44524d64dfccb1318978eba347512a9911aa801c64736f6c63430008110033",
  "immutableReferences": {},
  "source": "// SPDX-License-Identifier: GPL-3.0\r\npragma solidity >=0.8.0;\r\n\r\ncontract Maincontract {\r\n    uint256 userCounts;\r\n    uint256 verifiedUserCounts;\r\n\r\n    constructor() {\r\n        userCounts = 0;\r\n        verifiedUserCounts = 0;\r\n    }\r\n\r\n    struct UserStruct {\r\n        address walletId;\r\n        address userContractAddress;\r\n        string userName;\r\n        string password;\r\n        bool isVerified;\r\n    }\r\n\r\n    event User(\r\n        address walletId,\r\n        address userContractAddress,\r\n        string userName,\r\n        string password,\r\n        bool isVerified\r\n    );\r\n\r\n    mapping(address => UserStruct) public userStructs;\r\n    mapping(string => address) public userNameToWalletId;\r\n\r\n    function createUser(\r\n        address _walletId,\r\n        string memory _userName,\r\n        string memory _password\r\n    ) public {\r\n        address uca = address(new UserContract(_walletId));\r\n        userStructs[_walletId].walletId = _walletId;\r\n        userStructs[_walletId].userName = _userName;\r\n        userStructs[_walletId].password = _password;\r\n        userStructs[_walletId].isVerified = false;\r\n        userStructs[_walletId].userContractAddress = uca;\r\n        userCounts++;\r\n        userNameToWalletId[_userName] = _walletId;\r\n        emit User(_walletId, uca, _userName, _password, false);\r\n    }\r\n\r\n    function getUser(address _walletId)\r\n        public\r\n        view\r\n        returns (\r\n            address,\r\n            string memory,\r\n            string memory,\r\n            bool,\r\n            address\r\n        )\r\n    {\r\n        if (userStructs[_walletId].walletId == address(0)) {\r\n            return (\r\n                address(0),\r\n                \"account does not exist\",\r\n                \"\",\r\n                false,\r\n                address(0)\r\n            );\r\n        }\r\n        return (\r\n            userStructs[_walletId].walletId,\r\n            userStructs[_walletId].userName,\r\n            userStructs[_walletId].password,\r\n            userStructs[_walletId].isVerified,\r\n            userStructs[_walletId].userContractAddress\r\n        );\r\n    }\r\n\r\n    function getUserByUserName(string memory _userName)\r\n        public\r\n        view\r\n        returns (\r\n            address,\r\n            string memory,\r\n            string memory,\r\n            bool,\r\n            address\r\n        )\r\n    {\r\n        address _walletId = userNameToWalletId[_userName];\r\n        if (userStructs[_walletId].walletId == address(0)) {\r\n            return (\r\n                address(0),\r\n                \"account does not exist\",\r\n                \"\",\r\n                false,\r\n                address(0)\r\n            );\r\n        }\r\n        return (\r\n            userStructs[_walletId].walletId,\r\n            userStructs[_walletId].userName,\r\n            userStructs[_walletId].password,\r\n            userStructs[_walletId].isVerified,\r\n            userStructs[_walletId].userContractAddress\r\n        );\r\n    }\r\n\r\n    function getUserCount() public view returns (uint256) {\r\n        return userCounts;\r\n    }\r\n\r\n    function getVerifiedUserCount() public view returns (uint256) {\r\n        return verifiedUserCounts;\r\n    }\r\n\r\n    function verifyUser(address _walletId) public {\r\n        userStructs[_walletId].isVerified = true;\r\n        verifiedUserCounts++;\r\n    }\r\n\r\n    function makePost(\r\n        address _walletId,\r\n        string memory _postContent,\r\n        string memory timeStamp\r\n    ) public {\r\n        UserContract uc = UserContract(\r\n            userStructs[_walletId].userContractAddress\r\n        );\r\n        uc.createPost(\r\n            _postContent,\r\n            timeStamp,\r\n            userStructs[_walletId].userName,\r\n            userStructs[_walletId].isVerified\r\n        );\r\n    }\r\n\r\n    function makeComment(\r\n        address _walletId,\r\n        uint256 _postId,\r\n        string memory _commentContent\r\n    ) public {\r\n        UserContract uc = UserContract(\r\n            userStructs[_walletId].userContractAddress\r\n        );\r\n        uc.createComment(_postId, _commentContent);\r\n    }\r\n\r\n    function likePost(address _walletId, uint256 _postId) public {\r\n        UserContract uc = UserContract(\r\n            userStructs[_walletId].userContractAddress\r\n        );\r\n        uc.likePost(_postId);\r\n    }\r\n\r\n    function followUser(address _walletId, address _followingId) public {\r\n        UserContract uc = UserContract(\r\n            userStructs[_walletId].userContractAddress\r\n        );\r\n        uc.followSomeone(_followingId);\r\n        UserContract ucf = UserContract(\r\n            userStructs[_followingId].userContractAddress\r\n        );\r\n        ucf.updateFollowersCount();\r\n    }\r\n\r\n    function getFollowing(address _walletId)\r\n        public\r\n        view\r\n        returns (address[] memory)\r\n    {\r\n        UserContract uc = UserContract(\r\n            userStructs[_walletId].userContractAddress\r\n        );\r\n        return uc.getFollowing();\r\n    }\r\n\r\n    function getFollowersCount(address _walletId)\r\n        public\r\n        view\r\n        returns (uint256)\r\n    {\r\n        UserContract uc = UserContract(\r\n            userStructs[_walletId].userContractAddress\r\n        );\r\n        return uc.getFollowersCount();\r\n    }\r\n\r\n    function getPosts(address _walletId)\r\n        public\r\n        view\r\n        returns (UserContract.PostStruct[] memory)\r\n    {\r\n        UserContract uc = UserContract(\r\n            userStructs[_walletId].userContractAddress\r\n        );\r\n        return uc.getPosts();\r\n    }\r\n\r\n    function getComments(address _walletId)\r\n        public\r\n        view\r\n        returns (UserContract.CommentStruct[] memory)\r\n    {\r\n        UserContract uc = UserContract(\r\n            userStructs[_walletId].userContractAddress\r\n        );\r\n        return uc.getComments();\r\n    }\r\n\r\n    function getPostCount(address _walletId) public view returns (uint256) {\r\n        UserContract uc = UserContract(\r\n            userStructs[_walletId].userContractAddress\r\n        );\r\n        return uc.getPostCount();\r\n    }\r\n\r\n    function getCommentCount(address _walletId) public view returns (uint256) {\r\n        UserContract uc = UserContract(\r\n            userStructs[_walletId].userContractAddress\r\n        );\r\n        return uc.getCommentCount();\r\n    }\r\n\r\n    function getLikeCount(address _walletId) public view returns (uint256) {\r\n        UserContract uc = UserContract(\r\n            userStructs[_walletId].userContractAddress\r\n        );\r\n        return uc.getLikeCount();\r\n    }\r\n}\r\n\r\n///////////////////////////////////////////////////////////////////////////////////////////////////////////////////////////////////////\r\n\r\ncontract UserContract {\r\n    uint256 postCounts;\r\n    uint256 commentCounts;\r\n    uint256 likeCounts;\r\n    address owner;\r\n    uint256 followersCount;\r\n    address[] following;\r\n\r\n    constructor(address walletId) {\r\n        owner = walletId;\r\n        postCounts = 0;\r\n        commentCounts = 0;\r\n        likeCounts = 0;\r\n    }\r\n\r\n    struct PostStruct {\r\n        uint256 postId;\r\n        string postContent;\r\n        uint256 likeCount;\r\n        uint256 commentCount;\r\n        string timeStamp;\r\n        string userName;\r\n        bool isVerified;\r\n    }\r\n    struct CommentStruct {\r\n        uint256 commentId;\r\n        string commentContent;\r\n        uint256 likeCount;\r\n    }\r\n\r\n    event Post(\r\n        uint256 postId,\r\n        string postContent,\r\n        uint256 likeCount,\r\n        uint256 commentCount,\r\n        string timeStamp,\r\n        string userName,\r\n        bool isVerified\r\n    );\r\n    event Comment(uint256 commentId, string commentContent, uint256 likeCount);\r\n    event Like(uint256 likeCount);\r\n\r\n    mapping(uint256 => PostStruct) public postStructs;\r\n    mapping(uint256 => CommentStruct) public commentStructs;\r\n\r\n    function createPost(\r\n        string memory _postContent,\r\n        string memory timeStamp,\r\n        string memory userName,\r\n        bool isVerified\r\n    ) public {\r\n        postStructs[postCounts].postId = postCounts;\r\n        postStructs[postCounts].postContent = _postContent;\r\n        postStructs[postCounts].likeCount = 0;\r\n        postStructs[postCounts].commentCount = 0;\r\n        postStructs[postCounts].timeStamp = timeStamp;\r\n        postStructs[postCounts].userName = userName;\r\n        postStructs[postCounts].isVerified = isVerified;\r\n\r\n        postCounts++;\r\n        emit Post(\r\n            postCounts,\r\n            _postContent,\r\n            0,\r\n            0,\r\n            timeStamp,\r\n            userName,\r\n            isVerified\r\n        );\r\n    }\r\n\r\n    function createComment(uint256 _postId, string memory _commentContent)\r\n        public\r\n    {\r\n        commentStructs[commentCounts].commentId = commentCounts;\r\n        commentStructs[commentCounts].commentContent = _commentContent;\r\n        commentStructs[commentCounts].likeCount = 0;\r\n        postStructs[_postId].commentCount++;\r\n        commentCounts++;\r\n        emit Comment(commentCounts, _commentContent, 0);\r\n    }\r\n\r\n    function likePost(uint256 _postId) public {\r\n        postStructs[_postId].likeCount++;\r\n        emit Like(postStructs[_postId].likeCount);\r\n    }\r\n\r\n    function followSomeone(address _walletId) public {\r\n        following.push(_walletId);\r\n    }\r\n\r\n    function updateFollowersCount() public {\r\n        followersCount++;\r\n    }\r\n\r\n    function getFollowersCount() public view returns (uint256) {\r\n        return followersCount;\r\n    }\r\n\r\n    function getFollowing() public view returns (address[] memory) {\r\n        return following;\r\n    }\r\n\r\n    function getPosts() public view returns (PostStruct[] memory) {\r\n        PostStruct[] memory posts = new PostStruct[](postCounts);\r\n        for (uint256 i = 0; i < postCounts; i++) {\r\n            posts[i] = postStructs[i];\r\n        }\r\n        return posts;\r\n    }\r\n\r\n    function getComments() public view returns (CommentStruct[] memory) {\r\n        CommentStruct[] memory comments = new CommentStruct[](commentCounts);\r\n        for (uint256 i = 0; i < commentCounts; i++) {\r\n            comments[i] = commentStructs[i];\r\n        }\r\n        return comments;\r\n    }\r\n\r\n    function getPostCount() public view returns (uint256) {\r\n        return postCounts;\r\n    }\r\n\r\n    function getCommentCount() public view returns (uint256) {\r\n        return commentCounts;\r\n    }\r\n\r\n    function getLikeCount() public view returns (uint256) {\r\n        return likeCounts;\r\n    }\r\n}\r\n",
  "sourcePath": "D:\\Users\\Desktop\\BOOOKS\\SEMESTER 7\\BCT\\Project\\DE-Verse\\smartcontract\\contracts\\Main.sol",
  "compiler": {
    "name": "solc",
    "version": "0.8.17+commit.8df45f5f.Emscripten.clang"
  },
  "schemaVersion": "3.4.10",
  "updatedAt": "2022-12-22T15:38:09.809Z",
  "networkType": "ethereum",
  "devdoc": {
    "kind": "dev",
    "methods": {},
    "version": 1
  },
  "userdoc": {
    "kind": "user",
    "methods": {},
    "version": 1
  }
}