{
  "contractName": "Maincontract",
  "abi": [
    {
      "inputs": [],
      "stateMutability": "nonpayable",
      "type": "constructor"
    },
    {
      "anonymous": false,
      "inputs": [
        {
          "indexed": false,
          "internalType": "address",
          "name": "walletId",
          "type": "address"
        },
        {
          "indexed": false,
          "internalType": "address",
          "name": "userContractAddress",
          "type": "address"
        },
        {
          "indexed": false,
          "internalType": "string",
          "name": "userName",
          "type": "string"
        },
        {
          "indexed": false,
          "internalType": "string",
          "name": "password",
          "type": "string"
        },
        {
          "indexed": false,
          "internalType": "bool",
          "name": "isVerified",
          "type": "bool"
        }
      ],
      "name": "User",
      "type": "event"
    },
    {
      "inputs": [
        {
          "internalType": "string",
          "name": "",
          "type": "string"
        }
      ],
      "name": "userNameToWalletId",
      "outputs": [
        {
          "internalType": "address",
          "name": "",
          "type": "address"
        }
      ],
      "stateMutability": "view",
      "type": "function",
      "constant": true
    },
    {
      "inputs": [
        {
          "internalType": "address",
          "name": "",
          "type": "address"
        }
      ],
      "name": "userStructs",
      "outputs": [
        {
          "internalType": "address",
          "name": "walletId",
          "type": "address"
        },
        {
          "internalType": "address",
          "name": "userContractAddress",
          "type": "address"
        },
        {
          "internalType": "string",
          "name": "userName",
          "type": "string"
        },
        {
          "internalType": "string",
          "name": "password",
          "type": "string"
        },
        {
          "internalType": "bool",
          "name": "isVerified",
          "type": "bool"
        }
      ],
      "stateMutability": "view",
      "type": "function",
      "constant": true
    },
    {
      "inputs": [
        {
          "internalType": "address",
          "name": "_walletId",
          "type": "address"
        },
        {
          "internalType": "string",
          "name": "_userName",
          "type": "string"
        },
        {
          "internalType": "string",
          "name": "_password",
          "type": "string"
        }
      ],
      "name": "createUser",
      "outputs": [],
      "stateMutability": "nonpayable",
      "type": "function"
    },
    {
      "inputs": [
        {
          "internalType": "address",
          "name": "_walletId",
          "type": "address"
        }
      ],
      "name": "getUser",
      "outputs": [
        {
          "internalType": "address",
          "name": "",
          "type": "address"
        },
        {
          "internalType": "string",
          "name": "",
          "type": "string"
        },
        {
          "internalType": "string",
          "name": "",
          "type": "string"
        },
        {
          "internalType": "bool",
          "name": "",
          "type": "bool"
        },
        {
          "internalType": "address",
          "name": "",
          "type": "address"
        }
      ],
      "stateMutability": "view",
      "type": "function",
      "constant": true
    },
    {
      "inputs": [
        {
          "internalType": "string",
          "name": "_userName",
          "type": "string"
        }
      ],
      "name": "getUserByUserName",
      "outputs": [
        {
          "internalType": "address",
          "name": "",
          "type": "address"
        },
        {
          "internalType": "string",
          "name": "",
          "type": "string"
        },
        {
          "internalType": "string",
          "name": "",
          "type": "string"
        },
        {
          "internalType": "bool",
          "name": "",
          "type": "bool"
        },
        {
          "internalType": "address",
          "name": "",
          "type": "address"
        }
      ],
      "stateMutability": "view",
      "type": "function",
      "constant": true
    },
    {
      "inputs": [],
      "name": "getUserCount",
      "outputs": [
        {
          "internalType": "uint256",
          "name": "",
          "type": "uint256"
        }
      ],
      "stateMutability": "view",
      "type": "function",
      "constant": true
    },
    {
      "inputs": [],
      "name": "getVerifiedUserCount",
      "outputs": [
        {
          "internalType": "uint256",
          "name": "",
          "type": "uint256"
        }
      ],
      "stateMutability": "view",
      "type": "function",
      "constant": true
    },
    {
      "inputs": [
        {
          "internalType": "address",
          "name": "_walletId",
          "type": "address"
        }
      ],
      "name": "verifyUser",
      "outputs": [],
      "stateMutability": "nonpayable",
      "type": "function"
    },
    {
      "inputs": [
        {
          "internalType": "address",
          "name": "_walletId",
          "type": "address"
        },
        {
          "internalType": "string",
          "name": "_postContent",
          "type": "string"
        },
        {
          "internalType": "string",
          "name": "timeStamp",
          "type": "string"
        }
      ],
      "name": "makePost",
      "outputs": [],
      "stateMutability": "nonpayable",
      "type": "function"
    },
    {
      "inputs": [
        {
          "internalType": "string",
          "name": "_comment",
          "type": "string"
        },
        {
          "internalType": "string",
          "name": "_postOwner",
          "type": "string"
        },
        {
          "internalType": "uint256",
          "name": "_postId",
          "type": "uint256"
        }
      ],
      "name": "makeComment",
      "outputs": [],
      "stateMutability": "nonpayable",
      "type": "function"
    },
    {
      "inputs": [
        {
          "internalType": "string",
          "name": "_postOwner",
          "type": "string"
        }
      ],
      "name": "getComments",
      "outputs": [
        {
          "internalType": "string[]",
          "name": "",
          "type": "string[]"
        }
      ],
      "stateMutability": "view",
      "type": "function",
      "constant": true
    },
    {
      "inputs": [
        {
          "internalType": "string",
          "name": "_userName",
          "type": "string"
        },
        {
          "internalType": "uint256",
          "name": "_postId",
          "type": "uint256"
        },
        {
          "internalType": "address",
          "name": "_myWalletId",
          "type": "address"
        }
      ],
      "name": "likePost",
      "outputs": [],
      "stateMutability": "nonpayable",
      "type": "function"
    },
    {
      "inputs": [
        {
          "internalType": "address",
          "name": "_walletId",
          "type": "address"
        },
        {
          "internalType": "address",
          "name": "_followingId",
          "type": "address"
        }
      ],
      "name": "followUser",
      "outputs": [],
      "stateMutability": "nonpayable",
      "type": "function"
    },
    {
      "inputs": [
        {
          "internalType": "address",
          "name": "_walletId",
          "type": "address"
        }
      ],
      "name": "getFollowing",
      "outputs": [
        {
          "internalType": "address[]",
          "name": "",
          "type": "address[]"
        }
      ],
      "stateMutability": "view",
      "type": "function",
      "constant": true
    },
    {
      "inputs": [
        {
          "internalType": "address",
          "name": "_walletId",
          "type": "address"
        }
      ],
      "name": "getFollowersCount",
      "outputs": [
        {
          "internalType": "uint256",
          "name": "",
          "type": "uint256"
        }
      ],
      "stateMutability": "view",
      "type": "function",
      "constant": true
    },
    {
      "inputs": [
        {
          "internalType": "address",
          "name": "_walletId",
          "type": "address"
        }
      ],
      "name": "getPosts",
      "outputs": [
        {
          "components": [
            {
              "internalType": "uint256",
              "name": "postId",
              "type": "uint256"
            },
            {
              "internalType": "string",
              "name": "postContent",
              "type": "string"
            },
            {
              "internalType": "uint256",
              "name": "likeCount",
              "type": "uint256"
            },
            {
              "internalType": "uint256",
              "name": "commentCount",
              "type": "uint256"
            },
            {
              "internalType": "string",
              "name": "timeStamp",
              "type": "string"
            },
            {
              "internalType": "string",
              "name": "userName",
              "type": "string"
            },
            {
              "internalType": "bool",
              "name": "isVerified",
              "type": "bool"
            }
          ],
          "internalType": "struct UserContract.PostStruct[]",
          "name": "",
          "type": "tuple[]"
        }
      ],
      "stateMutability": "view",
      "type": "function",
      "constant": true
    },
    {
      "inputs": [
        {
          "internalType": "address",
          "name": "_walletId",
          "type": "address"
        }
      ],
      "name": "getPostCount",
      "outputs": [
        {
          "internalType": "uint256",
          "name": "",
          "type": "uint256"
        }
      ],
      "stateMutability": "view",
      "type": "function",
      "constant": true
    },
    {
      "inputs": [
        {
          "internalType": "address",
          "name": "_walletId",
          "type": "address"
        }
      ],
      "name": "getCommentCount",
      "outputs": [
        {
          "internalType": "uint256",
          "name": "",
          "type": "uint256"
        }
      ],
      "stateMutability": "view",
      "type": "function",
      "constant": true
    },
    {
      "inputs": [
        {
          "internalType": "address",
          "name": "_walletId",
          "type": "address"
        }
      ],
      "name": "getLikeCount",
      "outputs": [
        {
          "internalType": "uint256",
          "name": "",
          "type": "uint256"
        }
      ],
      "stateMutability": "view",
      "type": "function",
      "constant": true
    },
    {
      "inputs": [
        {
          "internalType": "address",
          "name": "_walletId",
          "type": "address"
        }
      ],
      "name": "getMyLikes",
      "outputs": [
        {
          "components": [
            {
              "internalType": "uint256",
              "name": "postId",
              "type": "uint256"
            },
            {
              "internalType": "string",
              "name": "userName",
              "type": "string"
            }
          ],
          "internalType": "struct UserContract.myLikeStruct[]",
          "name": "",
          "type": "tuple[]"
        }
      ],
      "stateMutability": "view",
      "type": "function",
      "constant": true
    }
  ],
  "bytecode": "0x608060405234801561001057600080fd5b506000808190555060006001819055506155d28061002f6000396000f3fe60806040523480156200001157600080fd5b5060043610620001485760003560e01c80636f77926b11620000bd578063b5cb15f7116200007b578063b5cb15f714620003fd578063be6c8987146200041f578063be9a09cf1462000459578063d8236dff1462000479578063e94456a714620004af5762000148565b80636f77926b14620002ff57806370c63fcc146200033957806380cf7dee146200036f578063a4c7fafa14620003a5578063a9b2e71514620003db5762000148565b80634caf9d0b116200010b5780634caf9d0b146200021d5780634ceb48fd14620002535780634d1a307214620002735780634d81312014620002a95780635f329fb214620002c95762000148565b80630c8273e6146200014d57806319447eb6146200016d57806325e9ccf914620001a75780633c41008614620001dd5780633eaf1c2714620001fd575b600080fd5b6200016b600480360381019062000165919062002074565b620004e5565b005b6200018b6004803603810190620001859190620020bb565b6200068a565b6040516200019e959493929190620021b5565b60405180910390f35b620001c56004803603810190620001bf9190620020bb565b6200082d565b604051620001d491906200223b565b60405180910390f35b620001fb6004803603810190620001f59190620023a9565b6200090f565b005b6200021b600480360381019062000215919062002474565b62000a81565b005b6200023b6004803603810190620002359190620020bb565b62000c7c565b6040516200024a9190620026eb565b60405180910390f35b6200027160048036038101906200026b9190620023a9565b62000d64565b005b6200029160048036038101906200028b9190620020bb565b62001062565b604051620002a0919062002820565b60405180910390f35b620002c76004803603810190620002c19190620020bb565b6200114a565b005b620002e76004803603810190620002e19190620020bb565b620011c2565b604051620002f691906200223b565b60405180910390f35b6200031d6004803603810190620003179190620020bb565b620012a4565b6040516200033095949392919062002844565b60405180910390f35b620003576004803603810190620003519190620028af565b62001678565b604051620003669190620029d0565b60405180910390f35b6200038d6004803603810190620003879190620028af565b620017a6565b6040516200039c9190620029f4565b60405180910390f35b620003c36004803603810190620003bd9190620020bb565b620017ef565b604051620003d291906200223b565b60405180910390f35b620003e5620018d1565b604051620003f491906200223b565b60405180910390f35b62000407620018db565b6040516200041691906200223b565b60405180910390f35b6200043d6004803603810190620004379190620028af565b620018e4565b6040516200045095949392919062002844565b60405180910390f35b62000477600480360381019062000471919062002a11565b62001cff565b005b620004976004803603810190620004919190620020bb565b62001e23565b604051620004a6919062002b79565b60405180910390f35b620004cd6004803603810190620004c79190620020bb565b62001f0b565b604051620004dc91906200223b565b60405180910390f35b6000600260008473ffffffffffffffffffffffffffffffffffffffff1673ffffffffffffffffffffffffffffffffffffffff16815260200190815260200160002060010160009054906101000a900473ffffffffffffffffffffffffffffffffffffffff1690508073ffffffffffffffffffffffffffffffffffffffff166399c50dd1836040518263ffffffff1660e01b8152600401620005879190620029f4565b600060405180830381600087803b158015620005a257600080fd5b505af1158015620005b7573d6000803e3d6000fd5b505050506000600260008473ffffffffffffffffffffffffffffffffffffffff1673ffffffffffffffffffffffffffffffffffffffff16815260200190815260200160002060010160009054906101000a900473ffffffffffffffffffffffffffffffffffffffff1690508073ffffffffffffffffffffffffffffffffffffffff166360f2e3786040518163ffffffff1660e01b8152600401600060405180830381600087803b1580156200066b57600080fd5b505af115801562000680573d6000803e3d6000fd5b5050505050505050565b60026020528060005260406000206000915090508060000160009054906101000a900473ffffffffffffffffffffffffffffffffffffffff16908060010160009054906101000a900473ffffffffffffffffffffffffffffffffffffffff1690806002018054620006fb9062002bcc565b80601f0160208091040260200160405190810160405280929190818152602001828054620007299062002bcc565b80156200077a5780601f106200074e576101008083540402835291602001916200077a565b820191906000526020600020905b8154815290600101906020018083116200075c57829003601f168201915b505050505090806003018054620007919062002bcc565b80601f0160208091040260200160405190810160405280929190818152602001828054620007bf9062002bcc565b8015620008105780601f10620007e45761010080835404028352916020019162000810565b820191906000526020600020905b815481529060010190602001808311620007f257829003601f168201915b5050505050908060040160009054906101000a900460ff16905085565b600080600260008473ffffffffffffffffffffffffffffffffffffffff1673ffffffffffffffffffffffffffffffffffffffff16815260200190815260200160002060010160009054906101000a900473ffffffffffffffffffffffffffffffffffffffff1690508073ffffffffffffffffffffffffffffffffffffffff1663e22bce276040518163ffffffff1660e01b8152600401602060405180830381865afa158015620008e1573d6000803e3d6000fd5b505050506040513d601f19601f8201168201806040525081019062000907919062002c18565b915050919050565b6000600260008573ffffffffffffffffffffffffffffffffffffffff1673ffffffffffffffffffffffffffffffffffffffff16815260200190815260200160002060010160009054906101000a900473ffffffffffffffffffffffffffffffffffffffff1690508073ffffffffffffffffffffffffffffffffffffffff1663e71ef23d8484600260008973ffffffffffffffffffffffffffffffffffffffff1673ffffffffffffffffffffffffffffffffffffffff168152602001908152602001600020600201600260008a73ffffffffffffffffffffffffffffffffffffffff1673ffffffffffffffffffffffffffffffffffffffff16815260200190815260200160002060040160009054906101000a900460ff166040518563ffffffff1660e01b815260040162000a47949392919062002cef565b600060405180830381600087803b15801562000a6257600080fd5b505af115801562000a77573d6000803e3d6000fd5b5050505050505050565b600060038460405162000a95919062002d93565b908152602001604051809103902060009054906101000a900473ffffffffffffffffffffffffffffffffffffffff1690506000600260008373ffffffffffffffffffffffffffffffffffffffff1673ffffffffffffffffffffffffffffffffffffffff16815260200190815260200160002060010160009054906101000a900473ffffffffffffffffffffffffffffffffffffffff1690508073ffffffffffffffffffffffffffffffffffffffff1663725009d3856040518263ffffffff1660e01b815260040162000b6891906200223b565b600060405180830381600087803b15801562000b8357600080fd5b505af115801562000b98573d6000803e3d6000fd5b505050506000600260008573ffffffffffffffffffffffffffffffffffffffff1673ffffffffffffffffffffffffffffffffffffffff16815260200190815260200160002060010160009054906101000a900473ffffffffffffffffffffffffffffffffffffffff1690508073ffffffffffffffffffffffffffffffffffffffff1663eb058a2f86886040518363ffffffff1660e01b815260040162000c4092919062002dac565b600060405180830381600087803b15801562000c5b57600080fd5b505af115801562000c70573d6000803e3d6000fd5b50505050505050505050565b60606000600260008473ffffffffffffffffffffffffffffffffffffffff1673ffffffffffffffffffffffffffffffffffffffff16815260200190815260200160002060010160009054906101000a900473ffffffffffffffffffffffffffffffffffffffff1690508073ffffffffffffffffffffffffffffffffffffffff166341f3004a6040518163ffffffff1660e01b8152600401600060405180830381865afa15801562000d31573d6000803e3d6000fd5b505050506040513d6000823e3d601f19601f8201168201806040525081019062000d5c9190620030b9565b915050919050565b60008360405162000d759062001fed565b62000d819190620029f4565b604051809103906000f08015801562000d9e573d6000803e3d6000fd5b50905083600260008673ffffffffffffffffffffffffffffffffffffffff1673ffffffffffffffffffffffffffffffffffffffff16815260200190815260200160002060000160006101000a81548173ffffffffffffffffffffffffffffffffffffffff021916908373ffffffffffffffffffffffffffffffffffffffff16021790555082600260008673ffffffffffffffffffffffffffffffffffffffff1673ffffffffffffffffffffffffffffffffffffffff168152602001908152602001600020600201908162000e739190620032c7565b5081600260008673ffffffffffffffffffffffffffffffffffffffff1673ffffffffffffffffffffffffffffffffffffffff168152602001908152602001600020600301908162000ec59190620032c7565b506000600260008673ffffffffffffffffffffffffffffffffffffffff1673ffffffffffffffffffffffffffffffffffffffff16815260200190815260200160002060040160006101000a81548160ff02191690831515021790555080600260008673ffffffffffffffffffffffffffffffffffffffff1673ffffffffffffffffffffffffffffffffffffffff16815260200190815260200160002060010160006101000a81548173ffffffffffffffffffffffffffffffffffffffff021916908373ffffffffffffffffffffffffffffffffffffffff16021790555060008081548092919062000fb690620033dd565b91905055508360038460405162000fce919062002d93565b908152602001604051809103902060006101000a81548173ffffffffffffffffffffffffffffffffffffffff021916908373ffffffffffffffffffffffffffffffffffffffff1602179055507f2041b7a4351ac706257b308fda32769804e2afadd729e9b0ef211b0dd03312fc84828585600060405162001054959493929190620021b5565b60405180910390a150505050565b60606000600260008473ffffffffffffffffffffffffffffffffffffffff1673ffffffffffffffffffffffffffffffffffffffff16815260200190815260200160002060010160009054906101000a900473ffffffffffffffffffffffffffffffffffffffff1690508073ffffffffffffffffffffffffffffffffffffffff1663ecf0a45d6040518163ffffffff1660e01b8152600401600060405180830381865afa15801562001117573d6000803e3d6000fd5b505050506040513d6000823e3d601f19601f8201168201806040525081019062001142919062003599565b915050919050565b6001600260008373ffffffffffffffffffffffffffffffffffffffff1673ffffffffffffffffffffffffffffffffffffffff16815260200190815260200160002060040160006101000a81548160ff02191690831515021790555060016000815480929190620011ba90620033dd565b919050555050565b600080600260008473ffffffffffffffffffffffffffffffffffffffff1673ffffffffffffffffffffffffffffffffffffffff16815260200190815260200160002060010160009054906101000a900473ffffffffffffffffffffffffffffffffffffffff1690508073ffffffffffffffffffffffffffffffffffffffff166316e31ea36040518163ffffffff1660e01b8152600401602060405180830381865afa15801562001276573d6000803e3d6000fd5b505050506040513d601f19601f820116820180604052508101906200129c919062002c18565b915050919050565b6000606080600080600073ffffffffffffffffffffffffffffffffffffffff16600260008873ffffffffffffffffffffffffffffffffffffffff1673ffffffffffffffffffffffffffffffffffffffff16815260200190815260200160002060000160009054906101000a900473ffffffffffffffffffffffffffffffffffffffff1673ffffffffffffffffffffffffffffffffffffffff1603620013a25760008060006040518060400160405280601681526020017f6163636f756e7420646f6573206e6f74206578697374000000000000000000008152509190604051806020016040528060008152509190945094509450945094506200166f565b600260008773ffffffffffffffffffffffffffffffffffffffff1673ffffffffffffffffffffffffffffffffffffffff16815260200190815260200160002060000160009054906101000a900473ffffffffffffffffffffffffffffffffffffffff16600260008873ffffffffffffffffffffffffffffffffffffffff1673ffffffffffffffffffffffffffffffffffffffff168152602001908152602001600020600201600260008973ffffffffffffffffffffffffffffffffffffffff1673ffffffffffffffffffffffffffffffffffffffff168152602001908152602001600020600301600260008a73ffffffffffffffffffffffffffffffffffffffff1673ffffffffffffffffffffffffffffffffffffffff16815260200190815260200160002060040160009054906101000a900460ff16600260008b73ffffffffffffffffffffffffffffffffffffffff1673ffffffffffffffffffffffffffffffffffffffff16815260200190815260200160002060010160009054906101000a900473ffffffffffffffffffffffffffffffffffffffff168380546200154a9062002bcc565b80601f0160208091040260200160405190810160405280929190818152602001828054620015789062002bcc565b8015620015c95780601f106200159d57610100808354040283529160200191620015c9565b820191906000526020600020905b815481529060010190602001808311620015ab57829003601f168201915b50505050509350828054620015de9062002bcc565b80601f01602080910402602001604051908101604052809291908181526020018280546200160c9062002bcc565b80156200165d5780601f1062001631576101008083540402835291602001916200165d565b820191906000526020600020905b8154815290600101906020018083116200163f57829003601f168201915b50505050509250945094509450945094505b91939590929450565b606060006003836040516200168e919062002d93565b908152602001604051809103902060009054906101000a900473ffffffffffffffffffffffffffffffffffffffff1690506000600260008373ffffffffffffffffffffffffffffffffffffffff1673ffffffffffffffffffffffffffffffffffffffff16815260200190815260200160002060010160009054906101000a900473ffffffffffffffffffffffffffffffffffffffff1690508073ffffffffffffffffffffffffffffffffffffffff166391f3410c6040518163ffffffff1660e01b8152600401600060405180830381865afa15801562001772573d6000803e3d6000fd5b505050506040513d6000823e3d601f19601f820116820180604052508101906200179d9190620036e1565b92505050919050565b6003818051602081018201805184825260208301602085012081835280955050505050506000915054906101000a900473ffffffffffffffffffffffffffffffffffffffff1681565b600080600260008473ffffffffffffffffffffffffffffffffffffffff1673ffffffffffffffffffffffffffffffffffffffff16815260200190815260200160002060010160009054906101000a900473ffffffffffffffffffffffffffffffffffffffff1690508073ffffffffffffffffffffffffffffffffffffffff1663bcc954076040518163ffffffff1660e01b8152600401602060405180830381865afa158015620018a3573d6000803e3d6000fd5b505050506040513d601f19601f82011682018060405250810190620018c9919062002c18565b915050919050565b6000600154905090565b60008054905090565b6000606080600080600060038760405162001900919062002d93565b908152602001604051809103902060009054906101000a900473ffffffffffffffffffffffffffffffffffffffff169050600073ffffffffffffffffffffffffffffffffffffffff16600260008373ffffffffffffffffffffffffffffffffffffffff1673ffffffffffffffffffffffffffffffffffffffff16815260200190815260200160002060000160009054906101000a900473ffffffffffffffffffffffffffffffffffffffff1673ffffffffffffffffffffffffffffffffffffffff160362001a285760008060006040518060400160405280601681526020017f6163636f756e7420646f6573206e6f74206578697374000000000000000000008152509190604051806020016040528060008152509190955095509550955095505062001cf6565b600260008273ffffffffffffffffffffffffffffffffffffffff1673ffffffffffffffffffffffffffffffffffffffff16815260200190815260200160002060000160009054906101000a900473ffffffffffffffffffffffffffffffffffffffff16600260008373ffffffffffffffffffffffffffffffffffffffff1673ffffffffffffffffffffffffffffffffffffffff168152602001908152602001600020600201600260008473ffffffffffffffffffffffffffffffffffffffff1673ffffffffffffffffffffffffffffffffffffffff168152602001908152602001600020600301600260008573ffffffffffffffffffffffffffffffffffffffff1673ffffffffffffffffffffffffffffffffffffffff16815260200190815260200160002060040160009054906101000a900460ff16600260008673ffffffffffffffffffffffffffffffffffffffff1673ffffffffffffffffffffffffffffffffffffffff16815260200190815260200160002060010160009054906101000a900473ffffffffffffffffffffffffffffffffffffffff1683805462001bd09062002bcc565b80601f016020809104026020016040519081016040528092919081815260200182805462001bfe9062002bcc565b801562001c4f5780601f1062001c235761010080835404028352916020019162001c4f565b820191906000526020600020905b81548152906001019060200180831162001c3157829003601f168201915b5050505050935082805462001c649062002bcc565b80601f016020809104026020016040519081016040528092919081815260200182805462001c929062002bcc565b801562001ce35780601f1062001cb75761010080835404028352916020019162001ce3565b820191906000526020600020905b81548152906001019060200180831162001cc557829003601f168201915b5050505050925095509550955095509550505b91939590929450565b600060038360405162001d13919062002d93565b908152602001604051809103902060009054906101000a900473ffffffffffffffffffffffffffffffffffffffff1690506000600260008373ffffffffffffffffffffffffffffffffffffffff1673ffffffffffffffffffffffffffffffffffffffff16815260200190815260200160002060010160009054906101000a900473ffffffffffffffffffffffffffffffffffffffff1690508073ffffffffffffffffffffffffffffffffffffffff1663f72ead1386856040518363ffffffff1660e01b815260040162001de892919062003732565b600060405180830381600087803b15801562001e0357600080fd5b505af115801562001e18573d6000803e3d6000fd5b505050505050505050565b60606000600260008473ffffffffffffffffffffffffffffffffffffffff1673ffffffffffffffffffffffffffffffffffffffff16815260200190815260200160002060010160009054906101000a900473ffffffffffffffffffffffffffffffffffffffff1690508073ffffffffffffffffffffffffffffffffffffffff166323f147026040518163ffffffff1660e01b8152600401600060405180830381865afa15801562001ed8573d6000803e3d6000fd5b505050506040513d6000823e3d601f19601f8201168201806040525081019062001f03919062003853565b915050919050565b600080600260008473ffffffffffffffffffffffffffffffffffffffff1673ffffffffffffffffffffffffffffffffffffffff16815260200190815260200160002060010160009054906101000a900473ffffffffffffffffffffffffffffffffffffffff1690508073ffffffffffffffffffffffffffffffffffffffff1663c4d67b096040518163ffffffff1660e01b8152600401602060405180830381865afa15801562001fbf573d6000803e3d6000fd5b505050506040513d601f19601f8201168201806040525081019062001fe5919062002c18565b915050919050565b611cf880620038a583390190565b6000604051905090565b600080fd5b600080fd5b600073ffffffffffffffffffffffffffffffffffffffff82169050919050565b60006200203c826200200f565b9050919050565b6200204e816200202f565b81146200205a57600080fd5b50565b6000813590506200206e8162002043565b92915050565b600080604083850312156200208e576200208d62002005565b5b60006200209e858286016200205d565b9250506020620020b1858286016200205d565b9150509250929050565b600060208284031215620020d457620020d362002005565b5b6000620020e4848285016200205d565b91505092915050565b620020f8816200202f565b82525050565b600081519050919050565b600082825260208201905092915050565b60005b838110156200213a5780820151818401526020810190506200211d565b60008484015250505050565b6000601f19601f8301169050919050565b60006200216482620020fe565b62002170818562002109565b9350620021828185602086016200211a565b6200218d8162002146565b840191505092915050565b60008115159050919050565b620021af8162002198565b82525050565b600060a082019050620021cc6000830188620020ed565b620021db6020830187620020ed565b8181036040830152620021ef818662002157565b9050818103606083015262002205818562002157565b9050620022166080830184620021a4565b9695505050505050565b6000819050919050565b620022358162002220565b82525050565b60006020820190506200225260008301846200222a565b92915050565b600080fd5b600080fd5b7f4e487b7100000000000000000000000000000000000000000000000000000000600052604160045260246000fd5b6200229c8262002146565b810181811067ffffffffffffffff82111715620022be57620022bd62002262565b5b80604052505050565b6000620022d362001ffb565b9050620022e1828262002291565b919050565b600067ffffffffffffffff82111562002304576200230362002262565b5b6200230f8262002146565b9050602081019050919050565b82818337600083830152505050565b6000620023426200233c84620022e6565b620022c7565b9050828152602081018484840111156200236157620023606200225d565b5b6200236e8482856200231c565b509392505050565b600082601f8301126200238e576200238d62002258565b5b8135620023a08482602086016200232b565b91505092915050565b600080600060608486031215620023c557620023c462002005565b5b6000620023d5868287016200205d565b935050602084013567ffffffffffffffff811115620023f957620023f86200200a565b5b620024078682870162002376565b925050604084013567ffffffffffffffff8111156200242b576200242a6200200a565b5b620024398682870162002376565b9150509250925092565b6200244e8162002220565b81146200245a57600080fd5b50565b6000813590506200246e8162002443565b92915050565b60008060006060848603121562002490576200248f62002005565b5b600084013567ffffffffffffffff811115620024b157620024b06200200a565b5b620024bf8682870162002376565b9350506020620024d2868287016200245d565b9250506040620024e5868287016200205d565b9150509250925092565b600081519050919050565b600082825260208201905092915050565b6000819050602082019050919050565b620025268162002220565b82525050565b600082825260208201905092915050565b60006200254a82620020fe565b6200255681856200252c565b9350620025688185602086016200211a565b620025738162002146565b840191505092915050565b620025898162002198565b82525050565b600060e083016000830151620025a960008601826200251b565b5060208301518482036020860152620025c382826200253d565b9150506040830151620025da60408601826200251b565b506060830151620025ef60608601826200251b565b50608083015184820360808601526200260982826200253d565b91505060a083015184820360a08601526200262582826200253d565b91505060c08301516200263c60c08601826200257e565b508091505092915050565b60006200265583836200258f565b905092915050565b6000602082019050919050565b60006200267782620024ef565b620026838185620024fa565b93508360208202850162002697856200250b565b8060005b85811015620026d95784840389528151620026b7858262002647565b9450620026c4836200265d565b925060208a019950506001810190506200269b565b50829750879550505050505092915050565b600060208201905081810360008301526200270781846200266a565b905092915050565b600081519050919050565b600082825260208201905092915050565b6000819050602082019050919050565b60006040830160008301516200275560008601826200251b565b50602083015184820360208601526200276f82826200253d565b9150508091505092915050565b60006200278a83836200273b565b905092915050565b6000602082019050919050565b6000620027ac826200270f565b620027b881856200271a565b935083602082028501620027cc856200272b565b8060005b858110156200280e5784840389528151620027ec85826200277c565b9450620027f98362002792565b925060208a01995050600181019050620027d0565b50829750879550505050505092915050565b600060208201905081810360008301526200283c81846200279f565b905092915050565b600060a0820190506200285b6000830188620020ed565b81810360208301526200286f818762002157565b9050818103604083015262002885818662002157565b9050620028966060830185620021a4565b620028a56080830184620020ed565b9695505050505050565b600060208284031215620028c857620028c762002005565b5b600082013567ffffffffffffffff811115620028e957620028e86200200a565b5b620028f78482850162002376565b91505092915050565b600081519050919050565b600082825260208201905092915050565b6000819050602082019050919050565b60006200293a83836200253d565b905092915050565b6000602082019050919050565b60006200295c8262002900565b6200296881856200290b565b9350836020820285016200297c856200291c565b8060005b85811015620029be57848403895281516200299c85826200292c565b9450620029a98362002942565b925060208a0199505060018101905062002980565b50829750879550505050505092915050565b60006020820190508181036000830152620029ec81846200294f565b905092915050565b600060208201905062002a0b6000830184620020ed565b92915050565b60008060006060848603121562002a2d5762002a2c62002005565b5b600084013567ffffffffffffffff81111562002a4e5762002a4d6200200a565b5b62002a5c8682870162002376565b935050602084013567ffffffffffffffff81111562002a805762002a7f6200200a565b5b62002a8e8682870162002376565b925050604062002aa1868287016200245d565b9150509250925092565b600081519050919050565b600082825260208201905092915050565b6000819050602082019050919050565b62002ae2816200202f565b82525050565b600062002af6838362002ad7565b60208301905092915050565b6000602082019050919050565b600062002b1c8262002aab565b62002b28818562002ab6565b935062002b358362002ac7565b8060005b8381101562002b6c57815162002b50888262002ae8565b975062002b5d8362002b02565b92505060018101905062002b39565b5085935050505092915050565b6000602082019050818103600083015262002b95818462002b0f565b905092915050565b7f4e487b7100000000000000000000000000000000000000000000000000000000600052602260045260246000fd5b6000600282049050600182168062002be557607f821691505b60208210810362002bfb5762002bfa62002b9d565b5b50919050565b60008151905062002c128162002443565b92915050565b60006020828403121562002c315762002c3062002005565b5b600062002c418482850162002c01565b91505092915050565b60008190508160005260206000209050919050565b6000815462002c6e8162002bcc565b62002c7a818662002109565b9450600182166000811462002c98576001811462002caf5762002ce6565b60ff19831686528115156020028601935062002ce6565b62002cba8562002c4a565b60005b8381101562002cde5781548189015260018201915060208101905062002cbd565b808801955050505b50505092915050565b6000608082019050818103600083015262002d0b818762002157565b9050818103602083015262002d21818662002157565b9050818103604083015262002d37818562002c5f565b905062002d486060830184620021a4565b95945050505050565b600081905092915050565b600062002d6982620020fe565b62002d75818562002d51565b935062002d878185602086016200211a565b80840191505092915050565b600062002da1828462002d5c565b915081905092915050565b600060408201905062002dc360008301856200222a565b818103602083015262002dd7818462002157565b90509392505050565b600067ffffffffffffffff82111562002dfe5762002dfd62002262565b5b602082029050602081019050919050565b600080fd5b600080fd5b600080fd5b600062002e3562002e2f84620022e6565b620022c7565b90508281526020810184848401111562002e545762002e536200225d565b5b62002e618482856200211a565b509392505050565b600082601f83011262002e815762002e8062002258565b5b815162002e9384826020860162002e1e565b91505092915050565b62002ea78162002198565b811462002eb357600080fd5b50565b60008151905062002ec78162002e9c565b92915050565b600060e0828403121562002ee65762002ee562002e14565b5b62002ef260e0620022c7565b9050600062002f048482850162002c01565b600083015250602082015167ffffffffffffffff81111562002f2b5762002f2a62002e19565b5b62002f398482850162002e69565b602083015250604062002f4f8482850162002c01565b604083015250606062002f658482850162002c01565b606083015250608082015167ffffffffffffffff81111562002f8c5762002f8b62002e19565b5b62002f9a8482850162002e69565b60808301525060a082015167ffffffffffffffff81111562002fc15762002fc062002e19565b5b62002fcf8482850162002e69565b60a08301525060c062002fe58482850162002eb6565b60c08301525092915050565b600062003008620030028462002de0565b620022c7565b905080838252602082019050602084028301858111156200302e576200302d62002e0f565b5b835b818110156200307c57805167ffffffffffffffff81111562003057576200305662002258565b5b80860162003066898262002ecd565b8552602085019450505060208101905062003030565b5050509392505050565b600082601f8301126200309e576200309d62002258565b5b8151620030b084826020860162002ff1565b91505092915050565b600060208284031215620030d257620030d162002005565b5b600082015167ffffffffffffffff811115620030f357620030f26200200a565b5b620031018482850162003086565b91505092915050565b60006020601f8301049050919050565b600082821b905092915050565b600060088302620031597fffffffffffffffffffffffffffffffffffffffffffffffffffffffffffffffff826200311a565b6200316586836200311a565b95508019841693508086168417925050509392505050565b6000819050919050565b6000620031a8620031a26200319c8462002220565b6200317d565b62002220565b9050919050565b6000819050919050565b620031c48362003187565b620031dc620031d382620031af565b84845462003127565b825550505050565b600090565b620031f3620031e4565b62003200818484620031b9565b505050565b5b8181101562003228576200321c600082620031e9565b60018101905062003206565b5050565b601f8211156200327757620032418162002c4a565b6200324c846200310a565b810160208510156200325c578190505b620032746200326b856200310a565b83018262003205565b50505b505050565b600082821c905092915050565b60006200329c600019846008026200327c565b1980831691505092915050565b6000620032b7838362003289565b9150826002028217905092915050565b620032d282620020fe565b67ffffffffffffffff811115620032ee57620032ed62002262565b5b620032fa825462002bcc565b620033078282856200322c565b600060209050601f8311600181146200333f57600084156200332a578287015190505b620033368582620032a9565b865550620033a6565b601f1984166200334f8662002c4a565b60005b82811015620033795784890151825560018201915060208501945060208101905062003352565b8683101562003399578489015162003395601f89168262003289565b8355505b6001600288020188555050505b505050505050565b7f4e487b7100000000000000000000000000000000000000000000000000000000600052601160045260246000fd5b6000620033ea8262002220565b91507fffffffffffffffffffffffffffffffffffffffffffffffffffffffffffffffff82036200341f576200341e620033ae565b5b600182019050919050565b600067ffffffffffffffff82111562003448576200344762002262565b5b602082029050602081019050919050565b60006040828403121562003472576200347162002e14565b5b6200347e6040620022c7565b90506000620034908482850162002c01565b600083015250602082015167ffffffffffffffff811115620034b757620034b662002e19565b5b620034c58482850162002e69565b60208301525092915050565b6000620034e8620034e2846200342a565b620022c7565b905080838252602082019050602084028301858111156200350e576200350d62002e0f565b5b835b818110156200355c57805167ffffffffffffffff81111562003537576200353662002258565b5b80860162003546898262003459565b8552602085019450505060208101905062003510565b5050509392505050565b600082601f8301126200357e576200357d62002258565b5b815162003590848260208601620034d1565b91505092915050565b600060208284031215620035b257620035b162002005565b5b600082015167ffffffffffffffff811115620035d357620035d26200200a565b5b620035e18482850162003566565b91505092915050565b600067ffffffffffffffff82111562003608576200360762002262565b5b602082029050602081019050919050565b6000620036306200362a84620035ea565b620022c7565b9050808382526020820190506020840283018581111562003656576200365562002e0f565b5b835b81811015620036a457805167ffffffffffffffff8111156200367f576200367e62002258565b5b8086016200368e898262002e69565b8552602085019450505060208101905062003658565b5050509392505050565b600082601f830112620036c657620036c562002258565b5b8151620036d884826020860162003619565b91505092915050565b600060208284031215620036fa57620036f962002005565b5b600082015167ffffffffffffffff8111156200371b576200371a6200200a565b5b6200372984828501620036ae565b91505092915050565b600060408201905081810360008301526200374e818562002157565b90506200375f60208301846200222a565b9392505050565b600067ffffffffffffffff82111562003784576200378362002262565b5b602082029050602081019050919050565b600081519050620037a68162002043565b92915050565b6000620037c3620037bd8462003766565b620022c7565b90508083825260208201905060208402830185811115620037e957620037e862002e0f565b5b835b8181101562003816578062003801888262003795565b845260208401935050602081019050620037eb565b5050509392505050565b600082601f83011262003838576200383762002258565b5b81516200384a848260208601620037ac565b91505092915050565b6000602082840312156200386c576200386b62002005565b5b600082015167ffffffffffffffff8111156200388d576200388c6200200a565b5b6200389b8482850162003820565b9150509291505056fe60806040523480156200001157600080fd5b5060405162001cf838038062001cf8833981810160405281019062000037919062000100565b80600360006101000a81548173ffffffffffffffffffffffffffffffffffffffff021916908373ffffffffffffffffffffffffffffffffffffffff16021790555060008081905550600060018190555060006002819055505062000132565b600080fd5b600073ffffffffffffffffffffffffffffffffffffffff82169050919050565b6000620000c8826200009b565b9050919050565b620000da81620000bb565b8114620000e657600080fd5b50565b600081519050620000fa81620000cf565b92915050565b60006020828403121562000119576200011862000096565b5b60006200012984828501620000e9565b91505092915050565b611bb680620001426000396000f3fe608060405234801561001057600080fd5b50600436106100f55760003560e01c806399c50dd111610097578063e71ef23d11610066578063e71ef23d14610244578063eb058a2f14610260578063ecf0a45d1461027c578063f72ead131461029a576100f5565b806399c50dd1146101ce578063bcc95407146101ea578063c4d67b0914610208578063e22bce2714610226576100f5565b806360f2e378116100d357806360f2e378146101545780636f94a3661461015e578063725009d31461019457806391f3410c146101b0576100f5565b806316e31ea3146100fa57806323f147021461011857806341f3004a14610136575b600080fd5b6101026102b6565b60405161010f9190610d4c565b60405180910390f35b6101206102c0565b60405161012d9190610e57565b60405180910390f35b61013e61034e565b60405161014b919061109f565b60405180910390f35b61015c6105fc565b005b61017860048036038101906101739190611101565b610616565b60405161018b9796959493929190611187565b60405180910390f35b6101ae60048036038101906101a99190611101565b6107fd565b005b6101b8610879565b6040516101c591906112cd565b60405180910390f35b6101e860048036038101906101e3919061131b565b610952565b005b6101f26109b8565b6040516101ff9190610d4c565b60405180910390f35b6102106109c1565b60405161021d9190610d4c565b60405180910390f35b61022e6109cb565b60405161023b9190610d4c565b60405180910390f35b61025e600480360381019061025991906114a9565b6109d5565b005b61027a60048036038101906102759190611564565b610b2e565b005b610284610b94565b60405161029191906116bf565b60405180910390f35b6102b460048036038101906102af91906116e1565b610c8f565b005b6000600154905090565b6060600580548060200260200160405190810160405280929190818152602001828054801561034457602002820191906000526020600020905b8160009054906101000a900473ffffffffffffffffffffffffffffffffffffffff1673ffffffffffffffffffffffffffffffffffffffff16815260200190600101908083116102fa575b5050505050905090565b60606000805467ffffffffffffffff81111561036d5761036c611352565b5b6040519080825280602002602001820160405280156103a657816020015b610393610cf4565b81526020019060019003908161038b5790505b50905060005b6000548110156105f457600860008281526020019081526020016000206040518060e0016040529081600082015481526020016001820180546103ee9061176c565b80601f016020809104026020016040519081016040528092919081815260200182805461041a9061176c565b80156104675780601f1061043c57610100808354040283529160200191610467565b820191906000526020600020905b81548152906001019060200180831161044a57829003601f168201915b5050505050815260200160028201548152602001600382015481526020016004820180546104949061176c565b80601f01602080910402602001604051908101604052809291908181526020018280546104c09061176c565b801561050d5780601f106104e25761010080835404028352916020019161050d565b820191906000526020600020905b8154815290600101906020018083116104f057829003601f168201915b505050505081526020016005820180546105269061176c565b80601f01602080910402602001604051908101604052809291908181526020018280546105529061176c565b801561059f5780601f106105745761010080835404028352916020019161059f565b820191906000526020600020905b81548152906001019060200180831161058257829003601f168201915b505050505081526020016006820160009054906101000a900460ff1615151515815250508282815181106105d6576105d561179d565b5b602002602001018190525080806105ec906117fb565b9150506103ac565b508091505090565b6004600081548092919061060f906117fb565b9190505550565b600860205280600052604060002060009150905080600001549080600101805461063f9061176c565b80601f016020809104026020016040519081016040528092919081815260200182805461066b9061176c565b80156106b85780601f1061068d576101008083540402835291602001916106b8565b820191906000526020600020905b81548152906001019060200180831161069b57829003601f168201915b5050505050908060020154908060030154908060040180546106d99061176c565b80601f01602080910402602001604051908101604052809291908181526020018280546107059061176c565b80156107525780601f1061072757610100808354040283529160200191610752565b820191906000526020600020905b81548152906001019060200180831161073557829003601f168201915b5050505050908060050180546107679061176c565b80601f01602080910402602001604051908101604052809291908181526020018280546107939061176c565b80156107e05780601f106107b5576101008083540402835291602001916107e0565b820191906000526020600020905b8154815290600101906020018083116107c357829003601f168201915b5050505050908060060160009054906101000a900460ff16905087565b600860008281526020019081526020016000206002016000815480929190610824906117fb565b91905055507f447c5d872ffc7fa2763b13dd068980191537823d15b95a6566333782d757d945600860008381526020019081526020016000206002015460405161086e9190610d4c565b60405180910390a150565b60606007805480602002602001604051908101604052809291908181526020016000905b828210156109495783829060005260206000200180546108bc9061176c565b80601f01602080910402602001604051908101604052809291908181526020018280546108e89061176c565b80156109355780601f1061090a57610100808354040283529160200191610935565b820191906000526020600020905b81548152906001019060200180831161091857829003601f168201915b50505050508152602001906001019061089d565b50505050905090565b6005819080600181540180825580915050600190039060005260206000200160009091909190916101000a81548173ffffffffffffffffffffffffffffffffffffffff021916908373ffffffffffffffffffffffffffffffffffffffff16021790555050565b60008054905090565b6000600254905090565b6000600454905090565b6000546008600080548152602001908152602001600020600001819055508360086000805481526020019081526020016000206001019081610a1791906119ef565b50600060086000805481526020019081526020016000206002018190555060006008600080548152602001908152602001600020600301819055508260086000805481526020019081526020016000206004019081610a7691906119ef565b508160086000805481526020019081526020016000206005019081610a9b91906119ef565b5080600860008054815260200190815260200160002060060160006101000a81548160ff021916908315150217905550600080815480929190610add906117fb565b91905055507f689bb0330c1c7078d60ff9632a4be061f5411d6c6d3cfc8960e175d277f6a53e60005485600080878787604051610b209796959493929190611afc565b60405180910390a150505050565b60066040518060400160405280848152602001838152509080600181540180825580915050600190039060005260206000209060020201600090919091909150600082015181600001556020820151816001019081610b8d91906119ef565b5050505050565b60606006805480602002602001604051908101604052809291908181526020016000905b82821015610c86578382906000526020600020906002020160405180604001604052908160008201548152602001600182018054610bf59061176c565b80601f0160208091040260200160405190810160405280929190818152602001828054610c219061176c565b8015610c6e5780601f10610c4357610100808354040283529160200191610c6e565b820191906000526020600020905b815481529060010190602001808311610c5157829003601f168201915b50505050508152505081526020019060010190610bb8565b50505050905090565b600782908060018154018082558091505060019003906000526020600020016000909190919091509081610cc391906119ef565b50600860008281526020019081526020016000206003016000815480929190610ceb906117fb565b91905055505050565b6040518060e001604052806000815260200160608152602001600081526020016000815260200160608152602001606081526020016000151581525090565b6000819050919050565b610d4681610d33565b82525050565b6000602082019050610d616000830184610d3d565b92915050565b600081519050919050565b600082825260208201905092915050565b6000819050602082019050919050565b600073ffffffffffffffffffffffffffffffffffffffff82169050919050565b6000610dbe82610d93565b9050919050565b610dce81610db3565b82525050565b6000610de08383610dc5565b60208301905092915050565b6000602082019050919050565b6000610e0482610d67565b610e0e8185610d72565b9350610e1983610d83565b8060005b83811015610e4a578151610e318882610dd4565b9750610e3c83610dec565b925050600181019050610e1d565b5085935050505092915050565b60006020820190508181036000830152610e718184610df9565b905092915050565b600081519050919050565b600082825260208201905092915050565b6000819050602082019050919050565b610eae81610d33565b82525050565b600081519050919050565b600082825260208201905092915050565b60005b83811015610eee578082015181840152602081019050610ed3565b60008484015250505050565b6000601f19601f8301169050919050565b6000610f1682610eb4565b610f208185610ebf565b9350610f30818560208601610ed0565b610f3981610efa565b840191505092915050565b60008115159050919050565b610f5981610f44565b82525050565b600060e083016000830151610f776000860182610ea5565b5060208301518482036020860152610f8f8282610f0b565b9150506040830151610fa46040860182610ea5565b506060830151610fb76060860182610ea5565b5060808301518482036080860152610fcf8282610f0b565b91505060a083015184820360a0860152610fe98282610f0b565b91505060c0830151610ffe60c0860182610f50565b508091505092915050565b60006110158383610f5f565b905092915050565b6000602082019050919050565b600061103582610e79565b61103f8185610e84565b93508360208202850161105185610e95565b8060005b8581101561108d578484038952815161106e8582611009565b94506110798361101d565b925060208a01995050600181019050611055565b50829750879550505050505092915050565b600060208201905081810360008301526110b9818461102a565b905092915050565b6000604051905090565b600080fd5b600080fd5b6110de81610d33565b81146110e957600080fd5b50565b6000813590506110fb816110d5565b92915050565b600060208284031215611117576111166110cb565b5b6000611125848285016110ec565b91505092915050565b600082825260208201905092915050565b600061114a82610eb4565b611154818561112e565b9350611164818560208601610ed0565b61116d81610efa565b840191505092915050565b61118181610f44565b82525050565b600060e08201905061119c600083018a610d3d565b81810360208301526111ae818961113f565b90506111bd6040830188610d3d565b6111ca6060830187610d3d565b81810360808301526111dc818661113f565b905081810360a08301526111f0818561113f565b90506111ff60c0830184611178565b98975050505050505050565b600081519050919050565b600082825260208201905092915050565b6000819050602082019050919050565b60006112438383610f0b565b905092915050565b6000602082019050919050565b60006112638261120b565b61126d8185611216565b93508360208202850161127f85611227565b8060005b858110156112bb578484038952815161129c8582611237565b94506112a78361124b565b925060208a01995050600181019050611283565b50829750879550505050505092915050565b600060208201905081810360008301526112e78184611258565b905092915050565b6112f881610db3565b811461130357600080fd5b50565b600081359050611315816112ef565b92915050565b600060208284031215611331576113306110cb565b5b600061133f84828501611306565b91505092915050565b600080fd5b600080fd5b7f4e487b7100000000000000000000000000000000000000000000000000000000600052604160045260246000fd5b61138a82610efa565b810181811067ffffffffffffffff821117156113a9576113a8611352565b5b80604052505050565b60006113bc6110c1565b90506113c88282611381565b919050565b600067ffffffffffffffff8211156113e8576113e7611352565b5b6113f182610efa565b9050602081019050919050565b82818337600083830152505050565b600061142061141b846113cd565b6113b2565b90508281526020810184848401111561143c5761143b61134d565b5b6114478482856113fe565b509392505050565b600082601f83011261146457611463611348565b5b813561147484826020860161140d565b91505092915050565b61148681610f44565b811461149157600080fd5b50565b6000813590506114a38161147d565b92915050565b600080600080608085870312156114c3576114c26110cb565b5b600085013567ffffffffffffffff8111156114e1576114e06110d0565b5b6114ed8782880161144f565b945050602085013567ffffffffffffffff81111561150e5761150d6110d0565b5b61151a8782880161144f565b935050604085013567ffffffffffffffff81111561153b5761153a6110d0565b5b6115478782880161144f565b925050606061155887828801611494565b91505092959194509250565b6000806040838503121561157b5761157a6110cb565b5b6000611589858286016110ec565b925050602083013567ffffffffffffffff8111156115aa576115a96110d0565b5b6115b68582860161144f565b9150509250929050565b600081519050919050565b600082825260208201905092915050565b6000819050602082019050919050565b60006040830160008301516116046000860182610ea5565b506020830151848203602086015261161c8282610f0b565b9150508091505092915050565b600061163583836115ec565b905092915050565b6000602082019050919050565b6000611655826115c0565b61165f81856115cb565b935083602082028501611671856115dc565b8060005b858110156116ad578484038952815161168e8582611629565b94506116998361163d565b925060208a01995050600181019050611675565b50829750879550505050505092915050565b600060208201905081810360008301526116d9818461164a565b905092915050565b600080604083850312156116f8576116f76110cb565b5b600083013567ffffffffffffffff811115611716576117156110d0565b5b6117228582860161144f565b9250506020611733858286016110ec565b9150509250929050565b7f4e487b7100000000000000000000000000000000000000000000000000000000600052602260045260246000fd5b6000600282049050600182168061178457607f821691505b6020821081036117975761179661173d565b5b50919050565b7f4e487b7100000000000000000000000000000000000000000000000000000000600052603260045260246000fd5b7f4e487b7100000000000000000000000000000000000000000000000000000000600052601160045260246000fd5b600061180682610d33565b91507fffffffffffffffffffffffffffffffffffffffffffffffffffffffffffffffff8203611838576118376117cc565b5b600182019050919050565b60008190508160005260206000209050919050565b60006020601f8301049050919050565b600082821b905092915050565b6000600883026118a57fffffffffffffffffffffffffffffffffffffffffffffffffffffffffffffffff82611868565b6118af8683611868565b95508019841693508086168417925050509392505050565b6000819050919050565b60006118ec6118e76118e284610d33565b6118c7565b610d33565b9050919050565b6000819050919050565b611906836118d1565b61191a611912826118f3565b848454611875565b825550505050565b600090565b61192f611922565b61193a8184846118fd565b505050565b5b8181101561195e57611953600082611927565b600181019050611940565b5050565b601f8211156119a35761197481611843565b61197d84611858565b8101602085101561198c578190505b6119a061199885611858565b83018261193f565b50505b505050565b600082821c905092915050565b60006119c6600019846008026119a8565b1980831691505092915050565b60006119df83836119b5565b9150826002028217905092915050565b6119f882610eb4565b67ffffffffffffffff811115611a1157611a10611352565b5b611a1b825461176c565b611a26828285611962565b600060209050601f831160018114611a595760008415611a47578287015190505b611a5185826119d3565b865550611ab9565b601f198416611a6786611843565b60005b82811015611a8f57848901518255600182019150602085019450602081019050611a6a565b86831015611aac5784890151611aa8601f8916826119b5565b8355505b6001600288020188555050505b505050505050565b6000819050919050565b6000611ae6611ae1611adc84611ac1565b6118c7565b610d33565b9050919050565b611af681611acb565b82525050565b600060e082019050611b11600083018a610d3d565b8181036020830152611b23818961113f565b9050611b326040830188611aed565b611b3f6060830187611aed565b8181036080830152611b51818661113f565b905081810360a0830152611b65818561113f565b9050611b7460c0830184611178565b9897505050505050505056fea2646970667358221220f85cac822bd99ff6672446f904a83b3265bb465a72ee74427dcc407b9082dc1b64736f6c63430008110033a2646970667358221220fb95b19b33061b0b70994c8f69273845d14f1429d4ba176fa2fa0f64b4b6eb2a64736f6c63430008110033",
  "immutableReferences": {},
  "source": "// SPDX-License-Identifier: GPL-3.0\r\npragma solidity >=0.8.0;\r\n\r\ncontract Maincontract {\r\n    uint256 userCounts;\r\n    uint256 verifiedUserCounts;\r\n\r\n    constructor() {\r\n        userCounts = 0;\r\n        verifiedUserCounts = 0;\r\n    }\r\n\r\n    struct UserStruct {\r\n        address walletId;\r\n        address userContractAddress;\r\n        string userName;\r\n        string password;\r\n        bool isVerified;\r\n    }\r\n\r\n    event User(\r\n        address walletId,\r\n        address userContractAddress,\r\n        string userName,\r\n        string password,\r\n        bool isVerified\r\n    );\r\n\r\n    mapping(address => UserStruct) public userStructs;\r\n    mapping(string => address) public userNameToWalletId;\r\n\r\n    function createUser(\r\n        address _walletId,\r\n        string memory _userName,\r\n        string memory _password\r\n    ) public {\r\n        address uca = address(new UserContract(_walletId));\r\n        userStructs[_walletId].walletId = _walletId;\r\n        userStructs[_walletId].userName = _userName;\r\n        userStructs[_walletId].password = _password;\r\n        userStructs[_walletId].isVerified = false;\r\n        userStructs[_walletId].userContractAddress = uca;\r\n        userCounts++;\r\n        userNameToWalletId[_userName] = _walletId;\r\n        emit User(_walletId, uca, _userName, _password, false);\r\n    }\r\n\r\n    function getUser(address _walletId)\r\n        public\r\n        view\r\n        returns (\r\n            address,\r\n            string memory,\r\n            string memory,\r\n            bool,\r\n            address\r\n        )\r\n    {\r\n        if (userStructs[_walletId].walletId == address(0)) {\r\n            return (\r\n                address(0),\r\n                \"account does not exist\",\r\n                \"\",\r\n                false,\r\n                address(0)\r\n            );\r\n        }\r\n        return (\r\n            userStructs[_walletId].walletId,\r\n            userStructs[_walletId].userName,\r\n            userStructs[_walletId].password,\r\n            userStructs[_walletId].isVerified,\r\n            userStructs[_walletId].userContractAddress\r\n        );\r\n    }\r\n\r\n    function getUserByUserName(string memory _userName)\r\n        public\r\n        view\r\n        returns (\r\n            address,\r\n            string memory,\r\n            string memory,\r\n            bool,\r\n            address\r\n        )\r\n    {\r\n        address _walletId = userNameToWalletId[_userName];\r\n        if (userStructs[_walletId].walletId == address(0)) {\r\n            return (\r\n                address(0),\r\n                \"account does not exist\",\r\n                \"\",\r\n                false,\r\n                address(0)\r\n            );\r\n        }\r\n        return (\r\n            userStructs[_walletId].walletId,\r\n            userStructs[_walletId].userName,\r\n            userStructs[_walletId].password,\r\n            userStructs[_walletId].isVerified,\r\n            userStructs[_walletId].userContractAddress\r\n        );\r\n    }\r\n\r\n    function getUserCount() public view returns (uint256) {\r\n        return userCounts;\r\n    }\r\n\r\n    function getVerifiedUserCount() public view returns (uint256) {\r\n        return verifiedUserCounts;\r\n    }\r\n\r\n    function verifyUser(address _walletId) public {\r\n        userStructs[_walletId].isVerified = true;\r\n        verifiedUserCounts++;\r\n    }\r\n\r\n    function makePost(\r\n        address _walletId,\r\n        string memory _postContent,\r\n        string memory timeStamp\r\n    ) public {\r\n        UserContract uc = UserContract(\r\n            userStructs[_walletId].userContractAddress\r\n        );\r\n        uc.createPost(\r\n            _postContent,\r\n            timeStamp,\r\n            userStructs[_walletId].userName,\r\n            userStructs[_walletId].isVerified\r\n        );\r\n    }\r\n\r\n    function makeComment(\r\n        string memory _comment,\r\n        string memory _postOwner,\r\n        uint256 _postId\r\n    ) public {\r\n        address _walletId = userNameToWalletId[_postOwner];\r\n        UserContract uc = UserContract(\r\n            userStructs[_walletId].userContractAddress\r\n        );\r\n        uc.createComment(_comment, _postId);\r\n    }\r\n\r\n    function getComments(string memory _postOwner)\r\n        public\r\n        view\r\n        returns (string[] memory)\r\n    {\r\n        address _walletId = userNameToWalletId[_postOwner];\r\n        UserContract uc = UserContract(\r\n            userStructs[_walletId].userContractAddress\r\n        );\r\n        return uc.getComments();\r\n    }\r\n\r\n    function likePost(\r\n        string memory _userName,\r\n        uint256 _postId,\r\n        address _myWalletId\r\n    ) public {\r\n        address _walletId = userNameToWalletId[_userName];\r\n        UserContract uc = UserContract(\r\n            userStructs[_walletId].userContractAddress\r\n        );\r\n        uc.likePost(_postId);\r\n        UserContract ucf = UserContract(\r\n            userStructs[_myWalletId].userContractAddress\r\n        );\r\n        // concat postId and userName\r\n        // string memory _postIdAndUserName = string(\r\n        //     abi.encodePacked(_postId, \" \", _userName)\r\n        // );\r\n        ucf.updateMylikes(_postId, _userName);\r\n    }\r\n\r\n    function followUser(address _walletId, address _followingId) public {\r\n        UserContract uc = UserContract(\r\n            userStructs[_walletId].userContractAddress\r\n        );\r\n        uc.followSomeone(_followingId);\r\n        UserContract ucf = UserContract(\r\n            userStructs[_followingId].userContractAddress\r\n        );\r\n        ucf.updateFollowersCount();\r\n    }\r\n\r\n    function getFollowing(address _walletId)\r\n        public\r\n        view\r\n        returns (address[] memory)\r\n    {\r\n        UserContract uc = UserContract(\r\n            userStructs[_walletId].userContractAddress\r\n        );\r\n        return uc.getFollowing();\r\n    }\r\n\r\n    function getFollowersCount(address _walletId)\r\n        public\r\n        view\r\n        returns (uint256)\r\n    {\r\n        UserContract uc = UserContract(\r\n            userStructs[_walletId].userContractAddress\r\n        );\r\n        return uc.getFollowersCount();\r\n    }\r\n\r\n    function getPosts(address _walletId)\r\n        public\r\n        view\r\n        returns (UserContract.PostStruct[] memory)\r\n    {\r\n        UserContract uc = UserContract(\r\n            userStructs[_walletId].userContractAddress\r\n        );\r\n        return uc.getPosts();\r\n    }\r\n\r\n    function getPostCount(address _walletId) public view returns (uint256) {\r\n        UserContract uc = UserContract(\r\n            userStructs[_walletId].userContractAddress\r\n        );\r\n        return uc.getPostCount();\r\n    }\r\n\r\n    function getCommentCount(address _walletId) public view returns (uint256) {\r\n        UserContract uc = UserContract(\r\n            userStructs[_walletId].userContractAddress\r\n        );\r\n        return uc.getCommentCount();\r\n    }\r\n\r\n    function getLikeCount(address _walletId) public view returns (uint256) {\r\n        UserContract uc = UserContract(\r\n            userStructs[_walletId].userContractAddress\r\n        );\r\n        return uc.getLikeCount();\r\n    }\r\n\r\n    function getMyLikes(address _walletId)\r\n        public\r\n        view\r\n        returns (UserContract.myLikeStruct[] memory)\r\n    {\r\n        UserContract uc = UserContract(\r\n            userStructs[_walletId].userContractAddress\r\n        );\r\n        return uc.getMyLikes();\r\n    }\r\n}\r\n\r\n///////////////////////////////////////////////////////////////////////////////////////////////////////////////////////////////////////\r\n\r\ncontract UserContract {\r\n    uint256 postCounts;\r\n    uint256 commentCounts;\r\n    uint256 likeCounts;\r\n    address owner;\r\n    uint256 followersCount;\r\n    address[] following;\r\n    myLikeStruct[] myLikes;\r\n    string[] comments;\r\n\r\n    constructor(address walletId) {\r\n        owner = walletId;\r\n        postCounts = 0;\r\n        commentCounts = 0;\r\n        likeCounts = 0;\r\n    }\r\n\r\n    struct PostStruct {\r\n        uint256 postId;\r\n        string postContent;\r\n        uint256 likeCount;\r\n        uint256 commentCount;\r\n        string timeStamp;\r\n        string userName;\r\n        bool isVerified;\r\n    }\r\n    // struct CommentStruct {\r\n    //     uint256 commentId;\r\n    //     string commentContent;\r\n    //     uint256 likeCount;\r\n    // }\r\n    struct myLikeStruct {\r\n        uint256 postId;\r\n        string userName;\r\n    }\r\n    event Post(\r\n        uint256 postId,\r\n        string postContent,\r\n        uint256 likeCount,\r\n        uint256 commentCount,\r\n        string timeStamp,\r\n        string userName,\r\n        bool isVerified\r\n    );\r\n    // event Comment(uint256 commentId, string commentContent, uint256 likeCount);\r\n    event Like(uint256 likeCount);\r\n\r\n    mapping(uint256 => PostStruct) public postStructs;\r\n\r\n    // mapping(uint256 => CommentStruct) public commentStructs;\r\n\r\n    function createPost(\r\n        string memory _postContent,\r\n        string memory timeStamp,\r\n        string memory userName,\r\n        bool isVerified\r\n    ) public {\r\n        postStructs[postCounts].postId = postCounts;\r\n        postStructs[postCounts].postContent = _postContent;\r\n        postStructs[postCounts].likeCount = 0;\r\n        postStructs[postCounts].commentCount = 0;\r\n        postStructs[postCounts].timeStamp = timeStamp;\r\n        postStructs[postCounts].userName = userName;\r\n        postStructs[postCounts].isVerified = isVerified;\r\n\r\n        postCounts++;\r\n        emit Post(\r\n            postCounts,\r\n            _postContent,\r\n            0,\r\n            0,\r\n            timeStamp,\r\n            userName,\r\n            isVerified\r\n        );\r\n    }\r\n\r\n    function createComment(string memory _commentContent, uint256 _postId)\r\n        public\r\n    {\r\n        comments.push(_commentContent);\r\n        postStructs[_postId].commentCount++;\r\n    }\r\n\r\n    function getComments() public view returns (string[] memory) {\r\n        return comments;\r\n    }\r\n\r\n    function likePost(uint256 _postId) public {\r\n        postStructs[_postId].likeCount++;\r\n        emit Like(postStructs[_postId].likeCount);\r\n    }\r\n\r\n    function updateMylikes(uint256 _postId, string memory _userName) public {\r\n        myLikes.push(myLikeStruct(_postId, _userName));\r\n    }\r\n\r\n    function followSomeone(address _walletId) public {\r\n        following.push(_walletId);\r\n    }\r\n\r\n    function updateFollowersCount() public {\r\n        followersCount++;\r\n    }\r\n\r\n    function getFollowersCount() public view returns (uint256) {\r\n        return followersCount;\r\n    }\r\n\r\n    function getFollowing() public view returns (address[] memory) {\r\n        return following;\r\n    }\r\n\r\n    function getPosts() public view returns (PostStruct[] memory) {\r\n        PostStruct[] memory posts = new PostStruct[](postCounts);\r\n        for (uint256 i = 0; i < postCounts; i++) {\r\n            posts[i] = postStructs[i];\r\n        }\r\n        return posts;\r\n    }\r\n\r\n    function getPostCount() public view returns (uint256) {\r\n        return postCounts;\r\n    }\r\n\r\n    function getCommentCount() public view returns (uint256) {\r\n        return commentCounts;\r\n    }\r\n\r\n    function getLikeCount() public view returns (uint256) {\r\n        return likeCounts;\r\n    }\r\n\r\n    function getMyLikes() public view returns (myLikeStruct[] memory) {\r\n        return myLikes;\r\n    }\r\n}\r\n",
  "sourcePath": "D:\\Users\\Desktop\\BOOOKS\\SEMESTER 7\\BCT\\Project\\DE-Verse\\smartcontract\\contracts\\Main.sol",
  "compiler": {
    "name": "solc",
    "version": "0.8.17+commit.8df45f5f.Emscripten.clang"
  },
  "schemaVersion": "3.4.10",
  "updatedAt": "2022-12-24T18:14:57.620Z",
  "networkType": "ethereum",
  "devdoc": {
    "kind": "dev",
    "methods": {},
    "version": 1
  },
  "userdoc": {
    "kind": "user",
    "methods": {},
    "version": 1
  }
}