{
  "contractName": "Maincontract",
  "abi": [
    {
      "inputs": [],
      "stateMutability": "nonpayable",
      "type": "constructor"
    },
    {
      "anonymous": false,
      "inputs": [
        {
          "indexed": false,
          "internalType": "address",
          "name": "walletId",
          "type": "address"
        },
        {
          "indexed": false,
          "internalType": "address",
          "name": "userContractAddress",
          "type": "address"
        },
        {
          "indexed": false,
          "internalType": "string",
          "name": "userName",
          "type": "string"
        },
        {
          "indexed": false,
          "internalType": "string",
          "name": "password",
          "type": "string"
        },
        {
          "indexed": false,
          "internalType": "bool",
          "name": "isVerified",
          "type": "bool"
        }
      ],
      "name": "User",
      "type": "event"
    },
    {
      "inputs": [
        {
          "internalType": "address",
          "name": "",
          "type": "address"
        }
      ],
      "name": "userStructs",
      "outputs": [
        {
          "internalType": "address",
          "name": "walletId",
          "type": "address"
        },
        {
          "internalType": "address",
          "name": "userContractAddress",
          "type": "address"
        },
        {
          "internalType": "string",
          "name": "userName",
          "type": "string"
        },
        {
          "internalType": "string",
          "name": "password",
          "type": "string"
        },
        {
          "internalType": "bool",
          "name": "isVerified",
          "type": "bool"
        }
      ],
      "stateMutability": "view",
      "type": "function"
    },
    {
      "inputs": [
        {
          "internalType": "address",
          "name": "_walletId",
          "type": "address"
        },
        {
          "internalType": "string",
          "name": "_userName",
          "type": "string"
        },
        {
          "internalType": "string",
          "name": "_password",
          "type": "string"
        }
      ],
      "name": "createUser",
      "outputs": [],
      "stateMutability": "nonpayable",
      "type": "function"
    },
    {
      "inputs": [
        {
          "internalType": "address",
          "name": "_walletId",
          "type": "address"
        }
      ],
      "name": "getUser",
      "outputs": [
        {
          "internalType": "address",
          "name": "",
          "type": "address"
        },
        {
          "internalType": "string",
          "name": "",
          "type": "string"
        },
        {
          "internalType": "string",
          "name": "",
          "type": "string"
        },
        {
          "internalType": "bool",
          "name": "",
          "type": "bool"
        }
      ],
      "stateMutability": "view",
      "type": "function"
    },
    {
      "inputs": [],
      "name": "getUserCount",
      "outputs": [
        {
          "internalType": "uint256",
          "name": "",
          "type": "uint256"
        }
      ],
      "stateMutability": "view",
      "type": "function"
    },
    {
      "inputs": [],
      "name": "getVerifiedUserCount",
      "outputs": [
        {
          "internalType": "uint256",
          "name": "",
          "type": "uint256"
        }
      ],
      "stateMutability": "view",
      "type": "function"
    },
    {
      "inputs": [
        {
          "internalType": "address",
          "name": "_walletId",
          "type": "address"
        }
      ],
      "name": "verifyUser",
      "outputs": [],
      "stateMutability": "nonpayable",
      "type": "function"
    }
  ],
  "bytecode": "0x608060405234801561001057600080fd5b506000808190555060006001819055506126518061002f6000396000f3fe60806040523480156200001157600080fd5b50600436106200006a5760003560e01c806319447eb6146200006f5780634ceb48fd14620000a95780634d81312014620000c95780636f77926b14620000e9578063a9b2e7151462000122578063b5cb15f71462000144575b600080fd5b6200008d60048036038101906200008791906200092f565b62000166565b604051620000a095949392919062000a29565b60405180910390f35b620000c76004803603810190620000c1919062000be5565b62000309565b005b620000e76004803603810190620000e191906200092f565b620005a8565b005b6200010760048036038101906200010191906200092f565b62000620565b60405162000119949392919062000c7f565b60405180910390f35b6200012c62000895565b6040516200013b919062000cf5565b60405180910390f35b6200014e6200089f565b6040516200015d919062000cf5565b60405180910390f35b60026020528060005260406000206000915090508060000160009054906101000a900473ffffffffffffffffffffffffffffffffffffffff16908060010160009054906101000a900473ffffffffffffffffffffffffffffffffffffffff1690806002018054620001d79062000d41565b80601f0160208091040260200160405190810160405280929190818152602001828054620002059062000d41565b8015620002565780601f106200022a5761010080835404028352916020019162000256565b820191906000526020600020905b8154815290600101906020018083116200023857829003601f168201915b5050505050908060030180546200026d9062000d41565b80601f01602080910402602001604051908101604052809291908181526020018280546200029b9062000d41565b8015620002ec5780601f10620002c057610100808354040283529160200191620002ec565b820191906000526020600020905b815481529060010190602001808311620002ce57829003601f168201915b5050505050908060040160009054906101000a900460ff16905085565b6000836040516200031a90620008a8565b62000326919062000d76565b604051809103906000f08015801562000343573d6000803e3d6000fd5b50905083600260008673ffffffffffffffffffffffffffffffffffffffff1673ffffffffffffffffffffffffffffffffffffffff16815260200190815260200160002060000160006101000a81548173ffffffffffffffffffffffffffffffffffffffff021916908373ffffffffffffffffffffffffffffffffffffffff16021790555082600260008673ffffffffffffffffffffffffffffffffffffffff1673ffffffffffffffffffffffffffffffffffffffff168152602001908152602001600020600201908162000418919062000f65565b5081600260008673ffffffffffffffffffffffffffffffffffffffff1673ffffffffffffffffffffffffffffffffffffffff16815260200190815260200160002060030190816200046a919062000f65565b506000600260008673ffffffffffffffffffffffffffffffffffffffff1673ffffffffffffffffffffffffffffffffffffffff16815260200190815260200160002060040160006101000a81548160ff02191690831515021790555080600260008673ffffffffffffffffffffffffffffffffffffffff1673ffffffffffffffffffffffffffffffffffffffff16815260200190815260200160002060010160006101000a81548173ffffffffffffffffffffffffffffffffffffffff021916908373ffffffffffffffffffffffffffffffffffffffff1602179055506000808154809291906200055b906200107b565b91905055507f2041b7a4351ac706257b308fda32769804e2afadd729e9b0ef211b0dd03312fc8482858560006040516200059a95949392919062000a29565b60405180910390a150505050565b6001600260008373ffffffffffffffffffffffffffffffffffffffff1673ffffffffffffffffffffffffffffffffffffffff16815260200190815260200160002060040160006101000a81548160ff0219169083151502179055506001600081548092919062000618906200107b565b919050555050565b60006060806000600260008673ffffffffffffffffffffffffffffffffffffffff1673ffffffffffffffffffffffffffffffffffffffff16815260200190815260200160002060000160009054906101000a900473ffffffffffffffffffffffffffffffffffffffff16600260008773ffffffffffffffffffffffffffffffffffffffff1673ffffffffffffffffffffffffffffffffffffffff168152602001908152602001600020600201600260008873ffffffffffffffffffffffffffffffffffffffff1673ffffffffffffffffffffffffffffffffffffffff168152602001908152602001600020600301600260008973ffffffffffffffffffffffffffffffffffffffff1673ffffffffffffffffffffffffffffffffffffffff16815260200190815260200160002060040160009054906101000a900460ff168280546200076c9062000d41565b80601f01602080910402602001604051908101604052809291908181526020018280546200079a9062000d41565b8015620007eb5780601f10620007bf57610100808354040283529160200191620007eb565b820191906000526020600020905b815481529060010190602001808311620007cd57829003601f168201915b50505050509250818054620008009062000d41565b80601f01602080910402602001604051908101604052809291908181526020018280546200082e9062000d41565b80156200087f5780601f1062000853576101008083540402835291602001916200087f565b820191906000526020600020905b8154815290600101906020018083116200086157829003601f168201915b5050505050915093509350935093509193509193565b6000600154905090565b60008054905090565b61155380620010c983390190565b6000604051905090565b600080fd5b600080fd5b600073ffffffffffffffffffffffffffffffffffffffff82169050919050565b6000620008f782620008ca565b9050919050565b6200090981620008ea565b81146200091557600080fd5b50565b6000813590506200092981620008fe565b92915050565b600060208284031215620009485762000947620008c0565b5b6000620009588482850162000918565b91505092915050565b6200096c81620008ea565b82525050565b600081519050919050565b600082825260208201905092915050565b60005b83811015620009ae57808201518184015260208101905062000991565b60008484015250505050565b6000601f19601f8301169050919050565b6000620009d88262000972565b620009e481856200097d565b9350620009f68185602086016200098e565b62000a0181620009ba565b840191505092915050565b60008115159050919050565b62000a238162000a0c565b82525050565b600060a08201905062000a40600083018862000961565b62000a4f602083018762000961565b818103604083015262000a638186620009cb565b9050818103606083015262000a798185620009cb565b905062000a8a608083018462000a18565b9695505050505050565b600080fd5b600080fd5b7f4e487b7100000000000000000000000000000000000000000000000000000000600052604160045260246000fd5b62000ad882620009ba565b810181811067ffffffffffffffff8211171562000afa5762000af962000a9e565b5b80604052505050565b600062000b0f620008b6565b905062000b1d828262000acd565b919050565b600067ffffffffffffffff82111562000b405762000b3f62000a9e565b5b62000b4b82620009ba565b9050602081019050919050565b82818337600083830152505050565b600062000b7e62000b788462000b22565b62000b03565b90508281526020810184848401111562000b9d5762000b9c62000a99565b5b62000baa84828562000b58565b509392505050565b600082601f83011262000bca5762000bc962000a94565b5b813562000bdc84826020860162000b67565b91505092915050565b60008060006060848603121562000c015762000c00620008c0565b5b600062000c118682870162000918565b935050602084013567ffffffffffffffff81111562000c355762000c34620008c5565b5b62000c438682870162000bb2565b925050604084013567ffffffffffffffff81111562000c675762000c66620008c5565b5b62000c758682870162000bb2565b9150509250925092565b600060808201905062000c96600083018762000961565b818103602083015262000caa8186620009cb565b9050818103604083015262000cc08185620009cb565b905062000cd1606083018462000a18565b95945050505050565b6000819050919050565b62000cef8162000cda565b82525050565b600060208201905062000d0c600083018462000ce4565b92915050565b7f4e487b7100000000000000000000000000000000000000000000000000000000600052602260045260246000fd5b6000600282049050600182168062000d5a57607f821691505b60208210810362000d705762000d6f62000d12565b5b50919050565b600060208201905062000d8d600083018462000961565b92915050565b60008190508160005260206000209050919050565b60006020601f8301049050919050565b600082821b905092915050565b60006008830262000df77fffffffffffffffffffffffffffffffffffffffffffffffffffffffffffffffff8262000db8565b62000e03868362000db8565b95508019841693508086168417925050509392505050565b6000819050919050565b600062000e4662000e4062000e3a8462000cda565b62000e1b565b62000cda565b9050919050565b6000819050919050565b62000e628362000e25565b62000e7a62000e718262000e4d565b84845462000dc5565b825550505050565b600090565b62000e9162000e82565b62000e9e81848462000e57565b505050565b5b8181101562000ec65762000eba60008262000e87565b60018101905062000ea4565b5050565b601f82111562000f155762000edf8162000d93565b62000eea8462000da8565b8101602085101562000efa578190505b62000f1262000f098562000da8565b83018262000ea3565b50505b505050565b600082821c905092915050565b600062000f3a6000198460080262000f1a565b1980831691505092915050565b600062000f55838362000f27565b9150826002028217905092915050565b62000f708262000972565b67ffffffffffffffff81111562000f8c5762000f8b62000a9e565b5b62000f98825462000d41565b62000fa582828562000eca565b600060209050601f83116001811462000fdd576000841562000fc8578287015190505b62000fd4858262000f47565b86555062001044565b601f19841662000fed8662000d93565b60005b82811015620010175784890151825560018201915060208501945060208101905062000ff0565b8683101562001037578489015162001033601f89168262000f27565b8355505b6001600288020188555050505b505050505050565b7f4e487b7100000000000000000000000000000000000000000000000000000000600052601160045260246000fd5b6000620010888262000cda565b91507fffffffffffffffffffffffffffffffffffffffffffffffffffffffffffffffff8203620010bd57620010bc6200104c565b5b60018201905091905056fe60806040523480156200001157600080fd5b506040516200155338038062001553833981810160405281019062000037919062000100565b80600360006101000a81548173ffffffffffffffffffffffffffffffffffffffff021916908373ffffffffffffffffffffffffffffffffffffffff16021790555060008081905550600060018190555060006002819055505062000132565b600080fd5b600073ffffffffffffffffffffffffffffffffffffffff82169050919050565b6000620000c8826200009b565b9050919050565b620000da81620000bb565b8114620000e657600080fd5b50565b600081519050620000fa81620000cf565b92915050565b60006020828403121562000119576200011862000096565b5b60006200012984828501620000e9565b91505092915050565b61141180620001426000396000f3fe608060405234801561001057600080fd5b506004361061009e5760003560e01c806391f3410c1161006657806391f3410c1461014a578063b1c8384014610168578063bcc954071461019a578063c4d67b09146101b8578063c7303c61146101d65761009e565b806316e31ea3146100a357806340a17985146100c157806341f3004a146100dd5780636f94a366146100fb578063725009d31461012e575b600080fd5b6100ab6101f2565b6040516100b89190610942565b60405180910390f35b6100db60048036038101906100d69190610ae3565b6101fc565b005b6100e56102e5565b6040516100f29190610cf2565b60405180910390f35b61011560048036038101906101109190610d14565b610454565b6040516101259493929190610d8b565b60405180910390f35b61014860048036038101906101439190610d14565b61050c565b005b610152610588565b60405161015f9190610ee9565b60405180910390f35b610182600480360381019061017d9190610d14565b6106ee565b60405161019193929190610f0b565b60405180910390f35b6101a26107a0565b6040516101af9190610942565b60405180910390f35b6101c06107a9565b6040516101cd9190610942565b60405180910390f35b6101f060048036038101906101eb9190610f49565b6107b3565b005b6000600154905090565b60015460056000600154815260200190815260200160002060000181905550806005600060015481526020019081526020016000206001019081610240919061119e565b506000600560006001548152602001908152602001600020600201819055506004600083815260200190815260200160002060030160008154809291906102869061129f565b91905055506001600081548092919061029e9061129f565b91905055507fb355fcd66e2b46067119b64e24bea4f5f0478651710a06cc627f7b5e94fa04d46001548260006040516102d993929190611322565b60405180910390a15050565b60606000805467ffffffffffffffff811115610304576103036109b8565b5b60405190808252806020026020018201604052801561033d57816020015b61032a6108e0565b8152602001906001900390816103225790505b50905060005b60005481101561044c57600460008281526020019081526020016000206040518060800160405290816000820154815260200160018201805461038590610fc1565b80601f01602080910402602001604051908101604052809291908181526020018280546103b190610fc1565b80156103fe5780601f106103d3576101008083540402835291602001916103fe565b820191906000526020600020905b8154815290600101906020018083116103e157829003601f168201915b505050505081526020016002820154815260200160038201548152505082828151811061042e5761042d611360565b5b602002602001018190525080806104449061129f565b915050610343565b508091505090565b600460205280600052604060002060009150905080600001549080600101805461047d90610fc1565b80601f01602080910402602001604051908101604052809291908181526020018280546104a990610fc1565b80156104f65780601f106104cb576101008083540402835291602001916104f6565b820191906000526020600020905b8154815290600101906020018083116104d957829003601f168201915b5050505050908060020154908060030154905084565b6004600082815260200190815260200160002060020160008154809291906105339061129f565b91905055507f447c5d872ffc7fa2763b13dd068980191537823d15b95a6566333782d757d945600460008381526020019081526020016000206002015460405161057d9190610942565b60405180910390a150565b6060600060015467ffffffffffffffff8111156105a8576105a76109b8565b5b6040519080825280602002602001820160405280156105e157816020015b6105ce610908565b8152602001906001900390816105c65790505b50905060005b6001548110156106e657600560008281526020019081526020016000206040518060600160405290816000820154815260200160018201805461062990610fc1565b80601f016020809104026020016040519081016040528092919081815260200182805461065590610fc1565b80156106a25780601f10610677576101008083540402835291602001916106a2565b820191906000526020600020905b81548152906001019060200180831161068557829003601f168201915b505050505081526020016002820154815250508282815181106106c8576106c7611360565b5b602002602001018190525080806106de9061129f565b9150506105e7565b508091505090565b600560205280600052604060002060009150905080600001549080600101805461071790610fc1565b80601f016020809104026020016040519081016040528092919081815260200182805461074390610fc1565b80156107905780601f1061076557610100808354040283529160200191610790565b820191906000526020600020905b81548152906001019060200180831161077357829003601f168201915b5050505050908060020154905083565b60008054905090565b6000600254905090565b600360009054906101000a900473ffffffffffffffffffffffffffffffffffffffff1673ffffffffffffffffffffffffffffffffffffffff163373ffffffffffffffffffffffffffffffffffffffff16036108dd57600054600460008054815260200190815260200160002060000181905550806004600080548152602001908152602001600020600101908161084a919061119e565b50600060046000805481526020019081526020016000206002018190555060006004600080548152602001908152602001600020600301819055506000808154809291906108979061129f565b91905055507f3c2e48f10481af3957834ee43a888206548cfcec6be012d46e263a309ec1c78b600054826000806040516108d4949392919061138f565b60405180910390a15b50565b6040518060800160405280600081526020016060815260200160008152602001600081525090565b60405180606001604052806000815260200160608152602001600081525090565b6000819050919050565b61093c81610929565b82525050565b60006020820190506109576000830184610933565b92915050565b6000604051905090565b600080fd5b600080fd5b61097a81610929565b811461098557600080fd5b50565b60008135905061099781610971565b92915050565b600080fd5b600080fd5b6000601f19601f8301169050919050565b7f4e487b7100000000000000000000000000000000000000000000000000000000600052604160045260246000fd5b6109f0826109a7565b810181811067ffffffffffffffff82111715610a0f57610a0e6109b8565b5b80604052505050565b6000610a2261095d565b9050610a2e82826109e7565b919050565b600067ffffffffffffffff821115610a4e57610a4d6109b8565b5b610a57826109a7565b9050602081019050919050565b82818337600083830152505050565b6000610a86610a8184610a33565b610a18565b905082815260208101848484011115610aa257610aa16109a2565b5b610aad848285610a64565b509392505050565b600082601f830112610aca57610ac961099d565b5b8135610ada848260208601610a73565b91505092915050565b60008060408385031215610afa57610af9610967565b5b6000610b0885828601610988565b925050602083013567ffffffffffffffff811115610b2957610b2861096c565b5b610b3585828601610ab5565b9150509250929050565b600081519050919050565b600082825260208201905092915050565b6000819050602082019050919050565b610b7481610929565b82525050565b600081519050919050565b600082825260208201905092915050565b60005b83811015610bb4578082015181840152602081019050610b99565b60008484015250505050565b6000610bcb82610b7a565b610bd58185610b85565b9350610be5818560208601610b96565b610bee816109a7565b840191505092915050565b6000608083016000830151610c116000860182610b6b565b5060208301518482036020860152610c298282610bc0565b9150506040830151610c3e6040860182610b6b565b506060830151610c516060860182610b6b565b508091505092915050565b6000610c688383610bf9565b905092915050565b6000602082019050919050565b6000610c8882610b3f565b610c928185610b4a565b935083602082028501610ca485610b5b565b8060005b85811015610ce05784840389528151610cc18582610c5c565b9450610ccc83610c70565b925060208a01995050600181019050610ca8565b50829750879550505050505092915050565b60006020820190508181036000830152610d0c8184610c7d565b905092915050565b600060208284031215610d2a57610d29610967565b5b6000610d3884828501610988565b91505092915050565b600082825260208201905092915050565b6000610d5d82610b7a565b610d678185610d41565b9350610d77818560208601610b96565b610d80816109a7565b840191505092915050565b6000608082019050610da06000830187610933565b8181036020830152610db28186610d52565b9050610dc16040830185610933565b610dce6060830184610933565b95945050505050565b600081519050919050565b600082825260208201905092915050565b6000819050602082019050919050565b6000606083016000830151610e1b6000860182610b6b565b5060208301518482036020860152610e338282610bc0565b9150506040830151610e486040860182610b6b565b508091505092915050565b6000610e5f8383610e03565b905092915050565b6000602082019050919050565b6000610e7f82610dd7565b610e898185610de2565b935083602082028501610e9b85610df3565b8060005b85811015610ed75784840389528151610eb88582610e53565b9450610ec383610e67565b925060208a01995050600181019050610e9f565b50829750879550505050505092915050565b60006020820190508181036000830152610f038184610e74565b905092915050565b6000606082019050610f206000830186610933565b8181036020830152610f328185610d52565b9050610f416040830184610933565b949350505050565b600060208284031215610f5f57610f5e610967565b5b600082013567ffffffffffffffff811115610f7d57610f7c61096c565b5b610f8984828501610ab5565b91505092915050565b7f4e487b7100000000000000000000000000000000000000000000000000000000600052602260045260246000fd5b60006002820490506001821680610fd957607f821691505b602082108103610fec57610feb610f92565b5b50919050565b60008190508160005260206000209050919050565b60006020601f8301049050919050565b600082821b905092915050565b6000600883026110547fffffffffffffffffffffffffffffffffffffffffffffffffffffffffffffffff82611017565b61105e8683611017565b95508019841693508086168417925050509392505050565b6000819050919050565b600061109b61109661109184610929565b611076565b610929565b9050919050565b6000819050919050565b6110b583611080565b6110c96110c1826110a2565b848454611024565b825550505050565b600090565b6110de6110d1565b6110e98184846110ac565b505050565b5b8181101561110d576111026000826110d6565b6001810190506110ef565b5050565b601f8211156111525761112381610ff2565b61112c84611007565b8101602085101561113b578190505b61114f61114785611007565b8301826110ee565b50505b505050565b600082821c905092915050565b600061117560001984600802611157565b1980831691505092915050565b600061118e8383611164565b9150826002028217905092915050565b6111a782610b7a565b67ffffffffffffffff8111156111c0576111bf6109b8565b5b6111ca8254610fc1565b6111d5828285611111565b600060209050601f83116001811461120857600084156111f6578287015190505b6112008582611182565b865550611268565b601f19841661121686610ff2565b60005b8281101561123e57848901518255600182019150602085019450602081019050611219565b8683101561125b5784890151611257601f891682611164565b8355505b6001600288020188555050505b505050505050565b7f4e487b7100000000000000000000000000000000000000000000000000000000600052601160045260246000fd5b60006112aa82610929565b91507fffffffffffffffffffffffffffffffffffffffffffffffffffffffffffffffff82036112dc576112db611270565b5b600182019050919050565b6000819050919050565b600061130c611307611302846112e7565b611076565b610929565b9050919050565b61131c816112f1565b82525050565b60006060820190506113376000830186610933565b81810360208301526113498185610d52565b90506113586040830184611313565b949350505050565b7f4e487b7100000000000000000000000000000000000000000000000000000000600052603260045260246000fd5b60006080820190506113a46000830187610933565b81810360208301526113b68186610d52565b90506113c56040830185611313565b6113d26060830184611313565b9594505050505056fea26469706673582212207954c5ea37b2afbd73e9ef6bd1bcf295d100996ad93ca849b723b153a2f47a4564736f6c63430008110033a26469706673582212201df67e14c1bea7195d1b323d7d463cc7f888ac9581edb56697ae2545caf9f3e764736f6c63430008110033",
  "immutableReferences": {},
  "source": "// SPDX-License-Identifier: GPL-3.0\r\npragma solidity >=0.8.0;\r\n\r\ncontract Maincontract {\r\n    uint256 userCounts;\r\n    uint256 verifiedUserCounts;\r\n\r\n    constructor() {\r\n        userCounts = 0;\r\n        verifiedUserCounts = 0;\r\n    }\r\n\r\n    struct UserStruct {\r\n        address walletId;\r\n        address userContractAddress;\r\n        string userName;\r\n        string password;\r\n        bool isVerified;\r\n    }\r\n\r\n    event User(\r\n        address walletId,\r\n        address userContractAddress,\r\n        string userName,\r\n        string password,\r\n        bool isVerified\r\n    );\r\n\r\n    mapping(address => UserStruct) public userStructs;\r\n\r\n    function createUser(\r\n        address _walletId,\r\n        string memory _userName,\r\n        string memory _password\r\n    ) public {\r\n        address uca = address(new UserContract(_walletId));\r\n        userStructs[_walletId].walletId = _walletId;\r\n        userStructs[_walletId].userName = _userName;\r\n        userStructs[_walletId].password = _password;\r\n        userStructs[_walletId].isVerified = false;\r\n        userStructs[_walletId].userContractAddress = uca;\r\n        userCounts++;\r\n        emit User(_walletId, uca, _userName, _password, false);\r\n    }\r\n\r\n    function getUser(address _walletId)\r\n        public\r\n        view\r\n        returns (\r\n            address,\r\n            string memory,\r\n            string memory,\r\n            bool\r\n        )\r\n    {\r\n        return (\r\n            userStructs[_walletId].walletId,\r\n            userStructs[_walletId].userName,\r\n            userStructs[_walletId].password,\r\n            userStructs[_walletId].isVerified\r\n        );\r\n    }\r\n\r\n    function getUserCount() public view returns (uint256) {\r\n        return userCounts;\r\n    }\r\n\r\n    function getVerifiedUserCount() public view returns (uint256) {\r\n        return verifiedUserCounts;\r\n    }\r\n\r\n    function verifyUser(address _walletId) public {\r\n        userStructs[_walletId].isVerified = true;\r\n        verifiedUserCounts++;\r\n    }\r\n}\r\n\r\n///////////////////////////////////////////////////////////////////////////////////////////////////////////////////////////////////////\r\n\r\ncontract UserContract {\r\n    uint256 postCounts;\r\n    uint256 commentCounts;\r\n    uint256 likeCounts;\r\n    address owner;\r\n\r\n    constructor(address walletId) {\r\n        owner = walletId;\r\n        postCounts = 0;\r\n        commentCounts = 0;\r\n        likeCounts = 0;\r\n    }\r\n\r\n    struct PostStruct {\r\n        uint256 postId;\r\n        string postContent;\r\n        uint256 likeCount;\r\n        uint256 commentCount;\r\n    }\r\n    struct CommentStruct {\r\n        uint256 commentId;\r\n        string commentContent;\r\n        uint256 likeCount;\r\n    }\r\n\r\n    event Post(\r\n        uint256 postId,\r\n        string postContent,\r\n        uint256 likeCount,\r\n        uint256 commentCount\r\n    );\r\n    event Comment(uint256 commentId, string commentContent, uint256 likeCount);\r\n    event Like(uint256 likeCount);\r\n\r\n    mapping(uint256 => PostStruct) public postStructs;\r\n    mapping(uint256 => CommentStruct) public commentStructs;\r\n\r\n    function createPost(string memory _postContent) public {\r\n        if (msg.sender == owner) {\r\n            postStructs[postCounts].postId = postCounts;\r\n            postStructs[postCounts].postContent = _postContent;\r\n            postStructs[postCounts].likeCount = 0;\r\n            postStructs[postCounts].commentCount = 0;\r\n            postCounts++;\r\n            emit Post(postCounts, _postContent, 0, 0);\r\n        }\r\n    }\r\n\r\n    function createComment(uint256 _postId, string memory _commentContent)\r\n        public\r\n    {\r\n        commentStructs[commentCounts].commentId = commentCounts;\r\n        commentStructs[commentCounts].commentContent = _commentContent;\r\n        commentStructs[commentCounts].likeCount = 0;\r\n        postStructs[_postId].commentCount++;\r\n        commentCounts++;\r\n        emit Comment(commentCounts, _commentContent, 0);\r\n    }\r\n\r\n    function likePost(uint256 _postId) public {\r\n        postStructs[_postId].likeCount++;\r\n        emit Like(postStructs[_postId].likeCount);\r\n    }\r\n\r\n    function getPosts() public view returns (PostStruct[] memory) {\r\n        PostStruct[] memory posts = new PostStruct[](postCounts);\r\n        for (uint256 i = 0; i < postCounts; i++) {\r\n            posts[i] = postStructs[i];\r\n        }\r\n        return posts;\r\n    }\r\n\r\n    function getComments() public view returns (CommentStruct[] memory) {\r\n        CommentStruct[] memory comments = new CommentStruct[](commentCounts);\r\n        for (uint256 i = 0; i < commentCounts; i++) {\r\n            comments[i] = commentStructs[i];\r\n        }\r\n        return comments;\r\n    }\r\n\r\n    function getPostCount() public view returns (uint256) {\r\n        return postCounts;\r\n    }\r\n\r\n    function getCommentCount() public view returns (uint256) {\r\n        return commentCounts;\r\n    }\r\n\r\n    function getLikeCount() public view returns (uint256) {\r\n        return likeCounts;\r\n    }\r\n}\r\n",
  "sourcePath": "D:\\Users\\Desktop\\BOOOKS\\SEMESTER 7\\BCT\\Project\\DE-Verse\\smartcontract\\contracts\\Main.sol",
  "compiler": {
    "name": "solc",
    "version": "0.8.17+commit.8df45f5f.Emscripten.clang"
  },
  "schemaVersion": "3.4.10",
  "updatedAt": "2022-12-10T16:32:27.195Z",
  "devdoc": {
    "kind": "dev",
    "methods": {},
    "version": 1
  },
  "userdoc": {
    "kind": "user",
    "methods": {},
    "version": 1
  }
}