{
  "contractName": "UserContract",
  "abi": [
    {
      "inputs": [
        {
          "internalType": "address",
          "name": "walletId",
          "type": "address"
        }
      ],
      "stateMutability": "nonpayable",
      "type": "constructor"
    },
    {
      "anonymous": false,
      "inputs": [
        {
          "indexed": false,
          "internalType": "uint256",
          "name": "likeCount",
          "type": "uint256"
        }
      ],
      "name": "Like",
      "type": "event"
    },
    {
      "anonymous": false,
      "inputs": [
        {
          "indexed": false,
          "internalType": "uint256",
          "name": "postId",
          "type": "uint256"
        },
        {
          "indexed": false,
          "internalType": "string",
          "name": "postContent",
          "type": "string"
        },
        {
          "indexed": false,
          "internalType": "uint256",
          "name": "likeCount",
          "type": "uint256"
        },
        {
          "indexed": false,
          "internalType": "uint256",
          "name": "commentCount",
          "type": "uint256"
        },
        {
          "indexed": false,
          "internalType": "string",
          "name": "timeStamp",
          "type": "string"
        },
        {
          "indexed": false,
          "internalType": "string",
          "name": "userName",
          "type": "string"
        },
        {
          "indexed": false,
          "internalType": "bool",
          "name": "isVerified",
          "type": "bool"
        }
      ],
      "name": "Post",
      "type": "event"
    },
    {
      "inputs": [
        {
          "internalType": "uint256",
          "name": "",
          "type": "uint256"
        }
      ],
      "name": "postStructs",
      "outputs": [
        {
          "internalType": "uint256",
          "name": "postId",
          "type": "uint256"
        },
        {
          "internalType": "string",
          "name": "postContent",
          "type": "string"
        },
        {
          "internalType": "uint256",
          "name": "likeCount",
          "type": "uint256"
        },
        {
          "internalType": "uint256",
          "name": "commentCount",
          "type": "uint256"
        },
        {
          "internalType": "string",
          "name": "timeStamp",
          "type": "string"
        },
        {
          "internalType": "string",
          "name": "userName",
          "type": "string"
        },
        {
          "internalType": "bool",
          "name": "isVerified",
          "type": "bool"
        }
      ],
      "stateMutability": "view",
      "type": "function"
    },
    {
      "inputs": [
        {
          "internalType": "string",
          "name": "_postContent",
          "type": "string"
        },
        {
          "internalType": "string",
          "name": "timeStamp",
          "type": "string"
        },
        {
          "internalType": "string",
          "name": "userName",
          "type": "string"
        },
        {
          "internalType": "bool",
          "name": "isVerified",
          "type": "bool"
        }
      ],
      "name": "createPost",
      "outputs": [],
      "stateMutability": "nonpayable",
      "type": "function"
    },
    {
      "inputs": [
        {
          "internalType": "string",
          "name": "_commentContent",
          "type": "string"
        },
        {
          "internalType": "uint256",
          "name": "_postId",
          "type": "uint256"
        }
      ],
      "name": "createComment",
      "outputs": [],
      "stateMutability": "nonpayable",
      "type": "function"
    },
    {
      "inputs": [],
      "name": "getComments",
      "outputs": [
        {
          "internalType": "string[]",
          "name": "",
          "type": "string[]"
        }
      ],
      "stateMutability": "view",
      "type": "function"
    },
    {
      "inputs": [
        {
          "internalType": "uint256",
          "name": "_postId",
          "type": "uint256"
        }
      ],
      "name": "likePost",
      "outputs": [],
      "stateMutability": "nonpayable",
      "type": "function"
    },
    {
      "inputs": [
        {
          "internalType": "uint256",
          "name": "_postId",
          "type": "uint256"
        },
        {
          "internalType": "string",
          "name": "_userName",
          "type": "string"
        }
      ],
      "name": "updateMylikes",
      "outputs": [],
      "stateMutability": "nonpayable",
      "type": "function"
    },
    {
      "inputs": [
        {
          "internalType": "address",
          "name": "_walletId",
          "type": "address"
        }
      ],
      "name": "followSomeone",
      "outputs": [],
      "stateMutability": "nonpayable",
      "type": "function"
    },
    {
      "inputs": [],
      "name": "updateFollowersCount",
      "outputs": [],
      "stateMutability": "nonpayable",
      "type": "function"
    },
    {
      "inputs": [],
      "name": "getFollowersCount",
      "outputs": [
        {
          "internalType": "uint256",
          "name": "",
          "type": "uint256"
        }
      ],
      "stateMutability": "view",
      "type": "function"
    },
    {
      "inputs": [],
      "name": "getFollowing",
      "outputs": [
        {
          "internalType": "address[]",
          "name": "",
          "type": "address[]"
        }
      ],
      "stateMutability": "view",
      "type": "function"
    },
    {
      "inputs": [],
      "name": "getPosts",
      "outputs": [
        {
          "components": [
            {
              "internalType": "uint256",
              "name": "postId",
              "type": "uint256"
            },
            {
              "internalType": "string",
              "name": "postContent",
              "type": "string"
            },
            {
              "internalType": "uint256",
              "name": "likeCount",
              "type": "uint256"
            },
            {
              "internalType": "uint256",
              "name": "commentCount",
              "type": "uint256"
            },
            {
              "internalType": "string",
              "name": "timeStamp",
              "type": "string"
            },
            {
              "internalType": "string",
              "name": "userName",
              "type": "string"
            },
            {
              "internalType": "bool",
              "name": "isVerified",
              "type": "bool"
            }
          ],
          "internalType": "struct UserContract.PostStruct[]",
          "name": "",
          "type": "tuple[]"
        }
      ],
      "stateMutability": "view",
      "type": "function"
    },
    {
      "inputs": [],
      "name": "getCommentCount",
      "outputs": [
        {
          "internalType": "uint256",
          "name": "",
          "type": "uint256"
        }
      ],
      "stateMutability": "view",
      "type": "function"
    },
    {
      "inputs": [],
      "name": "getLikeCount",
      "outputs": [
        {
          "internalType": "uint256",
          "name": "",
          "type": "uint256"
        }
      ],
      "stateMutability": "view",
      "type": "function"
    },
    {
      "inputs": [],
      "name": "getMyLikes",
      "outputs": [
        {
          "components": [
            {
              "internalType": "uint256",
              "name": "postId",
              "type": "uint256"
            },
            {
              "internalType": "string",
              "name": "userName",
              "type": "string"
            }
          ],
          "internalType": "struct UserContract.myLikeStruct[]",
          "name": "",
          "type": "tuple[]"
        }
      ],
      "stateMutability": "view",
      "type": "function"
    }
  ],
  "bytecode": "0x60806040523480156200001157600080fd5b5060405162001cc638038062001cc6833981810160405281019062000037919062000100565b80600360006101000a81548173ffffffffffffffffffffffffffffffffffffffff021916908373ffffffffffffffffffffffffffffffffffffffff16021790555060008081905550600060018190555060006002819055505062000132565b600080fd5b600073ffffffffffffffffffffffffffffffffffffffff82169050919050565b6000620000c8826200009b565b9050919050565b620000da81620000bb565b8114620000e657600080fd5b50565b600081519050620000fa81620000cf565b92915050565b60006020828403121562000119576200011862000096565b5b60006200012984828501620000e9565b91505092915050565b611b8480620001426000396000f3fe608060405234801561001057600080fd5b50600436106100ea5760003560e01c806399c50dd11161008c578063e71ef23d11610066578063e71ef23d1461021b578063eb058a2f14610237578063ecf0a45d14610253578063f72ead1314610271576100ea565b806399c50dd1146101c3578063c4d67b09146101df578063e22bce27146101fd576100ea565b806360f2e378116100c857806360f2e378146101495780636f94a36614610153578063725009d31461018957806391f3410c146101a5576100ea565b806316e31ea3146100ef57806323f147021461010d57806341f3004a1461012b575b600080fd5b6100f761028d565b6040516101049190610d1a565b60405180910390f35b610115610297565b6040516101229190610e25565b60405180910390f35b610133610325565b604051610140919061106d565b60405180910390f35b6101516105d3565b005b61016d600480360381019061016891906110cf565b6105ed565b6040516101809796959493929190611155565b60405180910390f35b6101a3600480360381019061019e91906110cf565b6107d4565b005b6101ad610850565b6040516101ba919061129b565b60405180910390f35b6101dd60048036038101906101d891906112e9565b610929565b005b6101e761098f565b6040516101f49190610d1a565b60405180910390f35b610205610999565b6040516102129190610d1a565b60405180910390f35b61023560048036038101906102309190611477565b6109a3565b005b610251600480360381019061024c9190611532565b610afc565b005b61025b610b62565b604051610268919061168d565b60405180910390f35b61028b600480360381019061028691906116af565b610c5d565b005b6000600154905090565b6060600580548060200260200160405190810160405280929190818152602001828054801561031b57602002820191906000526020600020905b8160009054906101000a900473ffffffffffffffffffffffffffffffffffffffff1673ffffffffffffffffffffffffffffffffffffffff16815260200190600101908083116102d1575b5050505050905090565b60606000805467ffffffffffffffff81111561034457610343611320565b5b60405190808252806020026020018201604052801561037d57816020015b61036a610cc2565b8152602001906001900390816103625790505b50905060005b6000548110156105cb57600860008281526020019081526020016000206040518060e0016040529081600082015481526020016001820180546103c59061173a565b80601f01602080910402602001604051908101604052809291908181526020018280546103f19061173a565b801561043e5780601f106104135761010080835404028352916020019161043e565b820191906000526020600020905b81548152906001019060200180831161042157829003601f168201915b50505050508152602001600282015481526020016003820154815260200160048201805461046b9061173a565b80601f01602080910402602001604051908101604052809291908181526020018280546104979061173a565b80156104e45780601f106104b9576101008083540402835291602001916104e4565b820191906000526020600020905b8154815290600101906020018083116104c757829003601f168201915b505050505081526020016005820180546104fd9061173a565b80601f01602080910402602001604051908101604052809291908181526020018280546105299061173a565b80156105765780601f1061054b57610100808354040283529160200191610576565b820191906000526020600020905b81548152906001019060200180831161055957829003601f168201915b505050505081526020016006820160009054906101000a900460ff1615151515815250508282815181106105ad576105ac61176b565b5b602002602001018190525080806105c3906117c9565b915050610383565b508091505090565b600460008154809291906105e6906117c9565b9190505550565b60086020528060005260406000206000915090508060000154908060010180546106169061173a565b80601f01602080910402602001604051908101604052809291908181526020018280546106429061173a565b801561068f5780601f106106645761010080835404028352916020019161068f565b820191906000526020600020905b81548152906001019060200180831161067257829003601f168201915b5050505050908060020154908060030154908060040180546106b09061173a565b80601f01602080910402602001604051908101604052809291908181526020018280546106dc9061173a565b80156107295780601f106106fe57610100808354040283529160200191610729565b820191906000526020600020905b81548152906001019060200180831161070c57829003601f168201915b50505050509080600501805461073e9061173a565b80601f016020809104026020016040519081016040528092919081815260200182805461076a9061173a565b80156107b75780601f1061078c576101008083540402835291602001916107b7565b820191906000526020600020905b81548152906001019060200180831161079a57829003601f168201915b5050505050908060060160009054906101000a900460ff16905087565b6008600082815260200190815260200160002060020160008154809291906107fb906117c9565b91905055507f447c5d872ffc7fa2763b13dd068980191537823d15b95a6566333782d757d94560086000838152602001908152602001600020600201546040516108459190610d1a565b60405180910390a150565b60606007805480602002602001604051908101604052809291908181526020016000905b828210156109205783829060005260206000200180546108939061173a565b80601f01602080910402602001604051908101604052809291908181526020018280546108bf9061173a565b801561090c5780601f106108e15761010080835404028352916020019161090c565b820191906000526020600020905b8154815290600101906020018083116108ef57829003601f168201915b505050505081526020019060010190610874565b50505050905090565b6005819080600181540180825580915050600190039060005260206000200160009091909190916101000a81548173ffffffffffffffffffffffffffffffffffffffff021916908373ffffffffffffffffffffffffffffffffffffffff16021790555050565b6000600254905090565b6000600454905090565b60005460086000805481526020019081526020016000206000018190555083600860008054815260200190815260200160002060010190816109e591906119bd565b50600060086000805481526020019081526020016000206002018190555060006008600080548152602001908152602001600020600301819055508260086000805481526020019081526020016000206004019081610a4491906119bd565b508160086000805481526020019081526020016000206005019081610a6991906119bd565b5080600860008054815260200190815260200160002060060160006101000a81548160ff021916908315150217905550600080815480929190610aab906117c9565b91905055507f689bb0330c1c7078d60ff9632a4be061f5411d6c6d3cfc8960e175d277f6a53e60005485600080878787604051610aee9796959493929190611aca565b60405180910390a150505050565b60066040518060400160405280848152602001838152509080600181540180825580915050600190039060005260206000209060020201600090919091909150600082015181600001556020820151816001019081610b5b91906119bd565b5050505050565b60606006805480602002602001604051908101604052809291908181526020016000905b82821015610c54578382906000526020600020906002020160405180604001604052908160008201548152602001600182018054610bc39061173a565b80601f0160208091040260200160405190810160405280929190818152602001828054610bef9061173a565b8015610c3c5780601f10610c1157610100808354040283529160200191610c3c565b820191906000526020600020905b815481529060010190602001808311610c1f57829003601f168201915b50505050508152505081526020019060010190610b86565b50505050905090565b600782908060018154018082558091505060019003906000526020600020016000909190919091509081610c9191906119bd565b50600860008281526020019081526020016000206003016000815480929190610cb9906117c9565b91905055505050565b6040518060e001604052806000815260200160608152602001600081526020016000815260200160608152602001606081526020016000151581525090565b6000819050919050565b610d1481610d01565b82525050565b6000602082019050610d2f6000830184610d0b565b92915050565b600081519050919050565b600082825260208201905092915050565b6000819050602082019050919050565b600073ffffffffffffffffffffffffffffffffffffffff82169050919050565b6000610d8c82610d61565b9050919050565b610d9c81610d81565b82525050565b6000610dae8383610d93565b60208301905092915050565b6000602082019050919050565b6000610dd282610d35565b610ddc8185610d40565b9350610de783610d51565b8060005b83811015610e18578151610dff8882610da2565b9750610e0a83610dba565b925050600181019050610deb565b5085935050505092915050565b60006020820190508181036000830152610e3f8184610dc7565b905092915050565b600081519050919050565b600082825260208201905092915050565b6000819050602082019050919050565b610e7c81610d01565b82525050565b600081519050919050565b600082825260208201905092915050565b60005b83811015610ebc578082015181840152602081019050610ea1565b60008484015250505050565b6000601f19601f8301169050919050565b6000610ee482610e82565b610eee8185610e8d565b9350610efe818560208601610e9e565b610f0781610ec8565b840191505092915050565b60008115159050919050565b610f2781610f12565b82525050565b600060e083016000830151610f456000860182610e73565b5060208301518482036020860152610f5d8282610ed9565b9150506040830151610f726040860182610e73565b506060830151610f856060860182610e73565b5060808301518482036080860152610f9d8282610ed9565b91505060a083015184820360a0860152610fb78282610ed9565b91505060c0830151610fcc60c0860182610f1e565b508091505092915050565b6000610fe38383610f2d565b905092915050565b6000602082019050919050565b600061100382610e47565b61100d8185610e52565b93508360208202850161101f85610e63565b8060005b8581101561105b578484038952815161103c8582610fd7565b945061104783610feb565b925060208a01995050600181019050611023565b50829750879550505050505092915050565b600060208201905081810360008301526110878184610ff8565b905092915050565b6000604051905090565b600080fd5b600080fd5b6110ac81610d01565b81146110b757600080fd5b50565b6000813590506110c9816110a3565b92915050565b6000602082840312156110e5576110e4611099565b5b60006110f3848285016110ba565b91505092915050565b600082825260208201905092915050565b600061111882610e82565b61112281856110fc565b9350611132818560208601610e9e565b61113b81610ec8565b840191505092915050565b61114f81610f12565b82525050565b600060e08201905061116a600083018a610d0b565b818103602083015261117c818961110d565b905061118b6040830188610d0b565b6111986060830187610d0b565b81810360808301526111aa818661110d565b905081810360a08301526111be818561110d565b90506111cd60c0830184611146565b98975050505050505050565b600081519050919050565b600082825260208201905092915050565b6000819050602082019050919050565b60006112118383610ed9565b905092915050565b6000602082019050919050565b6000611231826111d9565b61123b81856111e4565b93508360208202850161124d856111f5565b8060005b85811015611289578484038952815161126a8582611205565b945061127583611219565b925060208a01995050600181019050611251565b50829750879550505050505092915050565b600060208201905081810360008301526112b58184611226565b905092915050565b6112c681610d81565b81146112d157600080fd5b50565b6000813590506112e3816112bd565b92915050565b6000602082840312156112ff576112fe611099565b5b600061130d848285016112d4565b91505092915050565b600080fd5b600080fd5b7f4e487b7100000000000000000000000000000000000000000000000000000000600052604160045260246000fd5b61135882610ec8565b810181811067ffffffffffffffff8211171561137757611376611320565b5b80604052505050565b600061138a61108f565b9050611396828261134f565b919050565b600067ffffffffffffffff8211156113b6576113b5611320565b5b6113bf82610ec8565b9050602081019050919050565b82818337600083830152505050565b60006113ee6113e98461139b565b611380565b90508281526020810184848401111561140a5761140961131b565b5b6114158482856113cc565b509392505050565b600082601f83011261143257611431611316565b5b81356114428482602086016113db565b91505092915050565b61145481610f12565b811461145f57600080fd5b50565b6000813590506114718161144b565b92915050565b6000806000806080858703121561149157611490611099565b5b600085013567ffffffffffffffff8111156114af576114ae61109e565b5b6114bb8782880161141d565b945050602085013567ffffffffffffffff8111156114dc576114db61109e565b5b6114e88782880161141d565b935050604085013567ffffffffffffffff8111156115095761150861109e565b5b6115158782880161141d565b925050606061152687828801611462565b91505092959194509250565b6000806040838503121561154957611548611099565b5b6000611557858286016110ba565b925050602083013567ffffffffffffffff8111156115785761157761109e565b5b6115848582860161141d565b9150509250929050565b600081519050919050565b600082825260208201905092915050565b6000819050602082019050919050565b60006040830160008301516115d26000860182610e73565b50602083015184820360208601526115ea8282610ed9565b9150508091505092915050565b600061160383836115ba565b905092915050565b6000602082019050919050565b60006116238261158e565b61162d8185611599565b93508360208202850161163f856115aa565b8060005b8581101561167b578484038952815161165c85826115f7565b94506116678361160b565b925060208a01995050600181019050611643565b50829750879550505050505092915050565b600060208201905081810360008301526116a78184611618565b905092915050565b600080604083850312156116c6576116c5611099565b5b600083013567ffffffffffffffff8111156116e4576116e361109e565b5b6116f08582860161141d565b9250506020611701858286016110ba565b9150509250929050565b7f4e487b7100000000000000000000000000000000000000000000000000000000600052602260045260246000fd5b6000600282049050600182168061175257607f821691505b6020821081036117655761176461170b565b5b50919050565b7f4e487b7100000000000000000000000000000000000000000000000000000000600052603260045260246000fd5b7f4e487b7100000000000000000000000000000000000000000000000000000000600052601160045260246000fd5b60006117d482610d01565b91507fffffffffffffffffffffffffffffffffffffffffffffffffffffffffffffffff82036118065761180561179a565b5b600182019050919050565b60008190508160005260206000209050919050565b60006020601f8301049050919050565b600082821b905092915050565b6000600883026118737fffffffffffffffffffffffffffffffffffffffffffffffffffffffffffffffff82611836565b61187d8683611836565b95508019841693508086168417925050509392505050565b6000819050919050565b60006118ba6118b56118b084610d01565b611895565b610d01565b9050919050565b6000819050919050565b6118d48361189f565b6118e86118e0826118c1565b848454611843565b825550505050565b600090565b6118fd6118f0565b6119088184846118cb565b505050565b5b8181101561192c576119216000826118f5565b60018101905061190e565b5050565b601f8211156119715761194281611811565b61194b84611826565b8101602085101561195a578190505b61196e61196685611826565b83018261190d565b50505b505050565b600082821c905092915050565b600061199460001984600802611976565b1980831691505092915050565b60006119ad8383611983565b9150826002028217905092915050565b6119c682610e82565b67ffffffffffffffff8111156119df576119de611320565b5b6119e9825461173a565b6119f4828285611930565b600060209050601f831160018114611a275760008415611a15578287015190505b611a1f85826119a1565b865550611a87565b601f198416611a3586611811565b60005b82811015611a5d57848901518255600182019150602085019450602081019050611a38565b86831015611a7a5784890151611a76601f891682611983565b8355505b6001600288020188555050505b505050505050565b6000819050919050565b6000611ab4611aaf611aaa84611a8f565b611895565b610d01565b9050919050565b611ac481611a99565b82525050565b600060e082019050611adf600083018a610d0b565b8181036020830152611af1818961110d565b9050611b006040830188611abb565b611b0d6060830187611abb565b8181036080830152611b1f818661110d565b905081810360a0830152611b33818561110d565b9050611b4260c0830184611146565b9897505050505050505056fea26469706673582212207cf06a136deb74d08b42fb3c154dd8ad0d2b3b35227a85e7664827cf15fa4a2864736f6c63430008110033",
  "immutableReferences": {},
  "source": "// SPDX-License-Identifier: GPL-3.0\r\npragma solidity >=0.8.0;\r\n\r\ncontract Maincontract {\r\n    uint256 userCounts;\r\n    uint256 verifiedUserCounts;\r\n\r\n    constructor() {\r\n        userCounts = 0;\r\n        verifiedUserCounts = 0;\r\n    }\r\n\r\n    struct UserStruct {\r\n        address walletId;\r\n        address userContractAddress;\r\n        string userName;\r\n        string password;\r\n        bool isVerified;\r\n        uint256 creationBlock;\r\n    }\r\n    struct PostStruct {\r\n        uint256 postId;\r\n        string postContent;\r\n        uint256 likeCount;\r\n        uint256 commentCount;\r\n        string timeStamp;\r\n        string userName;\r\n        bool isVerified;\r\n    }\r\n\r\n    event User(\r\n        address walletId,\r\n        address userContractAddress,\r\n        string userName,\r\n        string password,\r\n        bool isVerified\r\n    );\r\n    event Post(\r\n        uint256 postId,\r\n        string postContent,\r\n        uint256 likeCount,\r\n        uint256 commentCount,\r\n        string timeStamp,\r\n        string userName,\r\n        bool isVerified\r\n    );\r\n\r\n    mapping(address => UserStruct) public userStructs;\r\n    mapping(string => address) public userNameToWalletId;\r\n    address[] public numberToWalletId;\r\n    string[] public userNames;\r\n\r\n    function createUser(\r\n        address _walletId,\r\n        string memory _userName,\r\n        string memory _password\r\n    ) public {\r\n        require(\r\n            userStructs[_walletId].walletId == address(0),\r\n            \"user already exists\"\r\n        );\r\n        require(\r\n            userNameToWalletId[_userName] == address(0),\r\n            \"user already exists\"\r\n        );\r\n        for (uint256 i = 0; i < numberToWalletId.length; i++) {\r\n            require(numberToWalletId[i] != _walletId, \"user already exists\");\r\n        }\r\n        for (uint256 i = 0; i < userNames.length; i++) {\r\n            require(\r\n                keccak256(abi.encodePacked(userNames[i])) !=\r\n                    keccak256(abi.encodePacked(_userName)),\r\n                \"user already exists\"\r\n            );\r\n        }\r\n\r\n        address uca = address(new UserContract(_walletId));\r\n        userStructs[_walletId].walletId = _walletId;\r\n        userStructs[_walletId].userName = _userName;\r\n        userStructs[_walletId].password = _password;\r\n        userStructs[_walletId].isVerified = false;\r\n        userStructs[_walletId].userContractAddress = uca;\r\n        userStructs[_walletId].creationBlock = block.number;\r\n        userNameToWalletId[_userName] = _walletId;\r\n        userNames.push(_userName);\r\n        numberToWalletId.push(_walletId);\r\n        userCounts++;\r\n\r\n        emit User(_walletId, uca, _userName, _password, false);\r\n    }\r\n\r\n    function getAllUserNames() public view returns (string[] memory) {\r\n        return userNames;\r\n    }\r\n\r\n    function checkAndVerifyUser() public {\r\n        for (uint256 i = 0; i < numberToWalletId.length; i++) {\r\n            if (\r\n                userStructs[numberToWalletId[i]].creationBlock + 5 <\r\n                block.number\r\n            ) {\r\n                userStructs[numberToWalletId[i]].isVerified = true;\r\n                verifiedUserCounts++;\r\n            }\r\n        }\r\n    }\r\n\r\n    function getUser(address _walletId)\r\n        public\r\n        view\r\n        returns (\r\n            address,\r\n            string memory,\r\n            string memory,\r\n            bool,\r\n            address\r\n        )\r\n    {\r\n        if (userStructs[_walletId].walletId == address(0)) {\r\n            return (\r\n                address(0),\r\n                \"account does not exist\",\r\n                \"\",\r\n                false,\r\n                address(0)\r\n            );\r\n        }\r\n        return (\r\n            userStructs[_walletId].walletId,\r\n            userStructs[_walletId].userName,\r\n            userStructs[_walletId].password,\r\n            userStructs[_walletId].isVerified,\r\n            userStructs[_walletId].userContractAddress\r\n        );\r\n    }\r\n\r\n    function getUserByUserName(string memory _userName)\r\n        public\r\n        view\r\n        returns (\r\n            address,\r\n            string memory,\r\n            string memory,\r\n            bool,\r\n            address\r\n        )\r\n    {\r\n        address _walletId = userNameToWalletId[_userName];\r\n        if (userStructs[_walletId].walletId == address(0)) {\r\n            return (\r\n                address(0),\r\n                \"account does not exist\",\r\n                \"\",\r\n                false,\r\n                address(0)\r\n            );\r\n        }\r\n        return (\r\n            userStructs[_walletId].walletId,\r\n            userStructs[_walletId].userName,\r\n            userStructs[_walletId].password,\r\n            userStructs[_walletId].isVerified,\r\n            userStructs[_walletId].userContractAddress\r\n        );\r\n    }\r\n\r\n    function getUserCount() public view returns (uint256) {\r\n        return userCounts;\r\n    }\r\n\r\n    function getVerifiedUserCount() public view returns (uint256) {\r\n        return verifiedUserCounts;\r\n    }\r\n\r\n    function makePost(\r\n        address _walletId,\r\n        string memory _postContent,\r\n        string memory timeStamp\r\n    ) public {\r\n        UserContract uc = UserContract(\r\n            userStructs[_walletId].userContractAddress\r\n        );\r\n        uc.createPost(\r\n            _postContent,\r\n            timeStamp,\r\n            userStructs[_walletId].userName,\r\n            userStructs[_walletId].isVerified\r\n        );\r\n\r\n        checkAndVerifyUser();\r\n    }\r\n\r\n    function makeComment(\r\n        string memory _comment,\r\n        string memory _postOwner,\r\n        uint256 _postId\r\n    ) public {\r\n        address _walletId = userNameToWalletId[_postOwner];\r\n        UserContract uc = UserContract(\r\n            userStructs[_walletId].userContractAddress\r\n        );\r\n        uc.createComment(_comment, _postId);\r\n\r\n        checkAndVerifyUser();\r\n    }\r\n\r\n    function getComments(string memory _postOwner)\r\n        public\r\n        view\r\n        returns (string[] memory)\r\n    {\r\n        address _walletId = userNameToWalletId[_postOwner];\r\n        UserContract uc = UserContract(\r\n            userStructs[_walletId].userContractAddress\r\n        );\r\n        return uc.getComments();\r\n    }\r\n\r\n    function likePost(\r\n        string memory _userName,\r\n        uint256 _postId,\r\n        address _myWalletId\r\n    ) public {\r\n        address _walletId = userNameToWalletId[_userName];\r\n        UserContract uc = UserContract(\r\n            userStructs[_walletId].userContractAddress\r\n        );\r\n        uc.likePost(_postId);\r\n        UserContract ucf = UserContract(\r\n            userStructs[_myWalletId].userContractAddress\r\n        );\r\n        ucf.updateMylikes(_postId, _userName);\r\n\r\n        checkAndVerifyUser();\r\n    }\r\n\r\n    function followUser(address _walletId, address _followingId) public {\r\n        UserContract uc = UserContract(\r\n            userStructs[_walletId].userContractAddress\r\n        );\r\n        uc.followSomeone(_followingId);\r\n        UserContract ucf = UserContract(\r\n            userStructs[_followingId].userContractAddress\r\n        );\r\n        ucf.updateFollowersCount();\r\n\r\n        checkAndVerifyUser();\r\n    }\r\n\r\n    function getFollowing(address _walletId)\r\n        public\r\n        view\r\n        returns (address[] memory)\r\n    {\r\n        UserContract uc = UserContract(\r\n            userStructs[_walletId].userContractAddress\r\n        );\r\n        return uc.getFollowing();\r\n    }\r\n\r\n    function getFollowersCount(address _walletId)\r\n        public\r\n        view\r\n        returns (uint256)\r\n    {\r\n        UserContract uc = UserContract(\r\n            userStructs[_walletId].userContractAddress\r\n        );\r\n        return uc.getFollowersCount();\r\n    }\r\n\r\n    function getPosts(address _walletId)\r\n        public\r\n        view\r\n        returns (UserContract.PostStruct[] memory)\r\n    {\r\n        UserContract uc = UserContract(\r\n            userStructs[_walletId].userContractAddress\r\n        );\r\n        return uc.getPosts();\r\n    }\r\n\r\n    function getAllUsersAddress() public view returns (address[] memory) {\r\n        return numberToWalletId;\r\n    }\r\n\r\n    function getCommentCount(address _walletId) public view returns (uint256) {\r\n        UserContract uc = UserContract(\r\n            userStructs[_walletId].userContractAddress\r\n        );\r\n        return uc.getCommentCount();\r\n    }\r\n\r\n    function getLikeCount(address _walletId) public view returns (uint256) {\r\n        UserContract uc = UserContract(\r\n            userStructs[_walletId].userContractAddress\r\n        );\r\n        return uc.getLikeCount();\r\n    }\r\n\r\n    function getMyLikes(address _walletId)\r\n        public\r\n        view\r\n        returns (UserContract.myLikeStruct[] memory)\r\n    {\r\n        UserContract uc = UserContract(\r\n            userStructs[_walletId].userContractAddress\r\n        );\r\n        return uc.getMyLikes();\r\n    }\r\n}\r\n\r\n///////////////////////////////////////////////////////////////////////////////////////////////////////////////////////////////////////\r\n\r\ncontract UserContract {\r\n    uint256 postCounts;\r\n    uint256 commentCounts;\r\n    uint256 likeCounts;\r\n    address owner;\r\n    uint256 followersCount;\r\n    address[] following;\r\n    myLikeStruct[] myLikes;\r\n    string[] comments;\r\n\r\n    constructor(address walletId) {\r\n        owner = walletId;\r\n        postCounts = 0;\r\n        commentCounts = 0;\r\n        likeCounts = 0;\r\n    }\r\n\r\n    struct PostStruct {\r\n        uint256 postId;\r\n        string postContent;\r\n        uint256 likeCount;\r\n        uint256 commentCount;\r\n        string timeStamp;\r\n        string userName;\r\n        bool isVerified;\r\n    }\r\n\r\n    struct myLikeStruct {\r\n        uint256 postId;\r\n        string userName;\r\n    }\r\n    event Post(\r\n        uint256 postId,\r\n        string postContent,\r\n        uint256 likeCount,\r\n        uint256 commentCount,\r\n        string timeStamp,\r\n        string userName,\r\n        bool isVerified\r\n    );\r\n    event Like(uint256 likeCount);\r\n\r\n    mapping(uint256 => PostStruct) public postStructs;\r\n\r\n    function createPost(\r\n        string memory _postContent,\r\n        string memory timeStamp,\r\n        string memory userName,\r\n        bool isVerified\r\n    ) public {\r\n        postStructs[postCounts].postId = postCounts;\r\n        postStructs[postCounts].postContent = _postContent;\r\n        postStructs[postCounts].likeCount = 0;\r\n        postStructs[postCounts].commentCount = 0;\r\n        postStructs[postCounts].timeStamp = timeStamp;\r\n        postStructs[postCounts].userName = userName;\r\n        postStructs[postCounts].isVerified = isVerified;\r\n\r\n        postCounts++;\r\n        emit Post(\r\n            postCounts,\r\n            _postContent,\r\n            0,\r\n            0,\r\n            timeStamp,\r\n            userName,\r\n            isVerified\r\n        );\r\n    }\r\n\r\n    function createComment(string memory _commentContent, uint256 _postId)\r\n        public\r\n    {\r\n        comments.push(_commentContent);\r\n        postStructs[_postId].commentCount++;\r\n    }\r\n\r\n    function getComments() public view returns (string[] memory) {\r\n        return comments;\r\n    }\r\n\r\n    function likePost(uint256 _postId) public {\r\n        postStructs[_postId].likeCount++;\r\n        emit Like(postStructs[_postId].likeCount);\r\n    }\r\n\r\n    function updateMylikes(uint256 _postId, string memory _userName) public {\r\n        myLikes.push(myLikeStruct(_postId, _userName));\r\n    }\r\n\r\n    function followSomeone(address _walletId) public {\r\n        following.push(_walletId);\r\n    }\r\n\r\n    function updateFollowersCount() public {\r\n        followersCount++;\r\n    }\r\n\r\n    function getFollowersCount() public view returns (uint256) {\r\n        return followersCount;\r\n    }\r\n\r\n    function getFollowing() public view returns (address[] memory) {\r\n        return following;\r\n    }\r\n\r\n    function getPosts() public view returns (PostStruct[] memory) {\r\n        PostStruct[] memory posts = new PostStruct[](postCounts);\r\n        for (uint256 i = 0; i < postCounts; i++) {\r\n            posts[i] = postStructs[i];\r\n        }\r\n        return posts;\r\n    }\r\n\r\n    function getCommentCount() public view returns (uint256) {\r\n        return commentCounts;\r\n    }\r\n\r\n    function getLikeCount() public view returns (uint256) {\r\n        return likeCounts;\r\n    }\r\n\r\n    function getMyLikes() public view returns (myLikeStruct[] memory) {\r\n        return myLikes;\r\n    }\r\n}\r\n",
  "sourcePath": "D:\\Users\\Desktop\\BOOOKS\\SEMESTER 7\\BCT\\Project\\DE-Verse\\smartcontract\\contracts\\Main.sol",
  "compiler": {
    "name": "solc",
    "version": "0.8.17+commit.8df45f5f.Emscripten.clang"
  },
  "schemaVersion": "3.4.10",
  "updatedAt": "2022-12-25T15:01:35.746Z",
  "devdoc": {
    "kind": "dev",
    "methods": {},
    "version": 1
  },
  "userdoc": {
    "kind": "user",
    "methods": {},
    "version": 1
  }
}