{
  "contractName": "UserContract",
  "abi": [
    {
      "inputs": [
        {
          "internalType": "address",
          "name": "walletId",
          "type": "address"
        }
      ],
      "stateMutability": "nonpayable",
      "type": "constructor"
    },
    {
      "anonymous": false,
      "inputs": [
        {
          "indexed": false,
          "internalType": "uint256",
          "name": "commentId",
          "type": "uint256"
        },
        {
          "indexed": false,
          "internalType": "string",
          "name": "commentContent",
          "type": "string"
        },
        {
          "indexed": false,
          "internalType": "uint256",
          "name": "likeCount",
          "type": "uint256"
        }
      ],
      "name": "Comment",
      "type": "event"
    },
    {
      "anonymous": false,
      "inputs": [
        {
          "indexed": false,
          "internalType": "uint256",
          "name": "likeCount",
          "type": "uint256"
        }
      ],
      "name": "Like",
      "type": "event"
    },
    {
      "anonymous": false,
      "inputs": [
        {
          "indexed": false,
          "internalType": "uint256",
          "name": "postId",
          "type": "uint256"
        },
        {
          "indexed": false,
          "internalType": "string",
          "name": "postContent",
          "type": "string"
        },
        {
          "indexed": false,
          "internalType": "uint256",
          "name": "likeCount",
          "type": "uint256"
        },
        {
          "indexed": false,
          "internalType": "uint256",
          "name": "commentCount",
          "type": "uint256"
        },
        {
          "indexed": false,
          "internalType": "string",
          "name": "timeStamp",
          "type": "string"
        },
        {
          "indexed": false,
          "internalType": "string",
          "name": "userName",
          "type": "string"
        },
        {
          "indexed": false,
          "internalType": "bool",
          "name": "isVerified",
          "type": "bool"
        }
      ],
      "name": "Post",
      "type": "event"
    },
    {
      "inputs": [
        {
          "internalType": "uint256",
          "name": "",
          "type": "uint256"
        }
      ],
      "name": "commentStructs",
      "outputs": [
        {
          "internalType": "uint256",
          "name": "commentId",
          "type": "uint256"
        },
        {
          "internalType": "string",
          "name": "commentContent",
          "type": "string"
        },
        {
          "internalType": "uint256",
          "name": "likeCount",
          "type": "uint256"
        }
      ],
      "stateMutability": "view",
      "type": "function"
    },
    {
      "inputs": [
        {
          "internalType": "uint256",
          "name": "",
          "type": "uint256"
        }
      ],
      "name": "postStructs",
      "outputs": [
        {
          "internalType": "uint256",
          "name": "postId",
          "type": "uint256"
        },
        {
          "internalType": "string",
          "name": "postContent",
          "type": "string"
        },
        {
          "internalType": "uint256",
          "name": "likeCount",
          "type": "uint256"
        },
        {
          "internalType": "uint256",
          "name": "commentCount",
          "type": "uint256"
        },
        {
          "internalType": "string",
          "name": "timeStamp",
          "type": "string"
        },
        {
          "internalType": "string",
          "name": "userName",
          "type": "string"
        },
        {
          "internalType": "bool",
          "name": "isVerified",
          "type": "bool"
        }
      ],
      "stateMutability": "view",
      "type": "function"
    },
    {
      "inputs": [
        {
          "internalType": "string",
          "name": "_postContent",
          "type": "string"
        },
        {
          "internalType": "string",
          "name": "timeStamp",
          "type": "string"
        },
        {
          "internalType": "string",
          "name": "userName",
          "type": "string"
        },
        {
          "internalType": "bool",
          "name": "isVerified",
          "type": "bool"
        }
      ],
      "name": "createPost",
      "outputs": [],
      "stateMutability": "nonpayable",
      "type": "function"
    },
    {
      "inputs": [
        {
          "internalType": "uint256",
          "name": "_postId",
          "type": "uint256"
        },
        {
          "internalType": "string",
          "name": "_commentContent",
          "type": "string"
        }
      ],
      "name": "createComment",
      "outputs": [],
      "stateMutability": "nonpayable",
      "type": "function"
    },
    {
      "inputs": [
        {
          "internalType": "uint256",
          "name": "_postId",
          "type": "uint256"
        }
      ],
      "name": "likePost",
      "outputs": [],
      "stateMutability": "nonpayable",
      "type": "function"
    },
    {
      "inputs": [],
      "name": "getPosts",
      "outputs": [
        {
          "components": [
            {
              "internalType": "uint256",
              "name": "postId",
              "type": "uint256"
            },
            {
              "internalType": "string",
              "name": "postContent",
              "type": "string"
            },
            {
              "internalType": "uint256",
              "name": "likeCount",
              "type": "uint256"
            },
            {
              "internalType": "uint256",
              "name": "commentCount",
              "type": "uint256"
            },
            {
              "internalType": "string",
              "name": "timeStamp",
              "type": "string"
            },
            {
              "internalType": "string",
              "name": "userName",
              "type": "string"
            },
            {
              "internalType": "bool",
              "name": "isVerified",
              "type": "bool"
            }
          ],
          "internalType": "struct UserContract.PostStruct[]",
          "name": "",
          "type": "tuple[]"
        }
      ],
      "stateMutability": "view",
      "type": "function"
    },
    {
      "inputs": [],
      "name": "getComments",
      "outputs": [
        {
          "components": [
            {
              "internalType": "uint256",
              "name": "commentId",
              "type": "uint256"
            },
            {
              "internalType": "string",
              "name": "commentContent",
              "type": "string"
            },
            {
              "internalType": "uint256",
              "name": "likeCount",
              "type": "uint256"
            }
          ],
          "internalType": "struct UserContract.CommentStruct[]",
          "name": "",
          "type": "tuple[]"
        }
      ],
      "stateMutability": "view",
      "type": "function"
    },
    {
      "inputs": [],
      "name": "getPostCount",
      "outputs": [
        {
          "internalType": "uint256",
          "name": "",
          "type": "uint256"
        }
      ],
      "stateMutability": "view",
      "type": "function"
    },
    {
      "inputs": [],
      "name": "getCommentCount",
      "outputs": [
        {
          "internalType": "uint256",
          "name": "",
          "type": "uint256"
        }
      ],
      "stateMutability": "view",
      "type": "function"
    },
    {
      "inputs": [],
      "name": "getLikeCount",
      "outputs": [
        {
          "internalType": "uint256",
          "name": "",
          "type": "uint256"
        }
      ],
      "stateMutability": "view",
      "type": "function"
    }
  ],
  "bytecode": "0x60806040523480156200001157600080fd5b506040516200198638038062001986833981810160405281019062000037919062000100565b80600360006101000a81548173ffffffffffffffffffffffffffffffffffffffff021916908373ffffffffffffffffffffffffffffffffffffffff16021790555060008081905550600060018190555060006002819055505062000132565b600080fd5b600073ffffffffffffffffffffffffffffffffffffffff82169050919050565b6000620000c8826200009b565b9050919050565b620000da81620000bb565b8114620000e657600080fd5b50565b600081519050620000fa81620000cf565b92915050565b60006020828403121562000119576200011862000096565b5b60006200012984828501620000e9565b91505092915050565b61184480620001426000396000f3fe608060405234801561001057600080fd5b506004361061009e5760003560e01c806391f3410c1161006657806391f3410c1461014d578063b1c838401461016b578063bcc954071461019d578063c4d67b09146101bb578063e71ef23d146101d95761009e565b806316e31ea3146100a357806340a17985146100c157806341f3004a146100dd5780636f94a366146100fb578063725009d314610131575b600080fd5b6100ab6101f5565b6040516100b89190610bf6565b60405180910390f35b6100db60048036038101906100d69190610d97565b6101ff565b005b6100e56102e8565b6040516100f29190611008565b60405180910390f35b6101156004803603810190610110919061102a565b610596565b60405161012897969594939291906110b0565b60405180910390f35b61014b6004803603810190610146919061102a565b61077d565b005b6101556107f9565b6040516101629190611246565b60405180910390f35b6101856004803603810190610180919061102a565b61095f565b60405161019493929190611268565b60405180910390f35b6101a5610a11565b6040516101b29190610bf6565b60405180910390f35b6101c3610a1a565b6040516101d09190610bf6565b60405180910390f35b6101f360048036038101906101ee91906112d2565b610a24565b005b6000600154905090565b600154600560006001548152602001908152602001600020600001819055508060056000600154815260200190815260200160002060010190816102439190611599565b506000600560006001548152602001908152602001600020600201819055506004600083815260200190815260200160002060030160008154809291906102899061169a565b9190505550600160008154809291906102a19061169a565b91905055507fb355fcd66e2b46067119b64e24bea4f5f0478651710a06cc627f7b5e94fa04d46001548260006040516102dc9392919061171d565b60405180910390a15050565b60606000805467ffffffffffffffff81111561030757610306610c6c565b5b60405190808252806020026020018201604052801561034057816020015b61032d610b7d565b8152602001906001900390816103255790505b50905060005b60005481101561058e57600460008281526020019081526020016000206040518060e001604052908160008201548152602001600182018054610388906113bc565b80601f01602080910402602001604051908101604052809291908181526020018280546103b4906113bc565b80156104015780601f106103d657610100808354040283529160200191610401565b820191906000526020600020905b8154815290600101906020018083116103e457829003601f168201915b50505050508152602001600282015481526020016003820154815260200160048201805461042e906113bc565b80601f016020809104026020016040519081016040528092919081815260200182805461045a906113bc565b80156104a75780601f1061047c576101008083540402835291602001916104a7565b820191906000526020600020905b81548152906001019060200180831161048a57829003601f168201915b505050505081526020016005820180546104c0906113bc565b80601f01602080910402602001604051908101604052809291908181526020018280546104ec906113bc565b80156105395780601f1061050e57610100808354040283529160200191610539565b820191906000526020600020905b81548152906001019060200180831161051c57829003601f168201915b505050505081526020016006820160009054906101000a900460ff1615151515815250508282815181106105705761056f61175b565b5b602002602001018190525080806105869061169a565b915050610346565b508091505090565b60046020528060005260406000206000915090508060000154908060010180546105bf906113bc565b80601f01602080910402602001604051908101604052809291908181526020018280546105eb906113bc565b80156106385780601f1061060d57610100808354040283529160200191610638565b820191906000526020600020905b81548152906001019060200180831161061b57829003601f168201915b505050505090806002015490806003015490806004018054610659906113bc565b80601f0160208091040260200160405190810160405280929190818152602001828054610685906113bc565b80156106d25780601f106106a7576101008083540402835291602001916106d2565b820191906000526020600020905b8154815290600101906020018083116106b557829003601f168201915b5050505050908060050180546106e7906113bc565b80601f0160208091040260200160405190810160405280929190818152602001828054610713906113bc565b80156107605780601f1061073557610100808354040283529160200191610760565b820191906000526020600020905b81548152906001019060200180831161074357829003601f168201915b5050505050908060060160009054906101000a900460ff16905087565b6004600082815260200190815260200160002060020160008154809291906107a49061169a565b91905055507f447c5d872ffc7fa2763b13dd068980191537823d15b95a6566333782d757d94560046000838152602001908152602001600020600201546040516107ee9190610bf6565b60405180910390a150565b6060600060015467ffffffffffffffff81111561081957610818610c6c565b5b60405190808252806020026020018201604052801561085257816020015b61083f610bbc565b8152602001906001900390816108375790505b50905060005b60015481101561095757600560008281526020019081526020016000206040518060600160405290816000820154815260200160018201805461089a906113bc565b80601f01602080910402602001604051908101604052809291908181526020018280546108c6906113bc565b80156109135780601f106108e857610100808354040283529160200191610913565b820191906000526020600020905b8154815290600101906020018083116108f657829003601f168201915b505050505081526020016002820154815250508282815181106109395761093861175b565b5b6020026020010181905250808061094f9061169a565b915050610858565b508091505090565b6005602052806000526040600020600091509050806000015490806001018054610988906113bc565b80601f01602080910402602001604051908101604052809291908181526020018280546109b4906113bc565b8015610a015780601f106109d657610100808354040283529160200191610a01565b820191906000526020600020905b8154815290600101906020018083116109e457829003601f168201915b5050505050908060020154905083565b60008054905090565b6000600254905090565b6000546004600080548152602001908152602001600020600001819055508360046000805481526020019081526020016000206001019081610a669190611599565b50600060046000805481526020019081526020016000206002018190555060006004600080548152602001908152602001600020600301819055508260046000805481526020019081526020016000206004019081610ac59190611599565b508160046000805481526020019081526020016000206005019081610aea9190611599565b5080600460008054815260200190815260200160002060060160006101000a81548160ff021916908315150217905550600080815480929190610b2c9061169a565b91905055507f689bb0330c1c7078d60ff9632a4be061f5411d6c6d3cfc8960e175d277f6a53e60005485600080878787604051610b6f979695949392919061178a565b60405180910390a150505050565b6040518060e001604052806000815260200160608152602001600081526020016000815260200160608152602001606081526020016000151581525090565b60405180606001604052806000815260200160608152602001600081525090565b6000819050919050565b610bf081610bdd565b82525050565b6000602082019050610c0b6000830184610be7565b92915050565b6000604051905090565b600080fd5b600080fd5b610c2e81610bdd565b8114610c3957600080fd5b50565b600081359050610c4b81610c25565b92915050565b600080fd5b600080fd5b6000601f19601f8301169050919050565b7f4e487b7100000000000000000000000000000000000000000000000000000000600052604160045260246000fd5b610ca482610c5b565b810181811067ffffffffffffffff82111715610cc357610cc2610c6c565b5b80604052505050565b6000610cd6610c11565b9050610ce28282610c9b565b919050565b600067ffffffffffffffff821115610d0257610d01610c6c565b5b610d0b82610c5b565b9050602081019050919050565b82818337600083830152505050565b6000610d3a610d3584610ce7565b610ccc565b905082815260208101848484011115610d5657610d55610c56565b5b610d61848285610d18565b509392505050565b600082601f830112610d7e57610d7d610c51565b5b8135610d8e848260208601610d27565b91505092915050565b60008060408385031215610dae57610dad610c1b565b5b6000610dbc85828601610c3c565b925050602083013567ffffffffffffffff811115610ddd57610ddc610c20565b5b610de985828601610d69565b9150509250929050565b600081519050919050565b600082825260208201905092915050565b6000819050602082019050919050565b610e2881610bdd565b82525050565b600081519050919050565b600082825260208201905092915050565b60005b83811015610e68578082015181840152602081019050610e4d565b60008484015250505050565b6000610e7f82610e2e565b610e898185610e39565b9350610e99818560208601610e4a565b610ea281610c5b565b840191505092915050565b60008115159050919050565b610ec281610ead565b82525050565b600060e083016000830151610ee06000860182610e1f565b5060208301518482036020860152610ef88282610e74565b9150506040830151610f0d6040860182610e1f565b506060830151610f206060860182610e1f565b5060808301518482036080860152610f388282610e74565b91505060a083015184820360a0860152610f528282610e74565b91505060c0830151610f6760c0860182610eb9565b508091505092915050565b6000610f7e8383610ec8565b905092915050565b6000602082019050919050565b6000610f9e82610df3565b610fa88185610dfe565b935083602082028501610fba85610e0f565b8060005b85811015610ff65784840389528151610fd78582610f72565b9450610fe283610f86565b925060208a01995050600181019050610fbe565b50829750879550505050505092915050565b600060208201905081810360008301526110228184610f93565b905092915050565b6000602082840312156110405761103f610c1b565b5b600061104e84828501610c3c565b91505092915050565b600082825260208201905092915050565b600061107382610e2e565b61107d8185611057565b935061108d818560208601610e4a565b61109681610c5b565b840191505092915050565b6110aa81610ead565b82525050565b600060e0820190506110c5600083018a610be7565b81810360208301526110d78189611068565b90506110e66040830188610be7565b6110f36060830187610be7565b81810360808301526111058186611068565b905081810360a08301526111198185611068565b905061112860c08301846110a1565b98975050505050505050565b600081519050919050565b600082825260208201905092915050565b6000819050602082019050919050565b60006060830160008301516111786000860182610e1f565b50602083015184820360208601526111908282610e74565b91505060408301516111a56040860182610e1f565b508091505092915050565b60006111bc8383611160565b905092915050565b6000602082019050919050565b60006111dc82611134565b6111e6818561113f565b9350836020820285016111f885611150565b8060005b85811015611234578484038952815161121585826111b0565b9450611220836111c4565b925060208a019950506001810190506111fc565b50829750879550505050505092915050565b6000602082019050818103600083015261126081846111d1565b905092915050565b600060608201905061127d6000830186610be7565b818103602083015261128f8185611068565b905061129e6040830184610be7565b949350505050565b6112af81610ead565b81146112ba57600080fd5b50565b6000813590506112cc816112a6565b92915050565b600080600080608085870312156112ec576112eb610c1b565b5b600085013567ffffffffffffffff81111561130a57611309610c20565b5b61131687828801610d69565b945050602085013567ffffffffffffffff81111561133757611336610c20565b5b61134387828801610d69565b935050604085013567ffffffffffffffff81111561136457611363610c20565b5b61137087828801610d69565b9250506060611381878288016112bd565b91505092959194509250565b7f4e487b7100000000000000000000000000000000000000000000000000000000600052602260045260246000fd5b600060028204905060018216806113d457607f821691505b6020821081036113e7576113e661138d565b5b50919050565b60008190508160005260206000209050919050565b60006020601f8301049050919050565b600082821b905092915050565b60006008830261144f7fffffffffffffffffffffffffffffffffffffffffffffffffffffffffffffffff82611412565b6114598683611412565b95508019841693508086168417925050509392505050565b6000819050919050565b600061149661149161148c84610bdd565b611471565b610bdd565b9050919050565b6000819050919050565b6114b08361147b565b6114c46114bc8261149d565b84845461141f565b825550505050565b600090565b6114d96114cc565b6114e48184846114a7565b505050565b5b81811015611508576114fd6000826114d1565b6001810190506114ea565b5050565b601f82111561154d5761151e816113ed565b61152784611402565b81016020851015611536578190505b61154a61154285611402565b8301826114e9565b50505b505050565b600082821c905092915050565b600061157060001984600802611552565b1980831691505092915050565b6000611589838361155f565b9150826002028217905092915050565b6115a282610e2e565b67ffffffffffffffff8111156115bb576115ba610c6c565b5b6115c582546113bc565b6115d082828561150c565b600060209050601f83116001811461160357600084156115f1578287015190505b6115fb858261157d565b865550611663565b601f198416611611866113ed565b60005b8281101561163957848901518255600182019150602085019450602081019050611614565b868310156116565784890151611652601f89168261155f565b8355505b6001600288020188555050505b505050505050565b7f4e487b7100000000000000000000000000000000000000000000000000000000600052601160045260246000fd5b60006116a582610bdd565b91507fffffffffffffffffffffffffffffffffffffffffffffffffffffffffffffffff82036116d7576116d661166b565b5b600182019050919050565b6000819050919050565b60006117076117026116fd846116e2565b611471565b610bdd565b9050919050565b611717816116ec565b82525050565b60006060820190506117326000830186610be7565b81810360208301526117448185611068565b9050611753604083018461170e565b949350505050565b7f4e487b7100000000000000000000000000000000000000000000000000000000600052603260045260246000fd5b600060e08201905061179f600083018a610be7565b81810360208301526117b18189611068565b90506117c0604083018861170e565b6117cd606083018761170e565b81810360808301526117df8186611068565b905081810360a08301526117f38185611068565b905061180260c08301846110a1565b9897505050505050505056fea26469706673582212209b68751500d18df6d4ceb1710868ee113f3c0dc11543e42768e9b746bf95c03f64736f6c63430008110033",
  "immutableReferences": {},
  "source": "// SPDX-License-Identifier: GPL-3.0\r\npragma solidity >=0.8.0;\r\n\r\ncontract Maincontract {\r\n    uint256 userCounts;\r\n    uint256 verifiedUserCounts;\r\n\r\n    constructor() {\r\n        userCounts = 0;\r\n        verifiedUserCounts = 0;\r\n    }\r\n\r\n    struct UserStruct {\r\n        address walletId;\r\n        address userContractAddress;\r\n        string userName;\r\n        string password;\r\n        bool isVerified;\r\n    }\r\n\r\n    event User(\r\n        address walletId,\r\n        address userContractAddress,\r\n        string userName,\r\n        string password,\r\n        bool isVerified\r\n    );\r\n\r\n    mapping(address => UserStruct) public userStructs;\r\n\r\n    function createUser(\r\n        address _walletId,\r\n        string memory _userName,\r\n        string memory _password\r\n    ) public {\r\n        address uca = address(new UserContract(_walletId));\r\n        userStructs[_walletId].walletId = _walletId;\r\n        userStructs[_walletId].userName = _userName;\r\n        userStructs[_walletId].password = _password;\r\n        userStructs[_walletId].isVerified = false;\r\n        userStructs[_walletId].userContractAddress = uca;\r\n        userCounts++;\r\n        emit User(_walletId, uca, _userName, _password, false);\r\n    }\r\n\r\n    function getUser(address _walletId)\r\n        public\r\n        view\r\n        returns (\r\n            address,\r\n            string memory,\r\n            string memory,\r\n            bool,\r\n            address\r\n        )\r\n    {\r\n        if (userStructs[_walletId].walletId == address(0)) {\r\n            return (\r\n                address(0),\r\n                \"account does not exist\",\r\n                \"\",\r\n                false,\r\n                address(0)\r\n            );\r\n        }\r\n        return (\r\n            userStructs[_walletId].walletId,\r\n            userStructs[_walletId].userName,\r\n            userStructs[_walletId].password,\r\n            userStructs[_walletId].isVerified,\r\n            userStructs[_walletId].userContractAddress\r\n        );\r\n    }\r\n\r\n    function getUserCount() public view returns (uint256) {\r\n        return userCounts;\r\n    }\r\n\r\n    function getVerifiedUserCount() public view returns (uint256) {\r\n        return verifiedUserCounts;\r\n    }\r\n\r\n    function verifyUser(address _walletId) public {\r\n        userStructs[_walletId].isVerified = true;\r\n        verifiedUserCounts++;\r\n    }\r\n\r\n    function makePost(\r\n        address _walletId,\r\n        string memory _postContent,\r\n        string memory timeStamp\r\n    ) public {\r\n        UserContract uc = UserContract(\r\n            userStructs[_walletId].userContractAddress\r\n        );\r\n        uc.createPost(\r\n            _postContent,\r\n            timeStamp,\r\n            userStructs[_walletId].userName,\r\n            userStructs[_walletId].isVerified\r\n        );\r\n    }\r\n\r\n    function makeComment(\r\n        address _walletId,\r\n        uint256 _postId,\r\n        string memory _commentContent\r\n    ) public {\r\n        UserContract uc = UserContract(\r\n            userStructs[_walletId].userContractAddress\r\n        );\r\n        uc.createComment(_postId, _commentContent);\r\n    }\r\n\r\n    function likePost(address _walletId, uint256 _postId) public {\r\n        UserContract uc = UserContract(\r\n            userStructs[_walletId].userContractAddress\r\n        );\r\n        uc.likePost(_postId);\r\n    }\r\n\r\n    function getPosts(address _walletId)\r\n        public\r\n        view\r\n        returns (UserContract.PostStruct[] memory)\r\n    {\r\n        UserContract uc = UserContract(\r\n            userStructs[_walletId].userContractAddress\r\n        );\r\n        return uc.getPosts();\r\n    }\r\n\r\n    function getComments(address _walletId)\r\n        public\r\n        view\r\n        returns (UserContract.CommentStruct[] memory)\r\n    {\r\n        UserContract uc = UserContract(\r\n            userStructs[_walletId].userContractAddress\r\n        );\r\n        return uc.getComments();\r\n    }\r\n\r\n    function getPostCount(address _walletId) public view returns (uint256) {\r\n        UserContract uc = UserContract(\r\n            userStructs[_walletId].userContractAddress\r\n        );\r\n        return uc.getPostCount();\r\n    }\r\n\r\n    function getCommentCount(address _walletId) public view returns (uint256) {\r\n        UserContract uc = UserContract(\r\n            userStructs[_walletId].userContractAddress\r\n        );\r\n        return uc.getCommentCount();\r\n    }\r\n\r\n    function getLikeCount(address _walletId) public view returns (uint256) {\r\n        UserContract uc = UserContract(\r\n            userStructs[_walletId].userContractAddress\r\n        );\r\n        return uc.getLikeCount();\r\n    }\r\n}\r\n\r\n///////////////////////////////////////////////////////////////////////////////////////////////////////////////////////////////////////\r\n\r\ncontract UserContract {\r\n    uint256 postCounts;\r\n    uint256 commentCounts;\r\n    uint256 likeCounts;\r\n    address owner;\r\n\r\n    constructor(address walletId) {\r\n        owner = walletId;\r\n        postCounts = 0;\r\n        commentCounts = 0;\r\n        likeCounts = 0;\r\n    }\r\n\r\n    struct PostStruct {\r\n        uint256 postId;\r\n        string postContent;\r\n        uint256 likeCount;\r\n        uint256 commentCount;\r\n        string timeStamp;\r\n        string userName;\r\n        bool isVerified;\r\n    }\r\n    struct CommentStruct {\r\n        uint256 commentId;\r\n        string commentContent;\r\n        uint256 likeCount;\r\n    }\r\n\r\n    event Post(\r\n        uint256 postId,\r\n        string postContent,\r\n        uint256 likeCount,\r\n        uint256 commentCount,\r\n        string timeStamp,\r\n        string userName,\r\n        bool isVerified\r\n    );\r\n    event Comment(uint256 commentId, string commentContent, uint256 likeCount);\r\n    event Like(uint256 likeCount);\r\n\r\n    mapping(uint256 => PostStruct) public postStructs;\r\n    mapping(uint256 => CommentStruct) public commentStructs;\r\n\r\n    function createPost(\r\n        string memory _postContent,\r\n        string memory timeStamp,\r\n        string memory userName,\r\n        bool isVerified\r\n    ) public {\r\n        postStructs[postCounts].postId = postCounts;\r\n        postStructs[postCounts].postContent = _postContent;\r\n        postStructs[postCounts].likeCount = 0;\r\n        postStructs[postCounts].commentCount = 0;\r\n        postStructs[postCounts].timeStamp = timeStamp;\r\n        postStructs[postCounts].userName = userName;\r\n        postStructs[postCounts].isVerified = isVerified;\r\n\r\n        postCounts++;\r\n        emit Post(\r\n            postCounts,\r\n            _postContent,\r\n            0,\r\n            0,\r\n            timeStamp,\r\n            userName,\r\n            isVerified\r\n        );\r\n    }\r\n\r\n    function createComment(uint256 _postId, string memory _commentContent)\r\n        public\r\n    {\r\n        commentStructs[commentCounts].commentId = commentCounts;\r\n        commentStructs[commentCounts].commentContent = _commentContent;\r\n        commentStructs[commentCounts].likeCount = 0;\r\n        postStructs[_postId].commentCount++;\r\n        commentCounts++;\r\n        emit Comment(commentCounts, _commentContent, 0);\r\n    }\r\n\r\n    function likePost(uint256 _postId) public {\r\n        postStructs[_postId].likeCount++;\r\n        emit Like(postStructs[_postId].likeCount);\r\n    }\r\n\r\n    function getPosts() public view returns (PostStruct[] memory) {\r\n        PostStruct[] memory posts = new PostStruct[](postCounts);\r\n        for (uint256 i = 0; i < postCounts; i++) {\r\n            posts[i] = postStructs[i];\r\n        }\r\n        return posts;\r\n    }\r\n\r\n    function getComments() public view returns (CommentStruct[] memory) {\r\n        CommentStruct[] memory comments = new CommentStruct[](commentCounts);\r\n        for (uint256 i = 0; i < commentCounts; i++) {\r\n            comments[i] = commentStructs[i];\r\n        }\r\n        return comments;\r\n    }\r\n\r\n    function getPostCount() public view returns (uint256) {\r\n        return postCounts;\r\n    }\r\n\r\n    function getCommentCount() public view returns (uint256) {\r\n        return commentCounts;\r\n    }\r\n\r\n    function getLikeCount() public view returns (uint256) {\r\n        return likeCounts;\r\n    }\r\n}\r\n",
  "sourcePath": "D:\\Users\\Desktop\\BOOOKS\\SEMESTER 7\\BCT\\Project\\DE-Verse\\smartcontract\\contracts\\Main.sol",
  "compiler": {
    "name": "solc",
    "version": "0.8.17+commit.8df45f5f.Emscripten.clang"
  },
  "schemaVersion": "3.4.10",
  "updatedAt": "2022-12-14T14:28:14.070Z",
  "devdoc": {
    "kind": "dev",
    "methods": {},
    "version": 1
  },
  "userdoc": {
    "kind": "user",
    "methods": {},
    "version": 1
  }
}