{
  "contractName": "UserContract",
  "abi": [
    {
      "inputs": [
        {
          "internalType": "address",
          "name": "walletId",
          "type": "address"
        }
      ],
      "stateMutability": "nonpayable",
      "type": "constructor"
    },
    {
      "anonymous": false,
      "inputs": [
        {
          "indexed": false,
          "internalType": "uint256",
          "name": "commentId",
          "type": "uint256"
        },
        {
          "indexed": false,
          "internalType": "string",
          "name": "commentContent",
          "type": "string"
        },
        {
          "indexed": false,
          "internalType": "uint256",
          "name": "likeCount",
          "type": "uint256"
        }
      ],
      "name": "Comment",
      "type": "event"
    },
    {
      "anonymous": false,
      "inputs": [
        {
          "indexed": false,
          "internalType": "uint256",
          "name": "likeCount",
          "type": "uint256"
        }
      ],
      "name": "Like",
      "type": "event"
    },
    {
      "anonymous": false,
      "inputs": [
        {
          "indexed": false,
          "internalType": "uint256",
          "name": "postId",
          "type": "uint256"
        },
        {
          "indexed": false,
          "internalType": "string",
          "name": "postContent",
          "type": "string"
        },
        {
          "indexed": false,
          "internalType": "uint256",
          "name": "likeCount",
          "type": "uint256"
        },
        {
          "indexed": false,
          "internalType": "uint256",
          "name": "commentCount",
          "type": "uint256"
        },
        {
          "indexed": false,
          "internalType": "string",
          "name": "timeStamp",
          "type": "string"
        },
        {
          "indexed": false,
          "internalType": "string",
          "name": "userName",
          "type": "string"
        },
        {
          "indexed": false,
          "internalType": "bool",
          "name": "isVerified",
          "type": "bool"
        }
      ],
      "name": "Post",
      "type": "event"
    },
    {
      "inputs": [
        {
          "internalType": "uint256",
          "name": "",
          "type": "uint256"
        }
      ],
      "name": "commentStructs",
      "outputs": [
        {
          "internalType": "uint256",
          "name": "commentId",
          "type": "uint256"
        },
        {
          "internalType": "string",
          "name": "commentContent",
          "type": "string"
        },
        {
          "internalType": "uint256",
          "name": "likeCount",
          "type": "uint256"
        }
      ],
      "stateMutability": "view",
      "type": "function"
    },
    {
      "inputs": [
        {
          "internalType": "uint256",
          "name": "",
          "type": "uint256"
        }
      ],
      "name": "postStructs",
      "outputs": [
        {
          "internalType": "uint256",
          "name": "postId",
          "type": "uint256"
        },
        {
          "internalType": "string",
          "name": "postContent",
          "type": "string"
        },
        {
          "internalType": "uint256",
          "name": "likeCount",
          "type": "uint256"
        },
        {
          "internalType": "uint256",
          "name": "commentCount",
          "type": "uint256"
        },
        {
          "internalType": "string",
          "name": "timeStamp",
          "type": "string"
        },
        {
          "internalType": "string",
          "name": "userName",
          "type": "string"
        },
        {
          "internalType": "bool",
          "name": "isVerified",
          "type": "bool"
        }
      ],
      "stateMutability": "view",
      "type": "function"
    },
    {
      "inputs": [
        {
          "internalType": "string",
          "name": "_postContent",
          "type": "string"
        },
        {
          "internalType": "string",
          "name": "timeStamp",
          "type": "string"
        },
        {
          "internalType": "string",
          "name": "userName",
          "type": "string"
        },
        {
          "internalType": "bool",
          "name": "isVerified",
          "type": "bool"
        }
      ],
      "name": "createPost",
      "outputs": [],
      "stateMutability": "nonpayable",
      "type": "function"
    },
    {
      "inputs": [
        {
          "internalType": "uint256",
          "name": "_postId",
          "type": "uint256"
        },
        {
          "internalType": "string",
          "name": "_commentContent",
          "type": "string"
        }
      ],
      "name": "createComment",
      "outputs": [],
      "stateMutability": "nonpayable",
      "type": "function"
    },
    {
      "inputs": [
        {
          "internalType": "uint256",
          "name": "_postId",
          "type": "uint256"
        }
      ],
      "name": "likePost",
      "outputs": [],
      "stateMutability": "nonpayable",
      "type": "function"
    },
    {
      "inputs": [
        {
          "internalType": "uint256",
          "name": "_postId",
          "type": "uint256"
        },
        {
          "internalType": "string",
          "name": "_userName",
          "type": "string"
        }
      ],
      "name": "updateMylikes",
      "outputs": [],
      "stateMutability": "nonpayable",
      "type": "function"
    },
    {
      "inputs": [
        {
          "internalType": "address",
          "name": "_walletId",
          "type": "address"
        }
      ],
      "name": "followSomeone",
      "outputs": [],
      "stateMutability": "nonpayable",
      "type": "function"
    },
    {
      "inputs": [],
      "name": "updateFollowersCount",
      "outputs": [],
      "stateMutability": "nonpayable",
      "type": "function"
    },
    {
      "inputs": [],
      "name": "getFollowersCount",
      "outputs": [
        {
          "internalType": "uint256",
          "name": "",
          "type": "uint256"
        }
      ],
      "stateMutability": "view",
      "type": "function"
    },
    {
      "inputs": [],
      "name": "getFollowing",
      "outputs": [
        {
          "internalType": "address[]",
          "name": "",
          "type": "address[]"
        }
      ],
      "stateMutability": "view",
      "type": "function"
    },
    {
      "inputs": [],
      "name": "getPosts",
      "outputs": [
        {
          "components": [
            {
              "internalType": "uint256",
              "name": "postId",
              "type": "uint256"
            },
            {
              "internalType": "string",
              "name": "postContent",
              "type": "string"
            },
            {
              "internalType": "uint256",
              "name": "likeCount",
              "type": "uint256"
            },
            {
              "internalType": "uint256",
              "name": "commentCount",
              "type": "uint256"
            },
            {
              "internalType": "string",
              "name": "timeStamp",
              "type": "string"
            },
            {
              "internalType": "string",
              "name": "userName",
              "type": "string"
            },
            {
              "internalType": "bool",
              "name": "isVerified",
              "type": "bool"
            }
          ],
          "internalType": "struct UserContract.PostStruct[]",
          "name": "",
          "type": "tuple[]"
        }
      ],
      "stateMutability": "view",
      "type": "function"
    },
    {
      "inputs": [],
      "name": "getComments",
      "outputs": [
        {
          "components": [
            {
              "internalType": "uint256",
              "name": "commentId",
              "type": "uint256"
            },
            {
              "internalType": "string",
              "name": "commentContent",
              "type": "string"
            },
            {
              "internalType": "uint256",
              "name": "likeCount",
              "type": "uint256"
            }
          ],
          "internalType": "struct UserContract.CommentStruct[]",
          "name": "",
          "type": "tuple[]"
        }
      ],
      "stateMutability": "view",
      "type": "function"
    },
    {
      "inputs": [],
      "name": "getPostCount",
      "outputs": [
        {
          "internalType": "uint256",
          "name": "",
          "type": "uint256"
        }
      ],
      "stateMutability": "view",
      "type": "function"
    },
    {
      "inputs": [],
      "name": "getCommentCount",
      "outputs": [
        {
          "internalType": "uint256",
          "name": "",
          "type": "uint256"
        }
      ],
      "stateMutability": "view",
      "type": "function"
    },
    {
      "inputs": [],
      "name": "getLikeCount",
      "outputs": [
        {
          "internalType": "uint256",
          "name": "",
          "type": "uint256"
        }
      ],
      "stateMutability": "view",
      "type": "function"
    },
    {
      "inputs": [],
      "name": "getMyLikes",
      "outputs": [
        {
          "components": [
            {
              "internalType": "uint256",
              "name": "postId",
              "type": "uint256"
            },
            {
              "internalType": "string",
              "name": "userName",
              "type": "string"
            }
          ],
          "internalType": "struct UserContract.myLikeStruct[]",
          "name": "",
          "type": "tuple[]"
        }
      ],
      "stateMutability": "view",
      "type": "function"
    }
  ],
  "bytecode": "0x60806040523480156200001157600080fd5b5060405162001f8938038062001f89833981810160405281019062000037919062000100565b80600360006101000a81548173ffffffffffffffffffffffffffffffffffffffff021916908373ffffffffffffffffffffffffffffffffffffffff16021790555060008081905550600060018190555060006002819055505062000132565b600080fd5b600073ffffffffffffffffffffffffffffffffffffffff82169050919050565b6000620000c8826200009b565b9050919050565b620000da81620000bb565b8114620000e657600080fd5b50565b600081519050620000fa81620000cf565b92915050565b60006020828403121562000119576200011862000096565b5b60006200012984828501620000e9565b91505092915050565b611e4780620001426000396000f3fe608060405234801561001057600080fd5b50600436106101005760003560e01c806399c50dd111610097578063e22bce2711610066578063e22bce271461027f578063e71ef23d1461029d578063eb058a2f146102b9578063ecf0a45d146102d557610100565b806399c50dd1146101f5578063b1c8384014610211578063bcc9540714610243578063c4d67b091461026157610100565b806360f2e378116100d357806360f2e3781461017b5780636f94a36614610185578063725009d3146101bb57806391f3410c146101d757610100565b806316e31ea31461010557806323f147021461012357806340a179851461014157806341f3004a1461015d575b600080fd5b61010d6102f3565b60405161011a9190610f6d565b60405180910390f35b61012b6102fd565b6040516101389190611078565b60405180910390f35b61015b60048036038101906101569190611220565b61038b565b005b610165610474565b6040516101729190611491565b60405180910390f35b610183610722565b005b61019f600480360381019061019a91906114b3565b61073c565b6040516101b29796959493929190611539565b60405180910390f35b6101d560048036038101906101d091906114b3565b610923565b005b6101df61099f565b6040516101ec91906116cf565b60405180910390f35b61020f600480360381019061020a919061171d565b610b05565b005b61022b600480360381019061022691906114b3565b610b6b565b60405161023a9392919061174a565b60405180910390f35b61024b610c1d565b6040516102589190610f6d565b60405180910390f35b610269610c26565b6040516102769190610f6d565b60405180910390f35b610287610c30565b6040516102949190610f6d565b60405180910390f35b6102b760048036038101906102b291906117b4565b610c3a565b005b6102d360048036038101906102ce9190611220565b610d93565b005b6102dd610df9565b6040516102ea919061196e565b60405180910390f35b6000600154905090565b6060600580548060200260200160405190810160405280929190818152602001828054801561038157602002820191906000526020600020905b8160009054906101000a900473ffffffffffffffffffffffffffffffffffffffff1673ffffffffffffffffffffffffffffffffffffffff1681526020019060010190808311610337575b5050505050905090565b600154600860006001548152602001908152602001600020600001819055508060086000600154815260200190815260200160002060010190816103cf9190611b9c565b5060006008600060015481526020019081526020016000206002018190555060076000838152602001908152602001600020600301600081548092919061041590611c9d565b91905055506001600081548092919061042d90611c9d565b91905055507fb355fcd66e2b46067119b64e24bea4f5f0478651710a06cc627f7b5e94fa04d460015482600060405161046893929190611d20565b60405180910390a15050565b60606000805467ffffffffffffffff811115610493576104926110f5565b5b6040519080825280602002602001820160405280156104cc57816020015b6104b9610ef4565b8152602001906001900390816104b15790505b50905060005b60005481101561071a57600760008281526020019081526020016000206040518060e001604052908160008201548152602001600182018054610514906119bf565b80601f0160208091040260200160405190810160405280929190818152602001828054610540906119bf565b801561058d5780601f106105625761010080835404028352916020019161058d565b820191906000526020600020905b81548152906001019060200180831161057057829003601f168201915b5050505050815260200160028201548152602001600382015481526020016004820180546105ba906119bf565b80601f01602080910402602001604051908101604052809291908181526020018280546105e6906119bf565b80156106335780601f1061060857610100808354040283529160200191610633565b820191906000526020600020905b81548152906001019060200180831161061657829003601f168201915b5050505050815260200160058201805461064c906119bf565b80601f0160208091040260200160405190810160405280929190818152602001828054610678906119bf565b80156106c55780601f1061069a576101008083540402835291602001916106c5565b820191906000526020600020905b8154815290600101906020018083116106a857829003601f168201915b505050505081526020016006820160009054906101000a900460ff1615151515815250508282815181106106fc576106fb611d5e565b5b6020026020010181905250808061071290611c9d565b9150506104d2565b508091505090565b6004600081548092919061073590611c9d565b9190505550565b6007602052806000526040600020600091509050806000015490806001018054610765906119bf565b80601f0160208091040260200160405190810160405280929190818152602001828054610791906119bf565b80156107de5780601f106107b3576101008083540402835291602001916107de565b820191906000526020600020905b8154815290600101906020018083116107c157829003601f168201915b5050505050908060020154908060030154908060040180546107ff906119bf565b80601f016020809104026020016040519081016040528092919081815260200182805461082b906119bf565b80156108785780601f1061084d57610100808354040283529160200191610878565b820191906000526020600020905b81548152906001019060200180831161085b57829003601f168201915b50505050509080600501805461088d906119bf565b80601f01602080910402602001604051908101604052809291908181526020018280546108b9906119bf565b80156109065780601f106108db57610100808354040283529160200191610906565b820191906000526020600020905b8154815290600101906020018083116108e957829003601f168201915b5050505050908060060160009054906101000a900460ff16905087565b60076000828152602001908152602001600020600201600081548092919061094a90611c9d565b91905055507f447c5d872ffc7fa2763b13dd068980191537823d15b95a6566333782d757d94560076000838152602001908152602001600020600201546040516109949190610f6d565b60405180910390a150565b6060600060015467ffffffffffffffff8111156109bf576109be6110f5565b5b6040519080825280602002602001820160405280156109f857816020015b6109e5610f33565b8152602001906001900390816109dd5790505b50905060005b600154811015610afd576008600082815260200190815260200160002060405180606001604052908160008201548152602001600182018054610a40906119bf565b80601f0160208091040260200160405190810160405280929190818152602001828054610a6c906119bf565b8015610ab95780601f10610a8e57610100808354040283529160200191610ab9565b820191906000526020600020905b815481529060010190602001808311610a9c57829003601f168201915b50505050508152602001600282015481525050828281518110610adf57610ade611d5e565b5b60200260200101819052508080610af590611c9d565b9150506109fe565b508091505090565b6005819080600181540180825580915050600190039060005260206000200160009091909190916101000a81548173ffffffffffffffffffffffffffffffffffffffff021916908373ffffffffffffffffffffffffffffffffffffffff16021790555050565b6008602052806000526040600020600091509050806000015490806001018054610b94906119bf565b80601f0160208091040260200160405190810160405280929190818152602001828054610bc0906119bf565b8015610c0d5780601f10610be257610100808354040283529160200191610c0d565b820191906000526020600020905b815481529060010190602001808311610bf057829003601f168201915b5050505050908060020154905083565b60008054905090565b6000600254905090565b6000600454905090565b6000546007600080548152602001908152602001600020600001819055508360076000805481526020019081526020016000206001019081610c7c9190611b9c565b50600060076000805481526020019081526020016000206002018190555060006007600080548152602001908152602001600020600301819055508260076000805481526020019081526020016000206004019081610cdb9190611b9c565b508160076000805481526020019081526020016000206005019081610d009190611b9c565b5080600760008054815260200190815260200160002060060160006101000a81548160ff021916908315150217905550600080815480929190610d4290611c9d565b91905055507f689bb0330c1c7078d60ff9632a4be061f5411d6c6d3cfc8960e175d277f6a53e60005485600080878787604051610d859796959493929190611d8d565b60405180910390a150505050565b60066040518060400160405280848152602001838152509080600181540180825580915050600190039060005260206000209060020201600090919091909150600082015181600001556020820151816001019081610df29190611b9c565b5050505050565b60606006805480602002602001604051908101604052809291908181526020016000905b82821015610eeb578382906000526020600020906002020160405180604001604052908160008201548152602001600182018054610e5a906119bf565b80601f0160208091040260200160405190810160405280929190818152602001828054610e86906119bf565b8015610ed35780601f10610ea857610100808354040283529160200191610ed3565b820191906000526020600020905b815481529060010190602001808311610eb657829003601f168201915b50505050508152505081526020019060010190610e1d565b50505050905090565b6040518060e001604052806000815260200160608152602001600081526020016000815260200160608152602001606081526020016000151581525090565b60405180606001604052806000815260200160608152602001600081525090565b6000819050919050565b610f6781610f54565b82525050565b6000602082019050610f826000830184610f5e565b92915050565b600081519050919050565b600082825260208201905092915050565b6000819050602082019050919050565b600073ffffffffffffffffffffffffffffffffffffffff82169050919050565b6000610fdf82610fb4565b9050919050565b610fef81610fd4565b82525050565b60006110018383610fe6565b60208301905092915050565b6000602082019050919050565b600061102582610f88565b61102f8185610f93565b935061103a83610fa4565b8060005b8381101561106b5781516110528882610ff5565b975061105d8361100d565b92505060018101905061103e565b5085935050505092915050565b60006020820190508181036000830152611092818461101a565b905092915050565b6000604051905090565b600080fd5b600080fd5b6110b781610f54565b81146110c257600080fd5b50565b6000813590506110d4816110ae565b92915050565b600080fd5b600080fd5b6000601f19601f8301169050919050565b7f4e487b7100000000000000000000000000000000000000000000000000000000600052604160045260246000fd5b61112d826110e4565b810181811067ffffffffffffffff8211171561114c5761114b6110f5565b5b80604052505050565b600061115f61109a565b905061116b8282611124565b919050565b600067ffffffffffffffff82111561118b5761118a6110f5565b5b611194826110e4565b9050602081019050919050565b82818337600083830152505050565b60006111c36111be84611170565b611155565b9050828152602081018484840111156111df576111de6110df565b5b6111ea8482856111a1565b509392505050565b600082601f830112611207576112066110da565b5b81356112178482602086016111b0565b91505092915050565b60008060408385031215611237576112366110a4565b5b6000611245858286016110c5565b925050602083013567ffffffffffffffff811115611266576112656110a9565b5b611272858286016111f2565b9150509250929050565b600081519050919050565b600082825260208201905092915050565b6000819050602082019050919050565b6112b181610f54565b82525050565b600081519050919050565b600082825260208201905092915050565b60005b838110156112f15780820151818401526020810190506112d6565b60008484015250505050565b6000611308826112b7565b61131281856112c2565b93506113228185602086016112d3565b61132b816110e4565b840191505092915050565b60008115159050919050565b61134b81611336565b82525050565b600060e08301600083015161136960008601826112a8565b506020830151848203602086015261138182826112fd565b915050604083015161139660408601826112a8565b5060608301516113a960608601826112a8565b50608083015184820360808601526113c182826112fd565b91505060a083015184820360a08601526113db82826112fd565b91505060c08301516113f060c0860182611342565b508091505092915050565b60006114078383611351565b905092915050565b6000602082019050919050565b60006114278261127c565b6114318185611287565b93508360208202850161144385611298565b8060005b8581101561147f578484038952815161146085826113fb565b945061146b8361140f565b925060208a01995050600181019050611447565b50829750879550505050505092915050565b600060208201905081810360008301526114ab818461141c565b905092915050565b6000602082840312156114c9576114c86110a4565b5b60006114d7848285016110c5565b91505092915050565b600082825260208201905092915050565b60006114fc826112b7565b61150681856114e0565b93506115168185602086016112d3565b61151f816110e4565b840191505092915050565b61153381611336565b82525050565b600060e08201905061154e600083018a610f5e565b818103602083015261156081896114f1565b905061156f6040830188610f5e565b61157c6060830187610f5e565b818103608083015261158e81866114f1565b905081810360a08301526115a281856114f1565b90506115b160c083018461152a565b98975050505050505050565b600081519050919050565b600082825260208201905092915050565b6000819050602082019050919050565b600060608301600083015161160160008601826112a8565b506020830151848203602086015261161982826112fd565b915050604083015161162e60408601826112a8565b508091505092915050565b600061164583836115e9565b905092915050565b6000602082019050919050565b6000611665826115bd565b61166f81856115c8565b935083602082028501611681856115d9565b8060005b858110156116bd578484038952815161169e8582611639565b94506116a98361164d565b925060208a01995050600181019050611685565b50829750879550505050505092915050565b600060208201905081810360008301526116e9818461165a565b905092915050565b6116fa81610fd4565b811461170557600080fd5b50565b600081359050611717816116f1565b92915050565b600060208284031215611733576117326110a4565b5b600061174184828501611708565b91505092915050565b600060608201905061175f6000830186610f5e565b818103602083015261177181856114f1565b90506117806040830184610f5e565b949350505050565b61179181611336565b811461179c57600080fd5b50565b6000813590506117ae81611788565b92915050565b600080600080608085870312156117ce576117cd6110a4565b5b600085013567ffffffffffffffff8111156117ec576117eb6110a9565b5b6117f8878288016111f2565b945050602085013567ffffffffffffffff811115611819576118186110a9565b5b611825878288016111f2565b935050604085013567ffffffffffffffff811115611846576118456110a9565b5b611852878288016111f2565b92505060606118638782880161179f565b91505092959194509250565b600081519050919050565b600082825260208201905092915050565b6000819050602082019050919050565b60006040830160008301516118b360008601826112a8565b50602083015184820360208601526118cb82826112fd565b9150508091505092915050565b60006118e4838361189b565b905092915050565b6000602082019050919050565b60006119048261186f565b61190e818561187a565b9350836020820285016119208561188b565b8060005b8581101561195c578484038952815161193d85826118d8565b9450611948836118ec565b925060208a01995050600181019050611924565b50829750879550505050505092915050565b6000602082019050818103600083015261198881846118f9565b905092915050565b7f4e487b7100000000000000000000000000000000000000000000000000000000600052602260045260246000fd5b600060028204905060018216806119d757607f821691505b6020821081036119ea576119e9611990565b5b50919050565b60008190508160005260206000209050919050565b60006020601f8301049050919050565b600082821b905092915050565b600060088302611a527fffffffffffffffffffffffffffffffffffffffffffffffffffffffffffffffff82611a15565b611a5c8683611a15565b95508019841693508086168417925050509392505050565b6000819050919050565b6000611a99611a94611a8f84610f54565b611a74565b610f54565b9050919050565b6000819050919050565b611ab383611a7e565b611ac7611abf82611aa0565b848454611a22565b825550505050565b600090565b611adc611acf565b611ae7818484611aaa565b505050565b5b81811015611b0b57611b00600082611ad4565b600181019050611aed565b5050565b601f821115611b5057611b21816119f0565b611b2a84611a05565b81016020851015611b39578190505b611b4d611b4585611a05565b830182611aec565b50505b505050565b600082821c905092915050565b6000611b7360001984600802611b55565b1980831691505092915050565b6000611b8c8383611b62565b9150826002028217905092915050565b611ba5826112b7565b67ffffffffffffffff811115611bbe57611bbd6110f5565b5b611bc882546119bf565b611bd3828285611b0f565b600060209050601f831160018114611c065760008415611bf4578287015190505b611bfe8582611b80565b865550611c66565b601f198416611c14866119f0565b60005b82811015611c3c57848901518255600182019150602085019450602081019050611c17565b86831015611c595784890151611c55601f891682611b62565b8355505b6001600288020188555050505b505050505050565b7f4e487b7100000000000000000000000000000000000000000000000000000000600052601160045260246000fd5b6000611ca882610f54565b91507fffffffffffffffffffffffffffffffffffffffffffffffffffffffffffffffff8203611cda57611cd9611c6e565b5b600182019050919050565b6000819050919050565b6000611d0a611d05611d0084611ce5565b611a74565b610f54565b9050919050565b611d1a81611cef565b82525050565b6000606082019050611d356000830186610f5e565b8181036020830152611d4781856114f1565b9050611d566040830184611d11565b949350505050565b7f4e487b7100000000000000000000000000000000000000000000000000000000600052603260045260246000fd5b600060e082019050611da2600083018a610f5e565b8181036020830152611db481896114f1565b9050611dc36040830188611d11565b611dd06060830187611d11565b8181036080830152611de281866114f1565b905081810360a0830152611df681856114f1565b9050611e0560c083018461152a565b9897505050505050505056fea2646970667358221220028711e787641e47db917c82daab412a31b5a05d627c4ce329c5d89bde747da864736f6c63430008110033",
  "immutableReferences": {},
  "source": "// SPDX-License-Identifier: GPL-3.0\r\npragma solidity >=0.8.0;\r\n\r\ncontract Maincontract {\r\n    uint256 userCounts;\r\n    uint256 verifiedUserCounts;\r\n\r\n    constructor() {\r\n        userCounts = 0;\r\n        verifiedUserCounts = 0;\r\n    }\r\n\r\n    struct UserStruct {\r\n        address walletId;\r\n        address userContractAddress;\r\n        string userName;\r\n        string password;\r\n        bool isVerified;\r\n    }\r\n\r\n    event User(\r\n        address walletId,\r\n        address userContractAddress,\r\n        string userName,\r\n        string password,\r\n        bool isVerified\r\n    );\r\n\r\n    mapping(address => UserStruct) public userStructs;\r\n    mapping(string => address) public userNameToWalletId;\r\n\r\n    function createUser(\r\n        address _walletId,\r\n        string memory _userName,\r\n        string memory _password\r\n    ) public {\r\n        address uca = address(new UserContract(_walletId));\r\n        userStructs[_walletId].walletId = _walletId;\r\n        userStructs[_walletId].userName = _userName;\r\n        userStructs[_walletId].password = _password;\r\n        userStructs[_walletId].isVerified = false;\r\n        userStructs[_walletId].userContractAddress = uca;\r\n        userCounts++;\r\n        userNameToWalletId[_userName] = _walletId;\r\n        emit User(_walletId, uca, _userName, _password, false);\r\n    }\r\n\r\n    function getUser(address _walletId)\r\n        public\r\n        view\r\n        returns (\r\n            address,\r\n            string memory,\r\n            string memory,\r\n            bool,\r\n            address\r\n        )\r\n    {\r\n        if (userStructs[_walletId].walletId == address(0)) {\r\n            return (\r\n                address(0),\r\n                \"account does not exist\",\r\n                \"\",\r\n                false,\r\n                address(0)\r\n            );\r\n        }\r\n        return (\r\n            userStructs[_walletId].walletId,\r\n            userStructs[_walletId].userName,\r\n            userStructs[_walletId].password,\r\n            userStructs[_walletId].isVerified,\r\n            userStructs[_walletId].userContractAddress\r\n        );\r\n    }\r\n\r\n    function getUserByUserName(string memory _userName)\r\n        public\r\n        view\r\n        returns (\r\n            address,\r\n            string memory,\r\n            string memory,\r\n            bool,\r\n            address\r\n        )\r\n    {\r\n        address _walletId = userNameToWalletId[_userName];\r\n        if (userStructs[_walletId].walletId == address(0)) {\r\n            return (\r\n                address(0),\r\n                \"account does not exist\",\r\n                \"\",\r\n                false,\r\n                address(0)\r\n            );\r\n        }\r\n        return (\r\n            userStructs[_walletId].walletId,\r\n            userStructs[_walletId].userName,\r\n            userStructs[_walletId].password,\r\n            userStructs[_walletId].isVerified,\r\n            userStructs[_walletId].userContractAddress\r\n        );\r\n    }\r\n\r\n    function getUserCount() public view returns (uint256) {\r\n        return userCounts;\r\n    }\r\n\r\n    function getVerifiedUserCount() public view returns (uint256) {\r\n        return verifiedUserCounts;\r\n    }\r\n\r\n    function verifyUser(address _walletId) public {\r\n        userStructs[_walletId].isVerified = true;\r\n        verifiedUserCounts++;\r\n    }\r\n\r\n    function makePost(\r\n        address _walletId,\r\n        string memory _postContent,\r\n        string memory timeStamp\r\n    ) public {\r\n        UserContract uc = UserContract(\r\n            userStructs[_walletId].userContractAddress\r\n        );\r\n        uc.createPost(\r\n            _postContent,\r\n            timeStamp,\r\n            userStructs[_walletId].userName,\r\n            userStructs[_walletId].isVerified\r\n        );\r\n    }\r\n\r\n    function makeComment(\r\n        address _walletId,\r\n        uint256 _postId,\r\n        string memory _commentContent\r\n    ) public {\r\n        UserContract uc = UserContract(\r\n            userStructs[_walletId].userContractAddress\r\n        );\r\n        uc.createComment(_postId, _commentContent);\r\n    }\r\n\r\n    function likePost(\r\n        string memory _userName,\r\n        uint256 _postId,\r\n        address _myWalletId\r\n    ) public {\r\n        address _walletId = userNameToWalletId[_userName];\r\n        UserContract uc = UserContract(\r\n            userStructs[_walletId].userContractAddress\r\n        );\r\n        uc.likePost(_postId);\r\n        UserContract ucf = UserContract(\r\n            userStructs[_myWalletId].userContractAddress\r\n        );\r\n        // concat postId and userName\r\n        // string memory _postIdAndUserName = string(\r\n        //     abi.encodePacked(_postId, \" \", _userName)\r\n        // );\r\n        ucf.updateMylikes(_postId, _userName);\r\n    }\r\n\r\n    function followUser(address _walletId, address _followingId) public {\r\n        UserContract uc = UserContract(\r\n            userStructs[_walletId].userContractAddress\r\n        );\r\n        uc.followSomeone(_followingId);\r\n        UserContract ucf = UserContract(\r\n            userStructs[_followingId].userContractAddress\r\n        );\r\n        ucf.updateFollowersCount();\r\n    }\r\n\r\n    function getFollowing(address _walletId)\r\n        public\r\n        view\r\n        returns (address[] memory)\r\n    {\r\n        UserContract uc = UserContract(\r\n            userStructs[_walletId].userContractAddress\r\n        );\r\n        return uc.getFollowing();\r\n    }\r\n\r\n    function getFollowersCount(address _walletId)\r\n        public\r\n        view\r\n        returns (uint256)\r\n    {\r\n        UserContract uc = UserContract(\r\n            userStructs[_walletId].userContractAddress\r\n        );\r\n        return uc.getFollowersCount();\r\n    }\r\n\r\n    function getPosts(address _walletId)\r\n        public\r\n        view\r\n        returns (UserContract.PostStruct[] memory)\r\n    {\r\n        UserContract uc = UserContract(\r\n            userStructs[_walletId].userContractAddress\r\n        );\r\n        return uc.getPosts();\r\n    }\r\n\r\n    function getComments(address _walletId)\r\n        public\r\n        view\r\n        returns (UserContract.CommentStruct[] memory)\r\n    {\r\n        UserContract uc = UserContract(\r\n            userStructs[_walletId].userContractAddress\r\n        );\r\n        return uc.getComments();\r\n    }\r\n\r\n    function getPostCount(address _walletId) public view returns (uint256) {\r\n        UserContract uc = UserContract(\r\n            userStructs[_walletId].userContractAddress\r\n        );\r\n        return uc.getPostCount();\r\n    }\r\n\r\n    function getCommentCount(address _walletId) public view returns (uint256) {\r\n        UserContract uc = UserContract(\r\n            userStructs[_walletId].userContractAddress\r\n        );\r\n        return uc.getCommentCount();\r\n    }\r\n\r\n    function getLikeCount(address _walletId) public view returns (uint256) {\r\n        UserContract uc = UserContract(\r\n            userStructs[_walletId].userContractAddress\r\n        );\r\n        return uc.getLikeCount();\r\n    }\r\n\r\n    function getMyLikes(address _walletId)\r\n        public\r\n        view\r\n        returns (UserContract.myLikeStruct[] memory)\r\n    {\r\n        UserContract uc = UserContract(\r\n            userStructs[_walletId].userContractAddress\r\n        );\r\n        return uc.getMyLikes();\r\n    }\r\n}\r\n\r\n///////////////////////////////////////////////////////////////////////////////////////////////////////////////////////////////////////\r\n\r\ncontract UserContract {\r\n    uint256 postCounts;\r\n    uint256 commentCounts;\r\n    uint256 likeCounts;\r\n    address owner;\r\n    uint256 followersCount;\r\n    address[] following;\r\n    myLikeStruct[] myLikes;\r\n\r\n    constructor(address walletId) {\r\n        owner = walletId;\r\n        postCounts = 0;\r\n        commentCounts = 0;\r\n        likeCounts = 0;\r\n    }\r\n\r\n    struct PostStruct {\r\n        uint256 postId;\r\n        string postContent;\r\n        uint256 likeCount;\r\n        uint256 commentCount;\r\n        string timeStamp;\r\n        string userName;\r\n        bool isVerified;\r\n    }\r\n    struct CommentStruct {\r\n        uint256 commentId;\r\n        string commentContent;\r\n        uint256 likeCount;\r\n    }\r\n    struct myLikeStruct {\r\n        uint256 postId;\r\n        string userName;\r\n    }\r\n    event Post(\r\n        uint256 postId,\r\n        string postContent,\r\n        uint256 likeCount,\r\n        uint256 commentCount,\r\n        string timeStamp,\r\n        string userName,\r\n        bool isVerified\r\n    );\r\n    event Comment(uint256 commentId, string commentContent, uint256 likeCount);\r\n    event Like(uint256 likeCount);\r\n\r\n    mapping(uint256 => PostStruct) public postStructs;\r\n    mapping(uint256 => CommentStruct) public commentStructs;\r\n\r\n    function createPost(\r\n        string memory _postContent,\r\n        string memory timeStamp,\r\n        string memory userName,\r\n        bool isVerified\r\n    ) public {\r\n        postStructs[postCounts].postId = postCounts;\r\n        postStructs[postCounts].postContent = _postContent;\r\n        postStructs[postCounts].likeCount = 0;\r\n        postStructs[postCounts].commentCount = 0;\r\n        postStructs[postCounts].timeStamp = timeStamp;\r\n        postStructs[postCounts].userName = userName;\r\n        postStructs[postCounts].isVerified = isVerified;\r\n\r\n        postCounts++;\r\n        emit Post(\r\n            postCounts,\r\n            _postContent,\r\n            0,\r\n            0,\r\n            timeStamp,\r\n            userName,\r\n            isVerified\r\n        );\r\n    }\r\n\r\n    function createComment(uint256 _postId, string memory _commentContent)\r\n        public\r\n    {\r\n        commentStructs[commentCounts].commentId = commentCounts;\r\n        commentStructs[commentCounts].commentContent = _commentContent;\r\n        commentStructs[commentCounts].likeCount = 0;\r\n        postStructs[_postId].commentCount++;\r\n        commentCounts++;\r\n        emit Comment(commentCounts, _commentContent, 0);\r\n    }\r\n\r\n    function likePost(uint256 _postId) public {\r\n        postStructs[_postId].likeCount++;\r\n        emit Like(postStructs[_postId].likeCount);\r\n    }\r\n\r\n    function updateMylikes(uint256 _postId, string memory _userName) public {\r\n        myLikes.push(myLikeStruct(_postId, _userName));\r\n    }\r\n\r\n    function followSomeone(address _walletId) public {\r\n        following.push(_walletId);\r\n    }\r\n\r\n    function updateFollowersCount() public {\r\n        followersCount++;\r\n    }\r\n\r\n    function getFollowersCount() public view returns (uint256) {\r\n        return followersCount;\r\n    }\r\n\r\n    function getFollowing() public view returns (address[] memory) {\r\n        return following;\r\n    }\r\n\r\n    function getPosts() public view returns (PostStruct[] memory) {\r\n        PostStruct[] memory posts = new PostStruct[](postCounts);\r\n        for (uint256 i = 0; i < postCounts; i++) {\r\n            posts[i] = postStructs[i];\r\n        }\r\n        return posts;\r\n    }\r\n\r\n    function getComments() public view returns (CommentStruct[] memory) {\r\n        CommentStruct[] memory comments = new CommentStruct[](commentCounts);\r\n        for (uint256 i = 0; i < commentCounts; i++) {\r\n            comments[i] = commentStructs[i];\r\n        }\r\n        return comments;\r\n    }\r\n\r\n    function getPostCount() public view returns (uint256) {\r\n        return postCounts;\r\n    }\r\n\r\n    function getCommentCount() public view returns (uint256) {\r\n        return commentCounts;\r\n    }\r\n\r\n    function getLikeCount() public view returns (uint256) {\r\n        return likeCounts;\r\n    }\r\n\r\n    function getMyLikes() public view returns (myLikeStruct[] memory) {\r\n        return myLikes;\r\n    }\r\n}\r\n",
  "sourcePath": "D:\\Users\\Desktop\\BOOOKS\\SEMESTER 7\\BCT\\Project\\DE-Verse\\smartcontract\\contracts\\Main.sol",
  "compiler": {
    "name": "solc",
    "version": "0.8.17+commit.8df45f5f.Emscripten.clang"
  },
  "schemaVersion": "3.4.10",
  "updatedAt": "2022-12-23T16:32:32.767Z",
  "devdoc": {
    "kind": "dev",
    "methods": {},
    "version": 1
  },
  "userdoc": {
    "kind": "user",
    "methods": {},
    "version": 1
  }
}