{
  "contractName": "UserContract",
  "abi": [
    {
      "inputs": [
        {
          "internalType": "address",
          "name": "walletId",
          "type": "address"
        }
      ],
      "stateMutability": "nonpayable",
      "type": "constructor"
    },
    {
      "anonymous": false,
      "inputs": [
        {
          "indexed": false,
          "internalType": "uint256",
          "name": "commentId",
          "type": "uint256"
        },
        {
          "indexed": false,
          "internalType": "string",
          "name": "commentContent",
          "type": "string"
        },
        {
          "indexed": false,
          "internalType": "uint256",
          "name": "likeCount",
          "type": "uint256"
        }
      ],
      "name": "Comment",
      "type": "event"
    },
    {
      "anonymous": false,
      "inputs": [
        {
          "indexed": false,
          "internalType": "uint256",
          "name": "likeCount",
          "type": "uint256"
        }
      ],
      "name": "Like",
      "type": "event"
    },
    {
      "anonymous": false,
      "inputs": [
        {
          "indexed": false,
          "internalType": "uint256",
          "name": "postId",
          "type": "uint256"
        },
        {
          "indexed": false,
          "internalType": "string",
          "name": "postContent",
          "type": "string"
        },
        {
          "indexed": false,
          "internalType": "uint256",
          "name": "likeCount",
          "type": "uint256"
        },
        {
          "indexed": false,
          "internalType": "uint256",
          "name": "commentCount",
          "type": "uint256"
        }
      ],
      "name": "Post",
      "type": "event"
    },
    {
      "inputs": [
        {
          "internalType": "uint256",
          "name": "",
          "type": "uint256"
        }
      ],
      "name": "commentStructs",
      "outputs": [
        {
          "internalType": "uint256",
          "name": "commentId",
          "type": "uint256"
        },
        {
          "internalType": "string",
          "name": "commentContent",
          "type": "string"
        },
        {
          "internalType": "uint256",
          "name": "likeCount",
          "type": "uint256"
        }
      ],
      "stateMutability": "view",
      "type": "function"
    },
    {
      "inputs": [
        {
          "internalType": "uint256",
          "name": "",
          "type": "uint256"
        }
      ],
      "name": "postStructs",
      "outputs": [
        {
          "internalType": "uint256",
          "name": "postId",
          "type": "uint256"
        },
        {
          "internalType": "string",
          "name": "postContent",
          "type": "string"
        },
        {
          "internalType": "uint256",
          "name": "likeCount",
          "type": "uint256"
        },
        {
          "internalType": "uint256",
          "name": "commentCount",
          "type": "uint256"
        }
      ],
      "stateMutability": "view",
      "type": "function"
    },
    {
      "inputs": [
        {
          "internalType": "string",
          "name": "_postContent",
          "type": "string"
        }
      ],
      "name": "createPost",
      "outputs": [],
      "stateMutability": "nonpayable",
      "type": "function"
    },
    {
      "inputs": [
        {
          "internalType": "uint256",
          "name": "_postId",
          "type": "uint256"
        },
        {
          "internalType": "string",
          "name": "_commentContent",
          "type": "string"
        }
      ],
      "name": "createComment",
      "outputs": [],
      "stateMutability": "nonpayable",
      "type": "function"
    },
    {
      "inputs": [
        {
          "internalType": "uint256",
          "name": "_postId",
          "type": "uint256"
        }
      ],
      "name": "likePost",
      "outputs": [],
      "stateMutability": "nonpayable",
      "type": "function"
    },
    {
      "inputs": [],
      "name": "getPosts",
      "outputs": [
        {
          "components": [
            {
              "internalType": "uint256",
              "name": "postId",
              "type": "uint256"
            },
            {
              "internalType": "string",
              "name": "postContent",
              "type": "string"
            },
            {
              "internalType": "uint256",
              "name": "likeCount",
              "type": "uint256"
            },
            {
              "internalType": "uint256",
              "name": "commentCount",
              "type": "uint256"
            }
          ],
          "internalType": "struct UserContract.PostStruct[]",
          "name": "",
          "type": "tuple[]"
        }
      ],
      "stateMutability": "view",
      "type": "function"
    },
    {
      "inputs": [],
      "name": "getComments",
      "outputs": [
        {
          "components": [
            {
              "internalType": "uint256",
              "name": "commentId",
              "type": "uint256"
            },
            {
              "internalType": "string",
              "name": "commentContent",
              "type": "string"
            },
            {
              "internalType": "uint256",
              "name": "likeCount",
              "type": "uint256"
            }
          ],
          "internalType": "struct UserContract.CommentStruct[]",
          "name": "",
          "type": "tuple[]"
        }
      ],
      "stateMutability": "view",
      "type": "function"
    },
    {
      "inputs": [],
      "name": "getPostCount",
      "outputs": [
        {
          "internalType": "uint256",
          "name": "",
          "type": "uint256"
        }
      ],
      "stateMutability": "view",
      "type": "function"
    },
    {
      "inputs": [],
      "name": "getCommentCount",
      "outputs": [
        {
          "internalType": "uint256",
          "name": "",
          "type": "uint256"
        }
      ],
      "stateMutability": "view",
      "type": "function"
    },
    {
      "inputs": [],
      "name": "getLikeCount",
      "outputs": [
        {
          "internalType": "uint256",
          "name": "",
          "type": "uint256"
        }
      ],
      "stateMutability": "view",
      "type": "function"
    }
  ],
  "bytecode": "0x60806040523480156200001157600080fd5b50604051620014fd380380620014fd833981810160405281019062000037919062000100565b80600360006101000a81548173ffffffffffffffffffffffffffffffffffffffff021916908373ffffffffffffffffffffffffffffffffffffffff16021790555060008081905550600060018190555060006002819055505062000132565b600080fd5b600073ffffffffffffffffffffffffffffffffffffffff82169050919050565b6000620000c8826200009b565b9050919050565b620000da81620000bb565b8114620000e657600080fd5b50565b600081519050620000fa81620000cf565b92915050565b60006020828403121562000119576200011862000096565b5b60006200012984828501620000e9565b91505092915050565b6113bb80620001426000396000f3fe608060405234801561001057600080fd5b506004361061009e5760003560e01c806391f3410c1161006657806391f3410c1461014a578063b1c8384014610168578063bcc954071461019a578063c4d67b09146101b8578063c7303c61146101d65761009e565b806316e31ea3146100a357806340a17985146100c157806341f3004a146100dd5780636f94a366146100fb578063725009d31461012e575b600080fd5b6100ab6101f2565b6040516100b891906108ec565b60405180910390f35b6100db60048036038101906100d69190610a8d565b6101fc565b005b6100e56102e5565b6040516100f29190610c9c565b60405180910390f35b61011560048036038101906101109190610cbe565b610454565b6040516101259493929190610d35565b60405180910390f35b61014860048036038101906101439190610cbe565b61050c565b005b610152610588565b60405161015f9190610e93565b60405180910390f35b610182600480360381019061017d9190610cbe565b6106ee565b60405161019193929190610eb5565b60405180910390f35b6101a26107a0565b6040516101af91906108ec565b60405180910390f35b6101c06107a9565b6040516101cd91906108ec565b60405180910390f35b6101f060048036038101906101eb9190610ef3565b6107b3565b005b6000600154905090565b600154600560006001548152602001908152602001600020600001819055508060056000600154815260200190815260200160002060010190816102409190611148565b5060006005600060015481526020019081526020016000206002018190555060046000838152602001908152602001600020600301600081548092919061028690611249565b91905055506001600081548092919061029e90611249565b91905055507fb355fcd66e2b46067119b64e24bea4f5f0478651710a06cc627f7b5e94fa04d46001548260006040516102d9939291906112cc565b60405180910390a15050565b60606000805467ffffffffffffffff81111561030457610303610962565b5b60405190808252806020026020018201604052801561033d57816020015b61032a61088a565b8152602001906001900390816103225790505b50905060005b60005481101561044c57600460008281526020019081526020016000206040518060800160405290816000820154815260200160018201805461038590610f6b565b80601f01602080910402602001604051908101604052809291908181526020018280546103b190610f6b565b80156103fe5780601f106103d3576101008083540402835291602001916103fe565b820191906000526020600020905b8154815290600101906020018083116103e157829003601f168201915b505050505081526020016002820154815260200160038201548152505082828151811061042e5761042d61130a565b5b6020026020010181905250808061044490611249565b915050610343565b508091505090565b600460205280600052604060002060009150905080600001549080600101805461047d90610f6b565b80601f01602080910402602001604051908101604052809291908181526020018280546104a990610f6b565b80156104f65780601f106104cb576101008083540402835291602001916104f6565b820191906000526020600020905b8154815290600101906020018083116104d957829003601f168201915b5050505050908060020154908060030154905084565b60046000828152602001908152602001600020600201600081548092919061053390611249565b91905055507f447c5d872ffc7fa2763b13dd068980191537823d15b95a6566333782d757d945600460008381526020019081526020016000206002015460405161057d91906108ec565b60405180910390a150565b6060600060015467ffffffffffffffff8111156105a8576105a7610962565b5b6040519080825280602002602001820160405280156105e157816020015b6105ce6108b2565b8152602001906001900390816105c65790505b50905060005b6001548110156106e657600560008281526020019081526020016000206040518060600160405290816000820154815260200160018201805461062990610f6b565b80601f016020809104026020016040519081016040528092919081815260200182805461065590610f6b565b80156106a25780601f10610677576101008083540402835291602001916106a2565b820191906000526020600020905b81548152906001019060200180831161068557829003601f168201915b505050505081526020016002820154815250508282815181106106c8576106c761130a565b5b602002602001018190525080806106de90611249565b9150506105e7565b508091505090565b600560205280600052604060002060009150905080600001549080600101805461071790610f6b565b80601f016020809104026020016040519081016040528092919081815260200182805461074390610f6b565b80156107905780601f1061076557610100808354040283529160200191610790565b820191906000526020600020905b81548152906001019060200180831161077357829003601f168201915b5050505050908060020154905083565b60008054905090565b6000600254905090565b60005460046000805481526020019081526020016000206000018190555080600460008054815260200190815260200160002060010190816107f59190611148565b506000600460008054815260200190815260200160002060020181905550600060046000805481526020019081526020016000206003018190555060008081548092919061084290611249565b91905055507f3c2e48f10481af3957834ee43a888206548cfcec6be012d46e263a309ec1c78b6000548260008060405161087f9493929190611339565b60405180910390a150565b6040518060800160405280600081526020016060815260200160008152602001600081525090565b60405180606001604052806000815260200160608152602001600081525090565b6000819050919050565b6108e6816108d3565b82525050565b600060208201905061090160008301846108dd565b92915050565b6000604051905090565b600080fd5b600080fd5b610924816108d3565b811461092f57600080fd5b50565b6000813590506109418161091b565b92915050565b600080fd5b600080fd5b6000601f19601f8301169050919050565b7f4e487b7100000000000000000000000000000000000000000000000000000000600052604160045260246000fd5b61099a82610951565b810181811067ffffffffffffffff821117156109b9576109b8610962565b5b80604052505050565b60006109cc610907565b90506109d88282610991565b919050565b600067ffffffffffffffff8211156109f8576109f7610962565b5b610a0182610951565b9050602081019050919050565b82818337600083830152505050565b6000610a30610a2b846109dd565b6109c2565b905082815260208101848484011115610a4c57610a4b61094c565b5b610a57848285610a0e565b509392505050565b600082601f830112610a7457610a73610947565b5b8135610a84848260208601610a1d565b91505092915050565b60008060408385031215610aa457610aa3610911565b5b6000610ab285828601610932565b925050602083013567ffffffffffffffff811115610ad357610ad2610916565b5b610adf85828601610a5f565b9150509250929050565b600081519050919050565b600082825260208201905092915050565b6000819050602082019050919050565b610b1e816108d3565b82525050565b600081519050919050565b600082825260208201905092915050565b60005b83811015610b5e578082015181840152602081019050610b43565b60008484015250505050565b6000610b7582610b24565b610b7f8185610b2f565b9350610b8f818560208601610b40565b610b9881610951565b840191505092915050565b6000608083016000830151610bbb6000860182610b15565b5060208301518482036020860152610bd38282610b6a565b9150506040830151610be86040860182610b15565b506060830151610bfb6060860182610b15565b508091505092915050565b6000610c128383610ba3565b905092915050565b6000602082019050919050565b6000610c3282610ae9565b610c3c8185610af4565b935083602082028501610c4e85610b05565b8060005b85811015610c8a5784840389528151610c6b8582610c06565b9450610c7683610c1a565b925060208a01995050600181019050610c52565b50829750879550505050505092915050565b60006020820190508181036000830152610cb68184610c27565b905092915050565b600060208284031215610cd457610cd3610911565b5b6000610ce284828501610932565b91505092915050565b600082825260208201905092915050565b6000610d0782610b24565b610d118185610ceb565b9350610d21818560208601610b40565b610d2a81610951565b840191505092915050565b6000608082019050610d4a60008301876108dd565b8181036020830152610d5c8186610cfc565b9050610d6b60408301856108dd565b610d7860608301846108dd565b95945050505050565b600081519050919050565b600082825260208201905092915050565b6000819050602082019050919050565b6000606083016000830151610dc56000860182610b15565b5060208301518482036020860152610ddd8282610b6a565b9150506040830151610df26040860182610b15565b508091505092915050565b6000610e098383610dad565b905092915050565b6000602082019050919050565b6000610e2982610d81565b610e338185610d8c565b935083602082028501610e4585610d9d565b8060005b85811015610e815784840389528151610e628582610dfd565b9450610e6d83610e11565b925060208a01995050600181019050610e49565b50829750879550505050505092915050565b60006020820190508181036000830152610ead8184610e1e565b905092915050565b6000606082019050610eca60008301866108dd565b8181036020830152610edc8185610cfc565b9050610eeb60408301846108dd565b949350505050565b600060208284031215610f0957610f08610911565b5b600082013567ffffffffffffffff811115610f2757610f26610916565b5b610f3384828501610a5f565b91505092915050565b7f4e487b7100000000000000000000000000000000000000000000000000000000600052602260045260246000fd5b60006002820490506001821680610f8357607f821691505b602082108103610f9657610f95610f3c565b5b50919050565b60008190508160005260206000209050919050565b60006020601f8301049050919050565b600082821b905092915050565b600060088302610ffe7fffffffffffffffffffffffffffffffffffffffffffffffffffffffffffffffff82610fc1565b6110088683610fc1565b95508019841693508086168417925050509392505050565b6000819050919050565b600061104561104061103b846108d3565b611020565b6108d3565b9050919050565b6000819050919050565b61105f8361102a565b61107361106b8261104c565b848454610fce565b825550505050565b600090565b61108861107b565b611093818484611056565b505050565b5b818110156110b7576110ac600082611080565b600181019050611099565b5050565b601f8211156110fc576110cd81610f9c565b6110d684610fb1565b810160208510156110e5578190505b6110f96110f185610fb1565b830182611098565b50505b505050565b600082821c905092915050565b600061111f60001984600802611101565b1980831691505092915050565b6000611138838361110e565b9150826002028217905092915050565b61115182610b24565b67ffffffffffffffff81111561116a57611169610962565b5b6111748254610f6b565b61117f8282856110bb565b600060209050601f8311600181146111b257600084156111a0578287015190505b6111aa858261112c565b865550611212565b601f1984166111c086610f9c565b60005b828110156111e8578489015182556001820191506020850194506020810190506111c3565b868310156112055784890151611201601f89168261110e565b8355505b6001600288020188555050505b505050505050565b7f4e487b7100000000000000000000000000000000000000000000000000000000600052601160045260246000fd5b6000611254826108d3565b91507fffffffffffffffffffffffffffffffffffffffffffffffffffffffffffffffff82036112865761128561121a565b5b600182019050919050565b6000819050919050565b60006112b66112b16112ac84611291565b611020565b6108d3565b9050919050565b6112c68161129b565b82525050565b60006060820190506112e160008301866108dd565b81810360208301526112f38185610cfc565b905061130260408301846112bd565b949350505050565b7f4e487b7100000000000000000000000000000000000000000000000000000000600052603260045260246000fd5b600060808201905061134e60008301876108dd565b81810360208301526113608186610cfc565b905061136f60408301856112bd565b61137c60608301846112bd565b9594505050505056fea26469706673582212202162e23abf063b377b6601f693d732f10441c78ecf5686aadb43baad4ae3f7b264736f6c63430008110033",
  "immutableReferences": {},
  "source": "// SPDX-License-Identifier: GPL-3.0\r\npragma solidity >=0.8.0;\r\n\r\ncontract Maincontract {\r\n    uint256 userCounts;\r\n    uint256 verifiedUserCounts;\r\n\r\n    constructor() {\r\n        userCounts = 0;\r\n        verifiedUserCounts = 0;\r\n    }\r\n\r\n    struct UserStruct {\r\n        address walletId;\r\n        address userContractAddress;\r\n        string userName;\r\n        string password;\r\n        bool isVerified;\r\n    }\r\n\r\n    event User(\r\n        address walletId,\r\n        address userContractAddress,\r\n        string userName,\r\n        string password,\r\n        bool isVerified\r\n    );\r\n\r\n    mapping(address => UserStruct) public userStructs;\r\n\r\n    function createUser(\r\n        address _walletId,\r\n        string memory _userName,\r\n        string memory _password\r\n    ) public {\r\n        address uca = address(new UserContract(_walletId));\r\n        userStructs[_walletId].walletId = _walletId;\r\n        userStructs[_walletId].userName = _userName;\r\n        userStructs[_walletId].password = _password;\r\n        userStructs[_walletId].isVerified = false;\r\n        userStructs[_walletId].userContractAddress = uca;\r\n        userCounts++;\r\n        emit User(_walletId, uca, _userName, _password, false);\r\n    }\r\n\r\n    function getUser(address _walletId)\r\n        public\r\n        view\r\n        returns (\r\n            address,\r\n            string memory,\r\n            string memory,\r\n            bool,\r\n            address\r\n        )\r\n    {\r\n        if (userStructs[_walletId].walletId == address(0)) {\r\n            return (\r\n                address(0),\r\n                \"account does not exist\",\r\n                \"\",\r\n                false,\r\n                address(0)\r\n            );\r\n        }\r\n        return (\r\n            userStructs[_walletId].walletId,\r\n            userStructs[_walletId].userName,\r\n            userStructs[_walletId].password,\r\n            userStructs[_walletId].isVerified,\r\n            userStructs[_walletId].userContractAddress\r\n        );\r\n    }\r\n\r\n    function getUserCount() public view returns (uint256) {\r\n        return userCounts;\r\n    }\r\n\r\n    function getVerifiedUserCount() public view returns (uint256) {\r\n        return verifiedUserCounts;\r\n    }\r\n\r\n    function verifyUser(address _walletId) public {\r\n        userStructs[_walletId].isVerified = true;\r\n        verifiedUserCounts++;\r\n    }\r\n\r\n    function makePost(address _walletId, string memory _postContent) public {\r\n        UserContract uc = UserContract(\r\n            userStructs[_walletId].userContractAddress\r\n        );\r\n        uc.createPost(_postContent);\r\n    }\r\n\r\n    function makeComment(\r\n        address _walletId,\r\n        uint256 _postId,\r\n        string memory _commentContent\r\n    ) public {\r\n        UserContract uc = UserContract(\r\n            userStructs[_walletId].userContractAddress\r\n        );\r\n        uc.createComment(_postId, _commentContent);\r\n    }\r\n\r\n    function likePost(address _walletId, uint256 _postId) public {\r\n        UserContract uc = UserContract(\r\n            userStructs[_walletId].userContractAddress\r\n        );\r\n        uc.likePost(_postId);\r\n    }\r\n\r\n    function getPosts(address _walletId)\r\n        public\r\n        view\r\n        returns (UserContract.PostStruct[] memory)\r\n    {\r\n        UserContract uc = UserContract(\r\n            userStructs[_walletId].userContractAddress\r\n        );\r\n        return uc.getPosts();\r\n    }\r\n\r\n    function getComments(address _walletId)\r\n        public\r\n        view\r\n        returns (UserContract.CommentStruct[] memory)\r\n    {\r\n        UserContract uc = UserContract(\r\n            userStructs[_walletId].userContractAddress\r\n        );\r\n        return uc.getComments();\r\n    }\r\n\r\n    function getPostCount(address _walletId) public view returns (uint256) {\r\n        UserContract uc = UserContract(\r\n            userStructs[_walletId].userContractAddress\r\n        );\r\n        return uc.getPostCount();\r\n    }\r\n\r\n    function getCommentCount(address _walletId) public view returns (uint256) {\r\n        UserContract uc = UserContract(\r\n            userStructs[_walletId].userContractAddress\r\n        );\r\n        return uc.getCommentCount();\r\n    }\r\n\r\n    function getLikeCount(address _walletId) public view returns (uint256) {\r\n        UserContract uc = UserContract(\r\n            userStructs[_walletId].userContractAddress\r\n        );\r\n        return uc.getLikeCount();\r\n    }\r\n}\r\n\r\n///////////////////////////////////////////////////////////////////////////////////////////////////////////////////////////////////////\r\n\r\ncontract UserContract {\r\n    uint256 postCounts;\r\n    uint256 commentCounts;\r\n    uint256 likeCounts;\r\n    address owner;\r\n\r\n    constructor(address walletId) {\r\n        owner = walletId;\r\n        postCounts = 0;\r\n        commentCounts = 0;\r\n        likeCounts = 0;\r\n    }\r\n\r\n    struct PostStruct {\r\n        uint256 postId;\r\n        string postContent;\r\n        uint256 likeCount;\r\n        uint256 commentCount;\r\n    }\r\n    struct CommentStruct {\r\n        uint256 commentId;\r\n        string commentContent;\r\n        uint256 likeCount;\r\n    }\r\n\r\n    event Post(\r\n        uint256 postId,\r\n        string postContent,\r\n        uint256 likeCount,\r\n        uint256 commentCount\r\n    );\r\n    event Comment(uint256 commentId, string commentContent, uint256 likeCount);\r\n    event Like(uint256 likeCount);\r\n\r\n    mapping(uint256 => PostStruct) public postStructs;\r\n    mapping(uint256 => CommentStruct) public commentStructs;\r\n\r\n    function createPost(string memory _postContent) public {\r\n        postStructs[postCounts].postId = postCounts;\r\n        postStructs[postCounts].postContent = _postContent;\r\n        postStructs[postCounts].likeCount = 0;\r\n        postStructs[postCounts].commentCount = 0;\r\n        postCounts++;\r\n        emit Post(postCounts, _postContent, 0, 0);\r\n    }\r\n\r\n    function createComment(uint256 _postId, string memory _commentContent)\r\n        public\r\n    {\r\n        commentStructs[commentCounts].commentId = commentCounts;\r\n        commentStructs[commentCounts].commentContent = _commentContent;\r\n        commentStructs[commentCounts].likeCount = 0;\r\n        postStructs[_postId].commentCount++;\r\n        commentCounts++;\r\n        emit Comment(commentCounts, _commentContent, 0);\r\n    }\r\n\r\n    function likePost(uint256 _postId) public {\r\n        postStructs[_postId].likeCount++;\r\n        emit Like(postStructs[_postId].likeCount);\r\n    }\r\n\r\n    function getPosts() public view returns (PostStruct[] memory) {\r\n        PostStruct[] memory posts = new PostStruct[](postCounts);\r\n        for (uint256 i = 0; i < postCounts; i++) {\r\n            posts[i] = postStructs[i];\r\n        }\r\n        return posts;\r\n    }\r\n\r\n    function getComments() public view returns (CommentStruct[] memory) {\r\n        CommentStruct[] memory comments = new CommentStruct[](commentCounts);\r\n        for (uint256 i = 0; i < commentCounts; i++) {\r\n            comments[i] = commentStructs[i];\r\n        }\r\n        return comments;\r\n    }\r\n\r\n    function getPostCount() public view returns (uint256) {\r\n        return postCounts;\r\n    }\r\n\r\n    function getCommentCount() public view returns (uint256) {\r\n        return commentCounts;\r\n    }\r\n\r\n    function getLikeCount() public view returns (uint256) {\r\n        return likeCounts;\r\n    }\r\n}\r\n",
  "sourcePath": "D:\\Users\\Desktop\\BOOOKS\\SEMESTER 7\\BCT\\Project\\DE-Verse\\smartcontract\\contracts\\Main.sol",
  "compiler": {
    "name": "solc",
    "version": "0.8.17+commit.8df45f5f.Emscripten.clang"
  },
  "schemaVersion": "3.4.10",
  "updatedAt": "2022-12-13T16:30:12.978Z",
  "devdoc": {
    "kind": "dev",
    "methods": {},
    "version": 1
  },
  "userdoc": {
    "kind": "user",
    "methods": {},
    "version": 1
  }
}