{
  "contractName": "UserContract",
  "abi": [
    {
      "inputs": [
        {
          "internalType": "address",
          "name": "walletId",
          "type": "address"
        }
      ],
      "stateMutability": "nonpayable",
      "type": "constructor"
    },
    {
      "anonymous": false,
      "inputs": [
        {
          "indexed": false,
          "internalType": "uint256",
          "name": "likeCount",
          "type": "uint256"
        }
      ],
      "name": "Like",
      "type": "event"
    },
    {
      "anonymous": false,
      "inputs": [
        {
          "indexed": false,
          "internalType": "uint256",
          "name": "postId",
          "type": "uint256"
        },
        {
          "indexed": false,
          "internalType": "string",
          "name": "postContent",
          "type": "string"
        },
        {
          "indexed": false,
          "internalType": "uint256",
          "name": "likeCount",
          "type": "uint256"
        },
        {
          "indexed": false,
          "internalType": "uint256",
          "name": "commentCount",
          "type": "uint256"
        },
        {
          "indexed": false,
          "internalType": "string",
          "name": "timeStamp",
          "type": "string"
        },
        {
          "indexed": false,
          "internalType": "string",
          "name": "userName",
          "type": "string"
        },
        {
          "indexed": false,
          "internalType": "bool",
          "name": "isVerified",
          "type": "bool"
        }
      ],
      "name": "Post",
      "type": "event"
    },
    {
      "inputs": [
        {
          "internalType": "uint256",
          "name": "",
          "type": "uint256"
        }
      ],
      "name": "postStructs",
      "outputs": [
        {
          "internalType": "uint256",
          "name": "postId",
          "type": "uint256"
        },
        {
          "internalType": "string",
          "name": "postContent",
          "type": "string"
        },
        {
          "internalType": "uint256",
          "name": "likeCount",
          "type": "uint256"
        },
        {
          "internalType": "uint256",
          "name": "commentCount",
          "type": "uint256"
        },
        {
          "internalType": "string",
          "name": "timeStamp",
          "type": "string"
        },
        {
          "internalType": "string",
          "name": "userName",
          "type": "string"
        },
        {
          "internalType": "bool",
          "name": "isVerified",
          "type": "bool"
        }
      ],
      "stateMutability": "view",
      "type": "function"
    },
    {
      "inputs": [
        {
          "internalType": "string",
          "name": "_postContent",
          "type": "string"
        },
        {
          "internalType": "string",
          "name": "timeStamp",
          "type": "string"
        },
        {
          "internalType": "string",
          "name": "userName",
          "type": "string"
        },
        {
          "internalType": "bool",
          "name": "isVerified",
          "type": "bool"
        }
      ],
      "name": "createPost",
      "outputs": [],
      "stateMutability": "nonpayable",
      "type": "function"
    },
    {
      "inputs": [
        {
          "internalType": "string",
          "name": "_commentContent",
          "type": "string"
        },
        {
          "internalType": "uint256",
          "name": "_postId",
          "type": "uint256"
        }
      ],
      "name": "createComment",
      "outputs": [],
      "stateMutability": "nonpayable",
      "type": "function"
    },
    {
      "inputs": [],
      "name": "getComments",
      "outputs": [
        {
          "internalType": "string[]",
          "name": "",
          "type": "string[]"
        }
      ],
      "stateMutability": "view",
      "type": "function"
    },
    {
      "inputs": [
        {
          "internalType": "uint256",
          "name": "_postId",
          "type": "uint256"
        }
      ],
      "name": "likePost",
      "outputs": [],
      "stateMutability": "nonpayable",
      "type": "function"
    },
    {
      "inputs": [
        {
          "internalType": "uint256",
          "name": "_postId",
          "type": "uint256"
        },
        {
          "internalType": "string",
          "name": "_userName",
          "type": "string"
        }
      ],
      "name": "updateMylikes",
      "outputs": [],
      "stateMutability": "nonpayable",
      "type": "function"
    },
    {
      "inputs": [
        {
          "internalType": "address",
          "name": "_walletId",
          "type": "address"
        }
      ],
      "name": "followSomeone",
      "outputs": [],
      "stateMutability": "nonpayable",
      "type": "function"
    },
    {
      "inputs": [],
      "name": "updateFollowersCount",
      "outputs": [],
      "stateMutability": "nonpayable",
      "type": "function"
    },
    {
      "inputs": [],
      "name": "getFollowersCount",
      "outputs": [
        {
          "internalType": "uint256",
          "name": "",
          "type": "uint256"
        }
      ],
      "stateMutability": "view",
      "type": "function"
    },
    {
      "inputs": [],
      "name": "getFollowing",
      "outputs": [
        {
          "internalType": "address[]",
          "name": "",
          "type": "address[]"
        }
      ],
      "stateMutability": "view",
      "type": "function"
    },
    {
      "inputs": [],
      "name": "getPosts",
      "outputs": [
        {
          "components": [
            {
              "internalType": "uint256",
              "name": "postId",
              "type": "uint256"
            },
            {
              "internalType": "string",
              "name": "postContent",
              "type": "string"
            },
            {
              "internalType": "uint256",
              "name": "likeCount",
              "type": "uint256"
            },
            {
              "internalType": "uint256",
              "name": "commentCount",
              "type": "uint256"
            },
            {
              "internalType": "string",
              "name": "timeStamp",
              "type": "string"
            },
            {
              "internalType": "string",
              "name": "userName",
              "type": "string"
            },
            {
              "internalType": "bool",
              "name": "isVerified",
              "type": "bool"
            }
          ],
          "internalType": "struct UserContract.PostStruct[]",
          "name": "",
          "type": "tuple[]"
        }
      ],
      "stateMutability": "view",
      "type": "function"
    },
    {
      "inputs": [],
      "name": "getPostCount",
      "outputs": [
        {
          "internalType": "uint256",
          "name": "",
          "type": "uint256"
        }
      ],
      "stateMutability": "view",
      "type": "function"
    },
    {
      "inputs": [],
      "name": "getCommentCount",
      "outputs": [
        {
          "internalType": "uint256",
          "name": "",
          "type": "uint256"
        }
      ],
      "stateMutability": "view",
      "type": "function"
    },
    {
      "inputs": [],
      "name": "getLikeCount",
      "outputs": [
        {
          "internalType": "uint256",
          "name": "",
          "type": "uint256"
        }
      ],
      "stateMutability": "view",
      "type": "function"
    },
    {
      "inputs": [],
      "name": "getMyLikes",
      "outputs": [
        {
          "components": [
            {
              "internalType": "uint256",
              "name": "postId",
              "type": "uint256"
            },
            {
              "internalType": "string",
              "name": "userName",
              "type": "string"
            }
          ],
          "internalType": "struct UserContract.myLikeStruct[]",
          "name": "",
          "type": "tuple[]"
        }
      ],
      "stateMutability": "view",
      "type": "function"
    }
  ],
  "bytecode": "0x60806040523480156200001157600080fd5b5060405162001cf838038062001cf8833981810160405281019062000037919062000100565b80600360006101000a81548173ffffffffffffffffffffffffffffffffffffffff021916908373ffffffffffffffffffffffffffffffffffffffff16021790555060008081905550600060018190555060006002819055505062000132565b600080fd5b600073ffffffffffffffffffffffffffffffffffffffff82169050919050565b6000620000c8826200009b565b9050919050565b620000da81620000bb565b8114620000e657600080fd5b50565b600081519050620000fa81620000cf565b92915050565b60006020828403121562000119576200011862000096565b5b60006200012984828501620000e9565b91505092915050565b611bb680620001426000396000f3fe608060405234801561001057600080fd5b50600436106100f55760003560e01c806399c50dd111610097578063e71ef23d11610066578063e71ef23d14610244578063eb058a2f14610260578063ecf0a45d1461027c578063f72ead131461029a576100f5565b806399c50dd1146101ce578063bcc95407146101ea578063c4d67b0914610208578063e22bce2714610226576100f5565b806360f2e378116100d357806360f2e378146101545780636f94a3661461015e578063725009d31461019457806391f3410c146101b0576100f5565b806316e31ea3146100fa57806323f147021461011857806341f3004a14610136575b600080fd5b6101026102b6565b60405161010f9190610d4c565b60405180910390f35b6101206102c0565b60405161012d9190610e57565b60405180910390f35b61013e61034e565b60405161014b919061109f565b60405180910390f35b61015c6105fc565b005b61017860048036038101906101739190611101565b610616565b60405161018b9796959493929190611187565b60405180910390f35b6101ae60048036038101906101a99190611101565b6107fd565b005b6101b8610879565b6040516101c591906112cd565b60405180910390f35b6101e860048036038101906101e3919061131b565b610952565b005b6101f26109b8565b6040516101ff9190610d4c565b60405180910390f35b6102106109c1565b60405161021d9190610d4c565b60405180910390f35b61022e6109cb565b60405161023b9190610d4c565b60405180910390f35b61025e600480360381019061025991906114a9565b6109d5565b005b61027a60048036038101906102759190611564565b610b2e565b005b610284610b94565b60405161029191906116bf565b60405180910390f35b6102b460048036038101906102af91906116e1565b610c8f565b005b6000600154905090565b6060600580548060200260200160405190810160405280929190818152602001828054801561034457602002820191906000526020600020905b8160009054906101000a900473ffffffffffffffffffffffffffffffffffffffff1673ffffffffffffffffffffffffffffffffffffffff16815260200190600101908083116102fa575b5050505050905090565b60606000805467ffffffffffffffff81111561036d5761036c611352565b5b6040519080825280602002602001820160405280156103a657816020015b610393610cf4565b81526020019060019003908161038b5790505b50905060005b6000548110156105f457600860008281526020019081526020016000206040518060e0016040529081600082015481526020016001820180546103ee9061176c565b80601f016020809104026020016040519081016040528092919081815260200182805461041a9061176c565b80156104675780601f1061043c57610100808354040283529160200191610467565b820191906000526020600020905b81548152906001019060200180831161044a57829003601f168201915b5050505050815260200160028201548152602001600382015481526020016004820180546104949061176c565b80601f01602080910402602001604051908101604052809291908181526020018280546104c09061176c565b801561050d5780601f106104e25761010080835404028352916020019161050d565b820191906000526020600020905b8154815290600101906020018083116104f057829003601f168201915b505050505081526020016005820180546105269061176c565b80601f01602080910402602001604051908101604052809291908181526020018280546105529061176c565b801561059f5780601f106105745761010080835404028352916020019161059f565b820191906000526020600020905b81548152906001019060200180831161058257829003601f168201915b505050505081526020016006820160009054906101000a900460ff1615151515815250508282815181106105d6576105d561179d565b5b602002602001018190525080806105ec906117fb565b9150506103ac565b508091505090565b6004600081548092919061060f906117fb565b9190505550565b600860205280600052604060002060009150905080600001549080600101805461063f9061176c565b80601f016020809104026020016040519081016040528092919081815260200182805461066b9061176c565b80156106b85780601f1061068d576101008083540402835291602001916106b8565b820191906000526020600020905b81548152906001019060200180831161069b57829003601f168201915b5050505050908060020154908060030154908060040180546106d99061176c565b80601f01602080910402602001604051908101604052809291908181526020018280546107059061176c565b80156107525780601f1061072757610100808354040283529160200191610752565b820191906000526020600020905b81548152906001019060200180831161073557829003601f168201915b5050505050908060050180546107679061176c565b80601f01602080910402602001604051908101604052809291908181526020018280546107939061176c565b80156107e05780601f106107b5576101008083540402835291602001916107e0565b820191906000526020600020905b8154815290600101906020018083116107c357829003601f168201915b5050505050908060060160009054906101000a900460ff16905087565b600860008281526020019081526020016000206002016000815480929190610824906117fb565b91905055507f447c5d872ffc7fa2763b13dd068980191537823d15b95a6566333782d757d945600860008381526020019081526020016000206002015460405161086e9190610d4c565b60405180910390a150565b60606007805480602002602001604051908101604052809291908181526020016000905b828210156109495783829060005260206000200180546108bc9061176c565b80601f01602080910402602001604051908101604052809291908181526020018280546108e89061176c565b80156109355780601f1061090a57610100808354040283529160200191610935565b820191906000526020600020905b81548152906001019060200180831161091857829003601f168201915b50505050508152602001906001019061089d565b50505050905090565b6005819080600181540180825580915050600190039060005260206000200160009091909190916101000a81548173ffffffffffffffffffffffffffffffffffffffff021916908373ffffffffffffffffffffffffffffffffffffffff16021790555050565b60008054905090565b6000600254905090565b6000600454905090565b6000546008600080548152602001908152602001600020600001819055508360086000805481526020019081526020016000206001019081610a1791906119ef565b50600060086000805481526020019081526020016000206002018190555060006008600080548152602001908152602001600020600301819055508260086000805481526020019081526020016000206004019081610a7691906119ef565b508160086000805481526020019081526020016000206005019081610a9b91906119ef565b5080600860008054815260200190815260200160002060060160006101000a81548160ff021916908315150217905550600080815480929190610add906117fb565b91905055507f689bb0330c1c7078d60ff9632a4be061f5411d6c6d3cfc8960e175d277f6a53e60005485600080878787604051610b209796959493929190611afc565b60405180910390a150505050565b60066040518060400160405280848152602001838152509080600181540180825580915050600190039060005260206000209060020201600090919091909150600082015181600001556020820151816001019081610b8d91906119ef565b5050505050565b60606006805480602002602001604051908101604052809291908181526020016000905b82821015610c86578382906000526020600020906002020160405180604001604052908160008201548152602001600182018054610bf59061176c565b80601f0160208091040260200160405190810160405280929190818152602001828054610c219061176c565b8015610c6e5780601f10610c4357610100808354040283529160200191610c6e565b820191906000526020600020905b815481529060010190602001808311610c5157829003601f168201915b50505050508152505081526020019060010190610bb8565b50505050905090565b600782908060018154018082558091505060019003906000526020600020016000909190919091509081610cc391906119ef565b50600860008281526020019081526020016000206003016000815480929190610ceb906117fb565b91905055505050565b6040518060e001604052806000815260200160608152602001600081526020016000815260200160608152602001606081526020016000151581525090565b6000819050919050565b610d4681610d33565b82525050565b6000602082019050610d616000830184610d3d565b92915050565b600081519050919050565b600082825260208201905092915050565b6000819050602082019050919050565b600073ffffffffffffffffffffffffffffffffffffffff82169050919050565b6000610dbe82610d93565b9050919050565b610dce81610db3565b82525050565b6000610de08383610dc5565b60208301905092915050565b6000602082019050919050565b6000610e0482610d67565b610e0e8185610d72565b9350610e1983610d83565b8060005b83811015610e4a578151610e318882610dd4565b9750610e3c83610dec565b925050600181019050610e1d565b5085935050505092915050565b60006020820190508181036000830152610e718184610df9565b905092915050565b600081519050919050565b600082825260208201905092915050565b6000819050602082019050919050565b610eae81610d33565b82525050565b600081519050919050565b600082825260208201905092915050565b60005b83811015610eee578082015181840152602081019050610ed3565b60008484015250505050565b6000601f19601f8301169050919050565b6000610f1682610eb4565b610f208185610ebf565b9350610f30818560208601610ed0565b610f3981610efa565b840191505092915050565b60008115159050919050565b610f5981610f44565b82525050565b600060e083016000830151610f776000860182610ea5565b5060208301518482036020860152610f8f8282610f0b565b9150506040830151610fa46040860182610ea5565b506060830151610fb76060860182610ea5565b5060808301518482036080860152610fcf8282610f0b565b91505060a083015184820360a0860152610fe98282610f0b565b91505060c0830151610ffe60c0860182610f50565b508091505092915050565b60006110158383610f5f565b905092915050565b6000602082019050919050565b600061103582610e79565b61103f8185610e84565b93508360208202850161105185610e95565b8060005b8581101561108d578484038952815161106e8582611009565b94506110798361101d565b925060208a01995050600181019050611055565b50829750879550505050505092915050565b600060208201905081810360008301526110b9818461102a565b905092915050565b6000604051905090565b600080fd5b600080fd5b6110de81610d33565b81146110e957600080fd5b50565b6000813590506110fb816110d5565b92915050565b600060208284031215611117576111166110cb565b5b6000611125848285016110ec565b91505092915050565b600082825260208201905092915050565b600061114a82610eb4565b611154818561112e565b9350611164818560208601610ed0565b61116d81610efa565b840191505092915050565b61118181610f44565b82525050565b600060e08201905061119c600083018a610d3d565b81810360208301526111ae818961113f565b90506111bd6040830188610d3d565b6111ca6060830187610d3d565b81810360808301526111dc818661113f565b905081810360a08301526111f0818561113f565b90506111ff60c0830184611178565b98975050505050505050565b600081519050919050565b600082825260208201905092915050565b6000819050602082019050919050565b60006112438383610f0b565b905092915050565b6000602082019050919050565b60006112638261120b565b61126d8185611216565b93508360208202850161127f85611227565b8060005b858110156112bb578484038952815161129c8582611237565b94506112a78361124b565b925060208a01995050600181019050611283565b50829750879550505050505092915050565b600060208201905081810360008301526112e78184611258565b905092915050565b6112f881610db3565b811461130357600080fd5b50565b600081359050611315816112ef565b92915050565b600060208284031215611331576113306110cb565b5b600061133f84828501611306565b91505092915050565b600080fd5b600080fd5b7f4e487b7100000000000000000000000000000000000000000000000000000000600052604160045260246000fd5b61138a82610efa565b810181811067ffffffffffffffff821117156113a9576113a8611352565b5b80604052505050565b60006113bc6110c1565b90506113c88282611381565b919050565b600067ffffffffffffffff8211156113e8576113e7611352565b5b6113f182610efa565b9050602081019050919050565b82818337600083830152505050565b600061142061141b846113cd565b6113b2565b90508281526020810184848401111561143c5761143b61134d565b5b6114478482856113fe565b509392505050565b600082601f83011261146457611463611348565b5b813561147484826020860161140d565b91505092915050565b61148681610f44565b811461149157600080fd5b50565b6000813590506114a38161147d565b92915050565b600080600080608085870312156114c3576114c26110cb565b5b600085013567ffffffffffffffff8111156114e1576114e06110d0565b5b6114ed8782880161144f565b945050602085013567ffffffffffffffff81111561150e5761150d6110d0565b5b61151a8782880161144f565b935050604085013567ffffffffffffffff81111561153b5761153a6110d0565b5b6115478782880161144f565b925050606061155887828801611494565b91505092959194509250565b6000806040838503121561157b5761157a6110cb565b5b6000611589858286016110ec565b925050602083013567ffffffffffffffff8111156115aa576115a96110d0565b5b6115b68582860161144f565b9150509250929050565b600081519050919050565b600082825260208201905092915050565b6000819050602082019050919050565b60006040830160008301516116046000860182610ea5565b506020830151848203602086015261161c8282610f0b565b9150508091505092915050565b600061163583836115ec565b905092915050565b6000602082019050919050565b6000611655826115c0565b61165f81856115cb565b935083602082028501611671856115dc565b8060005b858110156116ad578484038952815161168e8582611629565b94506116998361163d565b925060208a01995050600181019050611675565b50829750879550505050505092915050565b600060208201905081810360008301526116d9818461164a565b905092915050565b600080604083850312156116f8576116f76110cb565b5b600083013567ffffffffffffffff811115611716576117156110d0565b5b6117228582860161144f565b9250506020611733858286016110ec565b9150509250929050565b7f4e487b7100000000000000000000000000000000000000000000000000000000600052602260045260246000fd5b6000600282049050600182168061178457607f821691505b6020821081036117975761179661173d565b5b50919050565b7f4e487b7100000000000000000000000000000000000000000000000000000000600052603260045260246000fd5b7f4e487b7100000000000000000000000000000000000000000000000000000000600052601160045260246000fd5b600061180682610d33565b91507fffffffffffffffffffffffffffffffffffffffffffffffffffffffffffffffff8203611838576118376117cc565b5b600182019050919050565b60008190508160005260206000209050919050565b60006020601f8301049050919050565b600082821b905092915050565b6000600883026118a57fffffffffffffffffffffffffffffffffffffffffffffffffffffffffffffffff82611868565b6118af8683611868565b95508019841693508086168417925050509392505050565b6000819050919050565b60006118ec6118e76118e284610d33565b6118c7565b610d33565b9050919050565b6000819050919050565b611906836118d1565b61191a611912826118f3565b848454611875565b825550505050565b600090565b61192f611922565b61193a8184846118fd565b505050565b5b8181101561195e57611953600082611927565b600181019050611940565b5050565b601f8211156119a35761197481611843565b61197d84611858565b8101602085101561198c578190505b6119a061199885611858565b83018261193f565b50505b505050565b600082821c905092915050565b60006119c6600019846008026119a8565b1980831691505092915050565b60006119df83836119b5565b9150826002028217905092915050565b6119f882610eb4565b67ffffffffffffffff811115611a1157611a10611352565b5b611a1b825461176c565b611a26828285611962565b600060209050601f831160018114611a595760008415611a47578287015190505b611a5185826119d3565b865550611ab9565b601f198416611a6786611843565b60005b82811015611a8f57848901518255600182019150602085019450602081019050611a6a565b86831015611aac5784890151611aa8601f8916826119b5565b8355505b6001600288020188555050505b505050505050565b6000819050919050565b6000611ae6611ae1611adc84611ac1565b6118c7565b610d33565b9050919050565b611af681611acb565b82525050565b600060e082019050611b11600083018a610d3d565b8181036020830152611b23818961113f565b9050611b326040830188611aed565b611b3f6060830187611aed565b8181036080830152611b51818661113f565b905081810360a0830152611b65818561113f565b9050611b7460c0830184611178565b9897505050505050505056fea2646970667358221220ccdd367fc52e8433a12479bf79af9515a124dfe0b747d69459c360e5ea35e80364736f6c63430008110033",
  "immutableReferences": {},
  "source": "// SPDX-License-Identifier: GPL-3.0\r\npragma solidity >=0.8.0;\r\n\r\ncontract Maincontract {\r\n    uint256 userCounts;\r\n    uint256 verifiedUserCounts;\r\n\r\n    constructor() {\r\n        userCounts = 0;\r\n        verifiedUserCounts = 0;\r\n    }\r\n\r\n    struct UserStruct {\r\n        address walletId;\r\n        address userContractAddress;\r\n        string userName;\r\n        string password;\r\n        bool isVerified;\r\n    }\r\n    struct PostStruct {\r\n        uint256 postId;\r\n        string postContent;\r\n        uint256 likeCount;\r\n        uint256 commentCount;\r\n        string timeStamp;\r\n        string userName;\r\n        bool isVerified;\r\n    }\r\n\r\n    event User(\r\n        address walletId,\r\n        address userContractAddress,\r\n        string userName,\r\n        string password,\r\n        bool isVerified\r\n    );\r\n    event Post(\r\n        uint256 postId,\r\n        string postContent,\r\n        uint256 likeCount,\r\n        uint256 commentCount,\r\n        string timeStamp,\r\n        string userName,\r\n        bool isVerified\r\n    );\r\n\r\n    mapping(address => UserStruct) public userStructs;\r\n    mapping(string => address) public userNameToWalletId;\r\n    address[] public numberToWalletId;\r\n    string[] public userNames;\r\n\r\n    function createUser(\r\n        address _walletId,\r\n        string memory _userName,\r\n        string memory _password\r\n    ) public {\r\n        address uca = address(new UserContract(_walletId));\r\n        userStructs[_walletId].walletId = _walletId;\r\n        userStructs[_walletId].userName = _userName;\r\n        userStructs[_walletId].password = _password;\r\n        userStructs[_walletId].isVerified = false;\r\n        userStructs[_walletId].userContractAddress = uca;\r\n        userCounts++;\r\n        userNameToWalletId[_userName] = _walletId;\r\n        userNames.push(_userName);\r\n        numberToWalletId.push(_walletId);\r\n        emit User(_walletId, uca, _userName, _password, false);\r\n    }\r\n\r\n    function getAllUserNames() public view returns (string[] memory) {\r\n        return userNames;\r\n    }\r\n\r\n    function getUser(address _walletId)\r\n        public\r\n        view\r\n        returns (\r\n            address,\r\n            string memory,\r\n            string memory,\r\n            bool,\r\n            address\r\n        )\r\n    {\r\n        if (userStructs[_walletId].walletId == address(0)) {\r\n            return (\r\n                address(0),\r\n                \"account does not exist\",\r\n                \"\",\r\n                false,\r\n                address(0)\r\n            );\r\n        }\r\n        return (\r\n            userStructs[_walletId].walletId,\r\n            userStructs[_walletId].userName,\r\n            userStructs[_walletId].password,\r\n            userStructs[_walletId].isVerified,\r\n            userStructs[_walletId].userContractAddress\r\n        );\r\n    }\r\n\r\n    function getUserByUserName(string memory _userName)\r\n        public\r\n        view\r\n        returns (\r\n            address,\r\n            string memory,\r\n            string memory,\r\n            bool,\r\n            address\r\n        )\r\n    {\r\n        address _walletId = userNameToWalletId[_userName];\r\n        if (userStructs[_walletId].walletId == address(0)) {\r\n            return (\r\n                address(0),\r\n                \"account does not exist\",\r\n                \"\",\r\n                false,\r\n                address(0)\r\n            );\r\n        }\r\n        return (\r\n            userStructs[_walletId].walletId,\r\n            userStructs[_walletId].userName,\r\n            userStructs[_walletId].password,\r\n            userStructs[_walletId].isVerified,\r\n            userStructs[_walletId].userContractAddress\r\n        );\r\n    }\r\n\r\n    function getUserCount() public view returns (uint256) {\r\n        return userCounts;\r\n    }\r\n\r\n    function getVerifiedUserCount() public view returns (uint256) {\r\n        return verifiedUserCounts;\r\n    }\r\n\r\n    function verifyUser(address _walletId) public {\r\n        userStructs[_walletId].isVerified = true;\r\n        verifiedUserCounts++;\r\n    }\r\n\r\n    function makePost(\r\n        address _walletId,\r\n        string memory _postContent,\r\n        string memory timeStamp\r\n    ) public {\r\n        UserContract uc = UserContract(\r\n            userStructs[_walletId].userContractAddress\r\n        );\r\n        uc.createPost(\r\n            _postContent,\r\n            timeStamp,\r\n            userStructs[_walletId].userName,\r\n            userStructs[_walletId].isVerified\r\n        );\r\n    }\r\n\r\n    function makeComment(\r\n        string memory _comment,\r\n        string memory _postOwner,\r\n        uint256 _postId\r\n    ) public {\r\n        address _walletId = userNameToWalletId[_postOwner];\r\n        UserContract uc = UserContract(\r\n            userStructs[_walletId].userContractAddress\r\n        );\r\n        uc.createComment(_comment, _postId);\r\n    }\r\n\r\n    function getComments(string memory _postOwner)\r\n        public\r\n        view\r\n        returns (string[] memory)\r\n    {\r\n        address _walletId = userNameToWalletId[_postOwner];\r\n        UserContract uc = UserContract(\r\n            userStructs[_walletId].userContractAddress\r\n        );\r\n        return uc.getComments();\r\n    }\r\n\r\n    function likePost(\r\n        string memory _userName,\r\n        uint256 _postId,\r\n        address _myWalletId\r\n    ) public {\r\n        address _walletId = userNameToWalletId[_userName];\r\n        UserContract uc = UserContract(\r\n            userStructs[_walletId].userContractAddress\r\n        );\r\n        uc.likePost(_postId);\r\n        UserContract ucf = UserContract(\r\n            userStructs[_myWalletId].userContractAddress\r\n        );\r\n        // concat postId and userName\r\n        // string memory _postIdAndUserName = string(\r\n        //     abi.encodePacked(_postId, \" \", _userName)\r\n        // );\r\n        ucf.updateMylikes(_postId, _userName);\r\n    }\r\n\r\n    function followUser(address _walletId, address _followingId) public {\r\n        UserContract uc = UserContract(\r\n            userStructs[_walletId].userContractAddress\r\n        );\r\n        uc.followSomeone(_followingId);\r\n        UserContract ucf = UserContract(\r\n            userStructs[_followingId].userContractAddress\r\n        );\r\n        ucf.updateFollowersCount();\r\n    }\r\n\r\n    function getFollowing(address _walletId)\r\n        public\r\n        view\r\n        returns (address[] memory)\r\n    {\r\n        UserContract uc = UserContract(\r\n            userStructs[_walletId].userContractAddress\r\n        );\r\n        return uc.getFollowing();\r\n    }\r\n\r\n    function getFollowersCount(address _walletId)\r\n        public\r\n        view\r\n        returns (uint256)\r\n    {\r\n        UserContract uc = UserContract(\r\n            userStructs[_walletId].userContractAddress\r\n        );\r\n        return uc.getFollowersCount();\r\n    }\r\n\r\n    function getPosts(address _walletId)\r\n        public\r\n        view\r\n        returns (UserContract.PostStruct[] memory)\r\n    {\r\n        UserContract uc = UserContract(\r\n            userStructs[_walletId].userContractAddress\r\n        );\r\n        return uc.getPosts();\r\n    }\r\n\r\n    function getAllUsersAddress() public view returns (address[] memory) {\r\n        return numberToWalletId;\r\n    }\r\n\r\n    function getPostCount(address _walletId) public view returns (uint256) {\r\n        UserContract uc = UserContract(\r\n            userStructs[_walletId].userContractAddress\r\n        );\r\n        return uc.getPostCount();\r\n    }\r\n\r\n    function getCommentCount(address _walletId) public view returns (uint256) {\r\n        UserContract uc = UserContract(\r\n            userStructs[_walletId].userContractAddress\r\n        );\r\n        return uc.getCommentCount();\r\n    }\r\n\r\n    function getLikeCount(address _walletId) public view returns (uint256) {\r\n        UserContract uc = UserContract(\r\n            userStructs[_walletId].userContractAddress\r\n        );\r\n        return uc.getLikeCount();\r\n    }\r\n\r\n    function getMyLikes(address _walletId)\r\n        public\r\n        view\r\n        returns (UserContract.myLikeStruct[] memory)\r\n    {\r\n        UserContract uc = UserContract(\r\n            userStructs[_walletId].userContractAddress\r\n        );\r\n        return uc.getMyLikes();\r\n    }\r\n}\r\n\r\n///////////////////////////////////////////////////////////////////////////////////////////////////////////////////////////////////////\r\n\r\ncontract UserContract {\r\n    uint256 postCounts;\r\n    uint256 commentCounts;\r\n    uint256 likeCounts;\r\n    address owner;\r\n    uint256 followersCount;\r\n    address[] following;\r\n    myLikeStruct[] myLikes;\r\n    string[] comments;\r\n\r\n    constructor(address walletId) {\r\n        owner = walletId;\r\n        postCounts = 0;\r\n        commentCounts = 0;\r\n        likeCounts = 0;\r\n    }\r\n\r\n    struct PostStruct {\r\n        uint256 postId;\r\n        string postContent;\r\n        uint256 likeCount;\r\n        uint256 commentCount;\r\n        string timeStamp;\r\n        string userName;\r\n        bool isVerified;\r\n    }\r\n    // struct CommentStruct {\r\n    //     uint256 commentId;\r\n    //     string commentContent;\r\n    //     uint256 likeCount;\r\n    // }\r\n    struct myLikeStruct {\r\n        uint256 postId;\r\n        string userName;\r\n    }\r\n    event Post(\r\n        uint256 postId,\r\n        string postContent,\r\n        uint256 likeCount,\r\n        uint256 commentCount,\r\n        string timeStamp,\r\n        string userName,\r\n        bool isVerified\r\n    );\r\n    // event Comment(uint256 commentId, string commentContent, uint256 likeCount);\r\n    event Like(uint256 likeCount);\r\n\r\n    mapping(uint256 => PostStruct) public postStructs;\r\n\r\n    // mapping(uint256 => CommentStruct) public commentStructs;\r\n\r\n    function createPost(\r\n        string memory _postContent,\r\n        string memory timeStamp,\r\n        string memory userName,\r\n        bool isVerified\r\n    ) public {\r\n        postStructs[postCounts].postId = postCounts;\r\n        postStructs[postCounts].postContent = _postContent;\r\n        postStructs[postCounts].likeCount = 0;\r\n        postStructs[postCounts].commentCount = 0;\r\n        postStructs[postCounts].timeStamp = timeStamp;\r\n        postStructs[postCounts].userName = userName;\r\n        postStructs[postCounts].isVerified = isVerified;\r\n\r\n        postCounts++;\r\n        emit Post(\r\n            postCounts,\r\n            _postContent,\r\n            0,\r\n            0,\r\n            timeStamp,\r\n            userName,\r\n            isVerified\r\n        );\r\n    }\r\n\r\n    function createComment(string memory _commentContent, uint256 _postId)\r\n        public\r\n    {\r\n        comments.push(_commentContent);\r\n        postStructs[_postId].commentCount++;\r\n    }\r\n\r\n    function getComments() public view returns (string[] memory) {\r\n        return comments;\r\n    }\r\n\r\n    function likePost(uint256 _postId) public {\r\n        postStructs[_postId].likeCount++;\r\n        emit Like(postStructs[_postId].likeCount);\r\n    }\r\n\r\n    function updateMylikes(uint256 _postId, string memory _userName) public {\r\n        myLikes.push(myLikeStruct(_postId, _userName));\r\n    }\r\n\r\n    function followSomeone(address _walletId) public {\r\n        following.push(_walletId);\r\n    }\r\n\r\n    function updateFollowersCount() public {\r\n        followersCount++;\r\n    }\r\n\r\n    function getFollowersCount() public view returns (uint256) {\r\n        return followersCount;\r\n    }\r\n\r\n    function getFollowing() public view returns (address[] memory) {\r\n        return following;\r\n    }\r\n\r\n    function getPosts() public view returns (PostStruct[] memory) {\r\n        PostStruct[] memory posts = new PostStruct[](postCounts);\r\n        for (uint256 i = 0; i < postCounts; i++) {\r\n            posts[i] = postStructs[i];\r\n        }\r\n        return posts;\r\n    }\r\n\r\n    function getPostCount() public view returns (uint256) {\r\n        return postCounts;\r\n    }\r\n\r\n    function getCommentCount() public view returns (uint256) {\r\n        return commentCounts;\r\n    }\r\n\r\n    function getLikeCount() public view returns (uint256) {\r\n        return likeCounts;\r\n    }\r\n\r\n    function getMyLikes() public view returns (myLikeStruct[] memory) {\r\n        return myLikes;\r\n    }\r\n}\r\n",
  "sourcePath": "D:\\Users\\Desktop\\BOOOKS\\SEMESTER 7\\BCT\\Project\\DE-Verse\\smartcontract\\contracts\\Main.sol",
  "compiler": {
    "name": "solc",
    "version": "0.8.17+commit.8df45f5f.Emscripten.clang"
  },
  "schemaVersion": "3.4.10",
  "updatedAt": "2022-12-25T08:50:32.066Z",
  "devdoc": {
    "kind": "dev",
    "methods": {},
    "version": 1
  },
  "userdoc": {
    "kind": "user",
    "methods": {},
    "version": 1
  }
}