{
  "contractName": "UserContract",
  "abi": [
    {
      "inputs": [
        {
          "internalType": "address",
          "name": "walletId",
          "type": "address"
        }
      ],
      "stateMutability": "nonpayable",
      "type": "constructor"
    },
    {
      "anonymous": false,
      "inputs": [
        {
          "indexed": false,
          "internalType": "uint256",
          "name": "commentId",
          "type": "uint256"
        },
        {
          "indexed": false,
          "internalType": "string",
          "name": "commentContent",
          "type": "string"
        },
        {
          "indexed": false,
          "internalType": "uint256",
          "name": "likeCount",
          "type": "uint256"
        }
      ],
      "name": "Comment",
      "type": "event"
    },
    {
      "anonymous": false,
      "inputs": [
        {
          "indexed": false,
          "internalType": "uint256",
          "name": "likeCount",
          "type": "uint256"
        }
      ],
      "name": "Like",
      "type": "event"
    },
    {
      "anonymous": false,
      "inputs": [
        {
          "indexed": false,
          "internalType": "uint256",
          "name": "postId",
          "type": "uint256"
        },
        {
          "indexed": false,
          "internalType": "string",
          "name": "postContent",
          "type": "string"
        },
        {
          "indexed": false,
          "internalType": "uint256",
          "name": "likeCount",
          "type": "uint256"
        },
        {
          "indexed": false,
          "internalType": "uint256",
          "name": "commentCount",
          "type": "uint256"
        },
        {
          "indexed": false,
          "internalType": "string",
          "name": "timeStamp",
          "type": "string"
        },
        {
          "indexed": false,
          "internalType": "string",
          "name": "userName",
          "type": "string"
        },
        {
          "indexed": false,
          "internalType": "bool",
          "name": "isVerified",
          "type": "bool"
        }
      ],
      "name": "Post",
      "type": "event"
    },
    {
      "inputs": [
        {
          "internalType": "uint256",
          "name": "",
          "type": "uint256"
        }
      ],
      "name": "commentStructs",
      "outputs": [
        {
          "internalType": "uint256",
          "name": "commentId",
          "type": "uint256"
        },
        {
          "internalType": "string",
          "name": "commentContent",
          "type": "string"
        },
        {
          "internalType": "uint256",
          "name": "likeCount",
          "type": "uint256"
        }
      ],
      "stateMutability": "view",
      "type": "function"
    },
    {
      "inputs": [
        {
          "internalType": "uint256",
          "name": "",
          "type": "uint256"
        }
      ],
      "name": "postStructs",
      "outputs": [
        {
          "internalType": "uint256",
          "name": "postId",
          "type": "uint256"
        },
        {
          "internalType": "string",
          "name": "postContent",
          "type": "string"
        },
        {
          "internalType": "uint256",
          "name": "likeCount",
          "type": "uint256"
        },
        {
          "internalType": "uint256",
          "name": "commentCount",
          "type": "uint256"
        },
        {
          "internalType": "string",
          "name": "timeStamp",
          "type": "string"
        },
        {
          "internalType": "string",
          "name": "userName",
          "type": "string"
        },
        {
          "internalType": "bool",
          "name": "isVerified",
          "type": "bool"
        }
      ],
      "stateMutability": "view",
      "type": "function"
    },
    {
      "inputs": [
        {
          "internalType": "string",
          "name": "_postContent",
          "type": "string"
        },
        {
          "internalType": "string",
          "name": "timeStamp",
          "type": "string"
        },
        {
          "internalType": "string",
          "name": "userName",
          "type": "string"
        },
        {
          "internalType": "bool",
          "name": "isVerified",
          "type": "bool"
        }
      ],
      "name": "createPost",
      "outputs": [],
      "stateMutability": "nonpayable",
      "type": "function"
    },
    {
      "inputs": [
        {
          "internalType": "uint256",
          "name": "_postId",
          "type": "uint256"
        },
        {
          "internalType": "string",
          "name": "_commentContent",
          "type": "string"
        }
      ],
      "name": "createComment",
      "outputs": [],
      "stateMutability": "nonpayable",
      "type": "function"
    },
    {
      "inputs": [
        {
          "internalType": "uint256",
          "name": "_postId",
          "type": "uint256"
        }
      ],
      "name": "likePost",
      "outputs": [],
      "stateMutability": "nonpayable",
      "type": "function"
    },
    {
      "inputs": [
        {
          "internalType": "address",
          "name": "_walletId",
          "type": "address"
        }
      ],
      "name": "followSomeone",
      "outputs": [],
      "stateMutability": "nonpayable",
      "type": "function"
    },
    {
      "inputs": [],
      "name": "updateFollowersCount",
      "outputs": [],
      "stateMutability": "nonpayable",
      "type": "function"
    },
    {
      "inputs": [],
      "name": "getFollowersCount",
      "outputs": [
        {
          "internalType": "uint256",
          "name": "",
          "type": "uint256"
        }
      ],
      "stateMutability": "view",
      "type": "function"
    },
    {
      "inputs": [],
      "name": "getFollowing",
      "outputs": [
        {
          "internalType": "address[]",
          "name": "",
          "type": "address[]"
        }
      ],
      "stateMutability": "view",
      "type": "function"
    },
    {
      "inputs": [],
      "name": "getPosts",
      "outputs": [
        {
          "components": [
            {
              "internalType": "uint256",
              "name": "postId",
              "type": "uint256"
            },
            {
              "internalType": "string",
              "name": "postContent",
              "type": "string"
            },
            {
              "internalType": "uint256",
              "name": "likeCount",
              "type": "uint256"
            },
            {
              "internalType": "uint256",
              "name": "commentCount",
              "type": "uint256"
            },
            {
              "internalType": "string",
              "name": "timeStamp",
              "type": "string"
            },
            {
              "internalType": "string",
              "name": "userName",
              "type": "string"
            },
            {
              "internalType": "bool",
              "name": "isVerified",
              "type": "bool"
            }
          ],
          "internalType": "struct UserContract.PostStruct[]",
          "name": "",
          "type": "tuple[]"
        }
      ],
      "stateMutability": "view",
      "type": "function"
    },
    {
      "inputs": [],
      "name": "getComments",
      "outputs": [
        {
          "components": [
            {
              "internalType": "uint256",
              "name": "commentId",
              "type": "uint256"
            },
            {
              "internalType": "string",
              "name": "commentContent",
              "type": "string"
            },
            {
              "internalType": "uint256",
              "name": "likeCount",
              "type": "uint256"
            }
          ],
          "internalType": "struct UserContract.CommentStruct[]",
          "name": "",
          "type": "tuple[]"
        }
      ],
      "stateMutability": "view",
      "type": "function"
    },
    {
      "inputs": [],
      "name": "getPostCount",
      "outputs": [
        {
          "internalType": "uint256",
          "name": "",
          "type": "uint256"
        }
      ],
      "stateMutability": "view",
      "type": "function"
    },
    {
      "inputs": [],
      "name": "getCommentCount",
      "outputs": [
        {
          "internalType": "uint256",
          "name": "",
          "type": "uint256"
        }
      ],
      "stateMutability": "view",
      "type": "function"
    },
    {
      "inputs": [],
      "name": "getLikeCount",
      "outputs": [
        {
          "internalType": "uint256",
          "name": "",
          "type": "uint256"
        }
      ],
      "stateMutability": "view",
      "type": "function"
    }
  ],
  "bytecode": "0x60806040523480156200001157600080fd5b5060405162001cb738038062001cb7833981810160405281019062000037919062000100565b80600360006101000a81548173ffffffffffffffffffffffffffffffffffffffff021916908373ffffffffffffffffffffffffffffffffffffffff16021790555060008081905550600060018190555060006002819055505062000132565b600080fd5b600073ffffffffffffffffffffffffffffffffffffffff82169050919050565b6000620000c8826200009b565b9050919050565b620000da81620000bb565b8114620000e657600080fd5b50565b600081519050620000fa81620000cf565b92915050565b60006020828403121562000119576200011862000096565b5b60006200012984828501620000e9565b91505092915050565b611b7580620001426000396000f3fe608060405234801561001057600080fd5b50600436106100ea5760003560e01c806391f3410c1161008c578063bcc9540711610066578063bcc954071461022d578063c4d67b091461024b578063e22bce2714610269578063e71ef23d14610287576100ea565b806391f3410c146101c157806399c50dd1146101df578063b1c83840146101fb576100ea565b806341f3004a116100c857806341f3004a1461014757806360f2e378146101655780636f94a3661461016f578063725009d3146101a5576100ea565b806316e31ea3146100ef57806323f147021461010d57806340a179851461012b575b600080fd5b6100f76102a3565b6040516101049190610dbc565b60405180910390f35b6101156102ad565b6040516101229190610ec7565b60405180910390f35b6101456004803603810190610140919061106f565b61033b565b005b61014f610424565b60405161015c91906112e0565b60405180910390f35b61016d6106d2565b005b61018960048036038101906101849190611302565b6106ec565b60405161019c9796959493929190611388565b60405180910390f35b6101bf60048036038101906101ba9190611302565b6108d3565b005b6101c961094f565b6040516101d6919061151e565b60405180910390f35b6101f960048036038101906101f4919061156c565b610ab5565b005b61021560048036038101906102109190611302565b610b1b565b60405161022493929190611599565b60405180910390f35b610235610bcd565b6040516102429190610dbc565b60405180910390f35b610253610bd6565b6040516102609190610dbc565b60405180910390f35b610271610be0565b60405161027e9190610dbc565b60405180910390f35b6102a1600480360381019061029c9190611603565b610bea565b005b6000600154905090565b6060600580548060200260200160405190810160405280929190818152602001828054801561033157602002820191906000526020600020905b8160009054906101000a900473ffffffffffffffffffffffffffffffffffffffff1673ffffffffffffffffffffffffffffffffffffffff16815260200190600101908083116102e7575b5050505050905090565b6001546007600060015481526020019081526020016000206000018190555080600760006001548152602001908152602001600020600101908161037f91906118ca565b506000600760006001548152602001908152602001600020600201819055506006600083815260200190815260200160002060030160008154809291906103c5906119cb565b9190505550600160008154809291906103dd906119cb565b91905055507fb355fcd66e2b46067119b64e24bea4f5f0478651710a06cc627f7b5e94fa04d460015482600060405161041893929190611a4e565b60405180910390a15050565b60606000805467ffffffffffffffff81111561044357610442610f44565b5b60405190808252806020026020018201604052801561047c57816020015b610469610d43565b8152602001906001900390816104615790505b50905060005b6000548110156106ca57600660008281526020019081526020016000206040518060e0016040529081600082015481526020016001820180546104c4906116ed565b80601f01602080910402602001604051908101604052809291908181526020018280546104f0906116ed565b801561053d5780601f106105125761010080835404028352916020019161053d565b820191906000526020600020905b81548152906001019060200180831161052057829003601f168201915b50505050508152602001600282015481526020016003820154815260200160048201805461056a906116ed565b80601f0160208091040260200160405190810160405280929190818152602001828054610596906116ed565b80156105e35780601f106105b8576101008083540402835291602001916105e3565b820191906000526020600020905b8154815290600101906020018083116105c657829003601f168201915b505050505081526020016005820180546105fc906116ed565b80601f0160208091040260200160405190810160405280929190818152602001828054610628906116ed565b80156106755780601f1061064a57610100808354040283529160200191610675565b820191906000526020600020905b81548152906001019060200180831161065857829003601f168201915b505050505081526020016006820160009054906101000a900460ff1615151515815250508282815181106106ac576106ab611a8c565b5b602002602001018190525080806106c2906119cb565b915050610482565b508091505090565b600460008154809291906106e5906119cb565b9190505550565b6006602052806000526040600020600091509050806000015490806001018054610715906116ed565b80601f0160208091040260200160405190810160405280929190818152602001828054610741906116ed565b801561078e5780601f106107635761010080835404028352916020019161078e565b820191906000526020600020905b81548152906001019060200180831161077157829003601f168201915b5050505050908060020154908060030154908060040180546107af906116ed565b80601f01602080910402602001604051908101604052809291908181526020018280546107db906116ed565b80156108285780601f106107fd57610100808354040283529160200191610828565b820191906000526020600020905b81548152906001019060200180831161080b57829003601f168201915b50505050509080600501805461083d906116ed565b80601f0160208091040260200160405190810160405280929190818152602001828054610869906116ed565b80156108b65780601f1061088b576101008083540402835291602001916108b6565b820191906000526020600020905b81548152906001019060200180831161089957829003601f168201915b5050505050908060060160009054906101000a900460ff16905087565b6006600082815260200190815260200160002060020160008154809291906108fa906119cb565b91905055507f447c5d872ffc7fa2763b13dd068980191537823d15b95a6566333782d757d94560066000838152602001908152602001600020600201546040516109449190610dbc565b60405180910390a150565b6060600060015467ffffffffffffffff81111561096f5761096e610f44565b5b6040519080825280602002602001820160405280156109a857816020015b610995610d82565b81526020019060019003908161098d5790505b50905060005b600154811015610aad5760076000828152602001908152602001600020604051806060016040529081600082015481526020016001820180546109f0906116ed565b80601f0160208091040260200160405190810160405280929190818152602001828054610a1c906116ed565b8015610a695780601f10610a3e57610100808354040283529160200191610a69565b820191906000526020600020905b815481529060010190602001808311610a4c57829003601f168201915b50505050508152602001600282015481525050828281518110610a8f57610a8e611a8c565b5b60200260200101819052508080610aa5906119cb565b9150506109ae565b508091505090565b6005819080600181540180825580915050600190039060005260206000200160009091909190916101000a81548173ffffffffffffffffffffffffffffffffffffffff021916908373ffffffffffffffffffffffffffffffffffffffff16021790555050565b6007602052806000526040600020600091509050806000015490806001018054610b44906116ed565b80601f0160208091040260200160405190810160405280929190818152602001828054610b70906116ed565b8015610bbd5780601f10610b9257610100808354040283529160200191610bbd565b820191906000526020600020905b815481529060010190602001808311610ba057829003601f168201915b5050505050908060020154905083565b60008054905090565b6000600254905090565b6000600454905090565b6000546006600080548152602001908152602001600020600001819055508360066000805481526020019081526020016000206001019081610c2c91906118ca565b50600060066000805481526020019081526020016000206002018190555060006006600080548152602001908152602001600020600301819055508260066000805481526020019081526020016000206004019081610c8b91906118ca565b508160066000805481526020019081526020016000206005019081610cb091906118ca565b5080600660008054815260200190815260200160002060060160006101000a81548160ff021916908315150217905550600080815480929190610cf2906119cb565b91905055507f689bb0330c1c7078d60ff9632a4be061f5411d6c6d3cfc8960e175d277f6a53e60005485600080878787604051610d359796959493929190611abb565b60405180910390a150505050565b6040518060e001604052806000815260200160608152602001600081526020016000815260200160608152602001606081526020016000151581525090565b60405180606001604052806000815260200160608152602001600081525090565b6000819050919050565b610db681610da3565b82525050565b6000602082019050610dd16000830184610dad565b92915050565b600081519050919050565b600082825260208201905092915050565b6000819050602082019050919050565b600073ffffffffffffffffffffffffffffffffffffffff82169050919050565b6000610e2e82610e03565b9050919050565b610e3e81610e23565b82525050565b6000610e508383610e35565b60208301905092915050565b6000602082019050919050565b6000610e7482610dd7565b610e7e8185610de2565b9350610e8983610df3565b8060005b83811015610eba578151610ea18882610e44565b9750610eac83610e5c565b925050600181019050610e8d565b5085935050505092915050565b60006020820190508181036000830152610ee18184610e69565b905092915050565b6000604051905090565b600080fd5b600080fd5b610f0681610da3565b8114610f1157600080fd5b50565b600081359050610f2381610efd565b92915050565b600080fd5b600080fd5b6000601f19601f8301169050919050565b7f4e487b7100000000000000000000000000000000000000000000000000000000600052604160045260246000fd5b610f7c82610f33565b810181811067ffffffffffffffff82111715610f9b57610f9a610f44565b5b80604052505050565b6000610fae610ee9565b9050610fba8282610f73565b919050565b600067ffffffffffffffff821115610fda57610fd9610f44565b5b610fe382610f33565b9050602081019050919050565b82818337600083830152505050565b600061101261100d84610fbf565b610fa4565b90508281526020810184848401111561102e5761102d610f2e565b5b611039848285610ff0565b509392505050565b600082601f83011261105657611055610f29565b5b8135611066848260208601610fff565b91505092915050565b6000806040838503121561108657611085610ef3565b5b600061109485828601610f14565b925050602083013567ffffffffffffffff8111156110b5576110b4610ef8565b5b6110c185828601611041565b9150509250929050565b600081519050919050565b600082825260208201905092915050565b6000819050602082019050919050565b61110081610da3565b82525050565b600081519050919050565b600082825260208201905092915050565b60005b83811015611140578082015181840152602081019050611125565b60008484015250505050565b600061115782611106565b6111618185611111565b9350611171818560208601611122565b61117a81610f33565b840191505092915050565b60008115159050919050565b61119a81611185565b82525050565b600060e0830160008301516111b860008601826110f7565b50602083015184820360208601526111d0828261114c565b91505060408301516111e560408601826110f7565b5060608301516111f860608601826110f7565b5060808301518482036080860152611210828261114c565b91505060a083015184820360a086015261122a828261114c565b91505060c083015161123f60c0860182611191565b508091505092915050565b600061125683836111a0565b905092915050565b6000602082019050919050565b6000611276826110cb565b61128081856110d6565b935083602082028501611292856110e7565b8060005b858110156112ce57848403895281516112af858261124a565b94506112ba8361125e565b925060208a01995050600181019050611296565b50829750879550505050505092915050565b600060208201905081810360008301526112fa818461126b565b905092915050565b60006020828403121561131857611317610ef3565b5b600061132684828501610f14565b91505092915050565b600082825260208201905092915050565b600061134b82611106565b611355818561132f565b9350611365818560208601611122565b61136e81610f33565b840191505092915050565b61138281611185565b82525050565b600060e08201905061139d600083018a610dad565b81810360208301526113af8189611340565b90506113be6040830188610dad565b6113cb6060830187610dad565b81810360808301526113dd8186611340565b905081810360a08301526113f18185611340565b905061140060c0830184611379565b98975050505050505050565b600081519050919050565b600082825260208201905092915050565b6000819050602082019050919050565b600060608301600083015161145060008601826110f7565b5060208301518482036020860152611468828261114c565b915050604083015161147d60408601826110f7565b508091505092915050565b60006114948383611438565b905092915050565b6000602082019050919050565b60006114b48261140c565b6114be8185611417565b9350836020820285016114d085611428565b8060005b8581101561150c57848403895281516114ed8582611488565b94506114f88361149c565b925060208a019950506001810190506114d4565b50829750879550505050505092915050565b6000602082019050818103600083015261153881846114a9565b905092915050565b61154981610e23565b811461155457600080fd5b50565b60008135905061156681611540565b92915050565b60006020828403121561158257611581610ef3565b5b600061159084828501611557565b91505092915050565b60006060820190506115ae6000830186610dad565b81810360208301526115c08185611340565b90506115cf6040830184610dad565b949350505050565b6115e081611185565b81146115eb57600080fd5b50565b6000813590506115fd816115d7565b92915050565b6000806000806080858703121561161d5761161c610ef3565b5b600085013567ffffffffffffffff81111561163b5761163a610ef8565b5b61164787828801611041565b945050602085013567ffffffffffffffff81111561166857611667610ef8565b5b61167487828801611041565b935050604085013567ffffffffffffffff81111561169557611694610ef8565b5b6116a187828801611041565b92505060606116b2878288016115ee565b91505092959194509250565b7f4e487b7100000000000000000000000000000000000000000000000000000000600052602260045260246000fd5b6000600282049050600182168061170557607f821691505b602082108103611718576117176116be565b5b50919050565b60008190508160005260206000209050919050565b60006020601f8301049050919050565b600082821b905092915050565b6000600883026117807fffffffffffffffffffffffffffffffffffffffffffffffffffffffffffffffff82611743565b61178a8683611743565b95508019841693508086168417925050509392505050565b6000819050919050565b60006117c76117c26117bd84610da3565b6117a2565b610da3565b9050919050565b6000819050919050565b6117e1836117ac565b6117f56117ed826117ce565b848454611750565b825550505050565b600090565b61180a6117fd565b6118158184846117d8565b505050565b5b818110156118395761182e600082611802565b60018101905061181b565b5050565b601f82111561187e5761184f8161171e565b61185884611733565b81016020851015611867578190505b61187b61187385611733565b83018261181a565b50505b505050565b600082821c905092915050565b60006118a160001984600802611883565b1980831691505092915050565b60006118ba8383611890565b9150826002028217905092915050565b6118d382611106565b67ffffffffffffffff8111156118ec576118eb610f44565b5b6118f682546116ed565b61190182828561183d565b600060209050601f8311600181146119345760008415611922578287015190505b61192c85826118ae565b865550611994565b601f1984166119428661171e565b60005b8281101561196a57848901518255600182019150602085019450602081019050611945565b868310156119875784890151611983601f891682611890565b8355505b6001600288020188555050505b505050505050565b7f4e487b7100000000000000000000000000000000000000000000000000000000600052601160045260246000fd5b60006119d682610da3565b91507fffffffffffffffffffffffffffffffffffffffffffffffffffffffffffffffff8203611a0857611a0761199c565b5b600182019050919050565b6000819050919050565b6000611a38611a33611a2e84611a13565b6117a2565b610da3565b9050919050565b611a4881611a1d565b82525050565b6000606082019050611a636000830186610dad565b8181036020830152611a758185611340565b9050611a846040830184611a3f565b949350505050565b7f4e487b7100000000000000000000000000000000000000000000000000000000600052603260045260246000fd5b600060e082019050611ad0600083018a610dad565b8181036020830152611ae28189611340565b9050611af16040830188611a3f565b611afe6060830187611a3f565b8181036080830152611b108186611340565b905081810360a0830152611b248185611340565b9050611b3360c0830184611379565b9897505050505050505056fea2646970667358221220902874781a55f6c1f373bf274ebc806860d76a34a80d20d8c1ca577110ac322564736f6c63430008110033",
  "immutableReferences": {},
  "source": "// SPDX-License-Identifier: GPL-3.0\r\npragma solidity >=0.8.0;\r\n\r\ncontract Maincontract {\r\n    uint256 userCounts;\r\n    uint256 verifiedUserCounts;\r\n\r\n    constructor() {\r\n        userCounts = 0;\r\n        verifiedUserCounts = 0;\r\n    }\r\n\r\n    struct UserStruct {\r\n        address walletId;\r\n        address userContractAddress;\r\n        string userName;\r\n        string password;\r\n        bool isVerified;\r\n    }\r\n\r\n    event User(\r\n        address walletId,\r\n        address userContractAddress,\r\n        string userName,\r\n        string password,\r\n        bool isVerified\r\n    );\r\n\r\n    mapping(address => UserStruct) public userStructs;\r\n    mapping(string => address) public userNameToWalletId;\r\n\r\n    function createUser(\r\n        address _walletId,\r\n        string memory _userName,\r\n        string memory _password\r\n    ) public {\r\n        address uca = address(new UserContract(_walletId));\r\n        userStructs[_walletId].walletId = _walletId;\r\n        userStructs[_walletId].userName = _userName;\r\n        userStructs[_walletId].password = _password;\r\n        userStructs[_walletId].isVerified = false;\r\n        userStructs[_walletId].userContractAddress = uca;\r\n        userCounts++;\r\n        userNameToWalletId[_userName] = _walletId;\r\n        emit User(_walletId, uca, _userName, _password, false);\r\n    }\r\n\r\n    function getUser(address _walletId)\r\n        public\r\n        view\r\n        returns (\r\n            address,\r\n            string memory,\r\n            string memory,\r\n            bool,\r\n            address\r\n        )\r\n    {\r\n        if (userStructs[_walletId].walletId == address(0)) {\r\n            return (\r\n                address(0),\r\n                \"account does not exist\",\r\n                \"\",\r\n                false,\r\n                address(0)\r\n            );\r\n        }\r\n        return (\r\n            userStructs[_walletId].walletId,\r\n            userStructs[_walletId].userName,\r\n            userStructs[_walletId].password,\r\n            userStructs[_walletId].isVerified,\r\n            userStructs[_walletId].userContractAddress\r\n        );\r\n    }\r\n\r\n    function getUserByUserName(string memory _userName)\r\n        public\r\n        view\r\n        returns (\r\n            address,\r\n            string memory,\r\n            string memory,\r\n            bool,\r\n            address\r\n        )\r\n    {\r\n        address _walletId = userNameToWalletId[_userName];\r\n        if (userStructs[_walletId].walletId == address(0)) {\r\n            return (\r\n                address(0),\r\n                \"account does not exist\",\r\n                \"\",\r\n                false,\r\n                address(0)\r\n            );\r\n        }\r\n        return (\r\n            userStructs[_walletId].walletId,\r\n            userStructs[_walletId].userName,\r\n            userStructs[_walletId].password,\r\n            userStructs[_walletId].isVerified,\r\n            userStructs[_walletId].userContractAddress\r\n        );\r\n    }\r\n\r\n    function getUserCount() public view returns (uint256) {\r\n        return userCounts;\r\n    }\r\n\r\n    function getVerifiedUserCount() public view returns (uint256) {\r\n        return verifiedUserCounts;\r\n    }\r\n\r\n    function verifyUser(address _walletId) public {\r\n        userStructs[_walletId].isVerified = true;\r\n        verifiedUserCounts++;\r\n    }\r\n\r\n    function makePost(\r\n        address _walletId,\r\n        string memory _postContent,\r\n        string memory timeStamp\r\n    ) public {\r\n        UserContract uc = UserContract(\r\n            userStructs[_walletId].userContractAddress\r\n        );\r\n        uc.createPost(\r\n            _postContent,\r\n            timeStamp,\r\n            userStructs[_walletId].userName,\r\n            userStructs[_walletId].isVerified\r\n        );\r\n    }\r\n\r\n    function makeComment(\r\n        address _walletId,\r\n        uint256 _postId,\r\n        string memory _commentContent\r\n    ) public {\r\n        UserContract uc = UserContract(\r\n            userStructs[_walletId].userContractAddress\r\n        );\r\n        uc.createComment(_postId, _commentContent);\r\n    }\r\n\r\n    function likePost(address _walletId, uint256 _postId) public {\r\n        UserContract uc = UserContract(\r\n            userStructs[_walletId].userContractAddress\r\n        );\r\n        uc.likePost(_postId);\r\n    }\r\n\r\n    function followUser(address _walletId, address _followingId) public {\r\n        UserContract uc = UserContract(\r\n            userStructs[_walletId].userContractAddress\r\n        );\r\n        uc.followSomeone(_followingId);\r\n        UserContract ucf = UserContract(\r\n            userStructs[_followingId].userContractAddress\r\n        );\r\n        ucf.updateFollowersCount();\r\n    }\r\n\r\n    function getFollowing(address _walletId)\r\n        public\r\n        view\r\n        returns (address[] memory)\r\n    {\r\n        UserContract uc = UserContract(\r\n            userStructs[_walletId].userContractAddress\r\n        );\r\n        return uc.getFollowing();\r\n    }\r\n\r\n    function getFollowersCount(address _walletId)\r\n        public\r\n        view\r\n        returns (uint256)\r\n    {\r\n        UserContract uc = UserContract(\r\n            userStructs[_walletId].userContractAddress\r\n        );\r\n        return uc.getFollowersCount();\r\n    }\r\n\r\n    function getPosts(address _walletId)\r\n        public\r\n        view\r\n        returns (UserContract.PostStruct[] memory)\r\n    {\r\n        UserContract uc = UserContract(\r\n            userStructs[_walletId].userContractAddress\r\n        );\r\n        return uc.getPosts();\r\n    }\r\n\r\n    function getComments(address _walletId)\r\n        public\r\n        view\r\n        returns (UserContract.CommentStruct[] memory)\r\n    {\r\n        UserContract uc = UserContract(\r\n            userStructs[_walletId].userContractAddress\r\n        );\r\n        return uc.getComments();\r\n    }\r\n\r\n    function getPostCount(address _walletId) public view returns (uint256) {\r\n        UserContract uc = UserContract(\r\n            userStructs[_walletId].userContractAddress\r\n        );\r\n        return uc.getPostCount();\r\n    }\r\n\r\n    function getCommentCount(address _walletId) public view returns (uint256) {\r\n        UserContract uc = UserContract(\r\n            userStructs[_walletId].userContractAddress\r\n        );\r\n        return uc.getCommentCount();\r\n    }\r\n\r\n    function getLikeCount(address _walletId) public view returns (uint256) {\r\n        UserContract uc = UserContract(\r\n            userStructs[_walletId].userContractAddress\r\n        );\r\n        return uc.getLikeCount();\r\n    }\r\n}\r\n\r\n///////////////////////////////////////////////////////////////////////////////////////////////////////////////////////////////////////\r\n\r\ncontract UserContract {\r\n    uint256 postCounts;\r\n    uint256 commentCounts;\r\n    uint256 likeCounts;\r\n    address owner;\r\n    uint256 followersCount;\r\n    address[] following;\r\n\r\n    constructor(address walletId) {\r\n        owner = walletId;\r\n        postCounts = 0;\r\n        commentCounts = 0;\r\n        likeCounts = 0;\r\n    }\r\n\r\n    struct PostStruct {\r\n        uint256 postId;\r\n        string postContent;\r\n        uint256 likeCount;\r\n        uint256 commentCount;\r\n        string timeStamp;\r\n        string userName;\r\n        bool isVerified;\r\n    }\r\n    struct CommentStruct {\r\n        uint256 commentId;\r\n        string commentContent;\r\n        uint256 likeCount;\r\n    }\r\n\r\n    event Post(\r\n        uint256 postId,\r\n        string postContent,\r\n        uint256 likeCount,\r\n        uint256 commentCount,\r\n        string timeStamp,\r\n        string userName,\r\n        bool isVerified\r\n    );\r\n    event Comment(uint256 commentId, string commentContent, uint256 likeCount);\r\n    event Like(uint256 likeCount);\r\n\r\n    mapping(uint256 => PostStruct) public postStructs;\r\n    mapping(uint256 => CommentStruct) public commentStructs;\r\n\r\n    function createPost(\r\n        string memory _postContent,\r\n        string memory timeStamp,\r\n        string memory userName,\r\n        bool isVerified\r\n    ) public {\r\n        postStructs[postCounts].postId = postCounts;\r\n        postStructs[postCounts].postContent = _postContent;\r\n        postStructs[postCounts].likeCount = 0;\r\n        postStructs[postCounts].commentCount = 0;\r\n        postStructs[postCounts].timeStamp = timeStamp;\r\n        postStructs[postCounts].userName = userName;\r\n        postStructs[postCounts].isVerified = isVerified;\r\n\r\n        postCounts++;\r\n        emit Post(\r\n            postCounts,\r\n            _postContent,\r\n            0,\r\n            0,\r\n            timeStamp,\r\n            userName,\r\n            isVerified\r\n        );\r\n    }\r\n\r\n    function createComment(uint256 _postId, string memory _commentContent)\r\n        public\r\n    {\r\n        commentStructs[commentCounts].commentId = commentCounts;\r\n        commentStructs[commentCounts].commentContent = _commentContent;\r\n        commentStructs[commentCounts].likeCount = 0;\r\n        postStructs[_postId].commentCount++;\r\n        commentCounts++;\r\n        emit Comment(commentCounts, _commentContent, 0);\r\n    }\r\n\r\n    function likePost(uint256 _postId) public {\r\n        postStructs[_postId].likeCount++;\r\n        emit Like(postStructs[_postId].likeCount);\r\n    }\r\n\r\n    function followSomeone(address _walletId) public {\r\n        following.push(_walletId);\r\n    }\r\n\r\n    function updateFollowersCount() public {\r\n        followersCount++;\r\n    }\r\n\r\n    function getFollowersCount() public view returns (uint256) {\r\n        return followersCount;\r\n    }\r\n\r\n    function getFollowing() public view returns (address[] memory) {\r\n        return following;\r\n    }\r\n\r\n    function getPosts() public view returns (PostStruct[] memory) {\r\n        PostStruct[] memory posts = new PostStruct[](postCounts);\r\n        for (uint256 i = 0; i < postCounts; i++) {\r\n            posts[i] = postStructs[i];\r\n        }\r\n        return posts;\r\n    }\r\n\r\n    function getComments() public view returns (CommentStruct[] memory) {\r\n        CommentStruct[] memory comments = new CommentStruct[](commentCounts);\r\n        for (uint256 i = 0; i < commentCounts; i++) {\r\n            comments[i] = commentStructs[i];\r\n        }\r\n        return comments;\r\n    }\r\n\r\n    function getPostCount() public view returns (uint256) {\r\n        return postCounts;\r\n    }\r\n\r\n    function getCommentCount() public view returns (uint256) {\r\n        return commentCounts;\r\n    }\r\n\r\n    function getLikeCount() public view returns (uint256) {\r\n        return likeCounts;\r\n    }\r\n}\r\n",
  "sourcePath": "D:\\Users\\Desktop\\BOOOKS\\SEMESTER 7\\BCT\\Project\\DE-Verse\\smartcontract\\contracts\\Main.sol",
  "compiler": {
    "name": "solc",
    "version": "0.8.17+commit.8df45f5f.Emscripten.clang"
  },
  "schemaVersion": "3.4.10",
  "updatedAt": "2022-12-22T15:37:57.237Z",
  "devdoc": {
    "kind": "dev",
    "methods": {},
    "version": 1
  },
  "userdoc": {
    "kind": "user",
    "methods": {},
    "version": 1
  }
}