{
  "contractName": "Maincontract",
  "abi": [
    {
      "inputs": [],
      "stateMutability": "nonpayable",
      "type": "constructor"
    },
    {
      "anonymous": false,
      "inputs": [
        {
          "indexed": false,
          "internalType": "address",
          "name": "walletId",
          "type": "address"
        },
        {
          "indexed": false,
          "internalType": "address",
          "name": "userContractAddress",
          "type": "address"
        },
        {
          "indexed": false,
          "internalType": "string",
          "name": "userName",
          "type": "string"
        },
        {
          "indexed": false,
          "internalType": "string",
          "name": "password",
          "type": "string"
        },
        {
          "indexed": false,
          "internalType": "bool",
          "name": "isVerified",
          "type": "bool"
        }
      ],
      "name": "User",
      "type": "event"
    },
    {
      "inputs": [
        {
          "internalType": "address",
          "name": "",
          "type": "address"
        }
      ],
      "name": "userStructs",
      "outputs": [
        {
          "internalType": "address",
          "name": "walletId",
          "type": "address"
        },
        {
          "internalType": "address",
          "name": "userContractAddress",
          "type": "address"
        },
        {
          "internalType": "string",
          "name": "userName",
          "type": "string"
        },
        {
          "internalType": "string",
          "name": "password",
          "type": "string"
        },
        {
          "internalType": "bool",
          "name": "isVerified",
          "type": "bool"
        }
      ],
      "stateMutability": "view",
      "type": "function",
      "constant": true
    },
    {
      "inputs": [
        {
          "internalType": "address",
          "name": "_walletId",
          "type": "address"
        },
        {
          "internalType": "string",
          "name": "_userName",
          "type": "string"
        },
        {
          "internalType": "string",
          "name": "_password",
          "type": "string"
        }
      ],
      "name": "createUser",
      "outputs": [],
      "stateMutability": "nonpayable",
      "type": "function"
    },
    {
      "inputs": [
        {
          "internalType": "address",
          "name": "_walletId",
          "type": "address"
        }
      ],
      "name": "getUser",
      "outputs": [
        {
          "internalType": "address",
          "name": "",
          "type": "address"
        },
        {
          "internalType": "string",
          "name": "",
          "type": "string"
        },
        {
          "internalType": "string",
          "name": "",
          "type": "string"
        },
        {
          "internalType": "bool",
          "name": "",
          "type": "bool"
        },
        {
          "internalType": "address",
          "name": "",
          "type": "address"
        }
      ],
      "stateMutability": "view",
      "type": "function",
      "constant": true
    },
    {
      "inputs": [],
      "name": "getUserCount",
      "outputs": [
        {
          "internalType": "uint256",
          "name": "",
          "type": "uint256"
        }
      ],
      "stateMutability": "view",
      "type": "function",
      "constant": true
    },
    {
      "inputs": [],
      "name": "getVerifiedUserCount",
      "outputs": [
        {
          "internalType": "uint256",
          "name": "",
          "type": "uint256"
        }
      ],
      "stateMutability": "view",
      "type": "function",
      "constant": true
    },
    {
      "inputs": [
        {
          "internalType": "address",
          "name": "_walletId",
          "type": "address"
        }
      ],
      "name": "verifyUser",
      "outputs": [],
      "stateMutability": "nonpayable",
      "type": "function"
    },
    {
      "inputs": [
        {
          "internalType": "address",
          "name": "_walletId",
          "type": "address"
        },
        {
          "internalType": "string",
          "name": "_postContent",
          "type": "string"
        },
        {
          "internalType": "string",
          "name": "timeStamp",
          "type": "string"
        }
      ],
      "name": "makePost",
      "outputs": [],
      "stateMutability": "nonpayable",
      "type": "function"
    },
    {
      "inputs": [
        {
          "internalType": "address",
          "name": "_walletId",
          "type": "address"
        },
        {
          "internalType": "uint256",
          "name": "_postId",
          "type": "uint256"
        },
        {
          "internalType": "string",
          "name": "_commentContent",
          "type": "string"
        }
      ],
      "name": "makeComment",
      "outputs": [],
      "stateMutability": "nonpayable",
      "type": "function"
    },
    {
      "inputs": [
        {
          "internalType": "address",
          "name": "_walletId",
          "type": "address"
        },
        {
          "internalType": "uint256",
          "name": "_postId",
          "type": "uint256"
        }
      ],
      "name": "likePost",
      "outputs": [],
      "stateMutability": "nonpayable",
      "type": "function"
    },
    {
      "inputs": [
        {
          "internalType": "address",
          "name": "_walletId",
          "type": "address"
        }
      ],
      "name": "getPosts",
      "outputs": [
        {
          "components": [
            {
              "internalType": "uint256",
              "name": "postId",
              "type": "uint256"
            },
            {
              "internalType": "string",
              "name": "postContent",
              "type": "string"
            },
            {
              "internalType": "uint256",
              "name": "likeCount",
              "type": "uint256"
            },
            {
              "internalType": "uint256",
              "name": "commentCount",
              "type": "uint256"
            },
            {
              "internalType": "string",
              "name": "timeStamp",
              "type": "string"
            },
            {
              "internalType": "string",
              "name": "userName",
              "type": "string"
            },
            {
              "internalType": "bool",
              "name": "isVerified",
              "type": "bool"
            }
          ],
          "internalType": "struct UserContract.PostStruct[]",
          "name": "",
          "type": "tuple[]"
        }
      ],
      "stateMutability": "view",
      "type": "function",
      "constant": true
    },
    {
      "inputs": [
        {
          "internalType": "address",
          "name": "_walletId",
          "type": "address"
        }
      ],
      "name": "getComments",
      "outputs": [
        {
          "components": [
            {
              "internalType": "uint256",
              "name": "commentId",
              "type": "uint256"
            },
            {
              "internalType": "string",
              "name": "commentContent",
              "type": "string"
            },
            {
              "internalType": "uint256",
              "name": "likeCount",
              "type": "uint256"
            }
          ],
          "internalType": "struct UserContract.CommentStruct[]",
          "name": "",
          "type": "tuple[]"
        }
      ],
      "stateMutability": "view",
      "type": "function",
      "constant": true
    },
    {
      "inputs": [
        {
          "internalType": "address",
          "name": "_walletId",
          "type": "address"
        }
      ],
      "name": "getPostCount",
      "outputs": [
        {
          "internalType": "uint256",
          "name": "",
          "type": "uint256"
        }
      ],
      "stateMutability": "view",
      "type": "function",
      "constant": true
    },
    {
      "inputs": [
        {
          "internalType": "address",
          "name": "_walletId",
          "type": "address"
        }
      ],
      "name": "getCommentCount",
      "outputs": [
        {
          "internalType": "uint256",
          "name": "",
          "type": "uint256"
        }
      ],
      "stateMutability": "view",
      "type": "function",
      "constant": true
    },
    {
      "inputs": [
        {
          "internalType": "address",
          "name": "_walletId",
          "type": "address"
        }
      ],
      "name": "getLikeCount",
      "outputs": [
        {
          "internalType": "uint256",
          "name": "",
          "type": "uint256"
        }
      ],
      "stateMutability": "view",
      "type": "function",
      "constant": true
    }
  ],
  "bytecode": "0x608060405234801561001057600080fd5b506000808190555060006001819055506140658061002f6000396000f3fe60806040523480156200001157600080fd5b5060043610620001005760003560e01c80635f329fb21162000099578063a4c7fafa116200006f578063a4c7fafa14620002bb578063a9b2e71514620002f1578063b5cb15f71462000313578063e94456a714620003355762000100565b80635f329fb2146200022b5780636f77926b146200026157806385f5eac1146200029b5762000100565b80634835152911620000db5780634835152914620001955780634caf9d0b14620001b55780634ceb48fd14620001eb5780634d813120146200020b5762000100565b806317fe375f146200010557806319447eb6146200013b5780633c4100861462000175575b600080fd5b6200012360048036038101906200011d919062001434565b6200036b565b60405162000132919062001641565b60405180910390f35b62000159600480360381019062000153919062001434565b62000453565b6040516200016c959493929190620016e5565b60405180910390f35b6200019360048036038101906200018d9190620018a1565b620005f6565b005b620001b36004803603810190620001ad91906200196c565b62000768565b005b620001d36004803603810190620001cd919062001434565b62000843565b604051620001e2919062001b4c565b60405180910390f35b620002096004803603810190620002039190620018a1565b6200092b565b005b62000229600480360381019062000223919062001434565b62000bca565b005b62000249600480360381019062000243919062001434565b62000c42565b60405162000258919062001b81565b60405180910390f35b6200027f600480360381019062000279919062001434565b62000d24565b6040516200029295949392919062001b9e565b60405180910390f35b620002b96004803603810190620002b3919062001c09565b620010f8565b005b620002d96004803603810190620002d3919062001434565b620011d6565b604051620002e8919062001b81565b60405180910390f35b620002fb620012b8565b6040516200030a919062001b81565b60405180910390f35b6200031d620012c2565b6040516200032c919062001b81565b60405180910390f35b6200035360048036038101906200034d919062001434565b620012cb565b60405162000362919062001b81565b60405180910390f35b60606000600260008473ffffffffffffffffffffffffffffffffffffffff1673ffffffffffffffffffffffffffffffffffffffff16815260200190815260200160002060010160009054906101000a900473ffffffffffffffffffffffffffffffffffffffff1690508073ffffffffffffffffffffffffffffffffffffffff166391f3410c6040518163ffffffff1660e01b8152600401600060405180830381865afa15801562000420573d6000803e3d6000fd5b505050506040513d6000823e3d601f19601f820116820180604052508101906200044b919062001ead565b915050919050565b60026020528060005260406000206000915090508060000160009054906101000a900473ffffffffffffffffffffffffffffffffffffffff16908060010160009054906101000a900473ffffffffffffffffffffffffffffffffffffffff1690806002018054620004c49062001f2d565b80601f0160208091040260200160405190810160405280929190818152602001828054620004f29062001f2d565b8015620005435780601f10620005175761010080835404028352916020019162000543565b820191906000526020600020905b8154815290600101906020018083116200052557829003601f168201915b5050505050908060030180546200055a9062001f2d565b80601f0160208091040260200160405190810160405280929190818152602001828054620005889062001f2d565b8015620005d95780601f10620005ad57610100808354040283529160200191620005d9565b820191906000526020600020905b815481529060010190602001808311620005bb57829003601f168201915b5050505050908060040160009054906101000a900460ff16905085565b6000600260008573ffffffffffffffffffffffffffffffffffffffff1673ffffffffffffffffffffffffffffffffffffffff16815260200190815260200160002060010160009054906101000a900473ffffffffffffffffffffffffffffffffffffffff1690508073ffffffffffffffffffffffffffffffffffffffff1663e71ef23d8484600260008973ffffffffffffffffffffffffffffffffffffffff1673ffffffffffffffffffffffffffffffffffffffff168152602001908152602001600020600201600260008a73ffffffffffffffffffffffffffffffffffffffff1673ffffffffffffffffffffffffffffffffffffffff16815260200190815260200160002060040160009054906101000a900460ff166040518563ffffffff1660e01b81526004016200072e949392919062002007565b600060405180830381600087803b1580156200074957600080fd5b505af11580156200075e573d6000803e3d6000fd5b5050505050505050565b6000600260008473ffffffffffffffffffffffffffffffffffffffff1673ffffffffffffffffffffffffffffffffffffffff16815260200190815260200160002060010160009054906101000a900473ffffffffffffffffffffffffffffffffffffffff1690508073ffffffffffffffffffffffffffffffffffffffff1663725009d3836040518263ffffffff1660e01b81526004016200080a919062001b81565b600060405180830381600087803b1580156200082557600080fd5b505af11580156200083a573d6000803e3d6000fd5b50505050505050565b60606000600260008473ffffffffffffffffffffffffffffffffffffffff1673ffffffffffffffffffffffffffffffffffffffff16815260200190815260200160002060010160009054906101000a900473ffffffffffffffffffffffffffffffffffffffff1690508073ffffffffffffffffffffffffffffffffffffffff166341f3004a6040518163ffffffff1660e01b8152600401600060405180830381865afa158015620008f8573d6000803e3d6000fd5b505050506040513d6000823e3d601f19601f82011682018060405250810190620009239190620022b5565b915050919050565b6000836040516200093c90620013ad565b62000948919062002306565b604051809103906000f08015801562000965573d6000803e3d6000fd5b50905083600260008673ffffffffffffffffffffffffffffffffffffffff1673ffffffffffffffffffffffffffffffffffffffff16815260200190815260200160002060000160006101000a81548173ffffffffffffffffffffffffffffffffffffffff021916908373ffffffffffffffffffffffffffffffffffffffff16021790555082600260008673ffffffffffffffffffffffffffffffffffffffff1673ffffffffffffffffffffffffffffffffffffffff168152602001908152602001600020600201908162000a3a9190620024e0565b5081600260008673ffffffffffffffffffffffffffffffffffffffff1673ffffffffffffffffffffffffffffffffffffffff168152602001908152602001600020600301908162000a8c9190620024e0565b506000600260008673ffffffffffffffffffffffffffffffffffffffff1673ffffffffffffffffffffffffffffffffffffffff16815260200190815260200160002060040160006101000a81548160ff02191690831515021790555080600260008673ffffffffffffffffffffffffffffffffffffffff1673ffffffffffffffffffffffffffffffffffffffff16815260200190815260200160002060010160006101000a81548173ffffffffffffffffffffffffffffffffffffffff021916908373ffffffffffffffffffffffffffffffffffffffff16021790555060008081548092919062000b7d90620025f6565b91905055507f2041b7a4351ac706257b308fda32769804e2afadd729e9b0ef211b0dd03312fc84828585600060405162000bbc959493929190620016e5565b60405180910390a150505050565b6001600260008373ffffffffffffffffffffffffffffffffffffffff1673ffffffffffffffffffffffffffffffffffffffff16815260200190815260200160002060040160006101000a81548160ff0219169083151502179055506001600081548092919062000c3a90620025f6565b919050555050565b600080600260008473ffffffffffffffffffffffffffffffffffffffff1673ffffffffffffffffffffffffffffffffffffffff16815260200190815260200160002060010160009054906101000a900473ffffffffffffffffffffffffffffffffffffffff1690508073ffffffffffffffffffffffffffffffffffffffff166316e31ea36040518163ffffffff1660e01b8152600401602060405180830381865afa15801562000cf6573d6000803e3d6000fd5b505050506040513d601f19601f8201168201806040525081019062000d1c919062002643565b915050919050565b6000606080600080600073ffffffffffffffffffffffffffffffffffffffff16600260008873ffffffffffffffffffffffffffffffffffffffff1673ffffffffffffffffffffffffffffffffffffffff16815260200190815260200160002060000160009054906101000a900473ffffffffffffffffffffffffffffffffffffffff1673ffffffffffffffffffffffffffffffffffffffff160362000e225760008060006040518060400160405280601681526020017f6163636f756e7420646f6573206e6f7420657869737400000000000000000000815250919060405180602001604052806000815250919094509450945094509450620010ef565b600260008773ffffffffffffffffffffffffffffffffffffffff1673ffffffffffffffffffffffffffffffffffffffff16815260200190815260200160002060000160009054906101000a900473ffffffffffffffffffffffffffffffffffffffff16600260008873ffffffffffffffffffffffffffffffffffffffff1673ffffffffffffffffffffffffffffffffffffffff168152602001908152602001600020600201600260008973ffffffffffffffffffffffffffffffffffffffff1673ffffffffffffffffffffffffffffffffffffffff168152602001908152602001600020600301600260008a73ffffffffffffffffffffffffffffffffffffffff1673ffffffffffffffffffffffffffffffffffffffff16815260200190815260200160002060040160009054906101000a900460ff16600260008b73ffffffffffffffffffffffffffffffffffffffff1673ffffffffffffffffffffffffffffffffffffffff16815260200190815260200160002060010160009054906101000a900473ffffffffffffffffffffffffffffffffffffffff1683805462000fca9062001f2d565b80601f016020809104026020016040519081016040528092919081815260200182805462000ff89062001f2d565b8015620010495780601f106200101d5761010080835404028352916020019162001049565b820191906000526020600020905b8154815290600101906020018083116200102b57829003601f168201915b505050505093508280546200105e9062001f2d565b80601f01602080910402602001604051908101604052809291908181526020018280546200108c9062001f2d565b8015620010dd5780601f10620010b157610100808354040283529160200191620010dd565b820191906000526020600020905b815481529060010190602001808311620010bf57829003601f168201915b50505050509250945094509450945094505b91939590929450565b6000600260008573ffffffffffffffffffffffffffffffffffffffff1673ffffffffffffffffffffffffffffffffffffffff16815260200190815260200160002060010160009054906101000a900473ffffffffffffffffffffffffffffffffffffffff1690508073ffffffffffffffffffffffffffffffffffffffff166340a1798584846040518363ffffffff1660e01b81526004016200119c92919062002675565b600060405180830381600087803b158015620011b757600080fd5b505af1158015620011cc573d6000803e3d6000fd5b5050505050505050565b600080600260008473ffffffffffffffffffffffffffffffffffffffff1673ffffffffffffffffffffffffffffffffffffffff16815260200190815260200160002060010160009054906101000a900473ffffffffffffffffffffffffffffffffffffffff1690508073ffffffffffffffffffffffffffffffffffffffff1663bcc954076040518163ffffffff1660e01b8152600401602060405180830381865afa1580156200128a573d6000803e3d6000fd5b505050506040513d601f19601f82011682018060405250810190620012b0919062002643565b915050919050565b6000600154905090565b60008054905090565b600080600260008473ffffffffffffffffffffffffffffffffffffffff1673ffffffffffffffffffffffffffffffffffffffff16815260200190815260200160002060010160009054906101000a900473ffffffffffffffffffffffffffffffffffffffff1690508073ffffffffffffffffffffffffffffffffffffffff1663c4d67b096040518163ffffffff1660e01b8152600401602060405180830381865afa1580156200137f573d6000803e3d6000fd5b505050506040513d601f19601f82011682018060405250810190620013a5919062002643565b915050919050565b61198680620026aa83390190565b6000604051905090565b600080fd5b600080fd5b600073ffffffffffffffffffffffffffffffffffffffff82169050919050565b6000620013fc82620013cf565b9050919050565b6200140e81620013ef565b81146200141a57600080fd5b50565b6000813590506200142e8162001403565b92915050565b6000602082840312156200144d576200144c620013c5565b5b60006200145d848285016200141d565b91505092915050565b600081519050919050565b600082825260208201905092915050565b6000819050602082019050919050565b6000819050919050565b620014a78162001492565b82525050565b600081519050919050565b600082825260208201905092915050565b60005b83811015620014e9578082015181840152602081019050620014cc565b60008484015250505050565b6000601f19601f8301169050919050565b60006200151382620014ad565b6200151f8185620014b8565b935062001531818560208601620014c9565b6200153c81620014f5565b840191505092915050565b60006060830160008301516200156160008601826200149c565b50602083015184820360208601526200157b828262001506565b91505060408301516200159260408601826200149c565b508091505092915050565b6000620015ab838362001547565b905092915050565b6000602082019050919050565b6000620015cd8262001466565b620015d9818562001471565b935083602082028501620015ed8562001482565b8060005b858110156200162f57848403895281516200160d85826200159d565b94506200161a83620015b3565b925060208a01995050600181019050620015f1565b50829750879550505050505092915050565b600060208201905081810360008301526200165d8184620015c0565b905092915050565b6200167081620013ef565b82525050565b600082825260208201905092915050565b60006200169482620014ad565b620016a0818562001676565b9350620016b2818560208601620014c9565b620016bd81620014f5565b840191505092915050565b60008115159050919050565b620016df81620016c8565b82525050565b600060a082019050620016fc600083018862001665565b6200170b602083018762001665565b81810360408301526200171f818662001687565b9050818103606083015262001735818562001687565b9050620017466080830184620016d4565b9695505050505050565b600080fd5b600080fd5b7f4e487b7100000000000000000000000000000000000000000000000000000000600052604160045260246000fd5b6200179482620014f5565b810181811067ffffffffffffffff82111715620017b657620017b56200175a565b5b80604052505050565b6000620017cb620013bb565b9050620017d9828262001789565b919050565b600067ffffffffffffffff821115620017fc57620017fb6200175a565b5b6200180782620014f5565b9050602081019050919050565b82818337600083830152505050565b60006200183a6200183484620017de565b620017bf565b90508281526020810184848401111562001859576200185862001755565b5b6200186684828562001814565b509392505050565b600082601f83011262001886576200188562001750565b5b81356200189884826020860162001823565b91505092915050565b600080600060608486031215620018bd57620018bc620013c5565b5b6000620018cd868287016200141d565b935050602084013567ffffffffffffffff811115620018f157620018f0620013ca565b5b620018ff868287016200186e565b925050604084013567ffffffffffffffff811115620019235762001922620013ca565b5b62001931868287016200186e565b9150509250925092565b620019468162001492565b81146200195257600080fd5b50565b60008135905062001966816200193b565b92915050565b60008060408385031215620019865762001985620013c5565b5b600062001996858286016200141d565b9250506020620019a98582860162001955565b9150509250929050565b600081519050919050565b600082825260208201905092915050565b6000819050602082019050919050565b620019ea81620016c8565b82525050565b600060e08301600083015162001a0a60008601826200149c565b506020830151848203602086015262001a24828262001506565b915050604083015162001a3b60408601826200149c565b50606083015162001a5060608601826200149c565b506080830151848203608086015262001a6a828262001506565b91505060a083015184820360a086015262001a86828262001506565b91505060c083015162001a9d60c0860182620019df565b508091505092915050565b600062001ab68383620019f0565b905092915050565b6000602082019050919050565b600062001ad882620019b3565b62001ae48185620019be565b93508360208202850162001af885620019cf565b8060005b8581101562001b3a578484038952815162001b18858262001aa8565b945062001b258362001abe565b925060208a0199505060018101905062001afc565b50829750879550505050505092915050565b6000602082019050818103600083015262001b68818462001acb565b905092915050565b62001b7b8162001492565b82525050565b600060208201905062001b98600083018462001b70565b92915050565b600060a08201905062001bb5600083018862001665565b818103602083015262001bc9818762001687565b9050818103604083015262001bdf818662001687565b905062001bf06060830185620016d4565b62001bff608083018462001665565b9695505050505050565b60008060006060848603121562001c255762001c24620013c5565b5b600062001c35868287016200141d565b935050602062001c488682870162001955565b925050604084013567ffffffffffffffff81111562001c6c5762001c6b620013ca565b5b62001c7a868287016200186e565b9150509250925092565b600067ffffffffffffffff82111562001ca25762001ca16200175a565b5b602082029050602081019050919050565b600080fd5b600080fd5b600080fd5b60008151905062001cd3816200193b565b92915050565b600062001cf062001cea84620017de565b620017bf565b90508281526020810184848401111562001d0f5762001d0e62001755565b5b62001d1c848285620014c9565b509392505050565b600082601f83011262001d3c5762001d3b62001750565b5b815162001d4e84826020860162001cd9565b91505092915050565b60006060828403121562001d705762001d6f62001cb8565b5b62001d7c6060620017bf565b9050600062001d8e8482850162001cc2565b600083015250602082015167ffffffffffffffff81111562001db55762001db462001cbd565b5b62001dc38482850162001d24565b602083015250604062001dd98482850162001cc2565b60408301525092915050565b600062001dfc62001df68462001c84565b620017bf565b9050808382526020820190506020840283018581111562001e225762001e2162001cb3565b5b835b8181101562001e7057805167ffffffffffffffff81111562001e4b5762001e4a62001750565b5b80860162001e5a898262001d57565b8552602085019450505060208101905062001e24565b5050509392505050565b600082601f83011262001e925762001e9162001750565b5b815162001ea484826020860162001de5565b91505092915050565b60006020828403121562001ec65762001ec5620013c5565b5b600082015167ffffffffffffffff81111562001ee75762001ee6620013ca565b5b62001ef58482850162001e7a565b91505092915050565b7f4e487b7100000000000000000000000000000000000000000000000000000000600052602260045260246000fd5b6000600282049050600182168062001f4657607f821691505b60208210810362001f5c5762001f5b62001efe565b5b50919050565b60008190508160005260206000209050919050565b6000815462001f868162001f2d565b62001f92818662001676565b9450600182166000811462001fb0576001811462001fc75762001ffe565b60ff19831686528115156020028601935062001ffe565b62001fd28562001f62565b60005b8381101562001ff65781548189015260018201915060208101905062001fd5565b808801955050505b50505092915050565b6000608082019050818103600083015262002023818762001687565b9050818103602083015262002039818662001687565b905081810360408301526200204f818562001f77565b9050620020606060830184620016d4565b95945050505050565b600067ffffffffffffffff8211156200208757620020866200175a565b5b602082029050602081019050919050565b620020a381620016c8565b8114620020af57600080fd5b50565b600081519050620020c38162002098565b92915050565b600060e08284031215620020e257620020e162001cb8565b5b620020ee60e0620017bf565b90506000620021008482850162001cc2565b600083015250602082015167ffffffffffffffff81111562002127576200212662001cbd565b5b620021358482850162001d24565b60208301525060406200214b8482850162001cc2565b6040830152506060620021618482850162001cc2565b606083015250608082015167ffffffffffffffff81111562002188576200218762001cbd565b5b620021968482850162001d24565b60808301525060a082015167ffffffffffffffff811115620021bd57620021bc62001cbd565b5b620021cb8482850162001d24565b60a08301525060c0620021e184828501620020b2565b60c08301525092915050565b600062002204620021fe8462002069565b620017bf565b905080838252602082019050602084028301858111156200222a576200222962001cb3565b5b835b818110156200227857805167ffffffffffffffff81111562002253576200225262001750565b5b808601620022628982620020c9565b855260208501945050506020810190506200222c565b5050509392505050565b600082601f8301126200229a576200229962001750565b5b8151620022ac848260208601620021ed565b91505092915050565b600060208284031215620022ce57620022cd620013c5565b5b600082015167ffffffffffffffff811115620022ef57620022ee620013ca565b5b620022fd8482850162002282565b91505092915050565b60006020820190506200231d600083018462001665565b92915050565b60006020601f8301049050919050565b600082821b905092915050565b600060088302620023727fffffffffffffffffffffffffffffffffffffffffffffffffffffffffffffffff8262002333565b6200237e868362002333565b95508019841693508086168417925050509392505050565b6000819050919050565b6000620023c1620023bb620023b58462001492565b62002396565b62001492565b9050919050565b6000819050919050565b620023dd83620023a0565b620023f5620023ec82620023c8565b84845462002340565b825550505050565b600090565b6200240c620023fd565b62002419818484620023d2565b505050565b5b8181101562002441576200243560008262002402565b6001810190506200241f565b5050565b601f82111562002490576200245a8162001f62565b620024658462002323565b8101602085101562002475578190505b6200248d620024848562002323565b8301826200241e565b50505b505050565b600082821c905092915050565b6000620024b56000198460080262002495565b1980831691505092915050565b6000620024d08383620024a2565b9150826002028217905092915050565b620024eb82620014ad565b67ffffffffffffffff8111156200250757620025066200175a565b5b62002513825462001f2d565b6200252082828562002445565b600060209050601f83116001811462002558576000841562002543578287015190505b6200254f8582620024c2565b865550620025bf565b601f198416620025688662001f62565b60005b8281101562002592578489015182556001820191506020850194506020810190506200256b565b86831015620025b25784890151620025ae601f891682620024a2565b8355505b6001600288020188555050505b505050505050565b7f4e487b7100000000000000000000000000000000000000000000000000000000600052601160045260246000fd5b6000620026038262001492565b91507fffffffffffffffffffffffffffffffffffffffffffffffffffffffffffffffff8203620026385762002637620025c7565b5b600182019050919050565b6000602082840312156200265c576200265b620013c5565b5b60006200266c8482850162001cc2565b91505092915050565b60006040820190506200268c600083018562001b70565b8181036020830152620026a0818462001687565b9050939250505056fe60806040523480156200001157600080fd5b506040516200198638038062001986833981810160405281019062000037919062000100565b80600360006101000a81548173ffffffffffffffffffffffffffffffffffffffff021916908373ffffffffffffffffffffffffffffffffffffffff16021790555060008081905550600060018190555060006002819055505062000132565b600080fd5b600073ffffffffffffffffffffffffffffffffffffffff82169050919050565b6000620000c8826200009b565b9050919050565b620000da81620000bb565b8114620000e657600080fd5b50565b600081519050620000fa81620000cf565b92915050565b60006020828403121562000119576200011862000096565b5b60006200012984828501620000e9565b91505092915050565b61184480620001426000396000f3fe608060405234801561001057600080fd5b506004361061009e5760003560e01c806391f3410c1161006657806391f3410c1461014d578063b1c838401461016b578063bcc954071461019d578063c4d67b09146101bb578063e71ef23d146101d95761009e565b806316e31ea3146100a357806340a17985146100c157806341f3004a146100dd5780636f94a366146100fb578063725009d314610131575b600080fd5b6100ab6101f5565b6040516100b89190610bf6565b60405180910390f35b6100db60048036038101906100d69190610d97565b6101ff565b005b6100e56102e8565b6040516100f29190611008565b60405180910390f35b6101156004803603810190610110919061102a565b610596565b60405161012897969594939291906110b0565b60405180910390f35b61014b6004803603810190610146919061102a565b61077d565b005b6101556107f9565b6040516101629190611246565b60405180910390f35b6101856004803603810190610180919061102a565b61095f565b60405161019493929190611268565b60405180910390f35b6101a5610a11565b6040516101b29190610bf6565b60405180910390f35b6101c3610a1a565b6040516101d09190610bf6565b60405180910390f35b6101f360048036038101906101ee91906112d2565b610a24565b005b6000600154905090565b600154600560006001548152602001908152602001600020600001819055508060056000600154815260200190815260200160002060010190816102439190611599565b506000600560006001548152602001908152602001600020600201819055506004600083815260200190815260200160002060030160008154809291906102899061169a565b9190505550600160008154809291906102a19061169a565b91905055507fb355fcd66e2b46067119b64e24bea4f5f0478651710a06cc627f7b5e94fa04d46001548260006040516102dc9392919061171d565b60405180910390a15050565b60606000805467ffffffffffffffff81111561030757610306610c6c565b5b60405190808252806020026020018201604052801561034057816020015b61032d610b7d565b8152602001906001900390816103255790505b50905060005b60005481101561058e57600460008281526020019081526020016000206040518060e001604052908160008201548152602001600182018054610388906113bc565b80601f01602080910402602001604051908101604052809291908181526020018280546103b4906113bc565b80156104015780601f106103d657610100808354040283529160200191610401565b820191906000526020600020905b8154815290600101906020018083116103e457829003601f168201915b50505050508152602001600282015481526020016003820154815260200160048201805461042e906113bc565b80601f016020809104026020016040519081016040528092919081815260200182805461045a906113bc565b80156104a75780601f1061047c576101008083540402835291602001916104a7565b820191906000526020600020905b81548152906001019060200180831161048a57829003601f168201915b505050505081526020016005820180546104c0906113bc565b80601f01602080910402602001604051908101604052809291908181526020018280546104ec906113bc565b80156105395780601f1061050e57610100808354040283529160200191610539565b820191906000526020600020905b81548152906001019060200180831161051c57829003601f168201915b505050505081526020016006820160009054906101000a900460ff1615151515815250508282815181106105705761056f61175b565b5b602002602001018190525080806105869061169a565b915050610346565b508091505090565b60046020528060005260406000206000915090508060000154908060010180546105bf906113bc565b80601f01602080910402602001604051908101604052809291908181526020018280546105eb906113bc565b80156106385780601f1061060d57610100808354040283529160200191610638565b820191906000526020600020905b81548152906001019060200180831161061b57829003601f168201915b505050505090806002015490806003015490806004018054610659906113bc565b80601f0160208091040260200160405190810160405280929190818152602001828054610685906113bc565b80156106d25780601f106106a7576101008083540402835291602001916106d2565b820191906000526020600020905b8154815290600101906020018083116106b557829003601f168201915b5050505050908060050180546106e7906113bc565b80601f0160208091040260200160405190810160405280929190818152602001828054610713906113bc565b80156107605780601f1061073557610100808354040283529160200191610760565b820191906000526020600020905b81548152906001019060200180831161074357829003601f168201915b5050505050908060060160009054906101000a900460ff16905087565b6004600082815260200190815260200160002060020160008154809291906107a49061169a565b91905055507f447c5d872ffc7fa2763b13dd068980191537823d15b95a6566333782d757d94560046000838152602001908152602001600020600201546040516107ee9190610bf6565b60405180910390a150565b6060600060015467ffffffffffffffff81111561081957610818610c6c565b5b60405190808252806020026020018201604052801561085257816020015b61083f610bbc565b8152602001906001900390816108375790505b50905060005b60015481101561095757600560008281526020019081526020016000206040518060600160405290816000820154815260200160018201805461089a906113bc565b80601f01602080910402602001604051908101604052809291908181526020018280546108c6906113bc565b80156109135780601f106108e857610100808354040283529160200191610913565b820191906000526020600020905b8154815290600101906020018083116108f657829003601f168201915b505050505081526020016002820154815250508282815181106109395761093861175b565b5b6020026020010181905250808061094f9061169a565b915050610858565b508091505090565b6005602052806000526040600020600091509050806000015490806001018054610988906113bc565b80601f01602080910402602001604051908101604052809291908181526020018280546109b4906113bc565b8015610a015780601f106109d657610100808354040283529160200191610a01565b820191906000526020600020905b8154815290600101906020018083116109e457829003601f168201915b5050505050908060020154905083565b60008054905090565b6000600254905090565b6000546004600080548152602001908152602001600020600001819055508360046000805481526020019081526020016000206001019081610a669190611599565b50600060046000805481526020019081526020016000206002018190555060006004600080548152602001908152602001600020600301819055508260046000805481526020019081526020016000206004019081610ac59190611599565b508160046000805481526020019081526020016000206005019081610aea9190611599565b5080600460008054815260200190815260200160002060060160006101000a81548160ff021916908315150217905550600080815480929190610b2c9061169a565b91905055507f689bb0330c1c7078d60ff9632a4be061f5411d6c6d3cfc8960e175d277f6a53e60005485600080878787604051610b6f979695949392919061178a565b60405180910390a150505050565b6040518060e001604052806000815260200160608152602001600081526020016000815260200160608152602001606081526020016000151581525090565b60405180606001604052806000815260200160608152602001600081525090565b6000819050919050565b610bf081610bdd565b82525050565b6000602082019050610c0b6000830184610be7565b92915050565b6000604051905090565b600080fd5b600080fd5b610c2e81610bdd565b8114610c3957600080fd5b50565b600081359050610c4b81610c25565b92915050565b600080fd5b600080fd5b6000601f19601f8301169050919050565b7f4e487b7100000000000000000000000000000000000000000000000000000000600052604160045260246000fd5b610ca482610c5b565b810181811067ffffffffffffffff82111715610cc357610cc2610c6c565b5b80604052505050565b6000610cd6610c11565b9050610ce28282610c9b565b919050565b600067ffffffffffffffff821115610d0257610d01610c6c565b5b610d0b82610c5b565b9050602081019050919050565b82818337600083830152505050565b6000610d3a610d3584610ce7565b610ccc565b905082815260208101848484011115610d5657610d55610c56565b5b610d61848285610d18565b509392505050565b600082601f830112610d7e57610d7d610c51565b5b8135610d8e848260208601610d27565b91505092915050565b60008060408385031215610dae57610dad610c1b565b5b6000610dbc85828601610c3c565b925050602083013567ffffffffffffffff811115610ddd57610ddc610c20565b5b610de985828601610d69565b9150509250929050565b600081519050919050565b600082825260208201905092915050565b6000819050602082019050919050565b610e2881610bdd565b82525050565b600081519050919050565b600082825260208201905092915050565b60005b83811015610e68578082015181840152602081019050610e4d565b60008484015250505050565b6000610e7f82610e2e565b610e898185610e39565b9350610e99818560208601610e4a565b610ea281610c5b565b840191505092915050565b60008115159050919050565b610ec281610ead565b82525050565b600060e083016000830151610ee06000860182610e1f565b5060208301518482036020860152610ef88282610e74565b9150506040830151610f0d6040860182610e1f565b506060830151610f206060860182610e1f565b5060808301518482036080860152610f388282610e74565b91505060a083015184820360a0860152610f528282610e74565b91505060c0830151610f6760c0860182610eb9565b508091505092915050565b6000610f7e8383610ec8565b905092915050565b6000602082019050919050565b6000610f9e82610df3565b610fa88185610dfe565b935083602082028501610fba85610e0f565b8060005b85811015610ff65784840389528151610fd78582610f72565b9450610fe283610f86565b925060208a01995050600181019050610fbe565b50829750879550505050505092915050565b600060208201905081810360008301526110228184610f93565b905092915050565b6000602082840312156110405761103f610c1b565b5b600061104e84828501610c3c565b91505092915050565b600082825260208201905092915050565b600061107382610e2e565b61107d8185611057565b935061108d818560208601610e4a565b61109681610c5b565b840191505092915050565b6110aa81610ead565b82525050565b600060e0820190506110c5600083018a610be7565b81810360208301526110d78189611068565b90506110e66040830188610be7565b6110f36060830187610be7565b81810360808301526111058186611068565b905081810360a08301526111198185611068565b905061112860c08301846110a1565b98975050505050505050565b600081519050919050565b600082825260208201905092915050565b6000819050602082019050919050565b60006060830160008301516111786000860182610e1f565b50602083015184820360208601526111908282610e74565b91505060408301516111a56040860182610e1f565b508091505092915050565b60006111bc8383611160565b905092915050565b6000602082019050919050565b60006111dc82611134565b6111e6818561113f565b9350836020820285016111f885611150565b8060005b85811015611234578484038952815161121585826111b0565b9450611220836111c4565b925060208a019950506001810190506111fc565b50829750879550505050505092915050565b6000602082019050818103600083015261126081846111d1565b905092915050565b600060608201905061127d6000830186610be7565b818103602083015261128f8185611068565b905061129e6040830184610be7565b949350505050565b6112af81610ead565b81146112ba57600080fd5b50565b6000813590506112cc816112a6565b92915050565b600080600080608085870312156112ec576112eb610c1b565b5b600085013567ffffffffffffffff81111561130a57611309610c20565b5b61131687828801610d69565b945050602085013567ffffffffffffffff81111561133757611336610c20565b5b61134387828801610d69565b935050604085013567ffffffffffffffff81111561136457611363610c20565b5b61137087828801610d69565b9250506060611381878288016112bd565b91505092959194509250565b7f4e487b7100000000000000000000000000000000000000000000000000000000600052602260045260246000fd5b600060028204905060018216806113d457607f821691505b6020821081036113e7576113e661138d565b5b50919050565b60008190508160005260206000209050919050565b60006020601f8301049050919050565b600082821b905092915050565b60006008830261144f7fffffffffffffffffffffffffffffffffffffffffffffffffffffffffffffffff82611412565b6114598683611412565b95508019841693508086168417925050509392505050565b6000819050919050565b600061149661149161148c84610bdd565b611471565b610bdd565b9050919050565b6000819050919050565b6114b08361147b565b6114c46114bc8261149d565b84845461141f565b825550505050565b600090565b6114d96114cc565b6114e48184846114a7565b505050565b5b81811015611508576114fd6000826114d1565b6001810190506114ea565b5050565b601f82111561154d5761151e816113ed565b61152784611402565b81016020851015611536578190505b61154a61154285611402565b8301826114e9565b50505b505050565b600082821c905092915050565b600061157060001984600802611552565b1980831691505092915050565b6000611589838361155f565b9150826002028217905092915050565b6115a282610e2e565b67ffffffffffffffff8111156115bb576115ba610c6c565b5b6115c582546113bc565b6115d082828561150c565b600060209050601f83116001811461160357600084156115f1578287015190505b6115fb858261157d565b865550611663565b601f198416611611866113ed565b60005b8281101561163957848901518255600182019150602085019450602081019050611614565b868310156116565784890151611652601f89168261155f565b8355505b6001600288020188555050505b505050505050565b7f4e487b7100000000000000000000000000000000000000000000000000000000600052601160045260246000fd5b60006116a582610bdd565b91507fffffffffffffffffffffffffffffffffffffffffffffffffffffffffffffffff82036116d7576116d661166b565b5b600182019050919050565b6000819050919050565b60006117076117026116fd846116e2565b611471565b610bdd565b9050919050565b611717816116ec565b82525050565b60006060820190506117326000830186610be7565b81810360208301526117448185611068565b9050611753604083018461170e565b949350505050565b7f4e487b7100000000000000000000000000000000000000000000000000000000600052603260045260246000fd5b600060e08201905061179f600083018a610be7565b81810360208301526117b18189611068565b90506117c0604083018861170e565b6117cd606083018761170e565b81810360808301526117df8186611068565b905081810360a08301526117f38185611068565b905061180260c08301846110a1565b9897505050505050505056fea26469706673582212209b68751500d18df6d4ceb1710868ee113f3c0dc11543e42768e9b746bf95c03f64736f6c63430008110033a2646970667358221220e240b14a98ca1f09f066933eaccaf8c9fcd394ad6ca924d00abf08616605323d64736f6c63430008110033",
  "immutableReferences": {},
  "source": "// SPDX-License-Identifier: GPL-3.0\r\npragma solidity >=0.8.0;\r\n\r\ncontract Maincontract {\r\n    uint256 userCounts;\r\n    uint256 verifiedUserCounts;\r\n\r\n    constructor() {\r\n        userCounts = 0;\r\n        verifiedUserCounts = 0;\r\n    }\r\n\r\n    struct UserStruct {\r\n        address walletId;\r\n        address userContractAddress;\r\n        string userName;\r\n        string password;\r\n        bool isVerified;\r\n    }\r\n\r\n    event User(\r\n        address walletId,\r\n        address userContractAddress,\r\n        string userName,\r\n        string password,\r\n        bool isVerified\r\n    );\r\n\r\n    mapping(address => UserStruct) public userStructs;\r\n\r\n    function createUser(\r\n        address _walletId,\r\n        string memory _userName,\r\n        string memory _password\r\n    ) public {\r\n        address uca = address(new UserContract(_walletId));\r\n        userStructs[_walletId].walletId = _walletId;\r\n        userStructs[_walletId].userName = _userName;\r\n        userStructs[_walletId].password = _password;\r\n        userStructs[_walletId].isVerified = false;\r\n        userStructs[_walletId].userContractAddress = uca;\r\n        userCounts++;\r\n        emit User(_walletId, uca, _userName, _password, false);\r\n    }\r\n\r\n    function getUser(address _walletId)\r\n        public\r\n        view\r\n        returns (\r\n            address,\r\n            string memory,\r\n            string memory,\r\n            bool,\r\n            address\r\n        )\r\n    {\r\n        if (userStructs[_walletId].walletId == address(0)) {\r\n            return (\r\n                address(0),\r\n                \"account does not exist\",\r\n                \"\",\r\n                false,\r\n                address(0)\r\n            );\r\n        }\r\n        return (\r\n            userStructs[_walletId].walletId,\r\n            userStructs[_walletId].userName,\r\n            userStructs[_walletId].password,\r\n            userStructs[_walletId].isVerified,\r\n            userStructs[_walletId].userContractAddress\r\n        );\r\n    }\r\n\r\n    function getUserCount() public view returns (uint256) {\r\n        return userCounts;\r\n    }\r\n\r\n    function getVerifiedUserCount() public view returns (uint256) {\r\n        return verifiedUserCounts;\r\n    }\r\n\r\n    function verifyUser(address _walletId) public {\r\n        userStructs[_walletId].isVerified = true;\r\n        verifiedUserCounts++;\r\n    }\r\n\r\n    function makePost(\r\n        address _walletId,\r\n        string memory _postContent,\r\n        string memory timeStamp\r\n    ) public {\r\n        UserContract uc = UserContract(\r\n            userStructs[_walletId].userContractAddress\r\n        );\r\n        uc.createPost(\r\n            _postContent,\r\n            timeStamp,\r\n            userStructs[_walletId].userName,\r\n            userStructs[_walletId].isVerified\r\n        );\r\n    }\r\n\r\n    function makeComment(\r\n        address _walletId,\r\n        uint256 _postId,\r\n        string memory _commentContent\r\n    ) public {\r\n        UserContract uc = UserContract(\r\n            userStructs[_walletId].userContractAddress\r\n        );\r\n        uc.createComment(_postId, _commentContent);\r\n    }\r\n\r\n    function likePost(address _walletId, uint256 _postId) public {\r\n        UserContract uc = UserContract(\r\n            userStructs[_walletId].userContractAddress\r\n        );\r\n        uc.likePost(_postId);\r\n    }\r\n\r\n    function getPosts(address _walletId)\r\n        public\r\n        view\r\n        returns (UserContract.PostStruct[] memory)\r\n    {\r\n        UserContract uc = UserContract(\r\n            userStructs[_walletId].userContractAddress\r\n        );\r\n        return uc.getPosts();\r\n    }\r\n\r\n    function getComments(address _walletId)\r\n        public\r\n        view\r\n        returns (UserContract.CommentStruct[] memory)\r\n    {\r\n        UserContract uc = UserContract(\r\n            userStructs[_walletId].userContractAddress\r\n        );\r\n        return uc.getComments();\r\n    }\r\n\r\n    function getPostCount(address _walletId) public view returns (uint256) {\r\n        UserContract uc = UserContract(\r\n            userStructs[_walletId].userContractAddress\r\n        );\r\n        return uc.getPostCount();\r\n    }\r\n\r\n    function getCommentCount(address _walletId) public view returns (uint256) {\r\n        UserContract uc = UserContract(\r\n            userStructs[_walletId].userContractAddress\r\n        );\r\n        return uc.getCommentCount();\r\n    }\r\n\r\n    function getLikeCount(address _walletId) public view returns (uint256) {\r\n        UserContract uc = UserContract(\r\n            userStructs[_walletId].userContractAddress\r\n        );\r\n        return uc.getLikeCount();\r\n    }\r\n}\r\n\r\n///////////////////////////////////////////////////////////////////////////////////////////////////////////////////////////////////////\r\n\r\ncontract UserContract {\r\n    uint256 postCounts;\r\n    uint256 commentCounts;\r\n    uint256 likeCounts;\r\n    address owner;\r\n\r\n    constructor(address walletId) {\r\n        owner = walletId;\r\n        postCounts = 0;\r\n        commentCounts = 0;\r\n        likeCounts = 0;\r\n    }\r\n\r\n    struct PostStruct {\r\n        uint256 postId;\r\n        string postContent;\r\n        uint256 likeCount;\r\n        uint256 commentCount;\r\n        string timeStamp;\r\n        string userName;\r\n        bool isVerified;\r\n    }\r\n    struct CommentStruct {\r\n        uint256 commentId;\r\n        string commentContent;\r\n        uint256 likeCount;\r\n    }\r\n\r\n    event Post(\r\n        uint256 postId,\r\n        string postContent,\r\n        uint256 likeCount,\r\n        uint256 commentCount,\r\n        string timeStamp,\r\n        string userName,\r\n        bool isVerified\r\n    );\r\n    event Comment(uint256 commentId, string commentContent, uint256 likeCount);\r\n    event Like(uint256 likeCount);\r\n\r\n    mapping(uint256 => PostStruct) public postStructs;\r\n    mapping(uint256 => CommentStruct) public commentStructs;\r\n\r\n    function createPost(\r\n        string memory _postContent,\r\n        string memory timeStamp,\r\n        string memory userName,\r\n        bool isVerified\r\n    ) public {\r\n        postStructs[postCounts].postId = postCounts;\r\n        postStructs[postCounts].postContent = _postContent;\r\n        postStructs[postCounts].likeCount = 0;\r\n        postStructs[postCounts].commentCount = 0;\r\n        postStructs[postCounts].timeStamp = timeStamp;\r\n        postStructs[postCounts].userName = userName;\r\n        postStructs[postCounts].isVerified = isVerified;\r\n\r\n        postCounts++;\r\n        emit Post(\r\n            postCounts,\r\n            _postContent,\r\n            0,\r\n            0,\r\n            timeStamp,\r\n            userName,\r\n            isVerified\r\n        );\r\n    }\r\n\r\n    function createComment(uint256 _postId, string memory _commentContent)\r\n        public\r\n    {\r\n        commentStructs[commentCounts].commentId = commentCounts;\r\n        commentStructs[commentCounts].commentContent = _commentContent;\r\n        commentStructs[commentCounts].likeCount = 0;\r\n        postStructs[_postId].commentCount++;\r\n        commentCounts++;\r\n        emit Comment(commentCounts, _commentContent, 0);\r\n    }\r\n\r\n    function likePost(uint256 _postId) public {\r\n        postStructs[_postId].likeCount++;\r\n        emit Like(postStructs[_postId].likeCount);\r\n    }\r\n\r\n    function getPosts() public view returns (PostStruct[] memory) {\r\n        PostStruct[] memory posts = new PostStruct[](postCounts);\r\n        for (uint256 i = 0; i < postCounts; i++) {\r\n            posts[i] = postStructs[i];\r\n        }\r\n        return posts;\r\n    }\r\n\r\n    function getComments() public view returns (CommentStruct[] memory) {\r\n        CommentStruct[] memory comments = new CommentStruct[](commentCounts);\r\n        for (uint256 i = 0; i < commentCounts; i++) {\r\n            comments[i] = commentStructs[i];\r\n        }\r\n        return comments;\r\n    }\r\n\r\n    function getPostCount() public view returns (uint256) {\r\n        return postCounts;\r\n    }\r\n\r\n    function getCommentCount() public view returns (uint256) {\r\n        return commentCounts;\r\n    }\r\n\r\n    function getLikeCount() public view returns (uint256) {\r\n        return likeCounts;\r\n    }\r\n}\r\n",
  "sourcePath": "D:\\Users\\Desktop\\BOOOKS\\SEMESTER 7\\BCT\\Project\\DE-Verse\\smartcontract\\contracts\\Main.sol",
  "compiler": {
    "name": "solc",
    "version": "0.8.17+commit.8df45f5f.Emscripten.clang"
  },
  "schemaVersion": "3.4.10",
  "updatedAt": "2022-12-13T21:38:03.154Z",
  "networkType": "ethereum",
  "devdoc": {
    "kind": "dev",
    "methods": {},
    "version": 1
  },
  "userdoc": {
    "kind": "user",
    "methods": {},
    "version": 1
  }
}