{
  "contractName": "Maincontract",
  "abi": [
    {
      "inputs": [],
      "stateMutability": "nonpayable",
      "type": "constructor"
    },
    {
      "anonymous": false,
      "inputs": [
        {
          "indexed": false,
          "internalType": "address",
          "name": "walletId",
          "type": "address"
        },
        {
          "indexed": false,
          "internalType": "address",
          "name": "userContractAddress",
          "type": "address"
        },
        {
          "indexed": false,
          "internalType": "string",
          "name": "userName",
          "type": "string"
        },
        {
          "indexed": false,
          "internalType": "string",
          "name": "password",
          "type": "string"
        },
        {
          "indexed": false,
          "internalType": "bool",
          "name": "isVerified",
          "type": "bool"
        }
      ],
      "name": "User",
      "type": "event"
    },
    {
      "inputs": [
        {
          "internalType": "string",
          "name": "",
          "type": "string"
        }
      ],
      "name": "userNameToWalletId",
      "outputs": [
        {
          "internalType": "address",
          "name": "",
          "type": "address"
        }
      ],
      "stateMutability": "view",
      "type": "function",
      "constant": true
    },
    {
      "inputs": [
        {
          "internalType": "address",
          "name": "",
          "type": "address"
        }
      ],
      "name": "userStructs",
      "outputs": [
        {
          "internalType": "address",
          "name": "walletId",
          "type": "address"
        },
        {
          "internalType": "address",
          "name": "userContractAddress",
          "type": "address"
        },
        {
          "internalType": "string",
          "name": "userName",
          "type": "string"
        },
        {
          "internalType": "string",
          "name": "password",
          "type": "string"
        },
        {
          "internalType": "bool",
          "name": "isVerified",
          "type": "bool"
        }
      ],
      "stateMutability": "view",
      "type": "function",
      "constant": true
    },
    {
      "inputs": [
        {
          "internalType": "address",
          "name": "_walletId",
          "type": "address"
        },
        {
          "internalType": "string",
          "name": "_userName",
          "type": "string"
        },
        {
          "internalType": "string",
          "name": "_password",
          "type": "string"
        }
      ],
      "name": "createUser",
      "outputs": [],
      "stateMutability": "nonpayable",
      "type": "function"
    },
    {
      "inputs": [
        {
          "internalType": "address",
          "name": "_walletId",
          "type": "address"
        }
      ],
      "name": "getUser",
      "outputs": [
        {
          "internalType": "address",
          "name": "",
          "type": "address"
        },
        {
          "internalType": "string",
          "name": "",
          "type": "string"
        },
        {
          "internalType": "string",
          "name": "",
          "type": "string"
        },
        {
          "internalType": "bool",
          "name": "",
          "type": "bool"
        },
        {
          "internalType": "address",
          "name": "",
          "type": "address"
        }
      ],
      "stateMutability": "view",
      "type": "function",
      "constant": true
    },
    {
      "inputs": [
        {
          "internalType": "string",
          "name": "_userName",
          "type": "string"
        }
      ],
      "name": "getUserByUserName",
      "outputs": [
        {
          "internalType": "address",
          "name": "",
          "type": "address"
        },
        {
          "internalType": "string",
          "name": "",
          "type": "string"
        },
        {
          "internalType": "string",
          "name": "",
          "type": "string"
        },
        {
          "internalType": "bool",
          "name": "",
          "type": "bool"
        },
        {
          "internalType": "address",
          "name": "",
          "type": "address"
        }
      ],
      "stateMutability": "view",
      "type": "function",
      "constant": true
    },
    {
      "inputs": [],
      "name": "getUserCount",
      "outputs": [
        {
          "internalType": "uint256",
          "name": "",
          "type": "uint256"
        }
      ],
      "stateMutability": "view",
      "type": "function",
      "constant": true
    },
    {
      "inputs": [],
      "name": "getVerifiedUserCount",
      "outputs": [
        {
          "internalType": "uint256",
          "name": "",
          "type": "uint256"
        }
      ],
      "stateMutability": "view",
      "type": "function",
      "constant": true
    },
    {
      "inputs": [
        {
          "internalType": "address",
          "name": "_walletId",
          "type": "address"
        }
      ],
      "name": "verifyUser",
      "outputs": [],
      "stateMutability": "nonpayable",
      "type": "function"
    },
    {
      "inputs": [
        {
          "internalType": "address",
          "name": "_walletId",
          "type": "address"
        },
        {
          "internalType": "string",
          "name": "_postContent",
          "type": "string"
        },
        {
          "internalType": "string",
          "name": "timeStamp",
          "type": "string"
        }
      ],
      "name": "makePost",
      "outputs": [],
      "stateMutability": "nonpayable",
      "type": "function"
    },
    {
      "inputs": [
        {
          "internalType": "address",
          "name": "_walletId",
          "type": "address"
        },
        {
          "internalType": "uint256",
          "name": "_postId",
          "type": "uint256"
        },
        {
          "internalType": "string",
          "name": "_commentContent",
          "type": "string"
        }
      ],
      "name": "makeComment",
      "outputs": [],
      "stateMutability": "nonpayable",
      "type": "function"
    },
    {
      "inputs": [
        {
          "internalType": "string",
          "name": "_userName",
          "type": "string"
        },
        {
          "internalType": "uint256",
          "name": "_postId",
          "type": "uint256"
        },
        {
          "internalType": "address",
          "name": "_myWalletId",
          "type": "address"
        }
      ],
      "name": "likePost",
      "outputs": [],
      "stateMutability": "nonpayable",
      "type": "function"
    },
    {
      "inputs": [
        {
          "internalType": "address",
          "name": "_walletId",
          "type": "address"
        },
        {
          "internalType": "address",
          "name": "_followingId",
          "type": "address"
        }
      ],
      "name": "followUser",
      "outputs": [],
      "stateMutability": "nonpayable",
      "type": "function"
    },
    {
      "inputs": [
        {
          "internalType": "address",
          "name": "_walletId",
          "type": "address"
        }
      ],
      "name": "getFollowing",
      "outputs": [
        {
          "internalType": "address[]",
          "name": "",
          "type": "address[]"
        }
      ],
      "stateMutability": "view",
      "type": "function",
      "constant": true
    },
    {
      "inputs": [
        {
          "internalType": "address",
          "name": "_walletId",
          "type": "address"
        }
      ],
      "name": "getFollowersCount",
      "outputs": [
        {
          "internalType": "uint256",
          "name": "",
          "type": "uint256"
        }
      ],
      "stateMutability": "view",
      "type": "function",
      "constant": true
    },
    {
      "inputs": [
        {
          "internalType": "address",
          "name": "_walletId",
          "type": "address"
        }
      ],
      "name": "getPosts",
      "outputs": [
        {
          "components": [
            {
              "internalType": "uint256",
              "name": "postId",
              "type": "uint256"
            },
            {
              "internalType": "string",
              "name": "postContent",
              "type": "string"
            },
            {
              "internalType": "uint256",
              "name": "likeCount",
              "type": "uint256"
            },
            {
              "internalType": "uint256",
              "name": "commentCount",
              "type": "uint256"
            },
            {
              "internalType": "string",
              "name": "timeStamp",
              "type": "string"
            },
            {
              "internalType": "string",
              "name": "userName",
              "type": "string"
            },
            {
              "internalType": "bool",
              "name": "isVerified",
              "type": "bool"
            }
          ],
          "internalType": "struct UserContract.PostStruct[]",
          "name": "",
          "type": "tuple[]"
        }
      ],
      "stateMutability": "view",
      "type": "function",
      "constant": true
    },
    {
      "inputs": [
        {
          "internalType": "address",
          "name": "_walletId",
          "type": "address"
        }
      ],
      "name": "getComments",
      "outputs": [
        {
          "components": [
            {
              "internalType": "uint256",
              "name": "commentId",
              "type": "uint256"
            },
            {
              "internalType": "string",
              "name": "commentContent",
              "type": "string"
            },
            {
              "internalType": "uint256",
              "name": "likeCount",
              "type": "uint256"
            }
          ],
          "internalType": "struct UserContract.CommentStruct[]",
          "name": "",
          "type": "tuple[]"
        }
      ],
      "stateMutability": "view",
      "type": "function",
      "constant": true
    },
    {
      "inputs": [
        {
          "internalType": "address",
          "name": "_walletId",
          "type": "address"
        }
      ],
      "name": "getPostCount",
      "outputs": [
        {
          "internalType": "uint256",
          "name": "",
          "type": "uint256"
        }
      ],
      "stateMutability": "view",
      "type": "function",
      "constant": true
    },
    {
      "inputs": [
        {
          "internalType": "address",
          "name": "_walletId",
          "type": "address"
        }
      ],
      "name": "getCommentCount",
      "outputs": [
        {
          "internalType": "uint256",
          "name": "",
          "type": "uint256"
        }
      ],
      "stateMutability": "view",
      "type": "function",
      "constant": true
    },
    {
      "inputs": [
        {
          "internalType": "address",
          "name": "_walletId",
          "type": "address"
        }
      ],
      "name": "getLikeCount",
      "outputs": [
        {
          "internalType": "uint256",
          "name": "",
          "type": "uint256"
        }
      ],
      "stateMutability": "view",
      "type": "function",
      "constant": true
    },
    {
      "inputs": [
        {
          "internalType": "address",
          "name": "_walletId",
          "type": "address"
        }
      ],
      "name": "getMyLikes",
      "outputs": [
        {
          "components": [
            {
              "internalType": "uint256",
              "name": "postId",
              "type": "uint256"
            },
            {
              "internalType": "string",
              "name": "userName",
              "type": "string"
            }
          ],
          "internalType": "struct UserContract.myLikeStruct[]",
          "name": "",
          "type": "tuple[]"
        }
      ],
      "stateMutability": "view",
      "type": "function",
      "constant": true
    }
  ],
  "bytecode": "0x608060405234801561001057600080fd5b506000808190555060006001819055506158688061002f6000396000f3fe60806040523480156200001157600080fd5b5060043610620001485760003560e01c80635f329fb211620000bd578063a9b2e715116200007b578063a9b2e71514620003fb578063b5cb15f7146200041d578063be6c8987146200043f578063d8236dff1462000479578063e94456a714620004af5762000148565b80635f329fb214620002ff5780636f77926b146200033557806380cf7dee146200036f57806385f5eac114620003a5578063a4c7fafa14620003c55762000148565b80633eaf1c27116200010b5780633eaf1c2714620002335780634caf9d0b14620002535780634ceb48fd14620002895780634d1a307214620002a95780634d81312014620002df5762000148565b80630c8273e6146200014d57806317fe375f146200016d57806319447eb614620001a357806325e9ccf914620001dd5780633c4100861462000213575b600080fd5b6200016b600480360381019062000165919062001fe8565b620004e5565b005b6200018b60048036038101906200018591906200202f565b6200068a565b6040516200019a91906200223c565b60405180910390f35b620001c16004803603810190620001bb91906200202f565b62000772565b604051620001d4959493929190620022e0565b60405180910390f35b620001fb6004803603810190620001f591906200202f565b62000915565b6040516200020a91906200235c565b60405180910390f35b6200023160048036038101906200022b9190620024ca565b620009f7565b005b6200025160048036038101906200024b919062002595565b62000b69565b005b6200027160048036038101906200026b91906200202f565b62000d64565b604051620002809190620027a9565b60405180910390f35b620002a76004803603810190620002a19190620024ca565b62000e4c565b005b620002c76004803603810190620002c191906200202f565b6200114a565b604051620002d69190620028de565b60405180910390f35b620002fd6004803603810190620002f791906200202f565b62001232565b005b6200031d60048036038101906200031791906200202f565b620012aa565b6040516200032c91906200235c565b60405180910390f35b6200035360048036038101906200034d91906200202f565b6200138c565b6040516200036695949392919062002902565b60405180910390f35b6200038d60048036038101906200038791906200296d565b62001760565b6040516200039c9190620029be565b60405180910390f35b620003c36004803603810190620003bd9190620029db565b620017a9565b005b620003e36004803603810190620003dd91906200202f565b62001887565b604051620003f291906200235c565b60405180910390f35b6200040562001969565b6040516200041491906200235c565b60405180910390f35b6200042762001973565b6040516200043691906200235c565b60405180910390f35b6200045d60048036038101906200045791906200296d565b6200197c565b6040516200047095949392919062002902565b60405180910390f35b6200049760048036038101906200049191906200202f565b62001d97565b604051620004a6919062002b24565b60405180910390f35b620004cd6004803603810190620004c791906200202f565b62001e7f565b604051620004dc91906200235c565b60405180910390f35b6000600260008473ffffffffffffffffffffffffffffffffffffffff1673ffffffffffffffffffffffffffffffffffffffff16815260200190815260200160002060010160009054906101000a900473ffffffffffffffffffffffffffffffffffffffff1690508073ffffffffffffffffffffffffffffffffffffffff166399c50dd1836040518263ffffffff1660e01b8152600401620005879190620029be565b600060405180830381600087803b158015620005a257600080fd5b505af1158015620005b7573d6000803e3d6000fd5b505050506000600260008473ffffffffffffffffffffffffffffffffffffffff1673ffffffffffffffffffffffffffffffffffffffff16815260200190815260200160002060010160009054906101000a900473ffffffffffffffffffffffffffffffffffffffff1690508073ffffffffffffffffffffffffffffffffffffffff166360f2e3786040518163ffffffff1660e01b8152600401600060405180830381600087803b1580156200066b57600080fd5b505af115801562000680573d6000803e3d6000fd5b5050505050505050565b60606000600260008473ffffffffffffffffffffffffffffffffffffffff1673ffffffffffffffffffffffffffffffffffffffff16815260200190815260200160002060010160009054906101000a900473ffffffffffffffffffffffffffffffffffffffff1690508073ffffffffffffffffffffffffffffffffffffffff166391f3410c6040518163ffffffff1660e01b8152600401600060405180830381865afa1580156200073f573d6000803e3d6000fd5b505050506040513d6000823e3d601f19601f820116820180604052508101906200076a919062002d71565b915050919050565b60026020528060005260406000206000915090508060000160009054906101000a900473ffffffffffffffffffffffffffffffffffffffff16908060010160009054906101000a900473ffffffffffffffffffffffffffffffffffffffff1690806002018054620007e39062002df1565b80601f0160208091040260200160405190810160405280929190818152602001828054620008119062002df1565b8015620008625780601f10620008365761010080835404028352916020019162000862565b820191906000526020600020905b8154815290600101906020018083116200084457829003601f168201915b505050505090806003018054620008799062002df1565b80601f0160208091040260200160405190810160405280929190818152602001828054620008a79062002df1565b8015620008f85780601f10620008cc57610100808354040283529160200191620008f8565b820191906000526020600020905b815481529060010190602001808311620008da57829003601f168201915b5050505050908060040160009054906101000a900460ff16905085565b600080600260008473ffffffffffffffffffffffffffffffffffffffff1673ffffffffffffffffffffffffffffffffffffffff16815260200190815260200160002060010160009054906101000a900473ffffffffffffffffffffffffffffffffffffffff1690508073ffffffffffffffffffffffffffffffffffffffff1663e22bce276040518163ffffffff1660e01b8152600401602060405180830381865afa158015620009c9573d6000803e3d6000fd5b505050506040513d601f19601f82011682018060405250810190620009ef919062002e26565b915050919050565b6000600260008573ffffffffffffffffffffffffffffffffffffffff1673ffffffffffffffffffffffffffffffffffffffff16815260200190815260200160002060010160009054906101000a900473ffffffffffffffffffffffffffffffffffffffff1690508073ffffffffffffffffffffffffffffffffffffffff1663e71ef23d8484600260008973ffffffffffffffffffffffffffffffffffffffff1673ffffffffffffffffffffffffffffffffffffffff168152602001908152602001600020600201600260008a73ffffffffffffffffffffffffffffffffffffffff1673ffffffffffffffffffffffffffffffffffffffff16815260200190815260200160002060040160009054906101000a900460ff166040518563ffffffff1660e01b815260040162000b2f949392919062002efd565b600060405180830381600087803b15801562000b4a57600080fd5b505af115801562000b5f573d6000803e3d6000fd5b5050505050505050565b600060038460405162000b7d919062002fa1565b908152602001604051809103902060009054906101000a900473ffffffffffffffffffffffffffffffffffffffff1690506000600260008373ffffffffffffffffffffffffffffffffffffffff1673ffffffffffffffffffffffffffffffffffffffff16815260200190815260200160002060010160009054906101000a900473ffffffffffffffffffffffffffffffffffffffff1690508073ffffffffffffffffffffffffffffffffffffffff1663725009d3856040518263ffffffff1660e01b815260040162000c5091906200235c565b600060405180830381600087803b15801562000c6b57600080fd5b505af115801562000c80573d6000803e3d6000fd5b505050506000600260008573ffffffffffffffffffffffffffffffffffffffff1673ffffffffffffffffffffffffffffffffffffffff16815260200190815260200160002060010160009054906101000a900473ffffffffffffffffffffffffffffffffffffffff1690508073ffffffffffffffffffffffffffffffffffffffff1663eb058a2f86886040518363ffffffff1660e01b815260040162000d2892919062002fba565b600060405180830381600087803b15801562000d4357600080fd5b505af115801562000d58573d6000803e3d6000fd5b50505050505050505050565b60606000600260008473ffffffffffffffffffffffffffffffffffffffff1673ffffffffffffffffffffffffffffffffffffffff16815260200190815260200160002060010160009054906101000a900473ffffffffffffffffffffffffffffffffffffffff1690508073ffffffffffffffffffffffffffffffffffffffff166341f3004a6040518163ffffffff1660e01b8152600401600060405180830381865afa15801562000e19573d6000803e3d6000fd5b505050506040513d6000823e3d601f19601f8201168201806040525081019062000e4491906200323a565b915050919050565b60008360405162000e5d9062001f61565b62000e699190620029be565b604051809103906000f08015801562000e86573d6000803e3d6000fd5b50905083600260008673ffffffffffffffffffffffffffffffffffffffff1673ffffffffffffffffffffffffffffffffffffffff16815260200190815260200160002060000160006101000a81548173ffffffffffffffffffffffffffffffffffffffff021916908373ffffffffffffffffffffffffffffffffffffffff16021790555082600260008673ffffffffffffffffffffffffffffffffffffffff1673ffffffffffffffffffffffffffffffffffffffff168152602001908152602001600020600201908162000f5b919062003448565b5081600260008673ffffffffffffffffffffffffffffffffffffffff1673ffffffffffffffffffffffffffffffffffffffff168152602001908152602001600020600301908162000fad919062003448565b506000600260008673ffffffffffffffffffffffffffffffffffffffff1673ffffffffffffffffffffffffffffffffffffffff16815260200190815260200160002060040160006101000a81548160ff02191690831515021790555080600260008673ffffffffffffffffffffffffffffffffffffffff1673ffffffffffffffffffffffffffffffffffffffff16815260200190815260200160002060010160006101000a81548173ffffffffffffffffffffffffffffffffffffffff021916908373ffffffffffffffffffffffffffffffffffffffff1602179055506000808154809291906200109e906200355e565b919050555083600384604051620010b6919062002fa1565b908152602001604051809103902060006101000a81548173ffffffffffffffffffffffffffffffffffffffff021916908373ffffffffffffffffffffffffffffffffffffffff1602179055507f2041b7a4351ac706257b308fda32769804e2afadd729e9b0ef211b0dd03312fc8482858560006040516200113c959493929190620022e0565b60405180910390a150505050565b60606000600260008473ffffffffffffffffffffffffffffffffffffffff1673ffffffffffffffffffffffffffffffffffffffff16815260200190815260200160002060010160009054906101000a900473ffffffffffffffffffffffffffffffffffffffff1690508073ffffffffffffffffffffffffffffffffffffffff1663ecf0a45d6040518163ffffffff1660e01b8152600401600060405180830381865afa158015620011ff573d6000803e3d6000fd5b505050506040513d6000823e3d601f19601f820116820180604052508101906200122a91906200371a565b915050919050565b6001600260008373ffffffffffffffffffffffffffffffffffffffff1673ffffffffffffffffffffffffffffffffffffffff16815260200190815260200160002060040160006101000a81548160ff02191690831515021790555060016000815480929190620012a2906200355e565b919050555050565b600080600260008473ffffffffffffffffffffffffffffffffffffffff1673ffffffffffffffffffffffffffffffffffffffff16815260200190815260200160002060010160009054906101000a900473ffffffffffffffffffffffffffffffffffffffff1690508073ffffffffffffffffffffffffffffffffffffffff166316e31ea36040518163ffffffff1660e01b8152600401602060405180830381865afa1580156200135e573d6000803e3d6000fd5b505050506040513d601f19601f8201168201806040525081019062001384919062002e26565b915050919050565b6000606080600080600073ffffffffffffffffffffffffffffffffffffffff16600260008873ffffffffffffffffffffffffffffffffffffffff1673ffffffffffffffffffffffffffffffffffffffff16815260200190815260200160002060000160009054906101000a900473ffffffffffffffffffffffffffffffffffffffff1673ffffffffffffffffffffffffffffffffffffffff16036200148a5760008060006040518060400160405280601681526020017f6163636f756e7420646f6573206e6f742065786973740000000000000000000081525091906040518060200160405280600081525091909450945094509450945062001757565b600260008773ffffffffffffffffffffffffffffffffffffffff1673ffffffffffffffffffffffffffffffffffffffff16815260200190815260200160002060000160009054906101000a900473ffffffffffffffffffffffffffffffffffffffff16600260008873ffffffffffffffffffffffffffffffffffffffff1673ffffffffffffffffffffffffffffffffffffffff168152602001908152602001600020600201600260008973ffffffffffffffffffffffffffffffffffffffff1673ffffffffffffffffffffffffffffffffffffffff168152602001908152602001600020600301600260008a73ffffffffffffffffffffffffffffffffffffffff1673ffffffffffffffffffffffffffffffffffffffff16815260200190815260200160002060040160009054906101000a900460ff16600260008b73ffffffffffffffffffffffffffffffffffffffff1673ffffffffffffffffffffffffffffffffffffffff16815260200190815260200160002060010160009054906101000a900473ffffffffffffffffffffffffffffffffffffffff16838054620016329062002df1565b80601f0160208091040260200160405190810160405280929190818152602001828054620016609062002df1565b8015620016b15780601f106200168557610100808354040283529160200191620016b1565b820191906000526020600020905b8154815290600101906020018083116200169357829003601f168201915b50505050509350828054620016c69062002df1565b80601f0160208091040260200160405190810160405280929190818152602001828054620016f49062002df1565b8015620017455780601f10620017195761010080835404028352916020019162001745565b820191906000526020600020905b8154815290600101906020018083116200172757829003601f168201915b50505050509250945094509450945094505b91939590929450565b6003818051602081018201805184825260208301602085012081835280955050505050506000915054906101000a900473ffffffffffffffffffffffffffffffffffffffff1681565b6000600260008573ffffffffffffffffffffffffffffffffffffffff1673ffffffffffffffffffffffffffffffffffffffff16815260200190815260200160002060010160009054906101000a900473ffffffffffffffffffffffffffffffffffffffff1690508073ffffffffffffffffffffffffffffffffffffffff166340a1798584846040518363ffffffff1660e01b81526004016200184d92919062002fba565b600060405180830381600087803b1580156200186857600080fd5b505af11580156200187d573d6000803e3d6000fd5b5050505050505050565b600080600260008473ffffffffffffffffffffffffffffffffffffffff1673ffffffffffffffffffffffffffffffffffffffff16815260200190815260200160002060010160009054906101000a900473ffffffffffffffffffffffffffffffffffffffff1690508073ffffffffffffffffffffffffffffffffffffffff1663bcc954076040518163ffffffff1660e01b8152600401602060405180830381865afa1580156200193b573d6000803e3d6000fd5b505050506040513d601f19601f8201168201806040525081019062001961919062002e26565b915050919050565b6000600154905090565b60008054905090565b6000606080600080600060038760405162001998919062002fa1565b908152602001604051809103902060009054906101000a900473ffffffffffffffffffffffffffffffffffffffff169050600073ffffffffffffffffffffffffffffffffffffffff16600260008373ffffffffffffffffffffffffffffffffffffffff1673ffffffffffffffffffffffffffffffffffffffff16815260200190815260200160002060000160009054906101000a900473ffffffffffffffffffffffffffffffffffffffff1673ffffffffffffffffffffffffffffffffffffffff160362001ac05760008060006040518060400160405280601681526020017f6163636f756e7420646f6573206e6f74206578697374000000000000000000008152509190604051806020016040528060008152509190955095509550955095505062001d8e565b600260008273ffffffffffffffffffffffffffffffffffffffff1673ffffffffffffffffffffffffffffffffffffffff16815260200190815260200160002060000160009054906101000a900473ffffffffffffffffffffffffffffffffffffffff16600260008373ffffffffffffffffffffffffffffffffffffffff1673ffffffffffffffffffffffffffffffffffffffff168152602001908152602001600020600201600260008473ffffffffffffffffffffffffffffffffffffffff1673ffffffffffffffffffffffffffffffffffffffff168152602001908152602001600020600301600260008573ffffffffffffffffffffffffffffffffffffffff1673ffffffffffffffffffffffffffffffffffffffff16815260200190815260200160002060040160009054906101000a900460ff16600260008673ffffffffffffffffffffffffffffffffffffffff1673ffffffffffffffffffffffffffffffffffffffff16815260200190815260200160002060010160009054906101000a900473ffffffffffffffffffffffffffffffffffffffff1683805462001c689062002df1565b80601f016020809104026020016040519081016040528092919081815260200182805462001c969062002df1565b801562001ce75780601f1062001cbb5761010080835404028352916020019162001ce7565b820191906000526020600020905b81548152906001019060200180831162001cc957829003601f168201915b5050505050935082805462001cfc9062002df1565b80601f016020809104026020016040519081016040528092919081815260200182805462001d2a9062002df1565b801562001d7b5780601f1062001d4f5761010080835404028352916020019162001d7b565b820191906000526020600020905b81548152906001019060200180831162001d5d57829003601f168201915b5050505050925095509550955095509550505b91939590929450565b60606000600260008473ffffffffffffffffffffffffffffffffffffffff1673ffffffffffffffffffffffffffffffffffffffff16815260200190815260200160002060010160009054906101000a900473ffffffffffffffffffffffffffffffffffffffff1690508073ffffffffffffffffffffffffffffffffffffffff166323f147026040518163ffffffff1660e01b8152600401600060405180830381865afa15801562001e4c573d6000803e3d6000fd5b505050506040513d6000823e3d601f19601f8201168201806040525081019062001e77919062003858565b915050919050565b600080600260008473ffffffffffffffffffffffffffffffffffffffff1673ffffffffffffffffffffffffffffffffffffffff16815260200190815260200160002060010160009054906101000a900473ffffffffffffffffffffffffffffffffffffffff1690508073ffffffffffffffffffffffffffffffffffffffff1663c4d67b096040518163ffffffff1660e01b8152600401602060405180830381865afa15801562001f33573d6000803e3d6000fd5b505050506040513d601f19601f8201168201806040525081019062001f59919062002e26565b915050919050565b611f8980620038aa83390190565b6000604051905090565b600080fd5b600080fd5b600073ffffffffffffffffffffffffffffffffffffffff82169050919050565b600062001fb08262001f83565b9050919050565b62001fc28162001fa3565b811462001fce57600080fd5b50565b60008135905062001fe28162001fb7565b92915050565b6000806040838503121562002002576200200162001f79565b5b6000620020128582860162001fd1565b9250506020620020258582860162001fd1565b9150509250929050565b60006020828403121562002048576200204762001f79565b5b6000620020588482850162001fd1565b91505092915050565b600081519050919050565b600082825260208201905092915050565b6000819050602082019050919050565b6000819050919050565b620020a2816200208d565b82525050565b600081519050919050565b600082825260208201905092915050565b60005b83811015620020e4578082015181840152602081019050620020c7565b60008484015250505050565b6000601f19601f8301169050919050565b60006200210e82620020a8565b6200211a8185620020b3565b93506200212c818560208601620020c4565b6200213781620020f0565b840191505092915050565b60006060830160008301516200215c600086018262002097565b506020830151848203602086015262002176828262002101565b91505060408301516200218d604086018262002097565b508091505092915050565b6000620021a6838362002142565b905092915050565b6000602082019050919050565b6000620021c88262002061565b620021d481856200206c565b935083602082028501620021e8856200207d565b8060005b858110156200222a578484038952815162002208858262002198565b94506200221583620021ae565b925060208a01995050600181019050620021ec565b50829750879550505050505092915050565b60006020820190508181036000830152620022588184620021bb565b905092915050565b6200226b8162001fa3565b82525050565b600082825260208201905092915050565b60006200228f82620020a8565b6200229b818562002271565b9350620022ad818560208601620020c4565b620022b881620020f0565b840191505092915050565b60008115159050919050565b620022da81620022c3565b82525050565b600060a082019050620022f7600083018862002260565b62002306602083018762002260565b81810360408301526200231a818662002282565b9050818103606083015262002330818562002282565b9050620023416080830184620022cf565b9695505050505050565b62002356816200208d565b82525050565b60006020820190506200237360008301846200234b565b92915050565b600080fd5b600080fd5b7f4e487b7100000000000000000000000000000000000000000000000000000000600052604160045260246000fd5b620023bd82620020f0565b810181811067ffffffffffffffff82111715620023df57620023de62002383565b5b80604052505050565b6000620023f462001f6f565b9050620024028282620023b2565b919050565b600067ffffffffffffffff82111562002425576200242462002383565b5b6200243082620020f0565b9050602081019050919050565b82818337600083830152505050565b6000620024636200245d8462002407565b620023e8565b9050828152602081018484840111156200248257620024816200237e565b5b6200248f8482856200243d565b509392505050565b600082601f830112620024af57620024ae62002379565b5b8135620024c18482602086016200244c565b91505092915050565b600080600060608486031215620024e657620024e562001f79565b5b6000620024f68682870162001fd1565b935050602084013567ffffffffffffffff8111156200251a576200251962001f7e565b5b620025288682870162002497565b925050604084013567ffffffffffffffff8111156200254c576200254b62001f7e565b5b6200255a8682870162002497565b9150509250925092565b6200256f816200208d565b81146200257b57600080fd5b50565b6000813590506200258f8162002564565b92915050565b600080600060608486031215620025b157620025b062001f79565b5b600084013567ffffffffffffffff811115620025d257620025d162001f7e565b5b620025e08682870162002497565b9350506020620025f3868287016200257e565b9250506040620026068682870162001fd1565b9150509250925092565b600081519050919050565b600082825260208201905092915050565b6000819050602082019050919050565b6200264781620022c3565b82525050565b600060e08301600083015162002667600086018262002097565b506020830151848203602086015262002681828262002101565b915050604083015162002698604086018262002097565b506060830151620026ad606086018262002097565b5060808301518482036080860152620026c7828262002101565b91505060a083015184820360a0860152620026e3828262002101565b91505060c0830151620026fa60c08601826200263c565b508091505092915050565b60006200271383836200264d565b905092915050565b6000602082019050919050565b6000620027358262002610565b6200274181856200261b565b93508360208202850162002755856200262c565b8060005b8581101562002797578484038952815162002775858262002705565b945062002782836200271b565b925060208a0199505060018101905062002759565b50829750879550505050505092915050565b60006020820190508181036000830152620027c5818462002728565b905092915050565b600081519050919050565b600082825260208201905092915050565b6000819050602082019050919050565b600060408301600083015162002813600086018262002097565b50602083015184820360208601526200282d828262002101565b9150508091505092915050565b6000620028488383620027f9565b905092915050565b6000602082019050919050565b60006200286a82620027cd565b620028768185620027d8565b9350836020820285016200288a85620027e9565b8060005b85811015620028cc5784840389528151620028aa85826200283a565b9450620028b78362002850565b925060208a019950506001810190506200288e565b50829750879550505050505092915050565b60006020820190508181036000830152620028fa81846200285d565b905092915050565b600060a08201905062002919600083018862002260565b81810360208301526200292d818762002282565b9050818103604083015262002943818662002282565b9050620029546060830185620022cf565b62002963608083018462002260565b9695505050505050565b60006020828403121562002986576200298562001f79565b5b600082013567ffffffffffffffff811115620029a757620029a662001f7e565b5b620029b58482850162002497565b91505092915050565b6000602082019050620029d5600083018462002260565b92915050565b600080600060608486031215620029f757620029f662001f79565b5b600062002a078682870162001fd1565b935050602062002a1a868287016200257e565b925050604084013567ffffffffffffffff81111562002a3e5762002a3d62001f7e565b5b62002a4c8682870162002497565b9150509250925092565b600081519050919050565b600082825260208201905092915050565b6000819050602082019050919050565b62002a8d8162001fa3565b82525050565b600062002aa1838362002a82565b60208301905092915050565b6000602082019050919050565b600062002ac78262002a56565b62002ad3818562002a61565b935062002ae08362002a72565b8060005b8381101562002b1757815162002afb888262002a93565b975062002b088362002aad565b92505060018101905062002ae4565b5085935050505092915050565b6000602082019050818103600083015262002b40818462002aba565b905092915050565b600067ffffffffffffffff82111562002b665762002b6562002383565b5b602082029050602081019050919050565b600080fd5b600080fd5b600080fd5b60008151905062002b978162002564565b92915050565b600062002bb462002bae8462002407565b620023e8565b90508281526020810184848401111562002bd35762002bd26200237e565b5b62002be0848285620020c4565b509392505050565b600082601f83011262002c005762002bff62002379565b5b815162002c1284826020860162002b9d565b91505092915050565b60006060828403121562002c345762002c3362002b7c565b5b62002c406060620023e8565b9050600062002c528482850162002b86565b600083015250602082015167ffffffffffffffff81111562002c795762002c7862002b81565b5b62002c878482850162002be8565b602083015250604062002c9d8482850162002b86565b60408301525092915050565b600062002cc062002cba8462002b48565b620023e8565b9050808382526020820190506020840283018581111562002ce65762002ce562002b77565b5b835b8181101562002d3457805167ffffffffffffffff81111562002d0f5762002d0e62002379565b5b80860162002d1e898262002c1b565b8552602085019450505060208101905062002ce8565b5050509392505050565b600082601f83011262002d565762002d5562002379565b5b815162002d6884826020860162002ca9565b91505092915050565b60006020828403121562002d8a5762002d8962001f79565b5b600082015167ffffffffffffffff81111562002dab5762002daa62001f7e565b5b62002db98482850162002d3e565b91505092915050565b7f4e487b7100000000000000000000000000000000000000000000000000000000600052602260045260246000fd5b6000600282049050600182168062002e0a57607f821691505b60208210810362002e205762002e1f62002dc2565b5b50919050565b60006020828403121562002e3f5762002e3e62001f79565b5b600062002e4f8482850162002b86565b91505092915050565b60008190508160005260206000209050919050565b6000815462002e7c8162002df1565b62002e88818662002271565b9450600182166000811462002ea6576001811462002ebd5762002ef4565b60ff19831686528115156020028601935062002ef4565b62002ec88562002e58565b60005b8381101562002eec5781548189015260018201915060208101905062002ecb565b808801955050505b50505092915050565b6000608082019050818103600083015262002f19818762002282565b9050818103602083015262002f2f818662002282565b9050818103604083015262002f45818562002e6d565b905062002f566060830184620022cf565b95945050505050565b600081905092915050565b600062002f7782620020a8565b62002f83818562002f5f565b935062002f95818560208601620020c4565b80840191505092915050565b600062002faf828462002f6a565b915081905092915050565b600060408201905062002fd160008301856200234b565b818103602083015262002fe5818462002282565b90509392505050565b600067ffffffffffffffff8211156200300c576200300b62002383565b5b602082029050602081019050919050565b6200302881620022c3565b81146200303457600080fd5b50565b60008151905062003048816200301d565b92915050565b600060e0828403121562003067576200306662002b7c565b5b6200307360e0620023e8565b90506000620030858482850162002b86565b600083015250602082015167ffffffffffffffff811115620030ac57620030ab62002b81565b5b620030ba8482850162002be8565b6020830152506040620030d08482850162002b86565b6040830152506060620030e68482850162002b86565b606083015250608082015167ffffffffffffffff8111156200310d576200310c62002b81565b5b6200311b8482850162002be8565b60808301525060a082015167ffffffffffffffff81111562003142576200314162002b81565b5b620031508482850162002be8565b60a08301525060c0620031668482850162003037565b60c08301525092915050565b600062003189620031838462002fee565b620023e8565b90508083825260208201905060208402830185811115620031af57620031ae62002b77565b5b835b81811015620031fd57805167ffffffffffffffff811115620031d857620031d762002379565b5b808601620031e789826200304e565b85526020850194505050602081019050620031b1565b5050509392505050565b600082601f8301126200321f576200321e62002379565b5b81516200323184826020860162003172565b91505092915050565b60006020828403121562003253576200325262001f79565b5b600082015167ffffffffffffffff81111562003274576200327362001f7e565b5b620032828482850162003207565b91505092915050565b60006020601f8301049050919050565b600082821b905092915050565b600060088302620032da7fffffffffffffffffffffffffffffffffffffffffffffffffffffffffffffffff826200329b565b620032e686836200329b565b95508019841693508086168417925050509392505050565b6000819050919050565b600062003329620033236200331d846200208d565b620032fe565b6200208d565b9050919050565b6000819050919050565b620033458362003308565b6200335d620033548262003330565b848454620032a8565b825550505050565b600090565b6200337462003365565b620033818184846200333a565b505050565b5b81811015620033a9576200339d6000826200336a565b60018101905062003387565b5050565b601f821115620033f857620033c28162002e58565b620033cd846200328b565b81016020851015620033dd578190505b620033f5620033ec856200328b565b83018262003386565b50505b505050565b600082821c905092915050565b60006200341d60001984600802620033fd565b1980831691505092915050565b60006200343883836200340a565b9150826002028217905092915050565b6200345382620020a8565b67ffffffffffffffff8111156200346f576200346e62002383565b5b6200347b825462002df1565b62003488828285620033ad565b600060209050601f831160018114620034c05760008415620034ab578287015190505b620034b785826200342a565b86555062003527565b601f198416620034d08662002e58565b60005b82811015620034fa57848901518255600182019150602085019450602081019050620034d3565b868310156200351a578489015162003516601f8916826200340a565b8355505b6001600288020188555050505b505050505050565b7f4e487b7100000000000000000000000000000000000000000000000000000000600052601160045260246000fd5b60006200356b826200208d565b91507fffffffffffffffffffffffffffffffffffffffffffffffffffffffffffffffff8203620035a0576200359f6200352f565b5b600182019050919050565b600067ffffffffffffffff821115620035c957620035c862002383565b5b602082029050602081019050919050565b600060408284031215620035f357620035f262002b7c565b5b620035ff6040620023e8565b90506000620036118482850162002b86565b600083015250602082015167ffffffffffffffff81111562003638576200363762002b81565b5b620036468482850162002be8565b60208301525092915050565b6000620036696200366384620035ab565b620023e8565b905080838252602082019050602084028301858111156200368f576200368e62002b77565b5b835b81811015620036dd57805167ffffffffffffffff811115620036b857620036b762002379565b5b808601620036c78982620035da565b8552602085019450505060208101905062003691565b5050509392505050565b600082601f830112620036ff57620036fe62002379565b5b81516200371184826020860162003652565b91505092915050565b60006020828403121562003733576200373262001f79565b5b600082015167ffffffffffffffff81111562003754576200375362001f7e565b5b6200376284828501620036e7565b91505092915050565b600067ffffffffffffffff82111562003789576200378862002383565b5b602082029050602081019050919050565b600081519050620037ab8162001fb7565b92915050565b6000620037c8620037c2846200376b565b620023e8565b90508083825260208201905060208402830185811115620037ee57620037ed62002b77565b5b835b818110156200381b57806200380688826200379a565b845260208401935050602081019050620037f0565b5050509392505050565b600082601f8301126200383d576200383c62002379565b5b81516200384f848260208601620037b1565b91505092915050565b60006020828403121562003871576200387062001f79565b5b600082015167ffffffffffffffff81111562003892576200389162001f7e565b5b620038a08482850162003825565b9150509291505056fe60806040523480156200001157600080fd5b5060405162001f8938038062001f89833981810160405281019062000037919062000100565b80600360006101000a81548173ffffffffffffffffffffffffffffffffffffffff021916908373ffffffffffffffffffffffffffffffffffffffff16021790555060008081905550600060018190555060006002819055505062000132565b600080fd5b600073ffffffffffffffffffffffffffffffffffffffff82169050919050565b6000620000c8826200009b565b9050919050565b620000da81620000bb565b8114620000e657600080fd5b50565b600081519050620000fa81620000cf565b92915050565b60006020828403121562000119576200011862000096565b5b60006200012984828501620000e9565b91505092915050565b611e4780620001426000396000f3fe608060405234801561001057600080fd5b50600436106101005760003560e01c806399c50dd111610097578063e22bce2711610066578063e22bce271461027f578063e71ef23d1461029d578063eb058a2f146102b9578063ecf0a45d146102d557610100565b806399c50dd1146101f5578063b1c8384014610211578063bcc9540714610243578063c4d67b091461026157610100565b806360f2e378116100d357806360f2e3781461017b5780636f94a36614610185578063725009d3146101bb57806391f3410c146101d757610100565b806316e31ea31461010557806323f147021461012357806340a179851461014157806341f3004a1461015d575b600080fd5b61010d6102f3565b60405161011a9190610f6d565b60405180910390f35b61012b6102fd565b6040516101389190611078565b60405180910390f35b61015b60048036038101906101569190611220565b61038b565b005b610165610474565b6040516101729190611491565b60405180910390f35b610183610722565b005b61019f600480360381019061019a91906114b3565b61073c565b6040516101b29796959493929190611539565b60405180910390f35b6101d560048036038101906101d091906114b3565b610923565b005b6101df61099f565b6040516101ec91906116cf565b60405180910390f35b61020f600480360381019061020a919061171d565b610b05565b005b61022b600480360381019061022691906114b3565b610b6b565b60405161023a9392919061174a565b60405180910390f35b61024b610c1d565b6040516102589190610f6d565b60405180910390f35b610269610c26565b6040516102769190610f6d565b60405180910390f35b610287610c30565b6040516102949190610f6d565b60405180910390f35b6102b760048036038101906102b291906117b4565b610c3a565b005b6102d360048036038101906102ce9190611220565b610d93565b005b6102dd610df9565b6040516102ea919061196e565b60405180910390f35b6000600154905090565b6060600580548060200260200160405190810160405280929190818152602001828054801561038157602002820191906000526020600020905b8160009054906101000a900473ffffffffffffffffffffffffffffffffffffffff1673ffffffffffffffffffffffffffffffffffffffff1681526020019060010190808311610337575b5050505050905090565b600154600860006001548152602001908152602001600020600001819055508060086000600154815260200190815260200160002060010190816103cf9190611b9c565b5060006008600060015481526020019081526020016000206002018190555060076000838152602001908152602001600020600301600081548092919061041590611c9d565b91905055506001600081548092919061042d90611c9d565b91905055507fb355fcd66e2b46067119b64e24bea4f5f0478651710a06cc627f7b5e94fa04d460015482600060405161046893929190611d20565b60405180910390a15050565b60606000805467ffffffffffffffff811115610493576104926110f5565b5b6040519080825280602002602001820160405280156104cc57816020015b6104b9610ef4565b8152602001906001900390816104b15790505b50905060005b60005481101561071a57600760008281526020019081526020016000206040518060e001604052908160008201548152602001600182018054610514906119bf565b80601f0160208091040260200160405190810160405280929190818152602001828054610540906119bf565b801561058d5780601f106105625761010080835404028352916020019161058d565b820191906000526020600020905b81548152906001019060200180831161057057829003601f168201915b5050505050815260200160028201548152602001600382015481526020016004820180546105ba906119bf565b80601f01602080910402602001604051908101604052809291908181526020018280546105e6906119bf565b80156106335780601f1061060857610100808354040283529160200191610633565b820191906000526020600020905b81548152906001019060200180831161061657829003601f168201915b5050505050815260200160058201805461064c906119bf565b80601f0160208091040260200160405190810160405280929190818152602001828054610678906119bf565b80156106c55780601f1061069a576101008083540402835291602001916106c5565b820191906000526020600020905b8154815290600101906020018083116106a857829003601f168201915b505050505081526020016006820160009054906101000a900460ff1615151515815250508282815181106106fc576106fb611d5e565b5b6020026020010181905250808061071290611c9d565b9150506104d2565b508091505090565b6004600081548092919061073590611c9d565b9190505550565b6007602052806000526040600020600091509050806000015490806001018054610765906119bf565b80601f0160208091040260200160405190810160405280929190818152602001828054610791906119bf565b80156107de5780601f106107b3576101008083540402835291602001916107de565b820191906000526020600020905b8154815290600101906020018083116107c157829003601f168201915b5050505050908060020154908060030154908060040180546107ff906119bf565b80601f016020809104026020016040519081016040528092919081815260200182805461082b906119bf565b80156108785780601f1061084d57610100808354040283529160200191610878565b820191906000526020600020905b81548152906001019060200180831161085b57829003601f168201915b50505050509080600501805461088d906119bf565b80601f01602080910402602001604051908101604052809291908181526020018280546108b9906119bf565b80156109065780601f106108db57610100808354040283529160200191610906565b820191906000526020600020905b8154815290600101906020018083116108e957829003601f168201915b5050505050908060060160009054906101000a900460ff16905087565b60076000828152602001908152602001600020600201600081548092919061094a90611c9d565b91905055507f447c5d872ffc7fa2763b13dd068980191537823d15b95a6566333782d757d94560076000838152602001908152602001600020600201546040516109949190610f6d565b60405180910390a150565b6060600060015467ffffffffffffffff8111156109bf576109be6110f5565b5b6040519080825280602002602001820160405280156109f857816020015b6109e5610f33565b8152602001906001900390816109dd5790505b50905060005b600154811015610afd576008600082815260200190815260200160002060405180606001604052908160008201548152602001600182018054610a40906119bf565b80601f0160208091040260200160405190810160405280929190818152602001828054610a6c906119bf565b8015610ab95780601f10610a8e57610100808354040283529160200191610ab9565b820191906000526020600020905b815481529060010190602001808311610a9c57829003601f168201915b50505050508152602001600282015481525050828281518110610adf57610ade611d5e565b5b60200260200101819052508080610af590611c9d565b9150506109fe565b508091505090565b6005819080600181540180825580915050600190039060005260206000200160009091909190916101000a81548173ffffffffffffffffffffffffffffffffffffffff021916908373ffffffffffffffffffffffffffffffffffffffff16021790555050565b6008602052806000526040600020600091509050806000015490806001018054610b94906119bf565b80601f0160208091040260200160405190810160405280929190818152602001828054610bc0906119bf565b8015610c0d5780601f10610be257610100808354040283529160200191610c0d565b820191906000526020600020905b815481529060010190602001808311610bf057829003601f168201915b5050505050908060020154905083565b60008054905090565b6000600254905090565b6000600454905090565b6000546007600080548152602001908152602001600020600001819055508360076000805481526020019081526020016000206001019081610c7c9190611b9c565b50600060076000805481526020019081526020016000206002018190555060006007600080548152602001908152602001600020600301819055508260076000805481526020019081526020016000206004019081610cdb9190611b9c565b508160076000805481526020019081526020016000206005019081610d009190611b9c565b5080600760008054815260200190815260200160002060060160006101000a81548160ff021916908315150217905550600080815480929190610d4290611c9d565b91905055507f689bb0330c1c7078d60ff9632a4be061f5411d6c6d3cfc8960e175d277f6a53e60005485600080878787604051610d859796959493929190611d8d565b60405180910390a150505050565b60066040518060400160405280848152602001838152509080600181540180825580915050600190039060005260206000209060020201600090919091909150600082015181600001556020820151816001019081610df29190611b9c565b5050505050565b60606006805480602002602001604051908101604052809291908181526020016000905b82821015610eeb578382906000526020600020906002020160405180604001604052908160008201548152602001600182018054610e5a906119bf565b80601f0160208091040260200160405190810160405280929190818152602001828054610e86906119bf565b8015610ed35780601f10610ea857610100808354040283529160200191610ed3565b820191906000526020600020905b815481529060010190602001808311610eb657829003601f168201915b50505050508152505081526020019060010190610e1d565b50505050905090565b6040518060e001604052806000815260200160608152602001600081526020016000815260200160608152602001606081526020016000151581525090565b60405180606001604052806000815260200160608152602001600081525090565b6000819050919050565b610f6781610f54565b82525050565b6000602082019050610f826000830184610f5e565b92915050565b600081519050919050565b600082825260208201905092915050565b6000819050602082019050919050565b600073ffffffffffffffffffffffffffffffffffffffff82169050919050565b6000610fdf82610fb4565b9050919050565b610fef81610fd4565b82525050565b60006110018383610fe6565b60208301905092915050565b6000602082019050919050565b600061102582610f88565b61102f8185610f93565b935061103a83610fa4565b8060005b8381101561106b5781516110528882610ff5565b975061105d8361100d565b92505060018101905061103e565b5085935050505092915050565b60006020820190508181036000830152611092818461101a565b905092915050565b6000604051905090565b600080fd5b600080fd5b6110b781610f54565b81146110c257600080fd5b50565b6000813590506110d4816110ae565b92915050565b600080fd5b600080fd5b6000601f19601f8301169050919050565b7f4e487b7100000000000000000000000000000000000000000000000000000000600052604160045260246000fd5b61112d826110e4565b810181811067ffffffffffffffff8211171561114c5761114b6110f5565b5b80604052505050565b600061115f61109a565b905061116b8282611124565b919050565b600067ffffffffffffffff82111561118b5761118a6110f5565b5b611194826110e4565b9050602081019050919050565b82818337600083830152505050565b60006111c36111be84611170565b611155565b9050828152602081018484840111156111df576111de6110df565b5b6111ea8482856111a1565b509392505050565b600082601f830112611207576112066110da565b5b81356112178482602086016111b0565b91505092915050565b60008060408385031215611237576112366110a4565b5b6000611245858286016110c5565b925050602083013567ffffffffffffffff811115611266576112656110a9565b5b611272858286016111f2565b9150509250929050565b600081519050919050565b600082825260208201905092915050565b6000819050602082019050919050565b6112b181610f54565b82525050565b600081519050919050565b600082825260208201905092915050565b60005b838110156112f15780820151818401526020810190506112d6565b60008484015250505050565b6000611308826112b7565b61131281856112c2565b93506113228185602086016112d3565b61132b816110e4565b840191505092915050565b60008115159050919050565b61134b81611336565b82525050565b600060e08301600083015161136960008601826112a8565b506020830151848203602086015261138182826112fd565b915050604083015161139660408601826112a8565b5060608301516113a960608601826112a8565b50608083015184820360808601526113c182826112fd565b91505060a083015184820360a08601526113db82826112fd565b91505060c08301516113f060c0860182611342565b508091505092915050565b60006114078383611351565b905092915050565b6000602082019050919050565b60006114278261127c565b6114318185611287565b93508360208202850161144385611298565b8060005b8581101561147f578484038952815161146085826113fb565b945061146b8361140f565b925060208a01995050600181019050611447565b50829750879550505050505092915050565b600060208201905081810360008301526114ab818461141c565b905092915050565b6000602082840312156114c9576114c86110a4565b5b60006114d7848285016110c5565b91505092915050565b600082825260208201905092915050565b60006114fc826112b7565b61150681856114e0565b93506115168185602086016112d3565b61151f816110e4565b840191505092915050565b61153381611336565b82525050565b600060e08201905061154e600083018a610f5e565b818103602083015261156081896114f1565b905061156f6040830188610f5e565b61157c6060830187610f5e565b818103608083015261158e81866114f1565b905081810360a08301526115a281856114f1565b90506115b160c083018461152a565b98975050505050505050565b600081519050919050565b600082825260208201905092915050565b6000819050602082019050919050565b600060608301600083015161160160008601826112a8565b506020830151848203602086015261161982826112fd565b915050604083015161162e60408601826112a8565b508091505092915050565b600061164583836115e9565b905092915050565b6000602082019050919050565b6000611665826115bd565b61166f81856115c8565b935083602082028501611681856115d9565b8060005b858110156116bd578484038952815161169e8582611639565b94506116a98361164d565b925060208a01995050600181019050611685565b50829750879550505050505092915050565b600060208201905081810360008301526116e9818461165a565b905092915050565b6116fa81610fd4565b811461170557600080fd5b50565b600081359050611717816116f1565b92915050565b600060208284031215611733576117326110a4565b5b600061174184828501611708565b91505092915050565b600060608201905061175f6000830186610f5e565b818103602083015261177181856114f1565b90506117806040830184610f5e565b949350505050565b61179181611336565b811461179c57600080fd5b50565b6000813590506117ae81611788565b92915050565b600080600080608085870312156117ce576117cd6110a4565b5b600085013567ffffffffffffffff8111156117ec576117eb6110a9565b5b6117f8878288016111f2565b945050602085013567ffffffffffffffff811115611819576118186110a9565b5b611825878288016111f2565b935050604085013567ffffffffffffffff811115611846576118456110a9565b5b611852878288016111f2565b92505060606118638782880161179f565b91505092959194509250565b600081519050919050565b600082825260208201905092915050565b6000819050602082019050919050565b60006040830160008301516118b360008601826112a8565b50602083015184820360208601526118cb82826112fd565b9150508091505092915050565b60006118e4838361189b565b905092915050565b6000602082019050919050565b60006119048261186f565b61190e818561187a565b9350836020820285016119208561188b565b8060005b8581101561195c578484038952815161193d85826118d8565b9450611948836118ec565b925060208a01995050600181019050611924565b50829750879550505050505092915050565b6000602082019050818103600083015261198881846118f9565b905092915050565b7f4e487b7100000000000000000000000000000000000000000000000000000000600052602260045260246000fd5b600060028204905060018216806119d757607f821691505b6020821081036119ea576119e9611990565b5b50919050565b60008190508160005260206000209050919050565b60006020601f8301049050919050565b600082821b905092915050565b600060088302611a527fffffffffffffffffffffffffffffffffffffffffffffffffffffffffffffffff82611a15565b611a5c8683611a15565b95508019841693508086168417925050509392505050565b6000819050919050565b6000611a99611a94611a8f84610f54565b611a74565b610f54565b9050919050565b6000819050919050565b611ab383611a7e565b611ac7611abf82611aa0565b848454611a22565b825550505050565b600090565b611adc611acf565b611ae7818484611aaa565b505050565b5b81811015611b0b57611b00600082611ad4565b600181019050611aed565b5050565b601f821115611b5057611b21816119f0565b611b2a84611a05565b81016020851015611b39578190505b611b4d611b4585611a05565b830182611aec565b50505b505050565b600082821c905092915050565b6000611b7360001984600802611b55565b1980831691505092915050565b6000611b8c8383611b62565b9150826002028217905092915050565b611ba5826112b7565b67ffffffffffffffff811115611bbe57611bbd6110f5565b5b611bc882546119bf565b611bd3828285611b0f565b600060209050601f831160018114611c065760008415611bf4578287015190505b611bfe8582611b80565b865550611c66565b601f198416611c14866119f0565b60005b82811015611c3c57848901518255600182019150602085019450602081019050611c17565b86831015611c595784890151611c55601f891682611b62565b8355505b6001600288020188555050505b505050505050565b7f4e487b7100000000000000000000000000000000000000000000000000000000600052601160045260246000fd5b6000611ca882610f54565b91507fffffffffffffffffffffffffffffffffffffffffffffffffffffffffffffffff8203611cda57611cd9611c6e565b5b600182019050919050565b6000819050919050565b6000611d0a611d05611d0084611ce5565b611a74565b610f54565b9050919050565b611d1a81611cef565b82525050565b6000606082019050611d356000830186610f5e565b8181036020830152611d4781856114f1565b9050611d566040830184611d11565b949350505050565b7f4e487b7100000000000000000000000000000000000000000000000000000000600052603260045260246000fd5b600060e082019050611da2600083018a610f5e565b8181036020830152611db481896114f1565b9050611dc36040830188611d11565b611dd06060830187611d11565b8181036080830152611de281866114f1565b905081810360a0830152611df681856114f1565b9050611e0560c083018461152a565b9897505050505050505056fea2646970667358221220028711e787641e47db917c82daab412a31b5a05d627c4ce329c5d89bde747da864736f6c63430008110033a26469706673582212203f54b9801db878abe6a65d890aaabde484d2e8928a23dd9e77afce106073e0fd64736f6c63430008110033",
  "immutableReferences": {},
  "source": "// SPDX-License-Identifier: GPL-3.0\r\npragma solidity >=0.8.0;\r\n\r\ncontract Maincontract {\r\n    uint256 userCounts;\r\n    uint256 verifiedUserCounts;\r\n\r\n    constructor() {\r\n        userCounts = 0;\r\n        verifiedUserCounts = 0;\r\n    }\r\n\r\n    struct UserStruct {\r\n        address walletId;\r\n        address userContractAddress;\r\n        string userName;\r\n        string password;\r\n        bool isVerified;\r\n    }\r\n\r\n    event User(\r\n        address walletId,\r\n        address userContractAddress,\r\n        string userName,\r\n        string password,\r\n        bool isVerified\r\n    );\r\n\r\n    mapping(address => UserStruct) public userStructs;\r\n    mapping(string => address) public userNameToWalletId;\r\n\r\n    function createUser(\r\n        address _walletId,\r\n        string memory _userName,\r\n        string memory _password\r\n    ) public {\r\n        address uca = address(new UserContract(_walletId));\r\n        userStructs[_walletId].walletId = _walletId;\r\n        userStructs[_walletId].userName = _userName;\r\n        userStructs[_walletId].password = _password;\r\n        userStructs[_walletId].isVerified = false;\r\n        userStructs[_walletId].userContractAddress = uca;\r\n        userCounts++;\r\n        userNameToWalletId[_userName] = _walletId;\r\n        emit User(_walletId, uca, _userName, _password, false);\r\n    }\r\n\r\n    function getUser(address _walletId)\r\n        public\r\n        view\r\n        returns (\r\n            address,\r\n            string memory,\r\n            string memory,\r\n            bool,\r\n            address\r\n        )\r\n    {\r\n        if (userStructs[_walletId].walletId == address(0)) {\r\n            return (\r\n                address(0),\r\n                \"account does not exist\",\r\n                \"\",\r\n                false,\r\n                address(0)\r\n            );\r\n        }\r\n        return (\r\n            userStructs[_walletId].walletId,\r\n            userStructs[_walletId].userName,\r\n            userStructs[_walletId].password,\r\n            userStructs[_walletId].isVerified,\r\n            userStructs[_walletId].userContractAddress\r\n        );\r\n    }\r\n\r\n    function getUserByUserName(string memory _userName)\r\n        public\r\n        view\r\n        returns (\r\n            address,\r\n            string memory,\r\n            string memory,\r\n            bool,\r\n            address\r\n        )\r\n    {\r\n        address _walletId = userNameToWalletId[_userName];\r\n        if (userStructs[_walletId].walletId == address(0)) {\r\n            return (\r\n                address(0),\r\n                \"account does not exist\",\r\n                \"\",\r\n                false,\r\n                address(0)\r\n            );\r\n        }\r\n        return (\r\n            userStructs[_walletId].walletId,\r\n            userStructs[_walletId].userName,\r\n            userStructs[_walletId].password,\r\n            userStructs[_walletId].isVerified,\r\n            userStructs[_walletId].userContractAddress\r\n        );\r\n    }\r\n\r\n    function getUserCount() public view returns (uint256) {\r\n        return userCounts;\r\n    }\r\n\r\n    function getVerifiedUserCount() public view returns (uint256) {\r\n        return verifiedUserCounts;\r\n    }\r\n\r\n    function verifyUser(address _walletId) public {\r\n        userStructs[_walletId].isVerified = true;\r\n        verifiedUserCounts++;\r\n    }\r\n\r\n    function makePost(\r\n        address _walletId,\r\n        string memory _postContent,\r\n        string memory timeStamp\r\n    ) public {\r\n        UserContract uc = UserContract(\r\n            userStructs[_walletId].userContractAddress\r\n        );\r\n        uc.createPost(\r\n            _postContent,\r\n            timeStamp,\r\n            userStructs[_walletId].userName,\r\n            userStructs[_walletId].isVerified\r\n        );\r\n    }\r\n\r\n    function makeComment(\r\n        address _walletId,\r\n        uint256 _postId,\r\n        string memory _commentContent\r\n    ) public {\r\n        UserContract uc = UserContract(\r\n            userStructs[_walletId].userContractAddress\r\n        );\r\n        uc.createComment(_postId, _commentContent);\r\n    }\r\n\r\n    function likePost(\r\n        string memory _userName,\r\n        uint256 _postId,\r\n        address _myWalletId\r\n    ) public {\r\n        address _walletId = userNameToWalletId[_userName];\r\n        UserContract uc = UserContract(\r\n            userStructs[_walletId].userContractAddress\r\n        );\r\n        uc.likePost(_postId);\r\n        UserContract ucf = UserContract(\r\n            userStructs[_myWalletId].userContractAddress\r\n        );\r\n        // concat postId and userName\r\n        // string memory _postIdAndUserName = string(\r\n        //     abi.encodePacked(_postId, \" \", _userName)\r\n        // );\r\n        ucf.updateMylikes(_postId, _userName);\r\n    }\r\n\r\n    function followUser(address _walletId, address _followingId) public {\r\n        UserContract uc = UserContract(\r\n            userStructs[_walletId].userContractAddress\r\n        );\r\n        uc.followSomeone(_followingId);\r\n        UserContract ucf = UserContract(\r\n            userStructs[_followingId].userContractAddress\r\n        );\r\n        ucf.updateFollowersCount();\r\n    }\r\n\r\n    function getFollowing(address _walletId)\r\n        public\r\n        view\r\n        returns (address[] memory)\r\n    {\r\n        UserContract uc = UserContract(\r\n            userStructs[_walletId].userContractAddress\r\n        );\r\n        return uc.getFollowing();\r\n    }\r\n\r\n    function getFollowersCount(address _walletId)\r\n        public\r\n        view\r\n        returns (uint256)\r\n    {\r\n        UserContract uc = UserContract(\r\n            userStructs[_walletId].userContractAddress\r\n        );\r\n        return uc.getFollowersCount();\r\n    }\r\n\r\n    function getPosts(address _walletId)\r\n        public\r\n        view\r\n        returns (UserContract.PostStruct[] memory)\r\n    {\r\n        UserContract uc = UserContract(\r\n            userStructs[_walletId].userContractAddress\r\n        );\r\n        return uc.getPosts();\r\n    }\r\n\r\n    function getComments(address _walletId)\r\n        public\r\n        view\r\n        returns (UserContract.CommentStruct[] memory)\r\n    {\r\n        UserContract uc = UserContract(\r\n            userStructs[_walletId].userContractAddress\r\n        );\r\n        return uc.getComments();\r\n    }\r\n\r\n    function getPostCount(address _walletId) public view returns (uint256) {\r\n        UserContract uc = UserContract(\r\n            userStructs[_walletId].userContractAddress\r\n        );\r\n        return uc.getPostCount();\r\n    }\r\n\r\n    function getCommentCount(address _walletId) public view returns (uint256) {\r\n        UserContract uc = UserContract(\r\n            userStructs[_walletId].userContractAddress\r\n        );\r\n        return uc.getCommentCount();\r\n    }\r\n\r\n    function getLikeCount(address _walletId) public view returns (uint256) {\r\n        UserContract uc = UserContract(\r\n            userStructs[_walletId].userContractAddress\r\n        );\r\n        return uc.getLikeCount();\r\n    }\r\n\r\n    function getMyLikes(address _walletId)\r\n        public\r\n        view\r\n        returns (UserContract.myLikeStruct[] memory)\r\n    {\r\n        UserContract uc = UserContract(\r\n            userStructs[_walletId].userContractAddress\r\n        );\r\n        return uc.getMyLikes();\r\n    }\r\n}\r\n\r\n///////////////////////////////////////////////////////////////////////////////////////////////////////////////////////////////////////\r\n\r\ncontract UserContract {\r\n    uint256 postCounts;\r\n    uint256 commentCounts;\r\n    uint256 likeCounts;\r\n    address owner;\r\n    uint256 followersCount;\r\n    address[] following;\r\n    myLikeStruct[] myLikes;\r\n\r\n    constructor(address walletId) {\r\n        owner = walletId;\r\n        postCounts = 0;\r\n        commentCounts = 0;\r\n        likeCounts = 0;\r\n    }\r\n\r\n    struct PostStruct {\r\n        uint256 postId;\r\n        string postContent;\r\n        uint256 likeCount;\r\n        uint256 commentCount;\r\n        string timeStamp;\r\n        string userName;\r\n        bool isVerified;\r\n    }\r\n    struct CommentStruct {\r\n        uint256 commentId;\r\n        string commentContent;\r\n        uint256 likeCount;\r\n    }\r\n    struct myLikeStruct {\r\n        uint256 postId;\r\n        string userName;\r\n    }\r\n    event Post(\r\n        uint256 postId,\r\n        string postContent,\r\n        uint256 likeCount,\r\n        uint256 commentCount,\r\n        string timeStamp,\r\n        string userName,\r\n        bool isVerified\r\n    );\r\n    event Comment(uint256 commentId, string commentContent, uint256 likeCount);\r\n    event Like(uint256 likeCount);\r\n\r\n    mapping(uint256 => PostStruct) public postStructs;\r\n    mapping(uint256 => CommentStruct) public commentStructs;\r\n\r\n    function createPost(\r\n        string memory _postContent,\r\n        string memory timeStamp,\r\n        string memory userName,\r\n        bool isVerified\r\n    ) public {\r\n        postStructs[postCounts].postId = postCounts;\r\n        postStructs[postCounts].postContent = _postContent;\r\n        postStructs[postCounts].likeCount = 0;\r\n        postStructs[postCounts].commentCount = 0;\r\n        postStructs[postCounts].timeStamp = timeStamp;\r\n        postStructs[postCounts].userName = userName;\r\n        postStructs[postCounts].isVerified = isVerified;\r\n\r\n        postCounts++;\r\n        emit Post(\r\n            postCounts,\r\n            _postContent,\r\n            0,\r\n            0,\r\n            timeStamp,\r\n            userName,\r\n            isVerified\r\n        );\r\n    }\r\n\r\n    function createComment(uint256 _postId, string memory _commentContent)\r\n        public\r\n    {\r\n        commentStructs[commentCounts].commentId = commentCounts;\r\n        commentStructs[commentCounts].commentContent = _commentContent;\r\n        commentStructs[commentCounts].likeCount = 0;\r\n        postStructs[_postId].commentCount++;\r\n        commentCounts++;\r\n        emit Comment(commentCounts, _commentContent, 0);\r\n    }\r\n\r\n    function likePost(uint256 _postId) public {\r\n        postStructs[_postId].likeCount++;\r\n        emit Like(postStructs[_postId].likeCount);\r\n    }\r\n\r\n    function updateMylikes(uint256 _postId, string memory _userName) public {\r\n        myLikes.push(myLikeStruct(_postId, _userName));\r\n    }\r\n\r\n    function followSomeone(address _walletId) public {\r\n        following.push(_walletId);\r\n    }\r\n\r\n    function updateFollowersCount() public {\r\n        followersCount++;\r\n    }\r\n\r\n    function getFollowersCount() public view returns (uint256) {\r\n        return followersCount;\r\n    }\r\n\r\n    function getFollowing() public view returns (address[] memory) {\r\n        return following;\r\n    }\r\n\r\n    function getPosts() public view returns (PostStruct[] memory) {\r\n        PostStruct[] memory posts = new PostStruct[](postCounts);\r\n        for (uint256 i = 0; i < postCounts; i++) {\r\n            posts[i] = postStructs[i];\r\n        }\r\n        return posts;\r\n    }\r\n\r\n    function getComments() public view returns (CommentStruct[] memory) {\r\n        CommentStruct[] memory comments = new CommentStruct[](commentCounts);\r\n        for (uint256 i = 0; i < commentCounts; i++) {\r\n            comments[i] = commentStructs[i];\r\n        }\r\n        return comments;\r\n    }\r\n\r\n    function getPostCount() public view returns (uint256) {\r\n        return postCounts;\r\n    }\r\n\r\n    function getCommentCount() public view returns (uint256) {\r\n        return commentCounts;\r\n    }\r\n\r\n    function getLikeCount() public view returns (uint256) {\r\n        return likeCounts;\r\n    }\r\n\r\n    function getMyLikes() public view returns (myLikeStruct[] memory) {\r\n        return myLikes;\r\n    }\r\n}\r\n",
  "sourcePath": "D:\\Users\\Desktop\\BOOOKS\\SEMESTER 7\\BCT\\Project\\DE-Verse\\smartcontract\\contracts\\Main.sol",
  "compiler": {
    "name": "solc",
    "version": "0.8.17+commit.8df45f5f.Emscripten.clang"
  },
  "schemaVersion": "3.4.10",
  "updatedAt": "2022-12-23T16:33:02.481Z",
  "networkType": "ethereum",
  "devdoc": {
    "kind": "dev",
    "methods": {},
    "version": 1
  },
  "userdoc": {
    "kind": "user",
    "methods": {},
    "version": 1
  }
}