{
  "contractName": "Maincontract",
  "abi": [
    {
      "inputs": [],
      "stateMutability": "nonpayable",
      "type": "constructor"
    },
    {
      "anonymous": false,
      "inputs": [
        {
          "indexed": false,
          "internalType": "uint256",
          "name": "postId",
          "type": "uint256"
        },
        {
          "indexed": false,
          "internalType": "string",
          "name": "postContent",
          "type": "string"
        },
        {
          "indexed": false,
          "internalType": "uint256",
          "name": "likeCount",
          "type": "uint256"
        },
        {
          "indexed": false,
          "internalType": "uint256",
          "name": "commentCount",
          "type": "uint256"
        },
        {
          "indexed": false,
          "internalType": "string",
          "name": "timeStamp",
          "type": "string"
        },
        {
          "indexed": false,
          "internalType": "string",
          "name": "userName",
          "type": "string"
        },
        {
          "indexed": false,
          "internalType": "bool",
          "name": "isVerified",
          "type": "bool"
        }
      ],
      "name": "Post",
      "type": "event"
    },
    {
      "anonymous": false,
      "inputs": [
        {
          "indexed": false,
          "internalType": "address",
          "name": "walletId",
          "type": "address"
        },
        {
          "indexed": false,
          "internalType": "address",
          "name": "userContractAddress",
          "type": "address"
        },
        {
          "indexed": false,
          "internalType": "string",
          "name": "userName",
          "type": "string"
        },
        {
          "indexed": false,
          "internalType": "string",
          "name": "password",
          "type": "string"
        },
        {
          "indexed": false,
          "internalType": "bool",
          "name": "isVerified",
          "type": "bool"
        }
      ],
      "name": "User",
      "type": "event"
    },
    {
      "inputs": [
        {
          "internalType": "uint256",
          "name": "",
          "type": "uint256"
        }
      ],
      "name": "numberToWalletId",
      "outputs": [
        {
          "internalType": "address",
          "name": "",
          "type": "address"
        }
      ],
      "stateMutability": "view",
      "type": "function",
      "constant": true
    },
    {
      "inputs": [
        {
          "internalType": "string",
          "name": "",
          "type": "string"
        }
      ],
      "name": "userNameToWalletId",
      "outputs": [
        {
          "internalType": "address",
          "name": "",
          "type": "address"
        }
      ],
      "stateMutability": "view",
      "type": "function",
      "constant": true
    },
    {
      "inputs": [
        {
          "internalType": "uint256",
          "name": "",
          "type": "uint256"
        }
      ],
      "name": "userNames",
      "outputs": [
        {
          "internalType": "string",
          "name": "",
          "type": "string"
        }
      ],
      "stateMutability": "view",
      "type": "function",
      "constant": true
    },
    {
      "inputs": [
        {
          "internalType": "address",
          "name": "",
          "type": "address"
        }
      ],
      "name": "userStructs",
      "outputs": [
        {
          "internalType": "address",
          "name": "walletId",
          "type": "address"
        },
        {
          "internalType": "address",
          "name": "userContractAddress",
          "type": "address"
        },
        {
          "internalType": "string",
          "name": "userName",
          "type": "string"
        },
        {
          "internalType": "string",
          "name": "password",
          "type": "string"
        },
        {
          "internalType": "bool",
          "name": "isVerified",
          "type": "bool"
        }
      ],
      "stateMutability": "view",
      "type": "function",
      "constant": true
    },
    {
      "inputs": [
        {
          "internalType": "address",
          "name": "_walletId",
          "type": "address"
        },
        {
          "internalType": "string",
          "name": "_userName",
          "type": "string"
        },
        {
          "internalType": "string",
          "name": "_password",
          "type": "string"
        }
      ],
      "name": "createUser",
      "outputs": [],
      "stateMutability": "nonpayable",
      "type": "function"
    },
    {
      "inputs": [],
      "name": "getAllUserNames",
      "outputs": [
        {
          "internalType": "string[]",
          "name": "",
          "type": "string[]"
        }
      ],
      "stateMutability": "view",
      "type": "function",
      "constant": true
    },
    {
      "inputs": [
        {
          "internalType": "address",
          "name": "_walletId",
          "type": "address"
        }
      ],
      "name": "getUser",
      "outputs": [
        {
          "internalType": "address",
          "name": "",
          "type": "address"
        },
        {
          "internalType": "string",
          "name": "",
          "type": "string"
        },
        {
          "internalType": "string",
          "name": "",
          "type": "string"
        },
        {
          "internalType": "bool",
          "name": "",
          "type": "bool"
        },
        {
          "internalType": "address",
          "name": "",
          "type": "address"
        }
      ],
      "stateMutability": "view",
      "type": "function",
      "constant": true
    },
    {
      "inputs": [
        {
          "internalType": "string",
          "name": "_userName",
          "type": "string"
        }
      ],
      "name": "getUserByUserName",
      "outputs": [
        {
          "internalType": "address",
          "name": "",
          "type": "address"
        },
        {
          "internalType": "string",
          "name": "",
          "type": "string"
        },
        {
          "internalType": "string",
          "name": "",
          "type": "string"
        },
        {
          "internalType": "bool",
          "name": "",
          "type": "bool"
        },
        {
          "internalType": "address",
          "name": "",
          "type": "address"
        }
      ],
      "stateMutability": "view",
      "type": "function",
      "constant": true
    },
    {
      "inputs": [],
      "name": "getUserCount",
      "outputs": [
        {
          "internalType": "uint256",
          "name": "",
          "type": "uint256"
        }
      ],
      "stateMutability": "view",
      "type": "function",
      "constant": true
    },
    {
      "inputs": [],
      "name": "getVerifiedUserCount",
      "outputs": [
        {
          "internalType": "uint256",
          "name": "",
          "type": "uint256"
        }
      ],
      "stateMutability": "view",
      "type": "function",
      "constant": true
    },
    {
      "inputs": [
        {
          "internalType": "address",
          "name": "_walletId",
          "type": "address"
        }
      ],
      "name": "verifyUser",
      "outputs": [],
      "stateMutability": "nonpayable",
      "type": "function"
    },
    {
      "inputs": [
        {
          "internalType": "address",
          "name": "_walletId",
          "type": "address"
        },
        {
          "internalType": "string",
          "name": "_postContent",
          "type": "string"
        },
        {
          "internalType": "string",
          "name": "timeStamp",
          "type": "string"
        }
      ],
      "name": "makePost",
      "outputs": [],
      "stateMutability": "nonpayable",
      "type": "function"
    },
    {
      "inputs": [
        {
          "internalType": "string",
          "name": "_comment",
          "type": "string"
        },
        {
          "internalType": "string",
          "name": "_postOwner",
          "type": "string"
        },
        {
          "internalType": "uint256",
          "name": "_postId",
          "type": "uint256"
        }
      ],
      "name": "makeComment",
      "outputs": [],
      "stateMutability": "nonpayable",
      "type": "function"
    },
    {
      "inputs": [
        {
          "internalType": "string",
          "name": "_postOwner",
          "type": "string"
        }
      ],
      "name": "getComments",
      "outputs": [
        {
          "internalType": "string[]",
          "name": "",
          "type": "string[]"
        }
      ],
      "stateMutability": "view",
      "type": "function",
      "constant": true
    },
    {
      "inputs": [
        {
          "internalType": "string",
          "name": "_userName",
          "type": "string"
        },
        {
          "internalType": "uint256",
          "name": "_postId",
          "type": "uint256"
        },
        {
          "internalType": "address",
          "name": "_myWalletId",
          "type": "address"
        }
      ],
      "name": "likePost",
      "outputs": [],
      "stateMutability": "nonpayable",
      "type": "function"
    },
    {
      "inputs": [
        {
          "internalType": "address",
          "name": "_walletId",
          "type": "address"
        },
        {
          "internalType": "address",
          "name": "_followingId",
          "type": "address"
        }
      ],
      "name": "followUser",
      "outputs": [],
      "stateMutability": "nonpayable",
      "type": "function"
    },
    {
      "inputs": [
        {
          "internalType": "address",
          "name": "_walletId",
          "type": "address"
        }
      ],
      "name": "getFollowing",
      "outputs": [
        {
          "internalType": "address[]",
          "name": "",
          "type": "address[]"
        }
      ],
      "stateMutability": "view",
      "type": "function",
      "constant": true
    },
    {
      "inputs": [
        {
          "internalType": "address",
          "name": "_walletId",
          "type": "address"
        }
      ],
      "name": "getFollowersCount",
      "outputs": [
        {
          "internalType": "uint256",
          "name": "",
          "type": "uint256"
        }
      ],
      "stateMutability": "view",
      "type": "function",
      "constant": true
    },
    {
      "inputs": [
        {
          "internalType": "address",
          "name": "_walletId",
          "type": "address"
        }
      ],
      "name": "getPosts",
      "outputs": [
        {
          "components": [
            {
              "internalType": "uint256",
              "name": "postId",
              "type": "uint256"
            },
            {
              "internalType": "string",
              "name": "postContent",
              "type": "string"
            },
            {
              "internalType": "uint256",
              "name": "likeCount",
              "type": "uint256"
            },
            {
              "internalType": "uint256",
              "name": "commentCount",
              "type": "uint256"
            },
            {
              "internalType": "string",
              "name": "timeStamp",
              "type": "string"
            },
            {
              "internalType": "string",
              "name": "userName",
              "type": "string"
            },
            {
              "internalType": "bool",
              "name": "isVerified",
              "type": "bool"
            }
          ],
          "internalType": "struct UserContract.PostStruct[]",
          "name": "",
          "type": "tuple[]"
        }
      ],
      "stateMutability": "view",
      "type": "function",
      "constant": true
    },
    {
      "inputs": [],
      "name": "getAllUsersAddress",
      "outputs": [
        {
          "internalType": "address[]",
          "name": "",
          "type": "address[]"
        }
      ],
      "stateMutability": "view",
      "type": "function",
      "constant": true
    },
    {
      "inputs": [
        {
          "internalType": "address",
          "name": "_walletId",
          "type": "address"
        }
      ],
      "name": "getPostCount",
      "outputs": [
        {
          "internalType": "uint256",
          "name": "",
          "type": "uint256"
        }
      ],
      "stateMutability": "view",
      "type": "function",
      "constant": true
    },
    {
      "inputs": [
        {
          "internalType": "address",
          "name": "_walletId",
          "type": "address"
        }
      ],
      "name": "getCommentCount",
      "outputs": [
        {
          "internalType": "uint256",
          "name": "",
          "type": "uint256"
        }
      ],
      "stateMutability": "view",
      "type": "function",
      "constant": true
    },
    {
      "inputs": [
        {
          "internalType": "address",
          "name": "_walletId",
          "type": "address"
        }
      ],
      "name": "getLikeCount",
      "outputs": [
        {
          "internalType": "uint256",
          "name": "",
          "type": "uint256"
        }
      ],
      "stateMutability": "view",
      "type": "function",
      "constant": true
    },
    {
      "inputs": [
        {
          "internalType": "address",
          "name": "_walletId",
          "type": "address"
        }
      ],
      "name": "getMyLikes",
      "outputs": [
        {
          "components": [
            {
              "internalType": "uint256",
              "name": "postId",
              "type": "uint256"
            },
            {
              "internalType": "string",
              "name": "userName",
              "type": "string"
            }
          ],
          "internalType": "struct UserContract.myLikeStruct[]",
          "name": "",
          "type": "tuple[]"
        }
      ],
      "stateMutability": "view",
      "type": "function",
      "constant": true
    }
  ],
  "bytecode": "0x608060405234801561001057600080fd5b50600080819055506000600181905550615a0a8061002f6000396000f3fe60806040523480156200001157600080fd5b5060043610620001785760003560e01c80635f329fb211620000d5578063a9b2e7151162000087578063a9b2e71514620004bb578063b5cb15f714620004dd578063be6c898714620004ff578063be9a09cf1462000539578063d8236dff1462000559578063e94456a7146200058f5762000178565b80635f329fb214620003875780636f77926b14620003bd57806370c63fcc14620003f757806380cf7dee146200042d578063840f65511462000463578063a4c7fafa14620004855762000178565b80634c787ce1116200012f5780634c787ce114620002835780634caf9d0b14620002a55780634ceb48fd14620002db5780634d1a307214620002fb5780634d81312014620003315780634ebd3aea14620003515762000178565b80630b6b5537146200017d5780630c8273e614620001b357806319447eb614620001d357806325e9ccf9146200020d5780633c41008614620002435780633eaf1c271462000263575b600080fd5b6200019b60048036038101906200019591906200242c565b620005c5565b604051620001aa9190620024a3565b60405180910390f35b620001d16004803603810190620001cb9190620024f1565b62000605565b005b620001f16004803603810190620001eb919062002538565b620007aa565b6040516200020495949392919062002621565b60405180910390f35b6200022b600480360381019062000225919062002538565b6200094d565b6040516200023a91906200269d565b60405180910390f35b6200026160048036038101906200025b91906200280b565b62000a2f565b005b6200028160048036038101906200027b9190620028a5565b62000ba1565b005b6200028d62000d9c565b6040516200029c9190620029ee565b60405180910390f35b620002c36004803603810190620002bd919062002538565b62000e2c565b604051620002d2919062002c0e565b60405180910390f35b620002f96004803603810190620002f391906200280b565b62000f14565b005b62000319600480360381019062000313919062002538565b620012ac565b60405162000328919062002d43565b60405180910390f35b6200034f600480360381019062000349919062002538565b62001394565b005b6200036f60048036038101906200036991906200242c565b6200140c565b6040516200037e919062002d67565b60405180910390f35b620003a560048036038101906200039f919062002538565b620014c1565b604051620003b491906200269d565b60405180910390f35b620003db6004803603810190620003d5919062002538565b620015a3565b604051620003ee95949392919062002d8b565b60405180910390f35b6200041560048036038101906200040f919062002df6565b62001977565b60405162000424919062002f17565b60405180910390f35b6200044b600480360381019062000445919062002df6565b62001aa5565b6040516200045a9190620024a3565b60405180910390f35b6200046d62001aee565b6040516200047c919062002f17565b60405180910390f35b620004a360048036038101906200049d919062002538565b62001bd1565b604051620004b291906200269d565b60405180910390f35b620004c562001cb3565b604051620004d491906200269d565b60405180910390f35b620004e762001cbd565b604051620004f691906200269d565b60405180910390f35b6200051d600480360381019062000517919062002df6565b62001cc6565b6040516200053095949392919062002d8b565b60405180910390f35b62000557600480360381019062000551919062002f3b565b620020e1565b005b62000577600480360381019062000571919062002538565b62002205565b604051620005869190620029ee565b60405180910390f35b620005ad6004803603810190620005a7919062002538565b620022ed565b604051620005bc91906200269d565b60405180910390f35b60048181548110620005d657600080fd5b906000526020600020016000915054906101000a900473ffffffffffffffffffffffffffffffffffffffff1681565b6000600260008473ffffffffffffffffffffffffffffffffffffffff1673ffffffffffffffffffffffffffffffffffffffff16815260200190815260200160002060010160009054906101000a900473ffffffffffffffffffffffffffffffffffffffff1690508073ffffffffffffffffffffffffffffffffffffffff166399c50dd1836040518263ffffffff1660e01b8152600401620006a79190620024a3565b600060405180830381600087803b158015620006c257600080fd5b505af1158015620006d7573d6000803e3d6000fd5b505050506000600260008473ffffffffffffffffffffffffffffffffffffffff1673ffffffffffffffffffffffffffffffffffffffff16815260200190815260200160002060010160009054906101000a900473ffffffffffffffffffffffffffffffffffffffff1690508073ffffffffffffffffffffffffffffffffffffffff166360f2e3786040518163ffffffff1660e01b8152600401600060405180830381600087803b1580156200078b57600080fd5b505af1158015620007a0573d6000803e3d6000fd5b5050505050505050565b60026020528060005260406000206000915090508060000160009054906101000a900473ffffffffffffffffffffffffffffffffffffffff16908060010160009054906101000a900473ffffffffffffffffffffffffffffffffffffffff16908060020180546200081b9062003004565b80601f0160208091040260200160405190810160405280929190818152602001828054620008499062003004565b80156200089a5780601f106200086e576101008083540402835291602001916200089a565b820191906000526020600020905b8154815290600101906020018083116200087c57829003601f168201915b505050505090806003018054620008b19062003004565b80601f0160208091040260200160405190810160405280929190818152602001828054620008df9062003004565b8015620009305780601f10620009045761010080835404028352916020019162000930565b820191906000526020600020905b8154815290600101906020018083116200091257829003601f168201915b5050505050908060040160009054906101000a900460ff16905085565b600080600260008473ffffffffffffffffffffffffffffffffffffffff1673ffffffffffffffffffffffffffffffffffffffff16815260200190815260200160002060010160009054906101000a900473ffffffffffffffffffffffffffffffffffffffff1690508073ffffffffffffffffffffffffffffffffffffffff1663e22bce276040518163ffffffff1660e01b8152600401602060405180830381865afa15801562000a01573d6000803e3d6000fd5b505050506040513d601f19601f8201168201806040525081019062000a27919062003050565b915050919050565b6000600260008573ffffffffffffffffffffffffffffffffffffffff1673ffffffffffffffffffffffffffffffffffffffff16815260200190815260200160002060010160009054906101000a900473ffffffffffffffffffffffffffffffffffffffff1690508073ffffffffffffffffffffffffffffffffffffffff1663e71ef23d8484600260008973ffffffffffffffffffffffffffffffffffffffff1673ffffffffffffffffffffffffffffffffffffffff168152602001908152602001600020600201600260008a73ffffffffffffffffffffffffffffffffffffffff1673ffffffffffffffffffffffffffffffffffffffff16815260200190815260200160002060040160009054906101000a900460ff166040518563ffffffff1660e01b815260040162000b67949392919062003127565b600060405180830381600087803b15801562000b8257600080fd5b505af115801562000b97573d6000803e3d6000fd5b5050505050505050565b600060038460405162000bb59190620031cb565b908152602001604051809103902060009054906101000a900473ffffffffffffffffffffffffffffffffffffffff1690506000600260008373ffffffffffffffffffffffffffffffffffffffff1673ffffffffffffffffffffffffffffffffffffffff16815260200190815260200160002060010160009054906101000a900473ffffffffffffffffffffffffffffffffffffffff1690508073ffffffffffffffffffffffffffffffffffffffff1663725009d3856040518263ffffffff1660e01b815260040162000c8891906200269d565b600060405180830381600087803b15801562000ca357600080fd5b505af115801562000cb8573d6000803e3d6000fd5b505050506000600260008573ffffffffffffffffffffffffffffffffffffffff1673ffffffffffffffffffffffffffffffffffffffff16815260200190815260200160002060010160009054906101000a900473ffffffffffffffffffffffffffffffffffffffff1690508073ffffffffffffffffffffffffffffffffffffffff1663eb058a2f86886040518363ffffffff1660e01b815260040162000d60929190620031e4565b600060405180830381600087803b15801562000d7b57600080fd5b505af115801562000d90573d6000803e3d6000fd5b50505050505050505050565b6060600480548060200260200160405190810160405280929190818152602001828054801562000e2257602002820191906000526020600020905b8160009054906101000a900473ffffffffffffffffffffffffffffffffffffffff1673ffffffffffffffffffffffffffffffffffffffff168152602001906001019080831162000dd7575b5050505050905090565b60606000600260008473ffffffffffffffffffffffffffffffffffffffff1673ffffffffffffffffffffffffffffffffffffffff16815260200190815260200160002060010160009054906101000a900473ffffffffffffffffffffffffffffffffffffffff1690508073ffffffffffffffffffffffffffffffffffffffff166341f3004a6040518163ffffffff1660e01b8152600401600060405180830381865afa15801562000ee1573d6000803e3d6000fd5b505050506040513d6000823e3d601f19601f8201168201806040525081019062000f0c9190620034f1565b915050919050565b60008360405162000f2590620023cf565b62000f319190620024a3565b604051809103906000f08015801562000f4e573d6000803e3d6000fd5b50905083600260008673ffffffffffffffffffffffffffffffffffffffff1673ffffffffffffffffffffffffffffffffffffffff16815260200190815260200160002060000160006101000a81548173ffffffffffffffffffffffffffffffffffffffff021916908373ffffffffffffffffffffffffffffffffffffffff16021790555082600260008673ffffffffffffffffffffffffffffffffffffffff1673ffffffffffffffffffffffffffffffffffffffff1681526020019081526020016000206002019081620010239190620036ff565b5081600260008673ffffffffffffffffffffffffffffffffffffffff1673ffffffffffffffffffffffffffffffffffffffff1681526020019081526020016000206003019081620010759190620036ff565b506000600260008673ffffffffffffffffffffffffffffffffffffffff1673ffffffffffffffffffffffffffffffffffffffff16815260200190815260200160002060040160006101000a81548160ff02191690831515021790555080600260008673ffffffffffffffffffffffffffffffffffffffff1673ffffffffffffffffffffffffffffffffffffffff16815260200190815260200160002060010160006101000a81548173ffffffffffffffffffffffffffffffffffffffff021916908373ffffffffffffffffffffffffffffffffffffffff160217905550600080815480929190620011669062003815565b9190505550836003846040516200117e9190620031cb565b908152602001604051809103902060006101000a81548173ffffffffffffffffffffffffffffffffffffffff021916908373ffffffffffffffffffffffffffffffffffffffff160217905550600583908060018154018082558091505060019003906000526020600020016000909190919091509081620012009190620036ff565b506004849080600181540180825580915050600190039060005260206000200160009091909190916101000a81548173ffffffffffffffffffffffffffffffffffffffff021916908373ffffffffffffffffffffffffffffffffffffffff1602179055507f2041b7a4351ac706257b308fda32769804e2afadd729e9b0ef211b0dd03312fc8482858560006040516200129e95949392919062002621565b60405180910390a150505050565b60606000600260008473ffffffffffffffffffffffffffffffffffffffff1673ffffffffffffffffffffffffffffffffffffffff16815260200190815260200160002060010160009054906101000a900473ffffffffffffffffffffffffffffffffffffffff1690508073ffffffffffffffffffffffffffffffffffffffff1663ecf0a45d6040518163ffffffff1660e01b8152600401600060405180830381865afa15801562001361573d6000803e3d6000fd5b505050506040513d6000823e3d601f19601f820116820180604052508101906200138c9190620039d1565b915050919050565b6001600260008373ffffffffffffffffffffffffffffffffffffffff1673ffffffffffffffffffffffffffffffffffffffff16815260200190815260200160002060040160006101000a81548160ff02191690831515021790555060016000815480929190620014049062003815565b919050555050565b600581815481106200141d57600080fd5b9060005260206000200160009150905080546200143a9062003004565b80601f0160208091040260200160405190810160405280929190818152602001828054620014689062003004565b8015620014b95780601f106200148d57610100808354040283529160200191620014b9565b820191906000526020600020905b8154815290600101906020018083116200149b57829003601f168201915b505050505081565b600080600260008473ffffffffffffffffffffffffffffffffffffffff1673ffffffffffffffffffffffffffffffffffffffff16815260200190815260200160002060010160009054906101000a900473ffffffffffffffffffffffffffffffffffffffff1690508073ffffffffffffffffffffffffffffffffffffffff166316e31ea36040518163ffffffff1660e01b8152600401602060405180830381865afa15801562001575573d6000803e3d6000fd5b505050506040513d601f19601f820116820180604052508101906200159b919062003050565b915050919050565b6000606080600080600073ffffffffffffffffffffffffffffffffffffffff16600260008873ffffffffffffffffffffffffffffffffffffffff1673ffffffffffffffffffffffffffffffffffffffff16815260200190815260200160002060000160009054906101000a900473ffffffffffffffffffffffffffffffffffffffff1673ffffffffffffffffffffffffffffffffffffffff1603620016a15760008060006040518060400160405280601681526020017f6163636f756e7420646f6573206e6f74206578697374000000000000000000008152509190604051806020016040528060008152509190945094509450945094506200196e565b600260008773ffffffffffffffffffffffffffffffffffffffff1673ffffffffffffffffffffffffffffffffffffffff16815260200190815260200160002060000160009054906101000a900473ffffffffffffffffffffffffffffffffffffffff16600260008873ffffffffffffffffffffffffffffffffffffffff1673ffffffffffffffffffffffffffffffffffffffff168152602001908152602001600020600201600260008973ffffffffffffffffffffffffffffffffffffffff1673ffffffffffffffffffffffffffffffffffffffff168152602001908152602001600020600301600260008a73ffffffffffffffffffffffffffffffffffffffff1673ffffffffffffffffffffffffffffffffffffffff16815260200190815260200160002060040160009054906101000a900460ff16600260008b73ffffffffffffffffffffffffffffffffffffffff1673ffffffffffffffffffffffffffffffffffffffff16815260200190815260200160002060010160009054906101000a900473ffffffffffffffffffffffffffffffffffffffff16838054620018499062003004565b80601f0160208091040260200160405190810160405280929190818152602001828054620018779062003004565b8015620018c85780601f106200189c57610100808354040283529160200191620018c8565b820191906000526020600020905b815481529060010190602001808311620018aa57829003601f168201915b50505050509350828054620018dd9062003004565b80601f01602080910402602001604051908101604052809291908181526020018280546200190b9062003004565b80156200195c5780601f1062001930576101008083540402835291602001916200195c565b820191906000526020600020905b8154815290600101906020018083116200193e57829003601f168201915b50505050509250945094509450945094505b91939590929450565b606060006003836040516200198d9190620031cb565b908152602001604051809103902060009054906101000a900473ffffffffffffffffffffffffffffffffffffffff1690506000600260008373ffffffffffffffffffffffffffffffffffffffff1673ffffffffffffffffffffffffffffffffffffffff16815260200190815260200160002060010160009054906101000a900473ffffffffffffffffffffffffffffffffffffffff1690508073ffffffffffffffffffffffffffffffffffffffff166391f3410c6040518163ffffffff1660e01b8152600401600060405180830381865afa15801562001a71573d6000803e3d6000fd5b505050506040513d6000823e3d601f19601f8201168201806040525081019062001a9c919062003b19565b92505050919050565b6003818051602081018201805184825260208301602085012081835280955050505050506000915054906101000a900473ffffffffffffffffffffffffffffffffffffffff1681565b60606005805480602002602001604051908101604052809291908181526020016000905b8282101562001bc857838290600052602060002001805462001b349062003004565b80601f016020809104026020016040519081016040528092919081815260200182805462001b629062003004565b801562001bb35780601f1062001b875761010080835404028352916020019162001bb3565b820191906000526020600020905b81548152906001019060200180831162001b9557829003601f168201915b50505050508152602001906001019062001b12565b50505050905090565b600080600260008473ffffffffffffffffffffffffffffffffffffffff1673ffffffffffffffffffffffffffffffffffffffff16815260200190815260200160002060010160009054906101000a900473ffffffffffffffffffffffffffffffffffffffff1690508073ffffffffffffffffffffffffffffffffffffffff1663bcc954076040518163ffffffff1660e01b8152600401602060405180830381865afa15801562001c85573d6000803e3d6000fd5b505050506040513d601f19601f8201168201806040525081019062001cab919062003050565b915050919050565b6000600154905090565b60008054905090565b6000606080600080600060038760405162001ce29190620031cb565b908152602001604051809103902060009054906101000a900473ffffffffffffffffffffffffffffffffffffffff169050600073ffffffffffffffffffffffffffffffffffffffff16600260008373ffffffffffffffffffffffffffffffffffffffff1673ffffffffffffffffffffffffffffffffffffffff16815260200190815260200160002060000160009054906101000a900473ffffffffffffffffffffffffffffffffffffffff1673ffffffffffffffffffffffffffffffffffffffff160362001e0a5760008060006040518060400160405280601681526020017f6163636f756e7420646f6573206e6f742065786973740000000000000000000081525091906040518060200160405280600081525091909550955095509550955050620020d8565b600260008273ffffffffffffffffffffffffffffffffffffffff1673ffffffffffffffffffffffffffffffffffffffff16815260200190815260200160002060000160009054906101000a900473ffffffffffffffffffffffffffffffffffffffff16600260008373ffffffffffffffffffffffffffffffffffffffff1673ffffffffffffffffffffffffffffffffffffffff168152602001908152602001600020600201600260008473ffffffffffffffffffffffffffffffffffffffff1673ffffffffffffffffffffffffffffffffffffffff168152602001908152602001600020600301600260008573ffffffffffffffffffffffffffffffffffffffff1673ffffffffffffffffffffffffffffffffffffffff16815260200190815260200160002060040160009054906101000a900460ff16600260008673ffffffffffffffffffffffffffffffffffffffff1673ffffffffffffffffffffffffffffffffffffffff16815260200190815260200160002060010160009054906101000a900473ffffffffffffffffffffffffffffffffffffffff1683805462001fb29062003004565b80601f016020809104026020016040519081016040528092919081815260200182805462001fe09062003004565b8015620020315780601f10620020055761010080835404028352916020019162002031565b820191906000526020600020905b8154815290600101906020018083116200201357829003601f168201915b50505050509350828054620020469062003004565b80601f0160208091040260200160405190810160405280929190818152602001828054620020749062003004565b8015620020c55780601f106200209957610100808354040283529160200191620020c5565b820191906000526020600020905b815481529060010190602001808311620020a757829003601f168201915b5050505050925095509550955095509550505b91939590929450565b6000600383604051620020f59190620031cb565b908152602001604051809103902060009054906101000a900473ffffffffffffffffffffffffffffffffffffffff1690506000600260008373ffffffffffffffffffffffffffffffffffffffff1673ffffffffffffffffffffffffffffffffffffffff16815260200190815260200160002060010160009054906101000a900473ffffffffffffffffffffffffffffffffffffffff1690508073ffffffffffffffffffffffffffffffffffffffff1663f72ead1386856040518363ffffffff1660e01b8152600401620021ca92919062003b6a565b600060405180830381600087803b158015620021e557600080fd5b505af1158015620021fa573d6000803e3d6000fd5b505050505050505050565b60606000600260008473ffffffffffffffffffffffffffffffffffffffff1673ffffffffffffffffffffffffffffffffffffffff16815260200190815260200160002060010160009054906101000a900473ffffffffffffffffffffffffffffffffffffffff1690508073ffffffffffffffffffffffffffffffffffffffff166323f147026040518163ffffffff1660e01b8152600401600060405180830381865afa158015620022ba573d6000803e3d6000fd5b505050506040513d6000823e3d601f19601f82011682018060405250810190620022e5919062003c8b565b915050919050565b600080600260008473ffffffffffffffffffffffffffffffffffffffff1673ffffffffffffffffffffffffffffffffffffffff16815260200190815260200160002060010160009054906101000a900473ffffffffffffffffffffffffffffffffffffffff1690508073ffffffffffffffffffffffffffffffffffffffff1663c4d67b096040518163ffffffff1660e01b8152600401602060405180830381865afa158015620023a1573d6000803e3d6000fd5b505050506040513d601f19601f82011682018060405250810190620023c7919062003050565b915050919050565b611cf88062003cdd83390190565b6000604051905090565b600080fd5b600080fd5b6000819050919050565b6200240681620023f1565b81146200241257600080fd5b50565b6000813590506200242681620023fb565b92915050565b600060208284031215620024455762002444620023e7565b5b6000620024558482850162002415565b91505092915050565b600073ffffffffffffffffffffffffffffffffffffffff82169050919050565b60006200248b826200245e565b9050919050565b6200249d816200247e565b82525050565b6000602082019050620024ba600083018462002492565b92915050565b620024cb816200247e565b8114620024d757600080fd5b50565b600081359050620024eb81620024c0565b92915050565b600080604083850312156200250b576200250a620023e7565b5b60006200251b85828601620024da565b92505060206200252e85828601620024da565b9150509250929050565b600060208284031215620025515762002550620023e7565b5b60006200256184828501620024da565b91505092915050565b600081519050919050565b600082825260208201905092915050565b60005b83811015620025a657808201518184015260208101905062002589565b60008484015250505050565b6000601f19601f8301169050919050565b6000620025d0826200256a565b620025dc818562002575565b9350620025ee81856020860162002586565b620025f981620025b2565b840191505092915050565b60008115159050919050565b6200261b8162002604565b82525050565b600060a08201905062002638600083018862002492565b62002647602083018762002492565b81810360408301526200265b8186620025c3565b90508181036060830152620026718185620025c3565b905062002682608083018462002610565b9695505050505050565b6200269781620023f1565b82525050565b6000602082019050620026b460008301846200268c565b92915050565b600080fd5b600080fd5b7f4e487b7100000000000000000000000000000000000000000000000000000000600052604160045260246000fd5b620026fe82620025b2565b810181811067ffffffffffffffff8211171562002720576200271f620026c4565b5b80604052505050565b600062002735620023dd565b9050620027438282620026f3565b919050565b600067ffffffffffffffff821115620027665762002765620026c4565b5b6200277182620025b2565b9050602081019050919050565b82818337600083830152505050565b6000620027a46200279e8462002748565b62002729565b905082815260208101848484011115620027c357620027c2620026bf565b5b620027d08482856200277e565b509392505050565b600082601f830112620027f057620027ef620026ba565b5b8135620028028482602086016200278d565b91505092915050565b600080600060608486031215620028275762002826620023e7565b5b60006200283786828701620024da565b935050602084013567ffffffffffffffff8111156200285b576200285a620023ec565b5b6200286986828701620027d8565b925050604084013567ffffffffffffffff8111156200288d576200288c620023ec565b5b6200289b86828701620027d8565b9150509250925092565b600080600060608486031215620028c157620028c0620023e7565b5b600084013567ffffffffffffffff811115620028e257620028e1620023ec565b5b620028f086828701620027d8565b9350506020620029038682870162002415565b92505060406200291686828701620024da565b9150509250925092565b600081519050919050565b600082825260208201905092915050565b6000819050602082019050919050565b62002957816200247e565b82525050565b60006200296b83836200294c565b60208301905092915050565b6000602082019050919050565b6000620029918262002920565b6200299d81856200292b565b9350620029aa836200293c565b8060005b83811015620029e1578151620029c588826200295d565b9750620029d28362002977565b925050600181019050620029ae565b5085935050505092915050565b6000602082019050818103600083015262002a0a818462002984565b905092915050565b600081519050919050565b600082825260208201905092915050565b6000819050602082019050919050565b62002a4981620023f1565b82525050565b600082825260208201905092915050565b600062002a6d826200256a565b62002a79818562002a4f565b935062002a8b81856020860162002586565b62002a9681620025b2565b840191505092915050565b62002aac8162002604565b82525050565b600060e08301600083015162002acc600086018262002a3e565b506020830151848203602086015262002ae6828262002a60565b915050604083015162002afd604086018262002a3e565b50606083015162002b12606086018262002a3e565b506080830151848203608086015262002b2c828262002a60565b91505060a083015184820360a086015262002b48828262002a60565b91505060c083015162002b5f60c086018262002aa1565b508091505092915050565b600062002b78838362002ab2565b905092915050565b6000602082019050919050565b600062002b9a8262002a12565b62002ba6818562002a1d565b93508360208202850162002bba8562002a2e565b8060005b8581101562002bfc578484038952815162002bda858262002b6a565b945062002be78362002b80565b925060208a0199505060018101905062002bbe565b50829750879550505050505092915050565b6000602082019050818103600083015262002c2a818462002b8d565b905092915050565b600081519050919050565b600082825260208201905092915050565b6000819050602082019050919050565b600060408301600083015162002c78600086018262002a3e565b506020830151848203602086015262002c92828262002a60565b9150508091505092915050565b600062002cad838362002c5e565b905092915050565b6000602082019050919050565b600062002ccf8262002c32565b62002cdb818562002c3d565b93508360208202850162002cef8562002c4e565b8060005b8581101562002d31578484038952815162002d0f858262002c9f565b945062002d1c8362002cb5565b925060208a0199505060018101905062002cf3565b50829750879550505050505092915050565b6000602082019050818103600083015262002d5f818462002cc2565b905092915050565b6000602082019050818103600083015262002d838184620025c3565b905092915050565b600060a08201905062002da2600083018862002492565b818103602083015262002db68187620025c3565b9050818103604083015262002dcc8186620025c3565b905062002ddd606083018562002610565b62002dec608083018462002492565b9695505050505050565b60006020828403121562002e0f5762002e0e620023e7565b5b600082013567ffffffffffffffff81111562002e305762002e2f620023ec565b5b62002e3e84828501620027d8565b91505092915050565b600081519050919050565b600082825260208201905092915050565b6000819050602082019050919050565b600062002e81838362002a60565b905092915050565b6000602082019050919050565b600062002ea38262002e47565b62002eaf818562002e52565b93508360208202850162002ec38562002e63565b8060005b8581101562002f05578484038952815162002ee3858262002e73565b945062002ef08362002e89565b925060208a0199505060018101905062002ec7565b50829750879550505050505092915050565b6000602082019050818103600083015262002f33818462002e96565b905092915050565b60008060006060848603121562002f575762002f56620023e7565b5b600084013567ffffffffffffffff81111562002f785762002f77620023ec565b5b62002f8686828701620027d8565b935050602084013567ffffffffffffffff81111562002faa5762002fa9620023ec565b5b62002fb886828701620027d8565b925050604062002fcb8682870162002415565b9150509250925092565b7f4e487b7100000000000000000000000000000000000000000000000000000000600052602260045260246000fd5b600060028204905060018216806200301d57607f821691505b60208210810362003033576200303262002fd5565b5b50919050565b6000815190506200304a81620023fb565b92915050565b600060208284031215620030695762003068620023e7565b5b6000620030798482850162003039565b91505092915050565b60008190508160005260206000209050919050565b60008154620030a68162003004565b620030b2818662002575565b94506001821660008114620030d05760018114620030e7576200311e565b60ff1983168652811515602002860193506200311e565b620030f28562003082565b60005b838110156200311657815481890152600182019150602081019050620030f5565b808801955050505b50505092915050565b60006080820190508181036000830152620031438187620025c3565b90508181036020830152620031598186620025c3565b905081810360408301526200316f818562003097565b905062003180606083018462002610565b95945050505050565b600081905092915050565b6000620031a1826200256a565b620031ad818562003189565b9350620031bf81856020860162002586565b80840191505092915050565b6000620031d9828462003194565b915081905092915050565b6000604082019050620031fb60008301856200268c565b81810360208301526200320f8184620025c3565b90509392505050565b600067ffffffffffffffff821115620032365762003235620026c4565b5b602082029050602081019050919050565b600080fd5b600080fd5b600080fd5b60006200326d620032678462002748565b62002729565b9050828152602081018484840111156200328c576200328b620026bf565b5b6200329984828562002586565b509392505050565b600082601f830112620032b957620032b8620026ba565b5b8151620032cb84826020860162003256565b91505092915050565b620032df8162002604565b8114620032eb57600080fd5b50565b600081519050620032ff81620032d4565b92915050565b600060e082840312156200331e576200331d6200324c565b5b6200332a60e062002729565b905060006200333c8482850162003039565b600083015250602082015167ffffffffffffffff81111562003363576200336262003251565b5b6200337184828501620032a1565b6020830152506040620033878482850162003039565b60408301525060606200339d8482850162003039565b606083015250608082015167ffffffffffffffff811115620033c457620033c362003251565b5b620033d284828501620032a1565b60808301525060a082015167ffffffffffffffff811115620033f957620033f862003251565b5b6200340784828501620032a1565b60a08301525060c06200341d84828501620032ee565b60c08301525092915050565b6000620034406200343a8462003218565b62002729565b9050808382526020820190506020840283018581111562003466576200346562003247565b5b835b81811015620034b457805167ffffffffffffffff8111156200348f576200348e620026ba565b5b8086016200349e898262003305565b8552602085019450505060208101905062003468565b5050509392505050565b600082601f830112620034d657620034d5620026ba565b5b8151620034e884826020860162003429565b91505092915050565b6000602082840312156200350a5762003509620023e7565b5b600082015167ffffffffffffffff8111156200352b576200352a620023ec565b5b6200353984828501620034be565b91505092915050565b60006020601f8301049050919050565b600082821b905092915050565b600060088302620035917fffffffffffffffffffffffffffffffffffffffffffffffffffffffffffffffff8262003552565b6200359d868362003552565b95508019841693508086168417925050509392505050565b6000819050919050565b6000620035e0620035da620035d484620023f1565b620035b5565b620023f1565b9050919050565b6000819050919050565b620035fc83620035bf565b620036146200360b82620035e7565b8484546200355f565b825550505050565b600090565b6200362b6200361c565b62003638818484620035f1565b505050565b5b8181101562003660576200365460008262003621565b6001810190506200363e565b5050565b601f821115620036af57620036798162003082565b620036848462003542565b8101602085101562003694578190505b620036ac620036a38562003542565b8301826200363d565b50505b505050565b600082821c905092915050565b6000620036d460001984600802620036b4565b1980831691505092915050565b6000620036ef8383620036c1565b9150826002028217905092915050565b6200370a826200256a565b67ffffffffffffffff811115620037265762003725620026c4565b5b62003732825462003004565b6200373f82828562003664565b600060209050601f83116001811462003777576000841562003762578287015190505b6200376e8582620036e1565b865550620037de565b601f198416620037878662003082565b60005b82811015620037b1578489015182556001820191506020850194506020810190506200378a565b86831015620037d15784890151620037cd601f891682620036c1565b8355505b6001600288020188555050505b505050505050565b7f4e487b7100000000000000000000000000000000000000000000000000000000600052601160045260246000fd5b60006200382282620023f1565b91507fffffffffffffffffffffffffffffffffffffffffffffffffffffffffffffffff8203620038575762003856620037e6565b5b600182019050919050565b600067ffffffffffffffff82111562003880576200387f620026c4565b5b602082029050602081019050919050565b600060408284031215620038aa57620038a96200324c565b5b620038b6604062002729565b90506000620038c88482850162003039565b600083015250602082015167ffffffffffffffff811115620038ef57620038ee62003251565b5b620038fd84828501620032a1565b60208301525092915050565b6000620039206200391a8462003862565b62002729565b9050808382526020820190506020840283018581111562003946576200394562003247565b5b835b818110156200399457805167ffffffffffffffff8111156200396f576200396e620026ba565b5b8086016200397e898262003891565b8552602085019450505060208101905062003948565b5050509392505050565b600082601f830112620039b657620039b5620026ba565b5b8151620039c884826020860162003909565b91505092915050565b600060208284031215620039ea57620039e9620023e7565b5b600082015167ffffffffffffffff81111562003a0b5762003a0a620023ec565b5b62003a19848285016200399e565b91505092915050565b600067ffffffffffffffff82111562003a405762003a3f620026c4565b5b602082029050602081019050919050565b600062003a6862003a628462003a22565b62002729565b9050808382526020820190506020840283018581111562003a8e5762003a8d62003247565b5b835b8181101562003adc57805167ffffffffffffffff81111562003ab75762003ab6620026ba565b5b80860162003ac68982620032a1565b8552602085019450505060208101905062003a90565b5050509392505050565b600082601f83011262003afe5762003afd620026ba565b5b815162003b1084826020860162003a51565b91505092915050565b60006020828403121562003b325762003b31620023e7565b5b600082015167ffffffffffffffff81111562003b535762003b52620023ec565b5b62003b618482850162003ae6565b91505092915050565b6000604082019050818103600083015262003b868185620025c3565b905062003b9760208301846200268c565b9392505050565b600067ffffffffffffffff82111562003bbc5762003bbb620026c4565b5b602082029050602081019050919050565b60008151905062003bde81620024c0565b92915050565b600062003bfb62003bf58462003b9e565b62002729565b9050808382526020820190506020840283018581111562003c215762003c2062003247565b5b835b8181101562003c4e578062003c39888262003bcd565b84526020840193505060208101905062003c23565b5050509392505050565b600082601f83011262003c705762003c6f620026ba565b5b815162003c8284826020860162003be4565b91505092915050565b60006020828403121562003ca45762003ca3620023e7565b5b600082015167ffffffffffffffff81111562003cc55762003cc4620023ec565b5b62003cd38482850162003c58565b9150509291505056fe60806040523480156200001157600080fd5b5060405162001cf838038062001cf8833981810160405281019062000037919062000100565b80600360006101000a81548173ffffffffffffffffffffffffffffffffffffffff021916908373ffffffffffffffffffffffffffffffffffffffff16021790555060008081905550600060018190555060006002819055505062000132565b600080fd5b600073ffffffffffffffffffffffffffffffffffffffff82169050919050565b6000620000c8826200009b565b9050919050565b620000da81620000bb565b8114620000e657600080fd5b50565b600081519050620000fa81620000cf565b92915050565b60006020828403121562000119576200011862000096565b5b60006200012984828501620000e9565b91505092915050565b611bb680620001426000396000f3fe608060405234801561001057600080fd5b50600436106100f55760003560e01c806399c50dd111610097578063e71ef23d11610066578063e71ef23d14610244578063eb058a2f14610260578063ecf0a45d1461027c578063f72ead131461029a576100f5565b806399c50dd1146101ce578063bcc95407146101ea578063c4d67b0914610208578063e22bce2714610226576100f5565b806360f2e378116100d357806360f2e378146101545780636f94a3661461015e578063725009d31461019457806391f3410c146101b0576100f5565b806316e31ea3146100fa57806323f147021461011857806341f3004a14610136575b600080fd5b6101026102b6565b60405161010f9190610d4c565b60405180910390f35b6101206102c0565b60405161012d9190610e57565b60405180910390f35b61013e61034e565b60405161014b919061109f565b60405180910390f35b61015c6105fc565b005b61017860048036038101906101739190611101565b610616565b60405161018b9796959493929190611187565b60405180910390f35b6101ae60048036038101906101a99190611101565b6107fd565b005b6101b8610879565b6040516101c591906112cd565b60405180910390f35b6101e860048036038101906101e3919061131b565b610952565b005b6101f26109b8565b6040516101ff9190610d4c565b60405180910390f35b6102106109c1565b60405161021d9190610d4c565b60405180910390f35b61022e6109cb565b60405161023b9190610d4c565b60405180910390f35b61025e600480360381019061025991906114a9565b6109d5565b005b61027a60048036038101906102759190611564565b610b2e565b005b610284610b94565b60405161029191906116bf565b60405180910390f35b6102b460048036038101906102af91906116e1565b610c8f565b005b6000600154905090565b6060600580548060200260200160405190810160405280929190818152602001828054801561034457602002820191906000526020600020905b8160009054906101000a900473ffffffffffffffffffffffffffffffffffffffff1673ffffffffffffffffffffffffffffffffffffffff16815260200190600101908083116102fa575b5050505050905090565b60606000805467ffffffffffffffff81111561036d5761036c611352565b5b6040519080825280602002602001820160405280156103a657816020015b610393610cf4565b81526020019060019003908161038b5790505b50905060005b6000548110156105f457600860008281526020019081526020016000206040518060e0016040529081600082015481526020016001820180546103ee9061176c565b80601f016020809104026020016040519081016040528092919081815260200182805461041a9061176c565b80156104675780601f1061043c57610100808354040283529160200191610467565b820191906000526020600020905b81548152906001019060200180831161044a57829003601f168201915b5050505050815260200160028201548152602001600382015481526020016004820180546104949061176c565b80601f01602080910402602001604051908101604052809291908181526020018280546104c09061176c565b801561050d5780601f106104e25761010080835404028352916020019161050d565b820191906000526020600020905b8154815290600101906020018083116104f057829003601f168201915b505050505081526020016005820180546105269061176c565b80601f01602080910402602001604051908101604052809291908181526020018280546105529061176c565b801561059f5780601f106105745761010080835404028352916020019161059f565b820191906000526020600020905b81548152906001019060200180831161058257829003601f168201915b505050505081526020016006820160009054906101000a900460ff1615151515815250508282815181106105d6576105d561179d565b5b602002602001018190525080806105ec906117fb565b9150506103ac565b508091505090565b6004600081548092919061060f906117fb565b9190505550565b600860205280600052604060002060009150905080600001549080600101805461063f9061176c565b80601f016020809104026020016040519081016040528092919081815260200182805461066b9061176c565b80156106b85780601f1061068d576101008083540402835291602001916106b8565b820191906000526020600020905b81548152906001019060200180831161069b57829003601f168201915b5050505050908060020154908060030154908060040180546106d99061176c565b80601f01602080910402602001604051908101604052809291908181526020018280546107059061176c565b80156107525780601f1061072757610100808354040283529160200191610752565b820191906000526020600020905b81548152906001019060200180831161073557829003601f168201915b5050505050908060050180546107679061176c565b80601f01602080910402602001604051908101604052809291908181526020018280546107939061176c565b80156107e05780601f106107b5576101008083540402835291602001916107e0565b820191906000526020600020905b8154815290600101906020018083116107c357829003601f168201915b5050505050908060060160009054906101000a900460ff16905087565b600860008281526020019081526020016000206002016000815480929190610824906117fb565b91905055507f447c5d872ffc7fa2763b13dd068980191537823d15b95a6566333782d757d945600860008381526020019081526020016000206002015460405161086e9190610d4c565b60405180910390a150565b60606007805480602002602001604051908101604052809291908181526020016000905b828210156109495783829060005260206000200180546108bc9061176c565b80601f01602080910402602001604051908101604052809291908181526020018280546108e89061176c565b80156109355780601f1061090a57610100808354040283529160200191610935565b820191906000526020600020905b81548152906001019060200180831161091857829003601f168201915b50505050508152602001906001019061089d565b50505050905090565b6005819080600181540180825580915050600190039060005260206000200160009091909190916101000a81548173ffffffffffffffffffffffffffffffffffffffff021916908373ffffffffffffffffffffffffffffffffffffffff16021790555050565b60008054905090565b6000600254905090565b6000600454905090565b6000546008600080548152602001908152602001600020600001819055508360086000805481526020019081526020016000206001019081610a1791906119ef565b50600060086000805481526020019081526020016000206002018190555060006008600080548152602001908152602001600020600301819055508260086000805481526020019081526020016000206004019081610a7691906119ef565b508160086000805481526020019081526020016000206005019081610a9b91906119ef565b5080600860008054815260200190815260200160002060060160006101000a81548160ff021916908315150217905550600080815480929190610add906117fb565b91905055507f689bb0330c1c7078d60ff9632a4be061f5411d6c6d3cfc8960e175d277f6a53e60005485600080878787604051610b209796959493929190611afc565b60405180910390a150505050565b60066040518060400160405280848152602001838152509080600181540180825580915050600190039060005260206000209060020201600090919091909150600082015181600001556020820151816001019081610b8d91906119ef565b5050505050565b60606006805480602002602001604051908101604052809291908181526020016000905b82821015610c86578382906000526020600020906002020160405180604001604052908160008201548152602001600182018054610bf59061176c565b80601f0160208091040260200160405190810160405280929190818152602001828054610c219061176c565b8015610c6e5780601f10610c4357610100808354040283529160200191610c6e565b820191906000526020600020905b815481529060010190602001808311610c5157829003601f168201915b50505050508152505081526020019060010190610bb8565b50505050905090565b600782908060018154018082558091505060019003906000526020600020016000909190919091509081610cc391906119ef565b50600860008281526020019081526020016000206003016000815480929190610ceb906117fb565b91905055505050565b6040518060e001604052806000815260200160608152602001600081526020016000815260200160608152602001606081526020016000151581525090565b6000819050919050565b610d4681610d33565b82525050565b6000602082019050610d616000830184610d3d565b92915050565b600081519050919050565b600082825260208201905092915050565b6000819050602082019050919050565b600073ffffffffffffffffffffffffffffffffffffffff82169050919050565b6000610dbe82610d93565b9050919050565b610dce81610db3565b82525050565b6000610de08383610dc5565b60208301905092915050565b6000602082019050919050565b6000610e0482610d67565b610e0e8185610d72565b9350610e1983610d83565b8060005b83811015610e4a578151610e318882610dd4565b9750610e3c83610dec565b925050600181019050610e1d565b5085935050505092915050565b60006020820190508181036000830152610e718184610df9565b905092915050565b600081519050919050565b600082825260208201905092915050565b6000819050602082019050919050565b610eae81610d33565b82525050565b600081519050919050565b600082825260208201905092915050565b60005b83811015610eee578082015181840152602081019050610ed3565b60008484015250505050565b6000601f19601f8301169050919050565b6000610f1682610eb4565b610f208185610ebf565b9350610f30818560208601610ed0565b610f3981610efa565b840191505092915050565b60008115159050919050565b610f5981610f44565b82525050565b600060e083016000830151610f776000860182610ea5565b5060208301518482036020860152610f8f8282610f0b565b9150506040830151610fa46040860182610ea5565b506060830151610fb76060860182610ea5565b5060808301518482036080860152610fcf8282610f0b565b91505060a083015184820360a0860152610fe98282610f0b565b91505060c0830151610ffe60c0860182610f50565b508091505092915050565b60006110158383610f5f565b905092915050565b6000602082019050919050565b600061103582610e79565b61103f8185610e84565b93508360208202850161105185610e95565b8060005b8581101561108d578484038952815161106e8582611009565b94506110798361101d565b925060208a01995050600181019050611055565b50829750879550505050505092915050565b600060208201905081810360008301526110b9818461102a565b905092915050565b6000604051905090565b600080fd5b600080fd5b6110de81610d33565b81146110e957600080fd5b50565b6000813590506110fb816110d5565b92915050565b600060208284031215611117576111166110cb565b5b6000611125848285016110ec565b91505092915050565b600082825260208201905092915050565b600061114a82610eb4565b611154818561112e565b9350611164818560208601610ed0565b61116d81610efa565b840191505092915050565b61118181610f44565b82525050565b600060e08201905061119c600083018a610d3d565b81810360208301526111ae818961113f565b90506111bd6040830188610d3d565b6111ca6060830187610d3d565b81810360808301526111dc818661113f565b905081810360a08301526111f0818561113f565b90506111ff60c0830184611178565b98975050505050505050565b600081519050919050565b600082825260208201905092915050565b6000819050602082019050919050565b60006112438383610f0b565b905092915050565b6000602082019050919050565b60006112638261120b565b61126d8185611216565b93508360208202850161127f85611227565b8060005b858110156112bb578484038952815161129c8582611237565b94506112a78361124b565b925060208a01995050600181019050611283565b50829750879550505050505092915050565b600060208201905081810360008301526112e78184611258565b905092915050565b6112f881610db3565b811461130357600080fd5b50565b600081359050611315816112ef565b92915050565b600060208284031215611331576113306110cb565b5b600061133f84828501611306565b91505092915050565b600080fd5b600080fd5b7f4e487b7100000000000000000000000000000000000000000000000000000000600052604160045260246000fd5b61138a82610efa565b810181811067ffffffffffffffff821117156113a9576113a8611352565b5b80604052505050565b60006113bc6110c1565b90506113c88282611381565b919050565b600067ffffffffffffffff8211156113e8576113e7611352565b5b6113f182610efa565b9050602081019050919050565b82818337600083830152505050565b600061142061141b846113cd565b6113b2565b90508281526020810184848401111561143c5761143b61134d565b5b6114478482856113fe565b509392505050565b600082601f83011261146457611463611348565b5b813561147484826020860161140d565b91505092915050565b61148681610f44565b811461149157600080fd5b50565b6000813590506114a38161147d565b92915050565b600080600080608085870312156114c3576114c26110cb565b5b600085013567ffffffffffffffff8111156114e1576114e06110d0565b5b6114ed8782880161144f565b945050602085013567ffffffffffffffff81111561150e5761150d6110d0565b5b61151a8782880161144f565b935050604085013567ffffffffffffffff81111561153b5761153a6110d0565b5b6115478782880161144f565b925050606061155887828801611494565b91505092959194509250565b6000806040838503121561157b5761157a6110cb565b5b6000611589858286016110ec565b925050602083013567ffffffffffffffff8111156115aa576115a96110d0565b5b6115b68582860161144f565b9150509250929050565b600081519050919050565b600082825260208201905092915050565b6000819050602082019050919050565b60006040830160008301516116046000860182610ea5565b506020830151848203602086015261161c8282610f0b565b9150508091505092915050565b600061163583836115ec565b905092915050565b6000602082019050919050565b6000611655826115c0565b61165f81856115cb565b935083602082028501611671856115dc565b8060005b858110156116ad578484038952815161168e8582611629565b94506116998361163d565b925060208a01995050600181019050611675565b50829750879550505050505092915050565b600060208201905081810360008301526116d9818461164a565b905092915050565b600080604083850312156116f8576116f76110cb565b5b600083013567ffffffffffffffff811115611716576117156110d0565b5b6117228582860161144f565b9250506020611733858286016110ec565b9150509250929050565b7f4e487b7100000000000000000000000000000000000000000000000000000000600052602260045260246000fd5b6000600282049050600182168061178457607f821691505b6020821081036117975761179661173d565b5b50919050565b7f4e487b7100000000000000000000000000000000000000000000000000000000600052603260045260246000fd5b7f4e487b7100000000000000000000000000000000000000000000000000000000600052601160045260246000fd5b600061180682610d33565b91507fffffffffffffffffffffffffffffffffffffffffffffffffffffffffffffffff8203611838576118376117cc565b5b600182019050919050565b60008190508160005260206000209050919050565b60006020601f8301049050919050565b600082821b905092915050565b6000600883026118a57fffffffffffffffffffffffffffffffffffffffffffffffffffffffffffffffff82611868565b6118af8683611868565b95508019841693508086168417925050509392505050565b6000819050919050565b60006118ec6118e76118e284610d33565b6118c7565b610d33565b9050919050565b6000819050919050565b611906836118d1565b61191a611912826118f3565b848454611875565b825550505050565b600090565b61192f611922565b61193a8184846118fd565b505050565b5b8181101561195e57611953600082611927565b600181019050611940565b5050565b601f8211156119a35761197481611843565b61197d84611858565b8101602085101561198c578190505b6119a061199885611858565b83018261193f565b50505b505050565b600082821c905092915050565b60006119c6600019846008026119a8565b1980831691505092915050565b60006119df83836119b5565b9150826002028217905092915050565b6119f882610eb4565b67ffffffffffffffff811115611a1157611a10611352565b5b611a1b825461176c565b611a26828285611962565b600060209050601f831160018114611a595760008415611a47578287015190505b611a5185826119d3565b865550611ab9565b601f198416611a6786611843565b60005b82811015611a8f57848901518255600182019150602085019450602081019050611a6a565b86831015611aac5784890151611aa8601f8916826119b5565b8355505b6001600288020188555050505b505050505050565b6000819050919050565b6000611ae6611ae1611adc84611ac1565b6118c7565b610d33565b9050919050565b611af681611acb565b82525050565b600060e082019050611b11600083018a610d3d565b8181036020830152611b23818961113f565b9050611b326040830188611aed565b611b3f6060830187611aed565b8181036080830152611b51818661113f565b905081810360a0830152611b65818561113f565b9050611b7460c0830184611178565b9897505050505050505056fea2646970667358221220ccdd367fc52e8433a12479bf79af9515a124dfe0b747d69459c360e5ea35e80364736f6c63430008110033a2646970667358221220641062c932a3fc724754e277b1f6af725b4d1427e1d6717c0792c548028a13f564736f6c63430008110033",
  "immutableReferences": {},
  "source": "// SPDX-License-Identifier: GPL-3.0\r\npragma solidity >=0.8.0;\r\n\r\ncontract Maincontract {\r\n    uint256 userCounts;\r\n    uint256 verifiedUserCounts;\r\n\r\n    constructor() {\r\n        userCounts = 0;\r\n        verifiedUserCounts = 0;\r\n    }\r\n\r\n    struct UserStruct {\r\n        address walletId;\r\n        address userContractAddress;\r\n        string userName;\r\n        string password;\r\n        bool isVerified;\r\n    }\r\n    struct PostStruct {\r\n        uint256 postId;\r\n        string postContent;\r\n        uint256 likeCount;\r\n        uint256 commentCount;\r\n        string timeStamp;\r\n        string userName;\r\n        bool isVerified;\r\n    }\r\n\r\n    event User(\r\n        address walletId,\r\n        address userContractAddress,\r\n        string userName,\r\n        string password,\r\n        bool isVerified\r\n    );\r\n    event Post(\r\n        uint256 postId,\r\n        string postContent,\r\n        uint256 likeCount,\r\n        uint256 commentCount,\r\n        string timeStamp,\r\n        string userName,\r\n        bool isVerified\r\n    );\r\n\r\n    mapping(address => UserStruct) public userStructs;\r\n    mapping(string => address) public userNameToWalletId;\r\n    address[] public numberToWalletId;\r\n    string[] public userNames;\r\n\r\n    function createUser(\r\n        address _walletId,\r\n        string memory _userName,\r\n        string memory _password\r\n    ) public {\r\n        address uca = address(new UserContract(_walletId));\r\n        userStructs[_walletId].walletId = _walletId;\r\n        userStructs[_walletId].userName = _userName;\r\n        userStructs[_walletId].password = _password;\r\n        userStructs[_walletId].isVerified = false;\r\n        userStructs[_walletId].userContractAddress = uca;\r\n        userCounts++;\r\n        userNameToWalletId[_userName] = _walletId;\r\n        userNames.push(_userName);\r\n        numberToWalletId.push(_walletId);\r\n        emit User(_walletId, uca, _userName, _password, false);\r\n    }\r\n\r\n    function getAllUserNames() public view returns (string[] memory) {\r\n        return userNames;\r\n    }\r\n\r\n    function getUser(address _walletId)\r\n        public\r\n        view\r\n        returns (\r\n            address,\r\n            string memory,\r\n            string memory,\r\n            bool,\r\n            address\r\n        )\r\n    {\r\n        if (userStructs[_walletId].walletId == address(0)) {\r\n            return (\r\n                address(0),\r\n                \"account does not exist\",\r\n                \"\",\r\n                false,\r\n                address(0)\r\n            );\r\n        }\r\n        return (\r\n            userStructs[_walletId].walletId,\r\n            userStructs[_walletId].userName,\r\n            userStructs[_walletId].password,\r\n            userStructs[_walletId].isVerified,\r\n            userStructs[_walletId].userContractAddress\r\n        );\r\n    }\r\n\r\n    function getUserByUserName(string memory _userName)\r\n        public\r\n        view\r\n        returns (\r\n            address,\r\n            string memory,\r\n            string memory,\r\n            bool,\r\n            address\r\n        )\r\n    {\r\n        address _walletId = userNameToWalletId[_userName];\r\n        if (userStructs[_walletId].walletId == address(0)) {\r\n            return (\r\n                address(0),\r\n                \"account does not exist\",\r\n                \"\",\r\n                false,\r\n                address(0)\r\n            );\r\n        }\r\n        return (\r\n            userStructs[_walletId].walletId,\r\n            userStructs[_walletId].userName,\r\n            userStructs[_walletId].password,\r\n            userStructs[_walletId].isVerified,\r\n            userStructs[_walletId].userContractAddress\r\n        );\r\n    }\r\n\r\n    function getUserCount() public view returns (uint256) {\r\n        return userCounts;\r\n    }\r\n\r\n    function getVerifiedUserCount() public view returns (uint256) {\r\n        return verifiedUserCounts;\r\n    }\r\n\r\n    function verifyUser(address _walletId) public {\r\n        userStructs[_walletId].isVerified = true;\r\n        verifiedUserCounts++;\r\n    }\r\n\r\n    function makePost(\r\n        address _walletId,\r\n        string memory _postContent,\r\n        string memory timeStamp\r\n    ) public {\r\n        UserContract uc = UserContract(\r\n            userStructs[_walletId].userContractAddress\r\n        );\r\n        uc.createPost(\r\n            _postContent,\r\n            timeStamp,\r\n            userStructs[_walletId].userName,\r\n            userStructs[_walletId].isVerified\r\n        );\r\n    }\r\n\r\n    function makeComment(\r\n        string memory _comment,\r\n        string memory _postOwner,\r\n        uint256 _postId\r\n    ) public {\r\n        address _walletId = userNameToWalletId[_postOwner];\r\n        UserContract uc = UserContract(\r\n            userStructs[_walletId].userContractAddress\r\n        );\r\n        uc.createComment(_comment, _postId);\r\n    }\r\n\r\n    function getComments(string memory _postOwner)\r\n        public\r\n        view\r\n        returns (string[] memory)\r\n    {\r\n        address _walletId = userNameToWalletId[_postOwner];\r\n        UserContract uc = UserContract(\r\n            userStructs[_walletId].userContractAddress\r\n        );\r\n        return uc.getComments();\r\n    }\r\n\r\n    function likePost(\r\n        string memory _userName,\r\n        uint256 _postId,\r\n        address _myWalletId\r\n    ) public {\r\n        address _walletId = userNameToWalletId[_userName];\r\n        UserContract uc = UserContract(\r\n            userStructs[_walletId].userContractAddress\r\n        );\r\n        uc.likePost(_postId);\r\n        UserContract ucf = UserContract(\r\n            userStructs[_myWalletId].userContractAddress\r\n        );\r\n        // concat postId and userName\r\n        // string memory _postIdAndUserName = string(\r\n        //     abi.encodePacked(_postId, \" \", _userName)\r\n        // );\r\n        ucf.updateMylikes(_postId, _userName);\r\n    }\r\n\r\n    function followUser(address _walletId, address _followingId) public {\r\n        UserContract uc = UserContract(\r\n            userStructs[_walletId].userContractAddress\r\n        );\r\n        uc.followSomeone(_followingId);\r\n        UserContract ucf = UserContract(\r\n            userStructs[_followingId].userContractAddress\r\n        );\r\n        ucf.updateFollowersCount();\r\n    }\r\n\r\n    function getFollowing(address _walletId)\r\n        public\r\n        view\r\n        returns (address[] memory)\r\n    {\r\n        UserContract uc = UserContract(\r\n            userStructs[_walletId].userContractAddress\r\n        );\r\n        return uc.getFollowing();\r\n    }\r\n\r\n    function getFollowersCount(address _walletId)\r\n        public\r\n        view\r\n        returns (uint256)\r\n    {\r\n        UserContract uc = UserContract(\r\n            userStructs[_walletId].userContractAddress\r\n        );\r\n        return uc.getFollowersCount();\r\n    }\r\n\r\n    function getPosts(address _walletId)\r\n        public\r\n        view\r\n        returns (UserContract.PostStruct[] memory)\r\n    {\r\n        UserContract uc = UserContract(\r\n            userStructs[_walletId].userContractAddress\r\n        );\r\n        return uc.getPosts();\r\n    }\r\n\r\n    function getAllUsersAddress() public view returns (address[] memory) {\r\n        return numberToWalletId;\r\n    }\r\n\r\n    function getPostCount(address _walletId) public view returns (uint256) {\r\n        UserContract uc = UserContract(\r\n            userStructs[_walletId].userContractAddress\r\n        );\r\n        return uc.getPostCount();\r\n    }\r\n\r\n    function getCommentCount(address _walletId) public view returns (uint256) {\r\n        UserContract uc = UserContract(\r\n            userStructs[_walletId].userContractAddress\r\n        );\r\n        return uc.getCommentCount();\r\n    }\r\n\r\n    function getLikeCount(address _walletId) public view returns (uint256) {\r\n        UserContract uc = UserContract(\r\n            userStructs[_walletId].userContractAddress\r\n        );\r\n        return uc.getLikeCount();\r\n    }\r\n\r\n    function getMyLikes(address _walletId)\r\n        public\r\n        view\r\n        returns (UserContract.myLikeStruct[] memory)\r\n    {\r\n        UserContract uc = UserContract(\r\n            userStructs[_walletId].userContractAddress\r\n        );\r\n        return uc.getMyLikes();\r\n    }\r\n}\r\n\r\n///////////////////////////////////////////////////////////////////////////////////////////////////////////////////////////////////////\r\n\r\ncontract UserContract {\r\n    uint256 postCounts;\r\n    uint256 commentCounts;\r\n    uint256 likeCounts;\r\n    address owner;\r\n    uint256 followersCount;\r\n    address[] following;\r\n    myLikeStruct[] myLikes;\r\n    string[] comments;\r\n\r\n    constructor(address walletId) {\r\n        owner = walletId;\r\n        postCounts = 0;\r\n        commentCounts = 0;\r\n        likeCounts = 0;\r\n    }\r\n\r\n    struct PostStruct {\r\n        uint256 postId;\r\n        string postContent;\r\n        uint256 likeCount;\r\n        uint256 commentCount;\r\n        string timeStamp;\r\n        string userName;\r\n        bool isVerified;\r\n    }\r\n    // struct CommentStruct {\r\n    //     uint256 commentId;\r\n    //     string commentContent;\r\n    //     uint256 likeCount;\r\n    // }\r\n    struct myLikeStruct {\r\n        uint256 postId;\r\n        string userName;\r\n    }\r\n    event Post(\r\n        uint256 postId,\r\n        string postContent,\r\n        uint256 likeCount,\r\n        uint256 commentCount,\r\n        string timeStamp,\r\n        string userName,\r\n        bool isVerified\r\n    );\r\n    // event Comment(uint256 commentId, string commentContent, uint256 likeCount);\r\n    event Like(uint256 likeCount);\r\n\r\n    mapping(uint256 => PostStruct) public postStructs;\r\n\r\n    // mapping(uint256 => CommentStruct) public commentStructs;\r\n\r\n    function createPost(\r\n        string memory _postContent,\r\n        string memory timeStamp,\r\n        string memory userName,\r\n        bool isVerified\r\n    ) public {\r\n        postStructs[postCounts].postId = postCounts;\r\n        postStructs[postCounts].postContent = _postContent;\r\n        postStructs[postCounts].likeCount = 0;\r\n        postStructs[postCounts].commentCount = 0;\r\n        postStructs[postCounts].timeStamp = timeStamp;\r\n        postStructs[postCounts].userName = userName;\r\n        postStructs[postCounts].isVerified = isVerified;\r\n\r\n        postCounts++;\r\n        emit Post(\r\n            postCounts,\r\n            _postContent,\r\n            0,\r\n            0,\r\n            timeStamp,\r\n            userName,\r\n            isVerified\r\n        );\r\n    }\r\n\r\n    function createComment(string memory _commentContent, uint256 _postId)\r\n        public\r\n    {\r\n        comments.push(_commentContent);\r\n        postStructs[_postId].commentCount++;\r\n    }\r\n\r\n    function getComments() public view returns (string[] memory) {\r\n        return comments;\r\n    }\r\n\r\n    function likePost(uint256 _postId) public {\r\n        postStructs[_postId].likeCount++;\r\n        emit Like(postStructs[_postId].likeCount);\r\n    }\r\n\r\n    function updateMylikes(uint256 _postId, string memory _userName) public {\r\n        myLikes.push(myLikeStruct(_postId, _userName));\r\n    }\r\n\r\n    function followSomeone(address _walletId) public {\r\n        following.push(_walletId);\r\n    }\r\n\r\n    function updateFollowersCount() public {\r\n        followersCount++;\r\n    }\r\n\r\n    function getFollowersCount() public view returns (uint256) {\r\n        return followersCount;\r\n    }\r\n\r\n    function getFollowing() public view returns (address[] memory) {\r\n        return following;\r\n    }\r\n\r\n    function getPosts() public view returns (PostStruct[] memory) {\r\n        PostStruct[] memory posts = new PostStruct[](postCounts);\r\n        for (uint256 i = 0; i < postCounts; i++) {\r\n            posts[i] = postStructs[i];\r\n        }\r\n        return posts;\r\n    }\r\n\r\n    function getPostCount() public view returns (uint256) {\r\n        return postCounts;\r\n    }\r\n\r\n    function getCommentCount() public view returns (uint256) {\r\n        return commentCounts;\r\n    }\r\n\r\n    function getLikeCount() public view returns (uint256) {\r\n        return likeCounts;\r\n    }\r\n\r\n    function getMyLikes() public view returns (myLikeStruct[] memory) {\r\n        return myLikes;\r\n    }\r\n}\r\n",
  "sourcePath": "D:\\Users\\Desktop\\BOOOKS\\SEMESTER 7\\BCT\\Project\\DE-Verse\\smartcontract\\contracts\\Main.sol",
  "compiler": {
    "name": "solc",
    "version": "0.8.17+commit.8df45f5f.Emscripten.clang"
  },
  "schemaVersion": "3.4.10",
  "updatedAt": "2022-12-25T08:50:46.313Z",
  "networkType": "ethereum",
  "devdoc": {
    "kind": "dev",
    "methods": {},
    "version": 1
  },
  "userdoc": {
    "kind": "user",
    "methods": {},
    "version": 1
  }
}