{
  "contractName": "Maincontract",
  "abi": [
    {
      "inputs": [],
      "stateMutability": "nonpayable",
      "type": "constructor"
    },
    {
      "anonymous": false,
      "inputs": [
        {
          "indexed": false,
          "internalType": "address",
          "name": "walletId",
          "type": "address"
        },
        {
          "indexed": false,
          "internalType": "address",
          "name": "userContractAddress",
          "type": "address"
        },
        {
          "indexed": false,
          "internalType": "string",
          "name": "userName",
          "type": "string"
        },
        {
          "indexed": false,
          "internalType": "string",
          "name": "password",
          "type": "string"
        },
        {
          "indexed": false,
          "internalType": "bool",
          "name": "isVerified",
          "type": "bool"
        }
      ],
      "name": "User",
      "type": "event"
    },
    {
      "inputs": [
        {
          "internalType": "address",
          "name": "",
          "type": "address"
        }
      ],
      "name": "userStructs",
      "outputs": [
        {
          "internalType": "address",
          "name": "walletId",
          "type": "address"
        },
        {
          "internalType": "address",
          "name": "userContractAddress",
          "type": "address"
        },
        {
          "internalType": "string",
          "name": "userName",
          "type": "string"
        },
        {
          "internalType": "string",
          "name": "password",
          "type": "string"
        },
        {
          "internalType": "bool",
          "name": "isVerified",
          "type": "bool"
        }
      ],
      "stateMutability": "view",
      "type": "function",
      "constant": true
    },
    {
      "inputs": [
        {
          "internalType": "address",
          "name": "_walletId",
          "type": "address"
        },
        {
          "internalType": "string",
          "name": "_userName",
          "type": "string"
        },
        {
          "internalType": "string",
          "name": "_password",
          "type": "string"
        }
      ],
      "name": "createUser",
      "outputs": [],
      "stateMutability": "nonpayable",
      "type": "function"
    },
    {
      "inputs": [
        {
          "internalType": "address",
          "name": "_walletId",
          "type": "address"
        }
      ],
      "name": "getUser",
      "outputs": [
        {
          "internalType": "address",
          "name": "",
          "type": "address"
        },
        {
          "internalType": "string",
          "name": "",
          "type": "string"
        },
        {
          "internalType": "string",
          "name": "",
          "type": "string"
        },
        {
          "internalType": "bool",
          "name": "",
          "type": "bool"
        },
        {
          "internalType": "address",
          "name": "",
          "type": "address"
        }
      ],
      "stateMutability": "view",
      "type": "function",
      "constant": true
    },
    {
      "inputs": [],
      "name": "getUserCount",
      "outputs": [
        {
          "internalType": "uint256",
          "name": "",
          "type": "uint256"
        }
      ],
      "stateMutability": "view",
      "type": "function",
      "constant": true
    },
    {
      "inputs": [],
      "name": "getVerifiedUserCount",
      "outputs": [
        {
          "internalType": "uint256",
          "name": "",
          "type": "uint256"
        }
      ],
      "stateMutability": "view",
      "type": "function",
      "constant": true
    },
    {
      "inputs": [
        {
          "internalType": "address",
          "name": "_walletId",
          "type": "address"
        }
      ],
      "name": "verifyUser",
      "outputs": [],
      "stateMutability": "nonpayable",
      "type": "function"
    },
    {
      "inputs": [
        {
          "internalType": "address",
          "name": "_walletId",
          "type": "address"
        },
        {
          "internalType": "string",
          "name": "_postContent",
          "type": "string"
        }
      ],
      "name": "makePost",
      "outputs": [],
      "stateMutability": "nonpayable",
      "type": "function"
    },
    {
      "inputs": [
        {
          "internalType": "address",
          "name": "_walletId",
          "type": "address"
        },
        {
          "internalType": "uint256",
          "name": "_postId",
          "type": "uint256"
        },
        {
          "internalType": "string",
          "name": "_commentContent",
          "type": "string"
        }
      ],
      "name": "makeComment",
      "outputs": [],
      "stateMutability": "nonpayable",
      "type": "function"
    },
    {
      "inputs": [
        {
          "internalType": "address",
          "name": "_walletId",
          "type": "address"
        },
        {
          "internalType": "uint256",
          "name": "_postId",
          "type": "uint256"
        }
      ],
      "name": "likePost",
      "outputs": [],
      "stateMutability": "nonpayable",
      "type": "function"
    },
    {
      "inputs": [
        {
          "internalType": "address",
          "name": "_walletId",
          "type": "address"
        }
      ],
      "name": "getPosts",
      "outputs": [
        {
          "components": [
            {
              "internalType": "uint256",
              "name": "postId",
              "type": "uint256"
            },
            {
              "internalType": "string",
              "name": "postContent",
              "type": "string"
            },
            {
              "internalType": "uint256",
              "name": "likeCount",
              "type": "uint256"
            },
            {
              "internalType": "uint256",
              "name": "commentCount",
              "type": "uint256"
            }
          ],
          "internalType": "struct UserContract.PostStruct[]",
          "name": "",
          "type": "tuple[]"
        }
      ],
      "stateMutability": "view",
      "type": "function",
      "constant": true
    },
    {
      "inputs": [
        {
          "internalType": "address",
          "name": "_walletId",
          "type": "address"
        }
      ],
      "name": "getComments",
      "outputs": [
        {
          "components": [
            {
              "internalType": "uint256",
              "name": "commentId",
              "type": "uint256"
            },
            {
              "internalType": "string",
              "name": "commentContent",
              "type": "string"
            },
            {
              "internalType": "uint256",
              "name": "likeCount",
              "type": "uint256"
            }
          ],
          "internalType": "struct UserContract.CommentStruct[]",
          "name": "",
          "type": "tuple[]"
        }
      ],
      "stateMutability": "view",
      "type": "function",
      "constant": true
    },
    {
      "inputs": [
        {
          "internalType": "address",
          "name": "_walletId",
          "type": "address"
        }
      ],
      "name": "getPostCount",
      "outputs": [
        {
          "internalType": "uint256",
          "name": "",
          "type": "uint256"
        }
      ],
      "stateMutability": "view",
      "type": "function",
      "constant": true
    },
    {
      "inputs": [
        {
          "internalType": "address",
          "name": "_walletId",
          "type": "address"
        }
      ],
      "name": "getCommentCount",
      "outputs": [
        {
          "internalType": "uint256",
          "name": "",
          "type": "uint256"
        }
      ],
      "stateMutability": "view",
      "type": "function",
      "constant": true
    },
    {
      "inputs": [
        {
          "internalType": "address",
          "name": "_walletId",
          "type": "address"
        }
      ],
      "name": "getLikeCount",
      "outputs": [
        {
          "internalType": "uint256",
          "name": "",
          "type": "uint256"
        }
      ],
      "stateMutability": "view",
      "type": "function",
      "constant": true
    }
  ],
  "bytecode": "0x608060405234801561001057600080fd5b506000808190555060006001819055506139ce8061002f6000396000f3fe60806040523480156200001157600080fd5b5060043610620001005760003560e01c80636f77926b1162000099578063a9b2e715116200006f578063a9b2e71514620002d1578063b5cb15f714620002f3578063e94456a71462000315578063f3f2fdc4146200034b5762000100565b80636f77926b146200024157806385f5eac1146200027b578063a4c7fafa146200029b5762000100565b80634caf9d0b11620000db5780634caf9d0b14620001955780634ceb48fd14620001cb5780634d81312014620001eb5780635f329fb2146200020b5762000100565b806317fe375f146200010557806319447eb6146200013b578063483515291462000175575b600080fd5b6200012360048036038101906200011d91906200139d565b6200036b565b604051620001329190620015aa565b60405180910390f35b6200015960048036038101906200015391906200139d565b62000453565b6040516200016c9594939291906200164e565b60405180910390f35b6200019360048036038101906200018d9190620016ea565b620005f6565b005b620001b36004803603810190620001ad91906200139d565b620006d1565b604051620001c291906200186c565b60405180910390f35b620001e96004803603810190620001e39190620019e1565b620007b9565b005b6200020960048036038101906200020391906200139d565b62000a58565b005b6200022960048036038101906200022391906200139d565b62000ad0565b60405162000238919062001a8c565b60405180910390f35b6200025f60048036038101906200025991906200139d565b62000bb2565b6040516200027295949392919062001aa9565b60405180910390f35b62000299600480360381019062000293919062001b14565b62000f86565b005b620002b96004803603810190620002b391906200139d565b62001064565b604051620002c8919062001a8c565b60405180910390f35b620002db62001146565b604051620002ea919062001a8c565b60405180910390f35b620002fd62001150565b6040516200030c919062001a8c565b60405180910390f35b6200033360048036038101906200032d91906200139d565b62001159565b60405162000342919062001a8c565b60405180910390f35b62000369600480360381019062000363919062001b8f565b6200123b565b005b60606000600260008473ffffffffffffffffffffffffffffffffffffffff1673ffffffffffffffffffffffffffffffffffffffff16815260200190815260200160002060010160009054906101000a900473ffffffffffffffffffffffffffffffffffffffff1690508073ffffffffffffffffffffffffffffffffffffffff166391f3410c6040518163ffffffff1660e01b8152600401600060405180830381865afa15801562000420573d6000803e3d6000fd5b505050506040513d6000823e3d601f19601f820116820180604052508101906200044b919062001e1e565b915050919050565b60026020528060005260406000206000915090508060000160009054906101000a900473ffffffffffffffffffffffffffffffffffffffff16908060010160009054906101000a900473ffffffffffffffffffffffffffffffffffffffff1690806002018054620004c49062001e9e565b80601f0160208091040260200160405190810160405280929190818152602001828054620004f29062001e9e565b8015620005435780601f10620005175761010080835404028352916020019162000543565b820191906000526020600020905b8154815290600101906020018083116200052557829003601f168201915b5050505050908060030180546200055a9062001e9e565b80601f0160208091040260200160405190810160405280929190818152602001828054620005889062001e9e565b8015620005d95780601f10620005ad57610100808354040283529160200191620005d9565b820191906000526020600020905b815481529060010190602001808311620005bb57829003601f168201915b5050505050908060040160009054906101000a900460ff16905085565b6000600260008473ffffffffffffffffffffffffffffffffffffffff1673ffffffffffffffffffffffffffffffffffffffff16815260200190815260200160002060010160009054906101000a900473ffffffffffffffffffffffffffffffffffffffff1690508073ffffffffffffffffffffffffffffffffffffffff1663725009d3836040518263ffffffff1660e01b815260040162000698919062001a8c565b600060405180830381600087803b158015620006b357600080fd5b505af1158015620006c8573d6000803e3d6000fd5b50505050505050565b60606000600260008473ffffffffffffffffffffffffffffffffffffffff1673ffffffffffffffffffffffffffffffffffffffff16815260200190815260200160002060010160009054906101000a900473ffffffffffffffffffffffffffffffffffffffff1690508073ffffffffffffffffffffffffffffffffffffffff166341f3004a6040518163ffffffff1660e01b8152600401600060405180830381865afa15801562000786573d6000803e3d6000fd5b505050506040513d6000823e3d601f19601f82011682018060405250810190620007b191906200206e565b915050919050565b600083604051620007ca9062001316565b620007d69190620020bf565b604051809103906000f080158015620007f3573d6000803e3d6000fd5b50905083600260008673ffffffffffffffffffffffffffffffffffffffff1673ffffffffffffffffffffffffffffffffffffffff16815260200190815260200160002060000160006101000a81548173ffffffffffffffffffffffffffffffffffffffff021916908373ffffffffffffffffffffffffffffffffffffffff16021790555082600260008673ffffffffffffffffffffffffffffffffffffffff1673ffffffffffffffffffffffffffffffffffffffff1681526020019081526020016000206002019081620008c89190620022ae565b5081600260008673ffffffffffffffffffffffffffffffffffffffff1673ffffffffffffffffffffffffffffffffffffffff16815260200190815260200160002060030190816200091a9190620022ae565b506000600260008673ffffffffffffffffffffffffffffffffffffffff1673ffffffffffffffffffffffffffffffffffffffff16815260200190815260200160002060040160006101000a81548160ff02191690831515021790555080600260008673ffffffffffffffffffffffffffffffffffffffff1673ffffffffffffffffffffffffffffffffffffffff16815260200190815260200160002060010160006101000a81548173ffffffffffffffffffffffffffffffffffffffff021916908373ffffffffffffffffffffffffffffffffffffffff16021790555060008081548092919062000a0b90620023c4565b91905055507f2041b7a4351ac706257b308fda32769804e2afadd729e9b0ef211b0dd03312fc84828585600060405162000a4a9594939291906200164e565b60405180910390a150505050565b6001600260008373ffffffffffffffffffffffffffffffffffffffff1673ffffffffffffffffffffffffffffffffffffffff16815260200190815260200160002060040160006101000a81548160ff0219169083151502179055506001600081548092919062000ac890620023c4565b919050555050565b600080600260008473ffffffffffffffffffffffffffffffffffffffff1673ffffffffffffffffffffffffffffffffffffffff16815260200190815260200160002060010160009054906101000a900473ffffffffffffffffffffffffffffffffffffffff1690508073ffffffffffffffffffffffffffffffffffffffff166316e31ea36040518163ffffffff1660e01b8152600401602060405180830381865afa15801562000b84573d6000803e3d6000fd5b505050506040513d601f19601f8201168201806040525081019062000baa919062002411565b915050919050565b6000606080600080600073ffffffffffffffffffffffffffffffffffffffff16600260008873ffffffffffffffffffffffffffffffffffffffff1673ffffffffffffffffffffffffffffffffffffffff16815260200190815260200160002060000160009054906101000a900473ffffffffffffffffffffffffffffffffffffffff1673ffffffffffffffffffffffffffffffffffffffff160362000cb05760008060006040518060400160405280601681526020017f6163636f756e7420646f6573206e6f742065786973740000000000000000000081525091906040518060200160405280600081525091909450945094509450945062000f7d565b600260008773ffffffffffffffffffffffffffffffffffffffff1673ffffffffffffffffffffffffffffffffffffffff16815260200190815260200160002060000160009054906101000a900473ffffffffffffffffffffffffffffffffffffffff16600260008873ffffffffffffffffffffffffffffffffffffffff1673ffffffffffffffffffffffffffffffffffffffff168152602001908152602001600020600201600260008973ffffffffffffffffffffffffffffffffffffffff1673ffffffffffffffffffffffffffffffffffffffff168152602001908152602001600020600301600260008a73ffffffffffffffffffffffffffffffffffffffff1673ffffffffffffffffffffffffffffffffffffffff16815260200190815260200160002060040160009054906101000a900460ff16600260008b73ffffffffffffffffffffffffffffffffffffffff1673ffffffffffffffffffffffffffffffffffffffff16815260200190815260200160002060010160009054906101000a900473ffffffffffffffffffffffffffffffffffffffff1683805462000e589062001e9e565b80601f016020809104026020016040519081016040528092919081815260200182805462000e869062001e9e565b801562000ed75780601f1062000eab5761010080835404028352916020019162000ed7565b820191906000526020600020905b81548152906001019060200180831162000eb957829003601f168201915b5050505050935082805462000eec9062001e9e565b80601f016020809104026020016040519081016040528092919081815260200182805462000f1a9062001e9e565b801562000f6b5780601f1062000f3f5761010080835404028352916020019162000f6b565b820191906000526020600020905b81548152906001019060200180831162000f4d57829003601f168201915b50505050509250945094509450945094505b91939590929450565b6000600260008573ffffffffffffffffffffffffffffffffffffffff1673ffffffffffffffffffffffffffffffffffffffff16815260200190815260200160002060010160009054906101000a900473ffffffffffffffffffffffffffffffffffffffff1690508073ffffffffffffffffffffffffffffffffffffffff166340a1798584846040518363ffffffff1660e01b81526004016200102a92919062002443565b600060405180830381600087803b1580156200104557600080fd5b505af11580156200105a573d6000803e3d6000fd5b5050505050505050565b600080600260008473ffffffffffffffffffffffffffffffffffffffff1673ffffffffffffffffffffffffffffffffffffffff16815260200190815260200160002060010160009054906101000a900473ffffffffffffffffffffffffffffffffffffffff1690508073ffffffffffffffffffffffffffffffffffffffff1663bcc954076040518163ffffffff1660e01b8152600401602060405180830381865afa15801562001118573d6000803e3d6000fd5b505050506040513d601f19601f820116820180604052508101906200113e919062002411565b915050919050565b6000600154905090565b60008054905090565b600080600260008473ffffffffffffffffffffffffffffffffffffffff1673ffffffffffffffffffffffffffffffffffffffff16815260200190815260200160002060010160009054906101000a900473ffffffffffffffffffffffffffffffffffffffff1690508073ffffffffffffffffffffffffffffffffffffffff1663c4d67b096040518163ffffffff1660e01b8152600401602060405180830381865afa1580156200120d573d6000803e3d6000fd5b505050506040513d601f19601f8201168201806040525081019062001233919062002411565b915050919050565b6000600260008473ffffffffffffffffffffffffffffffffffffffff1673ffffffffffffffffffffffffffffffffffffffff16815260200190815260200160002060010160009054906101000a900473ffffffffffffffffffffffffffffffffffffffff1690508073ffffffffffffffffffffffffffffffffffffffff1663c7303c61836040518263ffffffff1660e01b8152600401620012dd919062002477565b600060405180830381600087803b158015620012f857600080fd5b505af11580156200130d573d6000803e3d6000fd5b50505050505050565b6114fd806200249c83390190565b6000604051905090565b600080fd5b600080fd5b600073ffffffffffffffffffffffffffffffffffffffff82169050919050565b6000620013658262001338565b9050919050565b620013778162001358565b81146200138357600080fd5b50565b60008135905062001397816200136c565b92915050565b600060208284031215620013b657620013b56200132e565b5b6000620013c68482850162001386565b91505092915050565b600081519050919050565b600082825260208201905092915050565b6000819050602082019050919050565b6000819050919050565b6200141081620013fb565b82525050565b600081519050919050565b600082825260208201905092915050565b60005b838110156200145257808201518184015260208101905062001435565b60008484015250505050565b6000601f19601f8301169050919050565b60006200147c8262001416565b62001488818562001421565b93506200149a81856020860162001432565b620014a5816200145e565b840191505092915050565b6000606083016000830151620014ca600086018262001405565b5060208301518482036020860152620014e482826200146f565b9150506040830151620014fb604086018262001405565b508091505092915050565b6000620015148383620014b0565b905092915050565b6000602082019050919050565b60006200153682620013cf565b620015428185620013da565b9350836020820285016200155685620013eb565b8060005b8581101562001598578484038952815162001576858262001506565b945062001583836200151c565b925060208a019950506001810190506200155a565b50829750879550505050505092915050565b60006020820190508181036000830152620015c6818462001529565b905092915050565b620015d98162001358565b82525050565b600082825260208201905092915050565b6000620015fd8262001416565b620016098185620015df565b93506200161b81856020860162001432565b62001626816200145e565b840191505092915050565b60008115159050919050565b620016488162001631565b82525050565b600060a082019050620016656000830188620015ce565b620016746020830187620015ce565b8181036040830152620016888186620015f0565b905081810360608301526200169e8185620015f0565b9050620016af60808301846200163d565b9695505050505050565b620016c481620013fb565b8114620016d057600080fd5b50565b600081359050620016e481620016b9565b92915050565b600080604083850312156200170457620017036200132e565b5b6000620017148582860162001386565b92505060206200172785828601620016d3565b9150509250929050565b600081519050919050565b600082825260208201905092915050565b6000819050602082019050919050565b600060808301600083015162001777600086018262001405565b50602083015184820360208601526200179182826200146f565b9150506040830151620017a8604086018262001405565b506060830151620017bd606086018262001405565b508091505092915050565b6000620017d683836200175d565b905092915050565b6000602082019050919050565b6000620017f88262001731565b6200180481856200173c565b93508360208202850162001818856200174d565b8060005b858110156200185a5784840389528151620018388582620017c8565b94506200184583620017de565b925060208a019950506001810190506200181c565b50829750879550505050505092915050565b60006020820190508181036000830152620018888184620017eb565b905092915050565b600080fd5b600080fd5b7f4e487b7100000000000000000000000000000000000000000000000000000000600052604160045260246000fd5b620018d4826200145e565b810181811067ffffffffffffffff82111715620018f657620018f56200189a565b5b80604052505050565b60006200190b62001324565b9050620019198282620018c9565b919050565b600067ffffffffffffffff8211156200193c576200193b6200189a565b5b62001947826200145e565b9050602081019050919050565b82818337600083830152505050565b60006200197a62001974846200191e565b620018ff565b90508281526020810184848401111562001999576200199862001895565b5b620019a684828562001954565b509392505050565b600082601f830112620019c657620019c562001890565b5b8135620019d884826020860162001963565b91505092915050565b600080600060608486031215620019fd57620019fc6200132e565b5b600062001a0d8682870162001386565b935050602084013567ffffffffffffffff81111562001a315762001a3062001333565b5b62001a3f86828701620019ae565b925050604084013567ffffffffffffffff81111562001a635762001a6262001333565b5b62001a7186828701620019ae565b9150509250925092565b62001a8681620013fb565b82525050565b600060208201905062001aa3600083018462001a7b565b92915050565b600060a08201905062001ac06000830188620015ce565b818103602083015262001ad48187620015f0565b9050818103604083015262001aea8186620015f0565b905062001afb60608301856200163d565b62001b0a6080830184620015ce565b9695505050505050565b60008060006060848603121562001b305762001b2f6200132e565b5b600062001b408682870162001386565b935050602062001b5386828701620016d3565b925050604084013567ffffffffffffffff81111562001b775762001b7662001333565b5b62001b8586828701620019ae565b9150509250925092565b6000806040838503121562001ba95762001ba86200132e565b5b600062001bb98582860162001386565b925050602083013567ffffffffffffffff81111562001bdd5762001bdc62001333565b5b62001beb85828601620019ae565b9150509250929050565b600067ffffffffffffffff82111562001c135762001c126200189a565b5b602082029050602081019050919050565b600080fd5b600080fd5b600080fd5b60008151905062001c4481620016b9565b92915050565b600062001c6162001c5b846200191e565b620018ff565b90508281526020810184848401111562001c805762001c7f62001895565b5b62001c8d84828562001432565b509392505050565b600082601f83011262001cad5762001cac62001890565b5b815162001cbf84826020860162001c4a565b91505092915050565b60006060828403121562001ce15762001ce062001c29565b5b62001ced6060620018ff565b9050600062001cff8482850162001c33565b600083015250602082015167ffffffffffffffff81111562001d265762001d2562001c2e565b5b62001d348482850162001c95565b602083015250604062001d4a8482850162001c33565b60408301525092915050565b600062001d6d62001d678462001bf5565b620018ff565b9050808382526020820190506020840283018581111562001d935762001d9262001c24565b5b835b8181101562001de157805167ffffffffffffffff81111562001dbc5762001dbb62001890565b5b80860162001dcb898262001cc8565b8552602085019450505060208101905062001d95565b5050509392505050565b600082601f83011262001e035762001e0262001890565b5b815162001e1584826020860162001d56565b91505092915050565b60006020828403121562001e375762001e366200132e565b5b600082015167ffffffffffffffff81111562001e585762001e5762001333565b5b62001e668482850162001deb565b91505092915050565b7f4e487b7100000000000000000000000000000000000000000000000000000000600052602260045260246000fd5b6000600282049050600182168062001eb757607f821691505b60208210810362001ecd5762001ecc62001e6f565b5b50919050565b600067ffffffffffffffff82111562001ef15762001ef06200189a565b5b602082029050602081019050919050565b60006080828403121562001f1b5762001f1a62001c29565b5b62001f276080620018ff565b9050600062001f398482850162001c33565b600083015250602082015167ffffffffffffffff81111562001f605762001f5f62001c2e565b5b62001f6e8482850162001c95565b602083015250604062001f848482850162001c33565b604083015250606062001f9a8482850162001c33565b60608301525092915050565b600062001fbd62001fb78462001ed3565b620018ff565b9050808382526020820190506020840283018581111562001fe35762001fe262001c24565b5b835b818110156200203157805167ffffffffffffffff8111156200200c576200200b62001890565b5b8086016200201b898262001f02565b8552602085019450505060208101905062001fe5565b5050509392505050565b600082601f83011262002053576200205262001890565b5b81516200206584826020860162001fa6565b91505092915050565b6000602082840312156200208757620020866200132e565b5b600082015167ffffffffffffffff811115620020a857620020a762001333565b5b620020b6848285016200203b565b91505092915050565b6000602082019050620020d66000830184620015ce565b92915050565b60008190508160005260206000209050919050565b60006020601f8301049050919050565b600082821b905092915050565b600060088302620021407fffffffffffffffffffffffffffffffffffffffffffffffffffffffffffffffff8262002101565b6200214c868362002101565b95508019841693508086168417925050509392505050565b6000819050919050565b60006200218f620021896200218384620013fb565b62002164565b620013fb565b9050919050565b6000819050919050565b620021ab836200216e565b620021c3620021ba8262002196565b8484546200210e565b825550505050565b600090565b620021da620021cb565b620021e7818484620021a0565b505050565b5b818110156200220f5762002203600082620021d0565b600181019050620021ed565b5050565b601f8211156200225e576200222881620020dc565b6200223384620020f1565b8101602085101562002243578190505b6200225b6200225285620020f1565b830182620021ec565b50505b505050565b600082821c905092915050565b6000620022836000198460080262002263565b1980831691505092915050565b60006200229e838362002270565b9150826002028217905092915050565b620022b98262001416565b67ffffffffffffffff811115620022d557620022d46200189a565b5b620022e1825462001e9e565b620022ee82828562002213565b600060209050601f83116001811462002326576000841562002311578287015190505b6200231d858262002290565b8655506200238d565b601f1984166200233686620020dc565b60005b82811015620023605784890151825560018201915060208501945060208101905062002339565b868310156200238057848901516200237c601f89168262002270565b8355505b6001600288020188555050505b505050505050565b7f4e487b7100000000000000000000000000000000000000000000000000000000600052601160045260246000fd5b6000620023d182620013fb565b91507fffffffffffffffffffffffffffffffffffffffffffffffffffffffffffffffff820362002406576200240562002395565b5b600182019050919050565b6000602082840312156200242a57620024296200132e565b5b60006200243a8482850162001c33565b91505092915050565b60006040820190506200245a600083018562001a7b565b81810360208301526200246e8184620015f0565b90509392505050565b60006020820190508181036000830152620024938184620015f0565b90509291505056fe60806040523480156200001157600080fd5b50604051620014fd380380620014fd833981810160405281019062000037919062000100565b80600360006101000a81548173ffffffffffffffffffffffffffffffffffffffff021916908373ffffffffffffffffffffffffffffffffffffffff16021790555060008081905550600060018190555060006002819055505062000132565b600080fd5b600073ffffffffffffffffffffffffffffffffffffffff82169050919050565b6000620000c8826200009b565b9050919050565b620000da81620000bb565b8114620000e657600080fd5b50565b600081519050620000fa81620000cf565b92915050565b60006020828403121562000119576200011862000096565b5b60006200012984828501620000e9565b91505092915050565b6113bb80620001426000396000f3fe608060405234801561001057600080fd5b506004361061009e5760003560e01c806391f3410c1161006657806391f3410c1461014a578063b1c8384014610168578063bcc954071461019a578063c4d67b09146101b8578063c7303c61146101d65761009e565b806316e31ea3146100a357806340a17985146100c157806341f3004a146100dd5780636f94a366146100fb578063725009d31461012e575b600080fd5b6100ab6101f2565b6040516100b891906108ec565b60405180910390f35b6100db60048036038101906100d69190610a8d565b6101fc565b005b6100e56102e5565b6040516100f29190610c9c565b60405180910390f35b61011560048036038101906101109190610cbe565b610454565b6040516101259493929190610d35565b60405180910390f35b61014860048036038101906101439190610cbe565b61050c565b005b610152610588565b60405161015f9190610e93565b60405180910390f35b610182600480360381019061017d9190610cbe565b6106ee565b60405161019193929190610eb5565b60405180910390f35b6101a26107a0565b6040516101af91906108ec565b60405180910390f35b6101c06107a9565b6040516101cd91906108ec565b60405180910390f35b6101f060048036038101906101eb9190610ef3565b6107b3565b005b6000600154905090565b600154600560006001548152602001908152602001600020600001819055508060056000600154815260200190815260200160002060010190816102409190611148565b5060006005600060015481526020019081526020016000206002018190555060046000838152602001908152602001600020600301600081548092919061028690611249565b91905055506001600081548092919061029e90611249565b91905055507fb355fcd66e2b46067119b64e24bea4f5f0478651710a06cc627f7b5e94fa04d46001548260006040516102d9939291906112cc565b60405180910390a15050565b60606000805467ffffffffffffffff81111561030457610303610962565b5b60405190808252806020026020018201604052801561033d57816020015b61032a61088a565b8152602001906001900390816103225790505b50905060005b60005481101561044c57600460008281526020019081526020016000206040518060800160405290816000820154815260200160018201805461038590610f6b565b80601f01602080910402602001604051908101604052809291908181526020018280546103b190610f6b565b80156103fe5780601f106103d3576101008083540402835291602001916103fe565b820191906000526020600020905b8154815290600101906020018083116103e157829003601f168201915b505050505081526020016002820154815260200160038201548152505082828151811061042e5761042d61130a565b5b6020026020010181905250808061044490611249565b915050610343565b508091505090565b600460205280600052604060002060009150905080600001549080600101805461047d90610f6b565b80601f01602080910402602001604051908101604052809291908181526020018280546104a990610f6b565b80156104f65780601f106104cb576101008083540402835291602001916104f6565b820191906000526020600020905b8154815290600101906020018083116104d957829003601f168201915b5050505050908060020154908060030154905084565b60046000828152602001908152602001600020600201600081548092919061053390611249565b91905055507f447c5d872ffc7fa2763b13dd068980191537823d15b95a6566333782d757d945600460008381526020019081526020016000206002015460405161057d91906108ec565b60405180910390a150565b6060600060015467ffffffffffffffff8111156105a8576105a7610962565b5b6040519080825280602002602001820160405280156105e157816020015b6105ce6108b2565b8152602001906001900390816105c65790505b50905060005b6001548110156106e657600560008281526020019081526020016000206040518060600160405290816000820154815260200160018201805461062990610f6b565b80601f016020809104026020016040519081016040528092919081815260200182805461065590610f6b565b80156106a25780601f10610677576101008083540402835291602001916106a2565b820191906000526020600020905b81548152906001019060200180831161068557829003601f168201915b505050505081526020016002820154815250508282815181106106c8576106c761130a565b5b602002602001018190525080806106de90611249565b9150506105e7565b508091505090565b600560205280600052604060002060009150905080600001549080600101805461071790610f6b565b80601f016020809104026020016040519081016040528092919081815260200182805461074390610f6b565b80156107905780601f1061076557610100808354040283529160200191610790565b820191906000526020600020905b81548152906001019060200180831161077357829003601f168201915b5050505050908060020154905083565b60008054905090565b6000600254905090565b60005460046000805481526020019081526020016000206000018190555080600460008054815260200190815260200160002060010190816107f59190611148565b506000600460008054815260200190815260200160002060020181905550600060046000805481526020019081526020016000206003018190555060008081548092919061084290611249565b91905055507f3c2e48f10481af3957834ee43a888206548cfcec6be012d46e263a309ec1c78b6000548260008060405161087f9493929190611339565b60405180910390a150565b6040518060800160405280600081526020016060815260200160008152602001600081525090565b60405180606001604052806000815260200160608152602001600081525090565b6000819050919050565b6108e6816108d3565b82525050565b600060208201905061090160008301846108dd565b92915050565b6000604051905090565b600080fd5b600080fd5b610924816108d3565b811461092f57600080fd5b50565b6000813590506109418161091b565b92915050565b600080fd5b600080fd5b6000601f19601f8301169050919050565b7f4e487b7100000000000000000000000000000000000000000000000000000000600052604160045260246000fd5b61099a82610951565b810181811067ffffffffffffffff821117156109b9576109b8610962565b5b80604052505050565b60006109cc610907565b90506109d88282610991565b919050565b600067ffffffffffffffff8211156109f8576109f7610962565b5b610a0182610951565b9050602081019050919050565b82818337600083830152505050565b6000610a30610a2b846109dd565b6109c2565b905082815260208101848484011115610a4c57610a4b61094c565b5b610a57848285610a0e565b509392505050565b600082601f830112610a7457610a73610947565b5b8135610a84848260208601610a1d565b91505092915050565b60008060408385031215610aa457610aa3610911565b5b6000610ab285828601610932565b925050602083013567ffffffffffffffff811115610ad357610ad2610916565b5b610adf85828601610a5f565b9150509250929050565b600081519050919050565b600082825260208201905092915050565b6000819050602082019050919050565b610b1e816108d3565b82525050565b600081519050919050565b600082825260208201905092915050565b60005b83811015610b5e578082015181840152602081019050610b43565b60008484015250505050565b6000610b7582610b24565b610b7f8185610b2f565b9350610b8f818560208601610b40565b610b9881610951565b840191505092915050565b6000608083016000830151610bbb6000860182610b15565b5060208301518482036020860152610bd38282610b6a565b9150506040830151610be86040860182610b15565b506060830151610bfb6060860182610b15565b508091505092915050565b6000610c128383610ba3565b905092915050565b6000602082019050919050565b6000610c3282610ae9565b610c3c8185610af4565b935083602082028501610c4e85610b05565b8060005b85811015610c8a5784840389528151610c6b8582610c06565b9450610c7683610c1a565b925060208a01995050600181019050610c52565b50829750879550505050505092915050565b60006020820190508181036000830152610cb68184610c27565b905092915050565b600060208284031215610cd457610cd3610911565b5b6000610ce284828501610932565b91505092915050565b600082825260208201905092915050565b6000610d0782610b24565b610d118185610ceb565b9350610d21818560208601610b40565b610d2a81610951565b840191505092915050565b6000608082019050610d4a60008301876108dd565b8181036020830152610d5c8186610cfc565b9050610d6b60408301856108dd565b610d7860608301846108dd565b95945050505050565b600081519050919050565b600082825260208201905092915050565b6000819050602082019050919050565b6000606083016000830151610dc56000860182610b15565b5060208301518482036020860152610ddd8282610b6a565b9150506040830151610df26040860182610b15565b508091505092915050565b6000610e098383610dad565b905092915050565b6000602082019050919050565b6000610e2982610d81565b610e338185610d8c565b935083602082028501610e4585610d9d565b8060005b85811015610e815784840389528151610e628582610dfd565b9450610e6d83610e11565b925060208a01995050600181019050610e49565b50829750879550505050505092915050565b60006020820190508181036000830152610ead8184610e1e565b905092915050565b6000606082019050610eca60008301866108dd565b8181036020830152610edc8185610cfc565b9050610eeb60408301846108dd565b949350505050565b600060208284031215610f0957610f08610911565b5b600082013567ffffffffffffffff811115610f2757610f26610916565b5b610f3384828501610a5f565b91505092915050565b7f4e487b7100000000000000000000000000000000000000000000000000000000600052602260045260246000fd5b60006002820490506001821680610f8357607f821691505b602082108103610f9657610f95610f3c565b5b50919050565b60008190508160005260206000209050919050565b60006020601f8301049050919050565b600082821b905092915050565b600060088302610ffe7fffffffffffffffffffffffffffffffffffffffffffffffffffffffffffffffff82610fc1565b6110088683610fc1565b95508019841693508086168417925050509392505050565b6000819050919050565b600061104561104061103b846108d3565b611020565b6108d3565b9050919050565b6000819050919050565b61105f8361102a565b61107361106b8261104c565b848454610fce565b825550505050565b600090565b61108861107b565b611093818484611056565b505050565b5b818110156110b7576110ac600082611080565b600181019050611099565b5050565b601f8211156110fc576110cd81610f9c565b6110d684610fb1565b810160208510156110e5578190505b6110f96110f185610fb1565b830182611098565b50505b505050565b600082821c905092915050565b600061111f60001984600802611101565b1980831691505092915050565b6000611138838361110e565b9150826002028217905092915050565b61115182610b24565b67ffffffffffffffff81111561116a57611169610962565b5b6111748254610f6b565b61117f8282856110bb565b600060209050601f8311600181146111b257600084156111a0578287015190505b6111aa858261112c565b865550611212565b601f1984166111c086610f9c565b60005b828110156111e8578489015182556001820191506020850194506020810190506111c3565b868310156112055784890151611201601f89168261110e565b8355505b6001600288020188555050505b505050505050565b7f4e487b7100000000000000000000000000000000000000000000000000000000600052601160045260246000fd5b6000611254826108d3565b91507fffffffffffffffffffffffffffffffffffffffffffffffffffffffffffffffff82036112865761128561121a565b5b600182019050919050565b6000819050919050565b60006112b66112b16112ac84611291565b611020565b6108d3565b9050919050565b6112c68161129b565b82525050565b60006060820190506112e160008301866108dd565b81810360208301526112f38185610cfc565b905061130260408301846112bd565b949350505050565b7f4e487b7100000000000000000000000000000000000000000000000000000000600052603260045260246000fd5b600060808201905061134e60008301876108dd565b81810360208301526113608186610cfc565b905061136f60408301856112bd565b61137c60608301846112bd565b9594505050505056fea26469706673582212202162e23abf063b377b6601f693d732f10441c78ecf5686aadb43baad4ae3f7b264736f6c63430008110033a264697066735822122027a2e2253b1f20000357f33b18b0ebfc3bdbec5a6953bc3b2bf4aa4ddbbf004d64736f6c63430008110033",
  "immutableReferences": {},
  "source": "// SPDX-License-Identifier: GPL-3.0\r\npragma solidity >=0.8.0;\r\n\r\ncontract Maincontract {\r\n    uint256 userCounts;\r\n    uint256 verifiedUserCounts;\r\n\r\n    constructor() {\r\n        userCounts = 0;\r\n        verifiedUserCounts = 0;\r\n    }\r\n\r\n    struct UserStruct {\r\n        address walletId;\r\n        address userContractAddress;\r\n        string userName;\r\n        string password;\r\n        bool isVerified;\r\n    }\r\n\r\n    event User(\r\n        address walletId,\r\n        address userContractAddress,\r\n        string userName,\r\n        string password,\r\n        bool isVerified\r\n    );\r\n\r\n    mapping(address => UserStruct) public userStructs;\r\n\r\n    function createUser(\r\n        address _walletId,\r\n        string memory _userName,\r\n        string memory _password\r\n    ) public {\r\n        address uca = address(new UserContract(_walletId));\r\n        userStructs[_walletId].walletId = _walletId;\r\n        userStructs[_walletId].userName = _userName;\r\n        userStructs[_walletId].password = _password;\r\n        userStructs[_walletId].isVerified = false;\r\n        userStructs[_walletId].userContractAddress = uca;\r\n        userCounts++;\r\n        emit User(_walletId, uca, _userName, _password, false);\r\n    }\r\n\r\n    function getUser(address _walletId)\r\n        public\r\n        view\r\n        returns (\r\n            address,\r\n            string memory,\r\n            string memory,\r\n            bool,\r\n            address\r\n        )\r\n    {\r\n        if (userStructs[_walletId].walletId == address(0)) {\r\n            return (\r\n                address(0),\r\n                \"account does not exist\",\r\n                \"\",\r\n                false,\r\n                address(0)\r\n            );\r\n        }\r\n        return (\r\n            userStructs[_walletId].walletId,\r\n            userStructs[_walletId].userName,\r\n            userStructs[_walletId].password,\r\n            userStructs[_walletId].isVerified,\r\n            userStructs[_walletId].userContractAddress\r\n        );\r\n    }\r\n\r\n    function getUserCount() public view returns (uint256) {\r\n        return userCounts;\r\n    }\r\n\r\n    function getVerifiedUserCount() public view returns (uint256) {\r\n        return verifiedUserCounts;\r\n    }\r\n\r\n    function verifyUser(address _walletId) public {\r\n        userStructs[_walletId].isVerified = true;\r\n        verifiedUserCounts++;\r\n    }\r\n\r\n    function makePost(address _walletId, string memory _postContent) public {\r\n        UserContract uc = UserContract(\r\n            userStructs[_walletId].userContractAddress\r\n        );\r\n        uc.createPost(_postContent);\r\n    }\r\n\r\n    function makeComment(\r\n        address _walletId,\r\n        uint256 _postId,\r\n        string memory _commentContent\r\n    ) public {\r\n        UserContract uc = UserContract(\r\n            userStructs[_walletId].userContractAddress\r\n        );\r\n        uc.createComment(_postId, _commentContent);\r\n    }\r\n\r\n    function likePost(address _walletId, uint256 _postId) public {\r\n        UserContract uc = UserContract(\r\n            userStructs[_walletId].userContractAddress\r\n        );\r\n        uc.likePost(_postId);\r\n    }\r\n\r\n    function getPosts(address _walletId)\r\n        public\r\n        view\r\n        returns (UserContract.PostStruct[] memory)\r\n    {\r\n        UserContract uc = UserContract(\r\n            userStructs[_walletId].userContractAddress\r\n        );\r\n        return uc.getPosts();\r\n    }\r\n\r\n    function getComments(address _walletId)\r\n        public\r\n        view\r\n        returns (UserContract.CommentStruct[] memory)\r\n    {\r\n        UserContract uc = UserContract(\r\n            userStructs[_walletId].userContractAddress\r\n        );\r\n        return uc.getComments();\r\n    }\r\n\r\n    function getPostCount(address _walletId) public view returns (uint256) {\r\n        UserContract uc = UserContract(\r\n            userStructs[_walletId].userContractAddress\r\n        );\r\n        return uc.getPostCount();\r\n    }\r\n\r\n    function getCommentCount(address _walletId) public view returns (uint256) {\r\n        UserContract uc = UserContract(\r\n            userStructs[_walletId].userContractAddress\r\n        );\r\n        return uc.getCommentCount();\r\n    }\r\n\r\n    function getLikeCount(address _walletId) public view returns (uint256) {\r\n        UserContract uc = UserContract(\r\n            userStructs[_walletId].userContractAddress\r\n        );\r\n        return uc.getLikeCount();\r\n    }\r\n}\r\n\r\n///////////////////////////////////////////////////////////////////////////////////////////////////////////////////////////////////////\r\n\r\ncontract UserContract {\r\n    uint256 postCounts;\r\n    uint256 commentCounts;\r\n    uint256 likeCounts;\r\n    address owner;\r\n\r\n    constructor(address walletId) {\r\n        owner = walletId;\r\n        postCounts = 0;\r\n        commentCounts = 0;\r\n        likeCounts = 0;\r\n    }\r\n\r\n    struct PostStruct {\r\n        uint256 postId;\r\n        string postContent;\r\n        uint256 likeCount;\r\n        uint256 commentCount;\r\n    }\r\n    struct CommentStruct {\r\n        uint256 commentId;\r\n        string commentContent;\r\n        uint256 likeCount;\r\n    }\r\n\r\n    event Post(\r\n        uint256 postId,\r\n        string postContent,\r\n        uint256 likeCount,\r\n        uint256 commentCount\r\n    );\r\n    event Comment(uint256 commentId, string commentContent, uint256 likeCount);\r\n    event Like(uint256 likeCount);\r\n\r\n    mapping(uint256 => PostStruct) public postStructs;\r\n    mapping(uint256 => CommentStruct) public commentStructs;\r\n\r\n    function createPost(string memory _postContent) public {\r\n        postStructs[postCounts].postId = postCounts;\r\n        postStructs[postCounts].postContent = _postContent;\r\n        postStructs[postCounts].likeCount = 0;\r\n        postStructs[postCounts].commentCount = 0;\r\n        postCounts++;\r\n        emit Post(postCounts, _postContent, 0, 0);\r\n    }\r\n\r\n    function createComment(uint256 _postId, string memory _commentContent)\r\n        public\r\n    {\r\n        commentStructs[commentCounts].commentId = commentCounts;\r\n        commentStructs[commentCounts].commentContent = _commentContent;\r\n        commentStructs[commentCounts].likeCount = 0;\r\n        postStructs[_postId].commentCount++;\r\n        commentCounts++;\r\n        emit Comment(commentCounts, _commentContent, 0);\r\n    }\r\n\r\n    function likePost(uint256 _postId) public {\r\n        postStructs[_postId].likeCount++;\r\n        emit Like(postStructs[_postId].likeCount);\r\n    }\r\n\r\n    function getPosts() public view returns (PostStruct[] memory) {\r\n        PostStruct[] memory posts = new PostStruct[](postCounts);\r\n        for (uint256 i = 0; i < postCounts; i++) {\r\n            posts[i] = postStructs[i];\r\n        }\r\n        return posts;\r\n    }\r\n\r\n    function getComments() public view returns (CommentStruct[] memory) {\r\n        CommentStruct[] memory comments = new CommentStruct[](commentCounts);\r\n        for (uint256 i = 0; i < commentCounts; i++) {\r\n            comments[i] = commentStructs[i];\r\n        }\r\n        return comments;\r\n    }\r\n\r\n    function getPostCount() public view returns (uint256) {\r\n        return postCounts;\r\n    }\r\n\r\n    function getCommentCount() public view returns (uint256) {\r\n        return commentCounts;\r\n    }\r\n\r\n    function getLikeCount() public view returns (uint256) {\r\n        return likeCounts;\r\n    }\r\n}\r\n",
  "sourcePath": "D:\\Users\\Desktop\\BOOOKS\\SEMESTER 7\\BCT\\Project\\DE-Verse\\smartcontract\\contracts\\Main.sol",
  "compiler": {
    "name": "solc",
    "version": "0.8.17+commit.8df45f5f.Emscripten.clang"
  },
  "schemaVersion": "3.4.10",
  "updatedAt": "2022-12-13T16:30:26.953Z",
  "networkType": "ethereum",
  "devdoc": {
    "kind": "dev",
    "methods": {},
    "version": 1
  },
  "userdoc": {
    "kind": "user",
    "methods": {},
    "version": 1
  }
}