{
  "contractName": "Maincontract",
  "abi": [
    {
      "inputs": [],
      "stateMutability": "nonpayable",
      "type": "constructor"
    },
    {
      "anonymous": false,
      "inputs": [
        {
          "indexed": false,
          "internalType": "uint256",
          "name": "postId",
          "type": "uint256"
        },
        {
          "indexed": false,
          "internalType": "string",
          "name": "postContent",
          "type": "string"
        },
        {
          "indexed": false,
          "internalType": "uint256",
          "name": "likeCount",
          "type": "uint256"
        },
        {
          "indexed": false,
          "internalType": "uint256",
          "name": "commentCount",
          "type": "uint256"
        },
        {
          "indexed": false,
          "internalType": "string",
          "name": "timeStamp",
          "type": "string"
        },
        {
          "indexed": false,
          "internalType": "string",
          "name": "userName",
          "type": "string"
        },
        {
          "indexed": false,
          "internalType": "bool",
          "name": "isVerified",
          "type": "bool"
        }
      ],
      "name": "Post",
      "type": "event"
    },
    {
      "anonymous": false,
      "inputs": [
        {
          "indexed": false,
          "internalType": "address",
          "name": "walletId",
          "type": "address"
        },
        {
          "indexed": false,
          "internalType": "address",
          "name": "userContractAddress",
          "type": "address"
        },
        {
          "indexed": false,
          "internalType": "string",
          "name": "userName",
          "type": "string"
        },
        {
          "indexed": false,
          "internalType": "string",
          "name": "password",
          "type": "string"
        },
        {
          "indexed": false,
          "internalType": "bool",
          "name": "isVerified",
          "type": "bool"
        }
      ],
      "name": "User",
      "type": "event"
    },
    {
      "inputs": [
        {
          "internalType": "uint256",
          "name": "",
          "type": "uint256"
        }
      ],
      "name": "numberToWalletId",
      "outputs": [
        {
          "internalType": "address",
          "name": "",
          "type": "address"
        }
      ],
      "stateMutability": "view",
      "type": "function",
      "constant": true
    },
    {
      "inputs": [
        {
          "internalType": "string",
          "name": "",
          "type": "string"
        }
      ],
      "name": "userNameToWalletId",
      "outputs": [
        {
          "internalType": "address",
          "name": "",
          "type": "address"
        }
      ],
      "stateMutability": "view",
      "type": "function",
      "constant": true
    },
    {
      "inputs": [
        {
          "internalType": "address",
          "name": "",
          "type": "address"
        }
      ],
      "name": "userStructs",
      "outputs": [
        {
          "internalType": "address",
          "name": "walletId",
          "type": "address"
        },
        {
          "internalType": "address",
          "name": "userContractAddress",
          "type": "address"
        },
        {
          "internalType": "string",
          "name": "userName",
          "type": "string"
        },
        {
          "internalType": "string",
          "name": "password",
          "type": "string"
        },
        {
          "internalType": "bool",
          "name": "isVerified",
          "type": "bool"
        }
      ],
      "stateMutability": "view",
      "type": "function",
      "constant": true
    },
    {
      "inputs": [
        {
          "internalType": "address",
          "name": "_walletId",
          "type": "address"
        },
        {
          "internalType": "string",
          "name": "_userName",
          "type": "string"
        },
        {
          "internalType": "string",
          "name": "_password",
          "type": "string"
        }
      ],
      "name": "createUser",
      "outputs": [],
      "stateMutability": "nonpayable",
      "type": "function"
    },
    {
      "inputs": [
        {
          "internalType": "address",
          "name": "_walletId",
          "type": "address"
        }
      ],
      "name": "getUser",
      "outputs": [
        {
          "internalType": "address",
          "name": "",
          "type": "address"
        },
        {
          "internalType": "string",
          "name": "",
          "type": "string"
        },
        {
          "internalType": "string",
          "name": "",
          "type": "string"
        },
        {
          "internalType": "bool",
          "name": "",
          "type": "bool"
        },
        {
          "internalType": "address",
          "name": "",
          "type": "address"
        }
      ],
      "stateMutability": "view",
      "type": "function",
      "constant": true
    },
    {
      "inputs": [
        {
          "internalType": "string",
          "name": "_userName",
          "type": "string"
        }
      ],
      "name": "getUserByUserName",
      "outputs": [
        {
          "internalType": "address",
          "name": "",
          "type": "address"
        },
        {
          "internalType": "string",
          "name": "",
          "type": "string"
        },
        {
          "internalType": "string",
          "name": "",
          "type": "string"
        },
        {
          "internalType": "bool",
          "name": "",
          "type": "bool"
        },
        {
          "internalType": "address",
          "name": "",
          "type": "address"
        }
      ],
      "stateMutability": "view",
      "type": "function",
      "constant": true
    },
    {
      "inputs": [],
      "name": "getUserCount",
      "outputs": [
        {
          "internalType": "uint256",
          "name": "",
          "type": "uint256"
        }
      ],
      "stateMutability": "view",
      "type": "function",
      "constant": true
    },
    {
      "inputs": [],
      "name": "getVerifiedUserCount",
      "outputs": [
        {
          "internalType": "uint256",
          "name": "",
          "type": "uint256"
        }
      ],
      "stateMutability": "view",
      "type": "function",
      "constant": true
    },
    {
      "inputs": [
        {
          "internalType": "address",
          "name": "_walletId",
          "type": "address"
        }
      ],
      "name": "verifyUser",
      "outputs": [],
      "stateMutability": "nonpayable",
      "type": "function"
    },
    {
      "inputs": [
        {
          "internalType": "address",
          "name": "_walletId",
          "type": "address"
        },
        {
          "internalType": "string",
          "name": "_postContent",
          "type": "string"
        },
        {
          "internalType": "string",
          "name": "timeStamp",
          "type": "string"
        }
      ],
      "name": "makePost",
      "outputs": [],
      "stateMutability": "nonpayable",
      "type": "function"
    },
    {
      "inputs": [
        {
          "internalType": "string",
          "name": "_comment",
          "type": "string"
        },
        {
          "internalType": "string",
          "name": "_postOwner",
          "type": "string"
        },
        {
          "internalType": "uint256",
          "name": "_postId",
          "type": "uint256"
        }
      ],
      "name": "makeComment",
      "outputs": [],
      "stateMutability": "nonpayable",
      "type": "function"
    },
    {
      "inputs": [
        {
          "internalType": "string",
          "name": "_postOwner",
          "type": "string"
        }
      ],
      "name": "getComments",
      "outputs": [
        {
          "internalType": "string[]",
          "name": "",
          "type": "string[]"
        }
      ],
      "stateMutability": "view",
      "type": "function",
      "constant": true
    },
    {
      "inputs": [
        {
          "internalType": "string",
          "name": "_userName",
          "type": "string"
        },
        {
          "internalType": "uint256",
          "name": "_postId",
          "type": "uint256"
        },
        {
          "internalType": "address",
          "name": "_myWalletId",
          "type": "address"
        }
      ],
      "name": "likePost",
      "outputs": [],
      "stateMutability": "nonpayable",
      "type": "function"
    },
    {
      "inputs": [
        {
          "internalType": "address",
          "name": "_walletId",
          "type": "address"
        },
        {
          "internalType": "address",
          "name": "_followingId",
          "type": "address"
        }
      ],
      "name": "followUser",
      "outputs": [],
      "stateMutability": "nonpayable",
      "type": "function"
    },
    {
      "inputs": [
        {
          "internalType": "address",
          "name": "_walletId",
          "type": "address"
        }
      ],
      "name": "getFollowing",
      "outputs": [
        {
          "internalType": "address[]",
          "name": "",
          "type": "address[]"
        }
      ],
      "stateMutability": "view",
      "type": "function",
      "constant": true
    },
    {
      "inputs": [
        {
          "internalType": "address",
          "name": "_walletId",
          "type": "address"
        }
      ],
      "name": "getFollowersCount",
      "outputs": [
        {
          "internalType": "uint256",
          "name": "",
          "type": "uint256"
        }
      ],
      "stateMutability": "view",
      "type": "function",
      "constant": true
    },
    {
      "inputs": [
        {
          "internalType": "address",
          "name": "_walletId",
          "type": "address"
        }
      ],
      "name": "getPosts",
      "outputs": [
        {
          "components": [
            {
              "internalType": "uint256",
              "name": "postId",
              "type": "uint256"
            },
            {
              "internalType": "string",
              "name": "postContent",
              "type": "string"
            },
            {
              "internalType": "uint256",
              "name": "likeCount",
              "type": "uint256"
            },
            {
              "internalType": "uint256",
              "name": "commentCount",
              "type": "uint256"
            },
            {
              "internalType": "string",
              "name": "timeStamp",
              "type": "string"
            },
            {
              "internalType": "string",
              "name": "userName",
              "type": "string"
            },
            {
              "internalType": "bool",
              "name": "isVerified",
              "type": "bool"
            }
          ],
          "internalType": "struct UserContract.PostStruct[]",
          "name": "",
          "type": "tuple[]"
        }
      ],
      "stateMutability": "view",
      "type": "function",
      "constant": true
    },
    {
      "inputs": [],
      "name": "getAllUsersAddress",
      "outputs": [
        {
          "internalType": "address[]",
          "name": "",
          "type": "address[]"
        }
      ],
      "stateMutability": "view",
      "type": "function",
      "constant": true
    },
    {
      "inputs": [
        {
          "internalType": "address",
          "name": "_walletId",
          "type": "address"
        }
      ],
      "name": "getPostCount",
      "outputs": [
        {
          "internalType": "uint256",
          "name": "",
          "type": "uint256"
        }
      ],
      "stateMutability": "view",
      "type": "function",
      "constant": true
    },
    {
      "inputs": [
        {
          "internalType": "address",
          "name": "_walletId",
          "type": "address"
        }
      ],
      "name": "getCommentCount",
      "outputs": [
        {
          "internalType": "uint256",
          "name": "",
          "type": "uint256"
        }
      ],
      "stateMutability": "view",
      "type": "function",
      "constant": true
    },
    {
      "inputs": [
        {
          "internalType": "address",
          "name": "_walletId",
          "type": "address"
        }
      ],
      "name": "getLikeCount",
      "outputs": [
        {
          "internalType": "uint256",
          "name": "",
          "type": "uint256"
        }
      ],
      "stateMutability": "view",
      "type": "function",
      "constant": true
    },
    {
      "inputs": [
        {
          "internalType": "address",
          "name": "_walletId",
          "type": "address"
        }
      ],
      "name": "getMyLikes",
      "outputs": [
        {
          "components": [
            {
              "internalType": "uint256",
              "name": "postId",
              "type": "uint256"
            },
            {
              "internalType": "string",
              "name": "userName",
              "type": "string"
            }
          ],
          "internalType": "struct UserContract.myLikeStruct[]",
          "name": "",
          "type": "tuple[]"
        }
      ],
      "stateMutability": "view",
      "type": "function",
      "constant": true
    }
  ],
  "bytecode": "0x608060405234801561001057600080fd5b506000808190555060006001819055506157a78061002f6000396000f3fe60806040523480156200001157600080fd5b5060043610620001605760003560e01c80635f329fb211620000c9578063a9b2e7151162000087578063a9b2e715146200044b578063b5cb15f7146200046d578063be6c8987146200048f578063be9a09cf14620004c9578063d8236dff14620004e9578063e94456a7146200051f5762000160565b80635f329fb214620003395780636f77926b146200036f57806370c63fcc14620003a957806380cf7dee14620003df578063a4c7fafa14620004155762000160565b80633eaf1c2711620001235780633eaf1c27146200024b5780634c787ce1146200026b5780634caf9d0b146200028d5780634ceb48fd14620002c35780634d1a307214620002e35780634d81312014620003195762000160565b80630b6b553714620001655780630c8273e6146200019b57806319447eb614620001bb57806325e9ccf914620001f55780633c410086146200022b575b600080fd5b6200018360048036038101906200017d9190620021ed565b62000555565b60405162000192919062002264565b60405180910390f35b620001b96004803603810190620001b39190620022b2565b62000595565b005b620001d96004803603810190620001d39190620022f9565b6200073a565b604051620001ec959493929190620023e2565b60405180910390f35b6200021360048036038101906200020d9190620022f9565b620008dd565b6040516200022291906200245e565b60405180910390f35b620002496004803603810190620002439190620025cc565b620009bf565b005b62000269600480360381019062000263919062002666565b62000b31565b005b6200027562000d2c565b604051620002849190620027af565b60405180910390f35b620002ab6004803603810190620002a59190620022f9565b62000dbc565b604051620002ba9190620029cf565b60405180910390f35b620002e16004803603810190620002db9190620025cc565b62000ea4565b005b620003016004803603810190620002fb9190620022f9565b62001205565b60405162000310919062002b04565b60405180910390f35b620003376004803603810190620003319190620022f9565b620012ed565b005b620003576004803603810190620003519190620022f9565b62001365565b6040516200036691906200245e565b60405180910390f35b6200038d6004803603810190620003879190620022f9565b62001447565b604051620003a095949392919062002b28565b60405180910390f35b620003c76004803603810190620003c1919062002b93565b6200181b565b604051620003d6919062002cb4565b60405180910390f35b620003fd6004803603810190620003f7919062002b93565b62001949565b6040516200040c919062002264565b60405180910390f35b6200043360048036038101906200042d9190620022f9565b62001992565b6040516200044291906200245e565b60405180910390f35b6200045562001a74565b6040516200046491906200245e565b60405180910390f35b6200047762001a7e565b6040516200048691906200245e565b60405180910390f35b620004ad6004803603810190620004a7919062002b93565b62001a87565b604051620004c095949392919062002b28565b60405180910390f35b620004e76004803603810190620004e1919062002cd8565b62001ea2565b005b620005076004803603810190620005019190620022f9565b62001fc6565b604051620005169190620027af565b60405180910390f35b6200053d6004803603810190620005379190620022f9565b620020ae565b6040516200054c91906200245e565b60405180910390f35b600481815481106200056657600080fd5b906000526020600020016000915054906101000a900473ffffffffffffffffffffffffffffffffffffffff1681565b6000600260008473ffffffffffffffffffffffffffffffffffffffff1673ffffffffffffffffffffffffffffffffffffffff16815260200190815260200160002060010160009054906101000a900473ffffffffffffffffffffffffffffffffffffffff1690508073ffffffffffffffffffffffffffffffffffffffff166399c50dd1836040518263ffffffff1660e01b815260040162000637919062002264565b600060405180830381600087803b1580156200065257600080fd5b505af115801562000667573d6000803e3d6000fd5b505050506000600260008473ffffffffffffffffffffffffffffffffffffffff1673ffffffffffffffffffffffffffffffffffffffff16815260200190815260200160002060010160009054906101000a900473ffffffffffffffffffffffffffffffffffffffff1690508073ffffffffffffffffffffffffffffffffffffffff166360f2e3786040518163ffffffff1660e01b8152600401600060405180830381600087803b1580156200071b57600080fd5b505af115801562000730573d6000803e3d6000fd5b5050505050505050565b60026020528060005260406000206000915090508060000160009054906101000a900473ffffffffffffffffffffffffffffffffffffffff16908060010160009054906101000a900473ffffffffffffffffffffffffffffffffffffffff1690806002018054620007ab9062002da1565b80601f0160208091040260200160405190810160405280929190818152602001828054620007d99062002da1565b80156200082a5780601f10620007fe576101008083540402835291602001916200082a565b820191906000526020600020905b8154815290600101906020018083116200080c57829003601f168201915b505050505090806003018054620008419062002da1565b80601f01602080910402602001604051908101604052809291908181526020018280546200086f9062002da1565b8015620008c05780601f106200089457610100808354040283529160200191620008c0565b820191906000526020600020905b815481529060010190602001808311620008a257829003601f168201915b5050505050908060040160009054906101000a900460ff16905085565b600080600260008473ffffffffffffffffffffffffffffffffffffffff1673ffffffffffffffffffffffffffffffffffffffff16815260200190815260200160002060010160009054906101000a900473ffffffffffffffffffffffffffffffffffffffff1690508073ffffffffffffffffffffffffffffffffffffffff1663e22bce276040518163ffffffff1660e01b8152600401602060405180830381865afa15801562000991573d6000803e3d6000fd5b505050506040513d601f19601f82011682018060405250810190620009b7919062002ded565b915050919050565b6000600260008573ffffffffffffffffffffffffffffffffffffffff1673ffffffffffffffffffffffffffffffffffffffff16815260200190815260200160002060010160009054906101000a900473ffffffffffffffffffffffffffffffffffffffff1690508073ffffffffffffffffffffffffffffffffffffffff1663e71ef23d8484600260008973ffffffffffffffffffffffffffffffffffffffff1673ffffffffffffffffffffffffffffffffffffffff168152602001908152602001600020600201600260008a73ffffffffffffffffffffffffffffffffffffffff1673ffffffffffffffffffffffffffffffffffffffff16815260200190815260200160002060040160009054906101000a900460ff166040518563ffffffff1660e01b815260040162000af7949392919062002ec4565b600060405180830381600087803b15801562000b1257600080fd5b505af115801562000b27573d6000803e3d6000fd5b5050505050505050565b600060038460405162000b45919062002f68565b908152602001604051809103902060009054906101000a900473ffffffffffffffffffffffffffffffffffffffff1690506000600260008373ffffffffffffffffffffffffffffffffffffffff1673ffffffffffffffffffffffffffffffffffffffff16815260200190815260200160002060010160009054906101000a900473ffffffffffffffffffffffffffffffffffffffff1690508073ffffffffffffffffffffffffffffffffffffffff1663725009d3856040518263ffffffff1660e01b815260040162000c1891906200245e565b600060405180830381600087803b15801562000c3357600080fd5b505af115801562000c48573d6000803e3d6000fd5b505050506000600260008573ffffffffffffffffffffffffffffffffffffffff1673ffffffffffffffffffffffffffffffffffffffff16815260200190815260200160002060010160009054906101000a900473ffffffffffffffffffffffffffffffffffffffff1690508073ffffffffffffffffffffffffffffffffffffffff1663eb058a2f86886040518363ffffffff1660e01b815260040162000cf092919062002f81565b600060405180830381600087803b15801562000d0b57600080fd5b505af115801562000d20573d6000803e3d6000fd5b50505050505050505050565b6060600480548060200260200160405190810160405280929190818152602001828054801562000db257602002820191906000526020600020905b8160009054906101000a900473ffffffffffffffffffffffffffffffffffffffff1673ffffffffffffffffffffffffffffffffffffffff168152602001906001019080831162000d67575b5050505050905090565b60606000600260008473ffffffffffffffffffffffffffffffffffffffff1673ffffffffffffffffffffffffffffffffffffffff16815260200190815260200160002060010160009054906101000a900473ffffffffffffffffffffffffffffffffffffffff1690508073ffffffffffffffffffffffffffffffffffffffff166341f3004a6040518163ffffffff1660e01b8152600401600060405180830381865afa15801562000e71573d6000803e3d6000fd5b505050506040513d6000823e3d601f19601f8201168201806040525081019062000e9c91906200328e565b915050919050565b60008360405162000eb59062002190565b62000ec1919062002264565b604051809103906000f08015801562000ede573d6000803e3d6000fd5b50905083600260008673ffffffffffffffffffffffffffffffffffffffff1673ffffffffffffffffffffffffffffffffffffffff16815260200190815260200160002060000160006101000a81548173ffffffffffffffffffffffffffffffffffffffff021916908373ffffffffffffffffffffffffffffffffffffffff16021790555082600260008673ffffffffffffffffffffffffffffffffffffffff1673ffffffffffffffffffffffffffffffffffffffff168152602001908152602001600020600201908162000fb391906200349c565b5081600260008673ffffffffffffffffffffffffffffffffffffffff1673ffffffffffffffffffffffffffffffffffffffff16815260200190815260200160002060030190816200100591906200349c565b506000600260008673ffffffffffffffffffffffffffffffffffffffff1673ffffffffffffffffffffffffffffffffffffffff16815260200190815260200160002060040160006101000a81548160ff02191690831515021790555080600260008673ffffffffffffffffffffffffffffffffffffffff1673ffffffffffffffffffffffffffffffffffffffff16815260200190815260200160002060010160006101000a81548173ffffffffffffffffffffffffffffffffffffffff021916908373ffffffffffffffffffffffffffffffffffffffff160217905550600080815480929190620010f690620035b2565b9190505550836003846040516200110e919062002f68565b908152602001604051809103902060006101000a81548173ffffffffffffffffffffffffffffffffffffffff021916908373ffffffffffffffffffffffffffffffffffffffff1602179055506004849080600181540180825580915050600190039060005260206000200160009091909190916101000a81548173ffffffffffffffffffffffffffffffffffffffff021916908373ffffffffffffffffffffffffffffffffffffffff1602179055507f2041b7a4351ac706257b308fda32769804e2afadd729e9b0ef211b0dd03312fc848285856000604051620011f7959493929190620023e2565b60405180910390a150505050565b60606000600260008473ffffffffffffffffffffffffffffffffffffffff1673ffffffffffffffffffffffffffffffffffffffff16815260200190815260200160002060010160009054906101000a900473ffffffffffffffffffffffffffffffffffffffff1690508073ffffffffffffffffffffffffffffffffffffffff1663ecf0a45d6040518163ffffffff1660e01b8152600401600060405180830381865afa158015620012ba573d6000803e3d6000fd5b505050506040513d6000823e3d601f19601f82011682018060405250810190620012e591906200376e565b915050919050565b6001600260008373ffffffffffffffffffffffffffffffffffffffff1673ffffffffffffffffffffffffffffffffffffffff16815260200190815260200160002060040160006101000a81548160ff021916908315150217905550600160008154809291906200135d90620035b2565b919050555050565b600080600260008473ffffffffffffffffffffffffffffffffffffffff1673ffffffffffffffffffffffffffffffffffffffff16815260200190815260200160002060010160009054906101000a900473ffffffffffffffffffffffffffffffffffffffff1690508073ffffffffffffffffffffffffffffffffffffffff166316e31ea36040518163ffffffff1660e01b8152600401602060405180830381865afa15801562001419573d6000803e3d6000fd5b505050506040513d601f19601f820116820180604052508101906200143f919062002ded565b915050919050565b6000606080600080600073ffffffffffffffffffffffffffffffffffffffff16600260008873ffffffffffffffffffffffffffffffffffffffff1673ffffffffffffffffffffffffffffffffffffffff16815260200190815260200160002060000160009054906101000a900473ffffffffffffffffffffffffffffffffffffffff1673ffffffffffffffffffffffffffffffffffffffff1603620015455760008060006040518060400160405280601681526020017f6163636f756e7420646f6573206e6f742065786973740000000000000000000081525091906040518060200160405280600081525091909450945094509450945062001812565b600260008773ffffffffffffffffffffffffffffffffffffffff1673ffffffffffffffffffffffffffffffffffffffff16815260200190815260200160002060000160009054906101000a900473ffffffffffffffffffffffffffffffffffffffff16600260008873ffffffffffffffffffffffffffffffffffffffff1673ffffffffffffffffffffffffffffffffffffffff168152602001908152602001600020600201600260008973ffffffffffffffffffffffffffffffffffffffff1673ffffffffffffffffffffffffffffffffffffffff168152602001908152602001600020600301600260008a73ffffffffffffffffffffffffffffffffffffffff1673ffffffffffffffffffffffffffffffffffffffff16815260200190815260200160002060040160009054906101000a900460ff16600260008b73ffffffffffffffffffffffffffffffffffffffff1673ffffffffffffffffffffffffffffffffffffffff16815260200190815260200160002060010160009054906101000a900473ffffffffffffffffffffffffffffffffffffffff16838054620016ed9062002da1565b80601f01602080910402602001604051908101604052809291908181526020018280546200171b9062002da1565b80156200176c5780601f1062001740576101008083540402835291602001916200176c565b820191906000526020600020905b8154815290600101906020018083116200174e57829003601f168201915b50505050509350828054620017819062002da1565b80601f0160208091040260200160405190810160405280929190818152602001828054620017af9062002da1565b8015620018005780601f10620017d45761010080835404028352916020019162001800565b820191906000526020600020905b815481529060010190602001808311620017e257829003601f168201915b50505050509250945094509450945094505b91939590929450565b6060600060038360405162001831919062002f68565b908152602001604051809103902060009054906101000a900473ffffffffffffffffffffffffffffffffffffffff1690506000600260008373ffffffffffffffffffffffffffffffffffffffff1673ffffffffffffffffffffffffffffffffffffffff16815260200190815260200160002060010160009054906101000a900473ffffffffffffffffffffffffffffffffffffffff1690508073ffffffffffffffffffffffffffffffffffffffff166391f3410c6040518163ffffffff1660e01b8152600401600060405180830381865afa15801562001915573d6000803e3d6000fd5b505050506040513d6000823e3d601f19601f82011682018060405250810190620019409190620038b6565b92505050919050565b6003818051602081018201805184825260208301602085012081835280955050505050506000915054906101000a900473ffffffffffffffffffffffffffffffffffffffff1681565b600080600260008473ffffffffffffffffffffffffffffffffffffffff1673ffffffffffffffffffffffffffffffffffffffff16815260200190815260200160002060010160009054906101000a900473ffffffffffffffffffffffffffffffffffffffff1690508073ffffffffffffffffffffffffffffffffffffffff1663bcc954076040518163ffffffff1660e01b8152600401602060405180830381865afa15801562001a46573d6000803e3d6000fd5b505050506040513d601f19601f8201168201806040525081019062001a6c919062002ded565b915050919050565b6000600154905090565b60008054905090565b6000606080600080600060038760405162001aa3919062002f68565b908152602001604051809103902060009054906101000a900473ffffffffffffffffffffffffffffffffffffffff169050600073ffffffffffffffffffffffffffffffffffffffff16600260008373ffffffffffffffffffffffffffffffffffffffff1673ffffffffffffffffffffffffffffffffffffffff16815260200190815260200160002060000160009054906101000a900473ffffffffffffffffffffffffffffffffffffffff1673ffffffffffffffffffffffffffffffffffffffff160362001bcb5760008060006040518060400160405280601681526020017f6163636f756e7420646f6573206e6f74206578697374000000000000000000008152509190604051806020016040528060008152509190955095509550955095505062001e99565b600260008273ffffffffffffffffffffffffffffffffffffffff1673ffffffffffffffffffffffffffffffffffffffff16815260200190815260200160002060000160009054906101000a900473ffffffffffffffffffffffffffffffffffffffff16600260008373ffffffffffffffffffffffffffffffffffffffff1673ffffffffffffffffffffffffffffffffffffffff168152602001908152602001600020600201600260008473ffffffffffffffffffffffffffffffffffffffff1673ffffffffffffffffffffffffffffffffffffffff168152602001908152602001600020600301600260008573ffffffffffffffffffffffffffffffffffffffff1673ffffffffffffffffffffffffffffffffffffffff16815260200190815260200160002060040160009054906101000a900460ff16600260008673ffffffffffffffffffffffffffffffffffffffff1673ffffffffffffffffffffffffffffffffffffffff16815260200190815260200160002060010160009054906101000a900473ffffffffffffffffffffffffffffffffffffffff1683805462001d739062002da1565b80601f016020809104026020016040519081016040528092919081815260200182805462001da19062002da1565b801562001df25780601f1062001dc65761010080835404028352916020019162001df2565b820191906000526020600020905b81548152906001019060200180831162001dd457829003601f168201915b5050505050935082805462001e079062002da1565b80601f016020809104026020016040519081016040528092919081815260200182805462001e359062002da1565b801562001e865780601f1062001e5a5761010080835404028352916020019162001e86565b820191906000526020600020905b81548152906001019060200180831162001e6857829003601f168201915b5050505050925095509550955095509550505b91939590929450565b600060038360405162001eb6919062002f68565b908152602001604051809103902060009054906101000a900473ffffffffffffffffffffffffffffffffffffffff1690506000600260008373ffffffffffffffffffffffffffffffffffffffff1673ffffffffffffffffffffffffffffffffffffffff16815260200190815260200160002060010160009054906101000a900473ffffffffffffffffffffffffffffffffffffffff1690508073ffffffffffffffffffffffffffffffffffffffff1663f72ead1386856040518363ffffffff1660e01b815260040162001f8b92919062003907565b600060405180830381600087803b15801562001fa657600080fd5b505af115801562001fbb573d6000803e3d6000fd5b505050505050505050565b60606000600260008473ffffffffffffffffffffffffffffffffffffffff1673ffffffffffffffffffffffffffffffffffffffff16815260200190815260200160002060010160009054906101000a900473ffffffffffffffffffffffffffffffffffffffff1690508073ffffffffffffffffffffffffffffffffffffffff166323f147026040518163ffffffff1660e01b8152600401600060405180830381865afa1580156200207b573d6000803e3d6000fd5b505050506040513d6000823e3d601f19601f82011682018060405250810190620020a6919062003a28565b915050919050565b600080600260008473ffffffffffffffffffffffffffffffffffffffff1673ffffffffffffffffffffffffffffffffffffffff16815260200190815260200160002060010160009054906101000a900473ffffffffffffffffffffffffffffffffffffffff1690508073ffffffffffffffffffffffffffffffffffffffff1663c4d67b096040518163ffffffff1660e01b8152600401602060405180830381865afa15801562002162573d6000803e3d6000fd5b505050506040513d601f19601f8201168201806040525081019062002188919062002ded565b915050919050565b611cf88062003a7a83390190565b6000604051905090565b600080fd5b600080fd5b6000819050919050565b620021c781620021b2565b8114620021d357600080fd5b50565b600081359050620021e781620021bc565b92915050565b600060208284031215620022065762002205620021a8565b5b60006200221684828501620021d6565b91505092915050565b600073ffffffffffffffffffffffffffffffffffffffff82169050919050565b60006200224c826200221f565b9050919050565b6200225e816200223f565b82525050565b60006020820190506200227b600083018462002253565b92915050565b6200228c816200223f565b81146200229857600080fd5b50565b600081359050620022ac8162002281565b92915050565b60008060408385031215620022cc57620022cb620021a8565b5b6000620022dc858286016200229b565b9250506020620022ef858286016200229b565b9150509250929050565b600060208284031215620023125762002311620021a8565b5b600062002322848285016200229b565b91505092915050565b600081519050919050565b600082825260208201905092915050565b60005b83811015620023675780820151818401526020810190506200234a565b60008484015250505050565b6000601f19601f8301169050919050565b600062002391826200232b565b6200239d818562002336565b9350620023af81856020860162002347565b620023ba8162002373565b840191505092915050565b60008115159050919050565b620023dc81620023c5565b82525050565b600060a082019050620023f9600083018862002253565b62002408602083018762002253565b81810360408301526200241c818662002384565b9050818103606083015262002432818562002384565b9050620024436080830184620023d1565b9695505050505050565b6200245881620021b2565b82525050565b60006020820190506200247560008301846200244d565b92915050565b600080fd5b600080fd5b7f4e487b7100000000000000000000000000000000000000000000000000000000600052604160045260246000fd5b620024bf8262002373565b810181811067ffffffffffffffff82111715620024e157620024e062002485565b5b80604052505050565b6000620024f66200219e565b9050620025048282620024b4565b919050565b600067ffffffffffffffff82111562002527576200252662002485565b5b620025328262002373565b9050602081019050919050565b82818337600083830152505050565b6000620025656200255f8462002509565b620024ea565b90508281526020810184848401111562002584576200258362002480565b5b620025918482856200253f565b509392505050565b600082601f830112620025b157620025b06200247b565b5b8135620025c38482602086016200254e565b91505092915050565b600080600060608486031215620025e857620025e7620021a8565b5b6000620025f8868287016200229b565b935050602084013567ffffffffffffffff8111156200261c576200261b620021ad565b5b6200262a8682870162002599565b925050604084013567ffffffffffffffff8111156200264e576200264d620021ad565b5b6200265c8682870162002599565b9150509250925092565b600080600060608486031215620026825762002681620021a8565b5b600084013567ffffffffffffffff811115620026a357620026a2620021ad565b5b620026b18682870162002599565b9350506020620026c486828701620021d6565b9250506040620026d7868287016200229b565b9150509250925092565b600081519050919050565b600082825260208201905092915050565b6000819050602082019050919050565b62002718816200223f565b82525050565b60006200272c83836200270d565b60208301905092915050565b6000602082019050919050565b60006200275282620026e1565b6200275e8185620026ec565b93506200276b83620026fd565b8060005b83811015620027a25781516200278688826200271e565b9750620027938362002738565b9250506001810190506200276f565b5085935050505092915050565b60006020820190508181036000830152620027cb818462002745565b905092915050565b600081519050919050565b600082825260208201905092915050565b6000819050602082019050919050565b6200280a81620021b2565b82525050565b600082825260208201905092915050565b60006200282e826200232b565b6200283a818562002810565b93506200284c81856020860162002347565b620028578162002373565b840191505092915050565b6200286d81620023c5565b82525050565b600060e0830160008301516200288d6000860182620027ff565b5060208301518482036020860152620028a7828262002821565b9150506040830151620028be6040860182620027ff565b506060830151620028d36060860182620027ff565b5060808301518482036080860152620028ed828262002821565b91505060a083015184820360a086015262002909828262002821565b91505060c08301516200292060c086018262002862565b508091505092915050565b600062002939838362002873565b905092915050565b6000602082019050919050565b60006200295b82620027d3565b620029678185620027de565b9350836020820285016200297b85620027ef565b8060005b85811015620029bd57848403895281516200299b85826200292b565b9450620029a88362002941565b925060208a019950506001810190506200297f565b50829750879550505050505092915050565b60006020820190508181036000830152620029eb81846200294e565b905092915050565b600081519050919050565b600082825260208201905092915050565b6000819050602082019050919050565b600060408301600083015162002a396000860182620027ff565b506020830151848203602086015262002a53828262002821565b9150508091505092915050565b600062002a6e838362002a1f565b905092915050565b6000602082019050919050565b600062002a9082620029f3565b62002a9c8185620029fe565b93508360208202850162002ab08562002a0f565b8060005b8581101562002af2578484038952815162002ad0858262002a60565b945062002add8362002a76565b925060208a0199505060018101905062002ab4565b50829750879550505050505092915050565b6000602082019050818103600083015262002b20818462002a83565b905092915050565b600060a08201905062002b3f600083018862002253565b818103602083015262002b53818762002384565b9050818103604083015262002b69818662002384565b905062002b7a6060830185620023d1565b62002b89608083018462002253565b9695505050505050565b60006020828403121562002bac5762002bab620021a8565b5b600082013567ffffffffffffffff81111562002bcd5762002bcc620021ad565b5b62002bdb8482850162002599565b91505092915050565b600081519050919050565b600082825260208201905092915050565b6000819050602082019050919050565b600062002c1e838362002821565b905092915050565b6000602082019050919050565b600062002c408262002be4565b62002c4c818562002bef565b93508360208202850162002c608562002c00565b8060005b8581101562002ca2578484038952815162002c80858262002c10565b945062002c8d8362002c26565b925060208a0199505060018101905062002c64565b50829750879550505050505092915050565b6000602082019050818103600083015262002cd0818462002c33565b905092915050565b60008060006060848603121562002cf45762002cf3620021a8565b5b600084013567ffffffffffffffff81111562002d155762002d14620021ad565b5b62002d238682870162002599565b935050602084013567ffffffffffffffff81111562002d475762002d46620021ad565b5b62002d558682870162002599565b925050604062002d6886828701620021d6565b9150509250925092565b7f4e487b7100000000000000000000000000000000000000000000000000000000600052602260045260246000fd5b6000600282049050600182168062002dba57607f821691505b60208210810362002dd05762002dcf62002d72565b5b50919050565b60008151905062002de781620021bc565b92915050565b60006020828403121562002e065762002e05620021a8565b5b600062002e168482850162002dd6565b91505092915050565b60008190508160005260206000209050919050565b6000815462002e438162002da1565b62002e4f818662002336565b9450600182166000811462002e6d576001811462002e845762002ebb565b60ff19831686528115156020028601935062002ebb565b62002e8f8562002e1f565b60005b8381101562002eb35781548189015260018201915060208101905062002e92565b808801955050505b50505092915050565b6000608082019050818103600083015262002ee0818762002384565b9050818103602083015262002ef6818662002384565b9050818103604083015262002f0c818562002e34565b905062002f1d6060830184620023d1565b95945050505050565b600081905092915050565b600062002f3e826200232b565b62002f4a818562002f26565b935062002f5c81856020860162002347565b80840191505092915050565b600062002f76828462002f31565b915081905092915050565b600060408201905062002f9860008301856200244d565b818103602083015262002fac818462002384565b90509392505050565b600067ffffffffffffffff82111562002fd35762002fd262002485565b5b602082029050602081019050919050565b600080fd5b600080fd5b600080fd5b60006200300a620030048462002509565b620024ea565b90508281526020810184848401111562003029576200302862002480565b5b6200303684828562002347565b509392505050565b600082601f8301126200305657620030556200247b565b5b81516200306884826020860162002ff3565b91505092915050565b6200307c81620023c5565b81146200308857600080fd5b50565b6000815190506200309c8162003071565b92915050565b600060e08284031215620030bb57620030ba62002fe9565b5b620030c760e0620024ea565b90506000620030d98482850162002dd6565b600083015250602082015167ffffffffffffffff8111156200310057620030ff62002fee565b5b6200310e848285016200303e565b6020830152506040620031248482850162002dd6565b60408301525060606200313a8482850162002dd6565b606083015250608082015167ffffffffffffffff81111562003161576200316062002fee565b5b6200316f848285016200303e565b60808301525060a082015167ffffffffffffffff81111562003196576200319562002fee565b5b620031a4848285016200303e565b60a08301525060c0620031ba848285016200308b565b60c08301525092915050565b6000620031dd620031d78462002fb5565b620024ea565b9050808382526020820190506020840283018581111562003203576200320262002fe4565b5b835b818110156200325157805167ffffffffffffffff8111156200322c576200322b6200247b565b5b8086016200323b8982620030a2565b8552602085019450505060208101905062003205565b5050509392505050565b600082601f8301126200327357620032726200247b565b5b815162003285848260208601620031c6565b91505092915050565b600060208284031215620032a757620032a6620021a8565b5b600082015167ffffffffffffffff811115620032c857620032c7620021ad565b5b620032d6848285016200325b565b91505092915050565b60006020601f8301049050919050565b600082821b905092915050565b6000600883026200332e7fffffffffffffffffffffffffffffffffffffffffffffffffffffffffffffffff82620032ef565b6200333a8683620032ef565b95508019841693508086168417925050509392505050565b6000819050919050565b60006200337d620033776200337184620021b2565b62003352565b620021b2565b9050919050565b6000819050919050565b62003399836200335c565b620033b1620033a88262003384565b848454620032fc565b825550505050565b600090565b620033c8620033b9565b620033d58184846200338e565b505050565b5b81811015620033fd57620033f1600082620033be565b600181019050620033db565b5050565b601f8211156200344c57620034168162002e1f565b6200342184620032df565b8101602085101562003431578190505b620034496200344085620032df565b830182620033da565b50505b505050565b600082821c905092915050565b6000620034716000198460080262003451565b1980831691505092915050565b60006200348c83836200345e565b9150826002028217905092915050565b620034a7826200232b565b67ffffffffffffffff811115620034c357620034c262002485565b5b620034cf825462002da1565b620034dc82828562003401565b600060209050601f831160018114620035145760008415620034ff578287015190505b6200350b85826200347e565b8655506200357b565b601f198416620035248662002e1f565b60005b828110156200354e5784890151825560018201915060208501945060208101905062003527565b868310156200356e57848901516200356a601f8916826200345e565b8355505b6001600288020188555050505b505050505050565b7f4e487b7100000000000000000000000000000000000000000000000000000000600052601160045260246000fd5b6000620035bf82620021b2565b91507fffffffffffffffffffffffffffffffffffffffffffffffffffffffffffffffff8203620035f457620035f362003583565b5b600182019050919050565b600067ffffffffffffffff8211156200361d576200361c62002485565b5b602082029050602081019050919050565b60006040828403121562003647576200364662002fe9565b5b620036536040620024ea565b90506000620036658482850162002dd6565b600083015250602082015167ffffffffffffffff8111156200368c576200368b62002fee565b5b6200369a848285016200303e565b60208301525092915050565b6000620036bd620036b784620035ff565b620024ea565b90508083825260208201905060208402830185811115620036e357620036e262002fe4565b5b835b818110156200373157805167ffffffffffffffff8111156200370c576200370b6200247b565b5b8086016200371b89826200362e565b85526020850194505050602081019050620036e5565b5050509392505050565b600082601f8301126200375357620037526200247b565b5b815162003765848260208601620036a6565b91505092915050565b600060208284031215620037875762003786620021a8565b5b600082015167ffffffffffffffff811115620037a857620037a7620021ad565b5b620037b6848285016200373b565b91505092915050565b600067ffffffffffffffff821115620037dd57620037dc62002485565b5b602082029050602081019050919050565b600062003805620037ff84620037bf565b620024ea565b905080838252602082019050602084028301858111156200382b576200382a62002fe4565b5b835b818110156200387957805167ffffffffffffffff8111156200385457620038536200247b565b5b8086016200386389826200303e565b855260208501945050506020810190506200382d565b5050509392505050565b600082601f8301126200389b576200389a6200247b565b5b8151620038ad848260208601620037ee565b91505092915050565b600060208284031215620038cf57620038ce620021a8565b5b600082015167ffffffffffffffff811115620038f057620038ef620021ad565b5b620038fe8482850162003883565b91505092915050565b6000604082019050818103600083015262003923818562002384565b90506200393460208301846200244d565b9392505050565b600067ffffffffffffffff82111562003959576200395862002485565b5b602082029050602081019050919050565b6000815190506200397b8162002281565b92915050565b60006200399862003992846200393b565b620024ea565b90508083825260208201905060208402830185811115620039be57620039bd62002fe4565b5b835b81811015620039eb5780620039d688826200396a565b845260208401935050602081019050620039c0565b5050509392505050565b600082601f83011262003a0d5762003a0c6200247b565b5b815162003a1f84826020860162003981565b91505092915050565b60006020828403121562003a415762003a40620021a8565b5b600082015167ffffffffffffffff81111562003a625762003a61620021ad565b5b62003a7084828501620039f5565b9150509291505056fe60806040523480156200001157600080fd5b5060405162001cf838038062001cf8833981810160405281019062000037919062000100565b80600360006101000a81548173ffffffffffffffffffffffffffffffffffffffff021916908373ffffffffffffffffffffffffffffffffffffffff16021790555060008081905550600060018190555060006002819055505062000132565b600080fd5b600073ffffffffffffffffffffffffffffffffffffffff82169050919050565b6000620000c8826200009b565b9050919050565b620000da81620000bb565b8114620000e657600080fd5b50565b600081519050620000fa81620000cf565b92915050565b60006020828403121562000119576200011862000096565b5b60006200012984828501620000e9565b91505092915050565b611bb680620001426000396000f3fe608060405234801561001057600080fd5b50600436106100f55760003560e01c806399c50dd111610097578063e71ef23d11610066578063e71ef23d14610244578063eb058a2f14610260578063ecf0a45d1461027c578063f72ead131461029a576100f5565b806399c50dd1146101ce578063bcc95407146101ea578063c4d67b0914610208578063e22bce2714610226576100f5565b806360f2e378116100d357806360f2e378146101545780636f94a3661461015e578063725009d31461019457806391f3410c146101b0576100f5565b806316e31ea3146100fa57806323f147021461011857806341f3004a14610136575b600080fd5b6101026102b6565b60405161010f9190610d4c565b60405180910390f35b6101206102c0565b60405161012d9190610e57565b60405180910390f35b61013e61034e565b60405161014b919061109f565b60405180910390f35b61015c6105fc565b005b61017860048036038101906101739190611101565b610616565b60405161018b9796959493929190611187565b60405180910390f35b6101ae60048036038101906101a99190611101565b6107fd565b005b6101b8610879565b6040516101c591906112cd565b60405180910390f35b6101e860048036038101906101e3919061131b565b610952565b005b6101f26109b8565b6040516101ff9190610d4c565b60405180910390f35b6102106109c1565b60405161021d9190610d4c565b60405180910390f35b61022e6109cb565b60405161023b9190610d4c565b60405180910390f35b61025e600480360381019061025991906114a9565b6109d5565b005b61027a60048036038101906102759190611564565b610b2e565b005b610284610b94565b60405161029191906116bf565b60405180910390f35b6102b460048036038101906102af91906116e1565b610c8f565b005b6000600154905090565b6060600580548060200260200160405190810160405280929190818152602001828054801561034457602002820191906000526020600020905b8160009054906101000a900473ffffffffffffffffffffffffffffffffffffffff1673ffffffffffffffffffffffffffffffffffffffff16815260200190600101908083116102fa575b5050505050905090565b60606000805467ffffffffffffffff81111561036d5761036c611352565b5b6040519080825280602002602001820160405280156103a657816020015b610393610cf4565b81526020019060019003908161038b5790505b50905060005b6000548110156105f457600860008281526020019081526020016000206040518060e0016040529081600082015481526020016001820180546103ee9061176c565b80601f016020809104026020016040519081016040528092919081815260200182805461041a9061176c565b80156104675780601f1061043c57610100808354040283529160200191610467565b820191906000526020600020905b81548152906001019060200180831161044a57829003601f168201915b5050505050815260200160028201548152602001600382015481526020016004820180546104949061176c565b80601f01602080910402602001604051908101604052809291908181526020018280546104c09061176c565b801561050d5780601f106104e25761010080835404028352916020019161050d565b820191906000526020600020905b8154815290600101906020018083116104f057829003601f168201915b505050505081526020016005820180546105269061176c565b80601f01602080910402602001604051908101604052809291908181526020018280546105529061176c565b801561059f5780601f106105745761010080835404028352916020019161059f565b820191906000526020600020905b81548152906001019060200180831161058257829003601f168201915b505050505081526020016006820160009054906101000a900460ff1615151515815250508282815181106105d6576105d561179d565b5b602002602001018190525080806105ec906117fb565b9150506103ac565b508091505090565b6004600081548092919061060f906117fb565b9190505550565b600860205280600052604060002060009150905080600001549080600101805461063f9061176c565b80601f016020809104026020016040519081016040528092919081815260200182805461066b9061176c565b80156106b85780601f1061068d576101008083540402835291602001916106b8565b820191906000526020600020905b81548152906001019060200180831161069b57829003601f168201915b5050505050908060020154908060030154908060040180546106d99061176c565b80601f01602080910402602001604051908101604052809291908181526020018280546107059061176c565b80156107525780601f1061072757610100808354040283529160200191610752565b820191906000526020600020905b81548152906001019060200180831161073557829003601f168201915b5050505050908060050180546107679061176c565b80601f01602080910402602001604051908101604052809291908181526020018280546107939061176c565b80156107e05780601f106107b5576101008083540402835291602001916107e0565b820191906000526020600020905b8154815290600101906020018083116107c357829003601f168201915b5050505050908060060160009054906101000a900460ff16905087565b600860008281526020019081526020016000206002016000815480929190610824906117fb565b91905055507f447c5d872ffc7fa2763b13dd068980191537823d15b95a6566333782d757d945600860008381526020019081526020016000206002015460405161086e9190610d4c565b60405180910390a150565b60606007805480602002602001604051908101604052809291908181526020016000905b828210156109495783829060005260206000200180546108bc9061176c565b80601f01602080910402602001604051908101604052809291908181526020018280546108e89061176c565b80156109355780601f1061090a57610100808354040283529160200191610935565b820191906000526020600020905b81548152906001019060200180831161091857829003601f168201915b50505050508152602001906001019061089d565b50505050905090565b6005819080600181540180825580915050600190039060005260206000200160009091909190916101000a81548173ffffffffffffffffffffffffffffffffffffffff021916908373ffffffffffffffffffffffffffffffffffffffff16021790555050565b60008054905090565b6000600254905090565b6000600454905090565b6000546008600080548152602001908152602001600020600001819055508360086000805481526020019081526020016000206001019081610a1791906119ef565b50600060086000805481526020019081526020016000206002018190555060006008600080548152602001908152602001600020600301819055508260086000805481526020019081526020016000206004019081610a7691906119ef565b508160086000805481526020019081526020016000206005019081610a9b91906119ef565b5080600860008054815260200190815260200160002060060160006101000a81548160ff021916908315150217905550600080815480929190610add906117fb565b91905055507f689bb0330c1c7078d60ff9632a4be061f5411d6c6d3cfc8960e175d277f6a53e60005485600080878787604051610b209796959493929190611afc565b60405180910390a150505050565b60066040518060400160405280848152602001838152509080600181540180825580915050600190039060005260206000209060020201600090919091909150600082015181600001556020820151816001019081610b8d91906119ef565b5050505050565b60606006805480602002602001604051908101604052809291908181526020016000905b82821015610c86578382906000526020600020906002020160405180604001604052908160008201548152602001600182018054610bf59061176c565b80601f0160208091040260200160405190810160405280929190818152602001828054610c219061176c565b8015610c6e5780601f10610c4357610100808354040283529160200191610c6e565b820191906000526020600020905b815481529060010190602001808311610c5157829003601f168201915b50505050508152505081526020019060010190610bb8565b50505050905090565b600782908060018154018082558091505060019003906000526020600020016000909190919091509081610cc391906119ef565b50600860008281526020019081526020016000206003016000815480929190610ceb906117fb565b91905055505050565b6040518060e001604052806000815260200160608152602001600081526020016000815260200160608152602001606081526020016000151581525090565b6000819050919050565b610d4681610d33565b82525050565b6000602082019050610d616000830184610d3d565b92915050565b600081519050919050565b600082825260208201905092915050565b6000819050602082019050919050565b600073ffffffffffffffffffffffffffffffffffffffff82169050919050565b6000610dbe82610d93565b9050919050565b610dce81610db3565b82525050565b6000610de08383610dc5565b60208301905092915050565b6000602082019050919050565b6000610e0482610d67565b610e0e8185610d72565b9350610e1983610d83565b8060005b83811015610e4a578151610e318882610dd4565b9750610e3c83610dec565b925050600181019050610e1d565b5085935050505092915050565b60006020820190508181036000830152610e718184610df9565b905092915050565b600081519050919050565b600082825260208201905092915050565b6000819050602082019050919050565b610eae81610d33565b82525050565b600081519050919050565b600082825260208201905092915050565b60005b83811015610eee578082015181840152602081019050610ed3565b60008484015250505050565b6000601f19601f8301169050919050565b6000610f1682610eb4565b610f208185610ebf565b9350610f30818560208601610ed0565b610f3981610efa565b840191505092915050565b60008115159050919050565b610f5981610f44565b82525050565b600060e083016000830151610f776000860182610ea5565b5060208301518482036020860152610f8f8282610f0b565b9150506040830151610fa46040860182610ea5565b506060830151610fb76060860182610ea5565b5060808301518482036080860152610fcf8282610f0b565b91505060a083015184820360a0860152610fe98282610f0b565b91505060c0830151610ffe60c0860182610f50565b508091505092915050565b60006110158383610f5f565b905092915050565b6000602082019050919050565b600061103582610e79565b61103f8185610e84565b93508360208202850161105185610e95565b8060005b8581101561108d578484038952815161106e8582611009565b94506110798361101d565b925060208a01995050600181019050611055565b50829750879550505050505092915050565b600060208201905081810360008301526110b9818461102a565b905092915050565b6000604051905090565b600080fd5b600080fd5b6110de81610d33565b81146110e957600080fd5b50565b6000813590506110fb816110d5565b92915050565b600060208284031215611117576111166110cb565b5b6000611125848285016110ec565b91505092915050565b600082825260208201905092915050565b600061114a82610eb4565b611154818561112e565b9350611164818560208601610ed0565b61116d81610efa565b840191505092915050565b61118181610f44565b82525050565b600060e08201905061119c600083018a610d3d565b81810360208301526111ae818961113f565b90506111bd6040830188610d3d565b6111ca6060830187610d3d565b81810360808301526111dc818661113f565b905081810360a08301526111f0818561113f565b90506111ff60c0830184611178565b98975050505050505050565b600081519050919050565b600082825260208201905092915050565b6000819050602082019050919050565b60006112438383610f0b565b905092915050565b6000602082019050919050565b60006112638261120b565b61126d8185611216565b93508360208202850161127f85611227565b8060005b858110156112bb578484038952815161129c8582611237565b94506112a78361124b565b925060208a01995050600181019050611283565b50829750879550505050505092915050565b600060208201905081810360008301526112e78184611258565b905092915050565b6112f881610db3565b811461130357600080fd5b50565b600081359050611315816112ef565b92915050565b600060208284031215611331576113306110cb565b5b600061133f84828501611306565b91505092915050565b600080fd5b600080fd5b7f4e487b7100000000000000000000000000000000000000000000000000000000600052604160045260246000fd5b61138a82610efa565b810181811067ffffffffffffffff821117156113a9576113a8611352565b5b80604052505050565b60006113bc6110c1565b90506113c88282611381565b919050565b600067ffffffffffffffff8211156113e8576113e7611352565b5b6113f182610efa565b9050602081019050919050565b82818337600083830152505050565b600061142061141b846113cd565b6113b2565b90508281526020810184848401111561143c5761143b61134d565b5b6114478482856113fe565b509392505050565b600082601f83011261146457611463611348565b5b813561147484826020860161140d565b91505092915050565b61148681610f44565b811461149157600080fd5b50565b6000813590506114a38161147d565b92915050565b600080600080608085870312156114c3576114c26110cb565b5b600085013567ffffffffffffffff8111156114e1576114e06110d0565b5b6114ed8782880161144f565b945050602085013567ffffffffffffffff81111561150e5761150d6110d0565b5b61151a8782880161144f565b935050604085013567ffffffffffffffff81111561153b5761153a6110d0565b5b6115478782880161144f565b925050606061155887828801611494565b91505092959194509250565b6000806040838503121561157b5761157a6110cb565b5b6000611589858286016110ec565b925050602083013567ffffffffffffffff8111156115aa576115a96110d0565b5b6115b68582860161144f565b9150509250929050565b600081519050919050565b600082825260208201905092915050565b6000819050602082019050919050565b60006040830160008301516116046000860182610ea5565b506020830151848203602086015261161c8282610f0b565b9150508091505092915050565b600061163583836115ec565b905092915050565b6000602082019050919050565b6000611655826115c0565b61165f81856115cb565b935083602082028501611671856115dc565b8060005b858110156116ad578484038952815161168e8582611629565b94506116998361163d565b925060208a01995050600181019050611675565b50829750879550505050505092915050565b600060208201905081810360008301526116d9818461164a565b905092915050565b600080604083850312156116f8576116f76110cb565b5b600083013567ffffffffffffffff811115611716576117156110d0565b5b6117228582860161144f565b9250506020611733858286016110ec565b9150509250929050565b7f4e487b7100000000000000000000000000000000000000000000000000000000600052602260045260246000fd5b6000600282049050600182168061178457607f821691505b6020821081036117975761179661173d565b5b50919050565b7f4e487b7100000000000000000000000000000000000000000000000000000000600052603260045260246000fd5b7f4e487b7100000000000000000000000000000000000000000000000000000000600052601160045260246000fd5b600061180682610d33565b91507fffffffffffffffffffffffffffffffffffffffffffffffffffffffffffffffff8203611838576118376117cc565b5b600182019050919050565b60008190508160005260206000209050919050565b60006020601f8301049050919050565b600082821b905092915050565b6000600883026118a57fffffffffffffffffffffffffffffffffffffffffffffffffffffffffffffffff82611868565b6118af8683611868565b95508019841693508086168417925050509392505050565b6000819050919050565b60006118ec6118e76118e284610d33565b6118c7565b610d33565b9050919050565b6000819050919050565b611906836118d1565b61191a611912826118f3565b848454611875565b825550505050565b600090565b61192f611922565b61193a8184846118fd565b505050565b5b8181101561195e57611953600082611927565b600181019050611940565b5050565b601f8211156119a35761197481611843565b61197d84611858565b8101602085101561198c578190505b6119a061199885611858565b83018261193f565b50505b505050565b600082821c905092915050565b60006119c6600019846008026119a8565b1980831691505092915050565b60006119df83836119b5565b9150826002028217905092915050565b6119f882610eb4565b67ffffffffffffffff811115611a1157611a10611352565b5b611a1b825461176c565b611a26828285611962565b600060209050601f831160018114611a595760008415611a47578287015190505b611a5185826119d3565b865550611ab9565b601f198416611a6786611843565b60005b82811015611a8f57848901518255600182019150602085019450602081019050611a6a565b86831015611aac5784890151611aa8601f8916826119b5565b8355505b6001600288020188555050505b505050505050565b6000819050919050565b6000611ae6611ae1611adc84611ac1565b6118c7565b610d33565b9050919050565b611af681611acb565b82525050565b600060e082019050611b11600083018a610d3d565b8181036020830152611b23818961113f565b9050611b326040830188611aed565b611b3f6060830187611aed565b8181036080830152611b51818661113f565b905081810360a0830152611b65818561113f565b9050611b7460c0830184611178565b9897505050505050505056fea264697066735822122024b6f8675d282b443654bba1096f511b61d73d85e0a986aaa9f0d50737b23e5c64736f6c63430008110033a2646970667358221220ea0522e7f0d7c031e462b63e89eee9a88f2e4bd28ebc242515a098f3d976ff0e64736f6c63430008110033",
  "immutableReferences": {},
  "source": "// SPDX-License-Identifier: GPL-3.0\r\npragma solidity >=0.8.0;\r\n\r\ncontract Maincontract {\r\n    uint256 userCounts;\r\n    uint256 verifiedUserCounts;\r\n\r\n    constructor() {\r\n        userCounts = 0;\r\n        verifiedUserCounts = 0;\r\n    }\r\n\r\n    struct UserStruct {\r\n        address walletId;\r\n        address userContractAddress;\r\n        string userName;\r\n        string password;\r\n        bool isVerified;\r\n    }\r\n    struct PostStruct {\r\n        uint256 postId;\r\n        string postContent;\r\n        uint256 likeCount;\r\n        uint256 commentCount;\r\n        string timeStamp;\r\n        string userName;\r\n        bool isVerified;\r\n    }\r\n\r\n    event User(\r\n        address walletId,\r\n        address userContractAddress,\r\n        string userName,\r\n        string password,\r\n        bool isVerified\r\n    );\r\n    event Post(\r\n        uint256 postId,\r\n        string postContent,\r\n        uint256 likeCount,\r\n        uint256 commentCount,\r\n        string timeStamp,\r\n        string userName,\r\n        bool isVerified\r\n    );\r\n\r\n    mapping(address => UserStruct) public userStructs;\r\n    mapping(string => address) public userNameToWalletId;\r\n    address[] public numberToWalletId;\r\n\r\n    function createUser(\r\n        address _walletId,\r\n        string memory _userName,\r\n        string memory _password\r\n    ) public {\r\n        address uca = address(new UserContract(_walletId));\r\n        userStructs[_walletId].walletId = _walletId;\r\n        userStructs[_walletId].userName = _userName;\r\n        userStructs[_walletId].password = _password;\r\n        userStructs[_walletId].isVerified = false;\r\n        userStructs[_walletId].userContractAddress = uca;\r\n        userCounts++;\r\n        userNameToWalletId[_userName] = _walletId;\r\n        numberToWalletId.push(_walletId);\r\n        emit User(_walletId, uca, _userName, _password, false);\r\n    }\r\n\r\n    function getUser(address _walletId)\r\n        public\r\n        view\r\n        returns (\r\n            address,\r\n            string memory,\r\n            string memory,\r\n            bool,\r\n            address\r\n        )\r\n    {\r\n        if (userStructs[_walletId].walletId == address(0)) {\r\n            return (\r\n                address(0),\r\n                \"account does not exist\",\r\n                \"\",\r\n                false,\r\n                address(0)\r\n            );\r\n        }\r\n        return (\r\n            userStructs[_walletId].walletId,\r\n            userStructs[_walletId].userName,\r\n            userStructs[_walletId].password,\r\n            userStructs[_walletId].isVerified,\r\n            userStructs[_walletId].userContractAddress\r\n        );\r\n    }\r\n\r\n    function getUserByUserName(string memory _userName)\r\n        public\r\n        view\r\n        returns (\r\n            address,\r\n            string memory,\r\n            string memory,\r\n            bool,\r\n            address\r\n        )\r\n    {\r\n        address _walletId = userNameToWalletId[_userName];\r\n        if (userStructs[_walletId].walletId == address(0)) {\r\n            return (\r\n                address(0),\r\n                \"account does not exist\",\r\n                \"\",\r\n                false,\r\n                address(0)\r\n            );\r\n        }\r\n        return (\r\n            userStructs[_walletId].walletId,\r\n            userStructs[_walletId].userName,\r\n            userStructs[_walletId].password,\r\n            userStructs[_walletId].isVerified,\r\n            userStructs[_walletId].userContractAddress\r\n        );\r\n    }\r\n\r\n    function getUserCount() public view returns (uint256) {\r\n        return userCounts;\r\n    }\r\n\r\n    function getVerifiedUserCount() public view returns (uint256) {\r\n        return verifiedUserCounts;\r\n    }\r\n\r\n    function verifyUser(address _walletId) public {\r\n        userStructs[_walletId].isVerified = true;\r\n        verifiedUserCounts++;\r\n    }\r\n\r\n    function makePost(\r\n        address _walletId,\r\n        string memory _postContent,\r\n        string memory timeStamp\r\n    ) public {\r\n        UserContract uc = UserContract(\r\n            userStructs[_walletId].userContractAddress\r\n        );\r\n        uc.createPost(\r\n            _postContent,\r\n            timeStamp,\r\n            userStructs[_walletId].userName,\r\n            userStructs[_walletId].isVerified\r\n        );\r\n    }\r\n\r\n    function makeComment(\r\n        string memory _comment,\r\n        string memory _postOwner,\r\n        uint256 _postId\r\n    ) public {\r\n        address _walletId = userNameToWalletId[_postOwner];\r\n        UserContract uc = UserContract(\r\n            userStructs[_walletId].userContractAddress\r\n        );\r\n        uc.createComment(_comment, _postId);\r\n    }\r\n\r\n    function getComments(string memory _postOwner)\r\n        public\r\n        view\r\n        returns (string[] memory)\r\n    {\r\n        address _walletId = userNameToWalletId[_postOwner];\r\n        UserContract uc = UserContract(\r\n            userStructs[_walletId].userContractAddress\r\n        );\r\n        return uc.getComments();\r\n    }\r\n\r\n    function likePost(\r\n        string memory _userName,\r\n        uint256 _postId,\r\n        address _myWalletId\r\n    ) public {\r\n        address _walletId = userNameToWalletId[_userName];\r\n        UserContract uc = UserContract(\r\n            userStructs[_walletId].userContractAddress\r\n        );\r\n        uc.likePost(_postId);\r\n        UserContract ucf = UserContract(\r\n            userStructs[_myWalletId].userContractAddress\r\n        );\r\n        // concat postId and userName\r\n        // string memory _postIdAndUserName = string(\r\n        //     abi.encodePacked(_postId, \" \", _userName)\r\n        // );\r\n        ucf.updateMylikes(_postId, _userName);\r\n    }\r\n\r\n    function followUser(address _walletId, address _followingId) public {\r\n        UserContract uc = UserContract(\r\n            userStructs[_walletId].userContractAddress\r\n        );\r\n        uc.followSomeone(_followingId);\r\n        UserContract ucf = UserContract(\r\n            userStructs[_followingId].userContractAddress\r\n        );\r\n        ucf.updateFollowersCount();\r\n    }\r\n\r\n    function getFollowing(address _walletId)\r\n        public\r\n        view\r\n        returns (address[] memory)\r\n    {\r\n        UserContract uc = UserContract(\r\n            userStructs[_walletId].userContractAddress\r\n        );\r\n        return uc.getFollowing();\r\n    }\r\n\r\n    function getFollowersCount(address _walletId)\r\n        public\r\n        view\r\n        returns (uint256)\r\n    {\r\n        UserContract uc = UserContract(\r\n            userStructs[_walletId].userContractAddress\r\n        );\r\n        return uc.getFollowersCount();\r\n    }\r\n\r\n    function getPosts(address _walletId)\r\n        public\r\n        view\r\n        returns (UserContract.PostStruct[] memory)\r\n    {\r\n        UserContract uc = UserContract(\r\n            userStructs[_walletId].userContractAddress\r\n        );\r\n        return uc.getPosts();\r\n    }\r\n\r\n    function getAllUsersAddress() public view returns (address[] memory) {\r\n        return numberToWalletId;\r\n    }\r\n\r\n    function getPostCount(address _walletId) public view returns (uint256) {\r\n        UserContract uc = UserContract(\r\n            userStructs[_walletId].userContractAddress\r\n        );\r\n        return uc.getPostCount();\r\n    }\r\n\r\n    function getCommentCount(address _walletId) public view returns (uint256) {\r\n        UserContract uc = UserContract(\r\n            userStructs[_walletId].userContractAddress\r\n        );\r\n        return uc.getCommentCount();\r\n    }\r\n\r\n    function getLikeCount(address _walletId) public view returns (uint256) {\r\n        UserContract uc = UserContract(\r\n            userStructs[_walletId].userContractAddress\r\n        );\r\n        return uc.getLikeCount();\r\n    }\r\n\r\n    function getMyLikes(address _walletId)\r\n        public\r\n        view\r\n        returns (UserContract.myLikeStruct[] memory)\r\n    {\r\n        UserContract uc = UserContract(\r\n            userStructs[_walletId].userContractAddress\r\n        );\r\n        return uc.getMyLikes();\r\n    }\r\n}\r\n\r\n///////////////////////////////////////////////////////////////////////////////////////////////////////////////////////////////////////\r\n\r\ncontract UserContract {\r\n    uint256 postCounts;\r\n    uint256 commentCounts;\r\n    uint256 likeCounts;\r\n    address owner;\r\n    uint256 followersCount;\r\n    address[] following;\r\n    myLikeStruct[] myLikes;\r\n    string[] comments;\r\n\r\n    constructor(address walletId) {\r\n        owner = walletId;\r\n        postCounts = 0;\r\n        commentCounts = 0;\r\n        likeCounts = 0;\r\n    }\r\n\r\n    struct PostStruct {\r\n        uint256 postId;\r\n        string postContent;\r\n        uint256 likeCount;\r\n        uint256 commentCount;\r\n        string timeStamp;\r\n        string userName;\r\n        bool isVerified;\r\n    }\r\n    // struct CommentStruct {\r\n    //     uint256 commentId;\r\n    //     string commentContent;\r\n    //     uint256 likeCount;\r\n    // }\r\n    struct myLikeStruct {\r\n        uint256 postId;\r\n        string userName;\r\n    }\r\n    event Post(\r\n        uint256 postId,\r\n        string postContent,\r\n        uint256 likeCount,\r\n        uint256 commentCount,\r\n        string timeStamp,\r\n        string userName,\r\n        bool isVerified\r\n    );\r\n    // event Comment(uint256 commentId, string commentContent, uint256 likeCount);\r\n    event Like(uint256 likeCount);\r\n\r\n    mapping(uint256 => PostStruct) public postStructs;\r\n\r\n    // mapping(uint256 => CommentStruct) public commentStructs;\r\n\r\n    function createPost(\r\n        string memory _postContent,\r\n        string memory timeStamp,\r\n        string memory userName,\r\n        bool isVerified\r\n    ) public {\r\n        postStructs[postCounts].postId = postCounts;\r\n        postStructs[postCounts].postContent = _postContent;\r\n        postStructs[postCounts].likeCount = 0;\r\n        postStructs[postCounts].commentCount = 0;\r\n        postStructs[postCounts].timeStamp = timeStamp;\r\n        postStructs[postCounts].userName = userName;\r\n        postStructs[postCounts].isVerified = isVerified;\r\n\r\n        postCounts++;\r\n        emit Post(\r\n            postCounts,\r\n            _postContent,\r\n            0,\r\n            0,\r\n            timeStamp,\r\n            userName,\r\n            isVerified\r\n        );\r\n    }\r\n\r\n    function createComment(string memory _commentContent, uint256 _postId)\r\n        public\r\n    {\r\n        comments.push(_commentContent);\r\n        postStructs[_postId].commentCount++;\r\n    }\r\n\r\n    function getComments() public view returns (string[] memory) {\r\n        return comments;\r\n    }\r\n\r\n    function likePost(uint256 _postId) public {\r\n        postStructs[_postId].likeCount++;\r\n        emit Like(postStructs[_postId].likeCount);\r\n    }\r\n\r\n    function updateMylikes(uint256 _postId, string memory _userName) public {\r\n        myLikes.push(myLikeStruct(_postId, _userName));\r\n    }\r\n\r\n    function followSomeone(address _walletId) public {\r\n        following.push(_walletId);\r\n    }\r\n\r\n    function updateFollowersCount() public {\r\n        followersCount++;\r\n    }\r\n\r\n    function getFollowersCount() public view returns (uint256) {\r\n        return followersCount;\r\n    }\r\n\r\n    function getFollowing() public view returns (address[] memory) {\r\n        return following;\r\n    }\r\n\r\n    function getPosts() public view returns (PostStruct[] memory) {\r\n        PostStruct[] memory posts = new PostStruct[](postCounts);\r\n        for (uint256 i = 0; i < postCounts; i++) {\r\n            posts[i] = postStructs[i];\r\n        }\r\n        return posts;\r\n    }\r\n\r\n    function getPostCount() public view returns (uint256) {\r\n        return postCounts;\r\n    }\r\n\r\n    function getCommentCount() public view returns (uint256) {\r\n        return commentCounts;\r\n    }\r\n\r\n    function getLikeCount() public view returns (uint256) {\r\n        return likeCounts;\r\n    }\r\n\r\n    function getMyLikes() public view returns (myLikeStruct[] memory) {\r\n        return myLikes;\r\n    }\r\n}\r\n",
  "sourcePath": "D:\\Users\\Desktop\\BOOOKS\\SEMESTER 7\\BCT\\Project\\DE-Verse\\smartcontract\\contracts\\Main.sol",
  "compiler": {
    "name": "solc",
    "version": "0.8.17+commit.8df45f5f.Emscripten.clang"
  },
  "schemaVersion": "3.4.10",
  "updatedAt": "2022-12-24T20:21:28.207Z",
  "networkType": "ethereum",
  "devdoc": {
    "kind": "dev",
    "methods": {},
    "version": 1
  },
  "userdoc": {
    "kind": "user",
    "methods": {},
    "version": 1
  }
}