{
  "contractName": "Maincontract",
  "abi": [
    {
      "inputs": [],
      "stateMutability": "nonpayable",
      "type": "constructor"
    },
    {
      "anonymous": false,
      "inputs": [
        {
          "indexed": false,
          "internalType": "uint256",
          "name": "postId",
          "type": "uint256"
        },
        {
          "indexed": false,
          "internalType": "string",
          "name": "postContent",
          "type": "string"
        },
        {
          "indexed": false,
          "internalType": "uint256",
          "name": "likeCount",
          "type": "uint256"
        },
        {
          "indexed": false,
          "internalType": "uint256",
          "name": "commentCount",
          "type": "uint256"
        },
        {
          "indexed": false,
          "internalType": "string",
          "name": "timeStamp",
          "type": "string"
        },
        {
          "indexed": false,
          "internalType": "string",
          "name": "userName",
          "type": "string"
        },
        {
          "indexed": false,
          "internalType": "bool",
          "name": "isVerified",
          "type": "bool"
        }
      ],
      "name": "Post",
      "type": "event"
    },
    {
      "anonymous": false,
      "inputs": [
        {
          "indexed": false,
          "internalType": "address",
          "name": "walletId",
          "type": "address"
        },
        {
          "indexed": false,
          "internalType": "address",
          "name": "userContractAddress",
          "type": "address"
        },
        {
          "indexed": false,
          "internalType": "string",
          "name": "userName",
          "type": "string"
        },
        {
          "indexed": false,
          "internalType": "string",
          "name": "password",
          "type": "string"
        },
        {
          "indexed": false,
          "internalType": "bool",
          "name": "isVerified",
          "type": "bool"
        }
      ],
      "name": "User",
      "type": "event"
    },
    {
      "inputs": [
        {
          "internalType": "uint256",
          "name": "",
          "type": "uint256"
        }
      ],
      "name": "numberToWalletId",
      "outputs": [
        {
          "internalType": "address",
          "name": "",
          "type": "address"
        }
      ],
      "stateMutability": "view",
      "type": "function",
      "constant": true
    },
    {
      "inputs": [
        {
          "internalType": "string",
          "name": "",
          "type": "string"
        }
      ],
      "name": "userNameToWalletId",
      "outputs": [
        {
          "internalType": "address",
          "name": "",
          "type": "address"
        }
      ],
      "stateMutability": "view",
      "type": "function",
      "constant": true
    },
    {
      "inputs": [
        {
          "internalType": "uint256",
          "name": "",
          "type": "uint256"
        }
      ],
      "name": "userNames",
      "outputs": [
        {
          "internalType": "string",
          "name": "",
          "type": "string"
        }
      ],
      "stateMutability": "view",
      "type": "function",
      "constant": true
    },
    {
      "inputs": [
        {
          "internalType": "address",
          "name": "",
          "type": "address"
        }
      ],
      "name": "userStructs",
      "outputs": [
        {
          "internalType": "address",
          "name": "walletId",
          "type": "address"
        },
        {
          "internalType": "address",
          "name": "userContractAddress",
          "type": "address"
        },
        {
          "internalType": "string",
          "name": "userName",
          "type": "string"
        },
        {
          "internalType": "string",
          "name": "password",
          "type": "string"
        },
        {
          "internalType": "bool",
          "name": "isVerified",
          "type": "bool"
        },
        {
          "internalType": "uint256",
          "name": "creationBlock",
          "type": "uint256"
        }
      ],
      "stateMutability": "view",
      "type": "function",
      "constant": true
    },
    {
      "inputs": [
        {
          "internalType": "address",
          "name": "_walletId",
          "type": "address"
        },
        {
          "internalType": "string",
          "name": "_userName",
          "type": "string"
        },
        {
          "internalType": "string",
          "name": "_password",
          "type": "string"
        }
      ],
      "name": "createUser",
      "outputs": [],
      "stateMutability": "nonpayable",
      "type": "function"
    },
    {
      "inputs": [],
      "name": "getAllUserNames",
      "outputs": [
        {
          "internalType": "string[]",
          "name": "",
          "type": "string[]"
        }
      ],
      "stateMutability": "view",
      "type": "function",
      "constant": true
    },
    {
      "inputs": [],
      "name": "checkAndVerifyUser",
      "outputs": [],
      "stateMutability": "nonpayable",
      "type": "function"
    },
    {
      "inputs": [
        {
          "internalType": "address",
          "name": "_walletId",
          "type": "address"
        }
      ],
      "name": "getUser",
      "outputs": [
        {
          "internalType": "address",
          "name": "",
          "type": "address"
        },
        {
          "internalType": "string",
          "name": "",
          "type": "string"
        },
        {
          "internalType": "string",
          "name": "",
          "type": "string"
        },
        {
          "internalType": "bool",
          "name": "",
          "type": "bool"
        },
        {
          "internalType": "address",
          "name": "",
          "type": "address"
        }
      ],
      "stateMutability": "view",
      "type": "function",
      "constant": true
    },
    {
      "inputs": [
        {
          "internalType": "string",
          "name": "_userName",
          "type": "string"
        }
      ],
      "name": "getUserByUserName",
      "outputs": [
        {
          "internalType": "address",
          "name": "",
          "type": "address"
        },
        {
          "internalType": "string",
          "name": "",
          "type": "string"
        },
        {
          "internalType": "string",
          "name": "",
          "type": "string"
        },
        {
          "internalType": "bool",
          "name": "",
          "type": "bool"
        },
        {
          "internalType": "address",
          "name": "",
          "type": "address"
        }
      ],
      "stateMutability": "view",
      "type": "function",
      "constant": true
    },
    {
      "inputs": [],
      "name": "getUserCount",
      "outputs": [
        {
          "internalType": "uint256",
          "name": "",
          "type": "uint256"
        }
      ],
      "stateMutability": "view",
      "type": "function",
      "constant": true
    },
    {
      "inputs": [],
      "name": "getVerifiedUserCount",
      "outputs": [
        {
          "internalType": "uint256",
          "name": "",
          "type": "uint256"
        }
      ],
      "stateMutability": "view",
      "type": "function",
      "constant": true
    },
    {
      "inputs": [
        {
          "internalType": "address",
          "name": "_walletId",
          "type": "address"
        },
        {
          "internalType": "string",
          "name": "_postContent",
          "type": "string"
        },
        {
          "internalType": "string",
          "name": "timeStamp",
          "type": "string"
        }
      ],
      "name": "makePost",
      "outputs": [],
      "stateMutability": "nonpayable",
      "type": "function"
    },
    {
      "inputs": [
        {
          "internalType": "string",
          "name": "_comment",
          "type": "string"
        },
        {
          "internalType": "string",
          "name": "_postOwner",
          "type": "string"
        },
        {
          "internalType": "uint256",
          "name": "_postId",
          "type": "uint256"
        }
      ],
      "name": "makeComment",
      "outputs": [],
      "stateMutability": "nonpayable",
      "type": "function"
    },
    {
      "inputs": [
        {
          "internalType": "string",
          "name": "_postOwner",
          "type": "string"
        }
      ],
      "name": "getComments",
      "outputs": [
        {
          "internalType": "string[]",
          "name": "",
          "type": "string[]"
        }
      ],
      "stateMutability": "view",
      "type": "function",
      "constant": true
    },
    {
      "inputs": [
        {
          "internalType": "string",
          "name": "_userName",
          "type": "string"
        },
        {
          "internalType": "uint256",
          "name": "_postId",
          "type": "uint256"
        },
        {
          "internalType": "address",
          "name": "_myWalletId",
          "type": "address"
        }
      ],
      "name": "likePost",
      "outputs": [],
      "stateMutability": "nonpayable",
      "type": "function"
    },
    {
      "inputs": [
        {
          "internalType": "address",
          "name": "_walletId",
          "type": "address"
        },
        {
          "internalType": "address",
          "name": "_followingId",
          "type": "address"
        }
      ],
      "name": "followUser",
      "outputs": [],
      "stateMutability": "nonpayable",
      "type": "function"
    },
    {
      "inputs": [
        {
          "internalType": "address",
          "name": "_walletId",
          "type": "address"
        }
      ],
      "name": "getFollowing",
      "outputs": [
        {
          "internalType": "address[]",
          "name": "",
          "type": "address[]"
        }
      ],
      "stateMutability": "view",
      "type": "function",
      "constant": true
    },
    {
      "inputs": [
        {
          "internalType": "address",
          "name": "_walletId",
          "type": "address"
        }
      ],
      "name": "getFollowersCount",
      "outputs": [
        {
          "internalType": "uint256",
          "name": "",
          "type": "uint256"
        }
      ],
      "stateMutability": "view",
      "type": "function",
      "constant": true
    },
    {
      "inputs": [
        {
          "internalType": "address",
          "name": "_walletId",
          "type": "address"
        }
      ],
      "name": "getPosts",
      "outputs": [
        {
          "components": [
            {
              "internalType": "uint256",
              "name": "postId",
              "type": "uint256"
            },
            {
              "internalType": "string",
              "name": "postContent",
              "type": "string"
            },
            {
              "internalType": "uint256",
              "name": "likeCount",
              "type": "uint256"
            },
            {
              "internalType": "uint256",
              "name": "commentCount",
              "type": "uint256"
            },
            {
              "internalType": "string",
              "name": "timeStamp",
              "type": "string"
            },
            {
              "internalType": "string",
              "name": "userName",
              "type": "string"
            },
            {
              "internalType": "bool",
              "name": "isVerified",
              "type": "bool"
            }
          ],
          "internalType": "struct UserContract.PostStruct[]",
          "name": "",
          "type": "tuple[]"
        }
      ],
      "stateMutability": "view",
      "type": "function",
      "constant": true
    },
    {
      "inputs": [],
      "name": "getAllUsersAddress",
      "outputs": [
        {
          "internalType": "address[]",
          "name": "",
          "type": "address[]"
        }
      ],
      "stateMutability": "view",
      "type": "function",
      "constant": true
    },
    {
      "inputs": [
        {
          "internalType": "address",
          "name": "_walletId",
          "type": "address"
        }
      ],
      "name": "getPostCount",
      "outputs": [
        {
          "internalType": "uint256",
          "name": "",
          "type": "uint256"
        }
      ],
      "stateMutability": "view",
      "type": "function",
      "constant": true
    },
    {
      "inputs": [
        {
          "internalType": "address",
          "name": "_walletId",
          "type": "address"
        }
      ],
      "name": "getCommentCount",
      "outputs": [
        {
          "internalType": "uint256",
          "name": "",
          "type": "uint256"
        }
      ],
      "stateMutability": "view",
      "type": "function",
      "constant": true
    },
    {
      "inputs": [
        {
          "internalType": "address",
          "name": "_walletId",
          "type": "address"
        }
      ],
      "name": "getLikeCount",
      "outputs": [
        {
          "internalType": "uint256",
          "name": "",
          "type": "uint256"
        }
      ],
      "stateMutability": "view",
      "type": "function",
      "constant": true
    },
    {
      "inputs": [
        {
          "internalType": "address",
          "name": "_walletId",
          "type": "address"
        }
      ],
      "name": "getMyLikes",
      "outputs": [
        {
          "components": [
            {
              "internalType": "uint256",
              "name": "postId",
              "type": "uint256"
            },
            {
              "internalType": "string",
              "name": "userName",
              "type": "string"
            }
          ],
          "internalType": "struct UserContract.myLikeStruct[]",
          "name": "",
          "type": "tuple[]"
        }
      ],
      "stateMutability": "view",
      "type": "function",
      "constant": true
    }
  ],
  "bytecode": "0x608060405234801561001057600080fd5b50600080819055506000600181905550615c548061002f6000396000f3fe60806040523480156200001157600080fd5b5060043610620001785760003560e01c80636f77926b11620000d5578063b5cb15f71162000087578063b5cb15f714620004be578063be6c898714620004e0578063be9a09cf146200051a578063cce8f1ae146200053a578063d8236dff1462000546578063e94456a7146200057c5762000178565b80636f77926b146200039e57806370c63fcc14620003d857806380cf7dee146200040e578063840f65511462000444578063a4c7fafa1462000466578063a9b2e715146200049c5762000178565b80634c787ce1116200012f5780634c787ce114620002845780634caf9d0b14620002a65780634ceb48fd14620002dc5780634d1a307214620002fc5780634ebd3aea14620003325780635f329fb214620003685762000178565b80630b6b5537146200017d5780630c8273e614620001b357806319447eb614620001d357806325e9ccf9146200020e5780633c41008614620002445780633eaf1c271462000264575b600080fd5b6200019b600480360381019062000195919062002591565b620005b2565b604051620001aa919062002608565b60405180910390f35b620001d16004803603810190620001cb919062002656565b620005f2565b005b620001f16004803603810190620001eb91906200269d565b620007a1565b604051620002059695949392919062002797565b60405180910390f35b6200022c60048036038101906200022691906200269d565b6200094a565b6040516200023b919062002812565b60405180910390f35b6200026260048036038101906200025c919062002980565b62000a2c565b005b6200028260048036038101906200027c919062002a1a565b62000ba8565b005b6200028e62000dad565b6040516200029d919062002b63565b60405180910390f35b620002c46004803603810190620002be91906200269d565b62000e3d565b604051620002d3919062002d83565b60405180910390f35b620002fa6004803603810190620002f4919062002980565b62000f25565b005b6200031a60048036038101906200031491906200269d565b62001304565b60405162000329919062002eb8565b60405180910390f35b6200035060048036038101906200034a919062002591565b620013ec565b6040516200035f919062002edc565b60405180910390f35b6200038660048036038101906200038091906200269d565b620014a1565b60405162000395919062002812565b60405180910390f35b620003bc6004803603810190620003b691906200269d565b62001583565b604051620003cf95949392919062002f00565b60405180910390f35b620003f66004803603810190620003f0919062002f6b565b62001957565b6040516200040591906200308c565b60405180910390f35b6200042c600480360381019062000426919062002f6b565b62001a85565b6040516200043b919062002608565b60405180910390f35b6200044e62001ace565b6040516200045d91906200308c565b60405180910390f35b6200048460048036038101906200047e91906200269d565b62001bb1565b60405162000493919062002812565b60405180910390f35b620004a662001c93565b604051620004b5919062002812565b60405180910390f35b620004c862001c9d565b604051620004d7919062002812565b60405180910390f35b620004fe6004803603810190620004f8919062002f6b565b62001ca6565b6040516200051195949392919062002f00565b60405180910390f35b620005386004803603810190620005329190620030b0565b620020c1565b005b62000544620021ef565b005b6200056460048036038101906200055e91906200269d565b6200236a565b60405162000573919062002b63565b60405180910390f35b6200059a60048036038101906200059491906200269d565b62002452565b604051620005a9919062002812565b60405180910390f35b60048181548110620005c357600080fd5b906000526020600020016000915054906101000a900473ffffffffffffffffffffffffffffffffffffffff1681565b6000600260008473ffffffffffffffffffffffffffffffffffffffff1673ffffffffffffffffffffffffffffffffffffffff16815260200190815260200160002060010160009054906101000a900473ffffffffffffffffffffffffffffffffffffffff1690508073ffffffffffffffffffffffffffffffffffffffff166399c50dd1836040518263ffffffff1660e01b815260040162000694919062002608565b600060405180830381600087803b158015620006af57600080fd5b505af1158015620006c4573d6000803e3d6000fd5b505050506000600260008473ffffffffffffffffffffffffffffffffffffffff1673ffffffffffffffffffffffffffffffffffffffff16815260200190815260200160002060010160009054906101000a900473ffffffffffffffffffffffffffffffffffffffff1690508073ffffffffffffffffffffffffffffffffffffffff166360f2e3786040518163ffffffff1660e01b8152600401600060405180830381600087803b1580156200077857600080fd5b505af11580156200078d573d6000803e3d6000fd5b505050506200079b620021ef565b50505050565b60026020528060005260406000206000915090508060000160009054906101000a900473ffffffffffffffffffffffffffffffffffffffff16908060010160009054906101000a900473ffffffffffffffffffffffffffffffffffffffff1690806002018054620008129062003179565b80601f0160208091040260200160405190810160405280929190818152602001828054620008409062003179565b8015620008915780601f10620008655761010080835404028352916020019162000891565b820191906000526020600020905b8154815290600101906020018083116200087357829003601f168201915b505050505090806003018054620008a89062003179565b80601f0160208091040260200160405190810160405280929190818152602001828054620008d69062003179565b8015620009275780601f10620008fb5761010080835404028352916020019162000927565b820191906000526020600020905b8154815290600101906020018083116200090957829003601f168201915b5050505050908060040160009054906101000a900460ff16908060050154905086565b600080600260008473ffffffffffffffffffffffffffffffffffffffff1673ffffffffffffffffffffffffffffffffffffffff16815260200190815260200160002060010160009054906101000a900473ffffffffffffffffffffffffffffffffffffffff1690508073ffffffffffffffffffffffffffffffffffffffff1663e22bce276040518163ffffffff1660e01b8152600401602060405180830381865afa158015620009fe573d6000803e3d6000fd5b505050506040513d601f19601f8201168201806040525081019062000a249190620031c5565b915050919050565b6000600260008573ffffffffffffffffffffffffffffffffffffffff1673ffffffffffffffffffffffffffffffffffffffff16815260200190815260200160002060010160009054906101000a900473ffffffffffffffffffffffffffffffffffffffff1690508073ffffffffffffffffffffffffffffffffffffffff1663e71ef23d8484600260008973ffffffffffffffffffffffffffffffffffffffff1673ffffffffffffffffffffffffffffffffffffffff168152602001908152602001600020600201600260008a73ffffffffffffffffffffffffffffffffffffffff1673ffffffffffffffffffffffffffffffffffffffff16815260200190815260200160002060040160009054906101000a900460ff166040518563ffffffff1660e01b815260040162000b6494939291906200329c565b600060405180830381600087803b15801562000b7f57600080fd5b505af115801562000b94573d6000803e3d6000fd5b5050505062000ba2620021ef565b50505050565b600060038460405162000bbc919062003340565b908152602001604051809103902060009054906101000a900473ffffffffffffffffffffffffffffffffffffffff1690506000600260008373ffffffffffffffffffffffffffffffffffffffff1673ffffffffffffffffffffffffffffffffffffffff16815260200190815260200160002060010160009054906101000a900473ffffffffffffffffffffffffffffffffffffffff1690508073ffffffffffffffffffffffffffffffffffffffff1663725009d3856040518263ffffffff1660e01b815260040162000c8f919062002812565b600060405180830381600087803b15801562000caa57600080fd5b505af115801562000cbf573d6000803e3d6000fd5b505050506000600260008573ffffffffffffffffffffffffffffffffffffffff1673ffffffffffffffffffffffffffffffffffffffff16815260200190815260200160002060010160009054906101000a900473ffffffffffffffffffffffffffffffffffffffff1690508073ffffffffffffffffffffffffffffffffffffffff1663eb058a2f86886040518363ffffffff1660e01b815260040162000d6792919062003359565b600060405180830381600087803b15801562000d8257600080fd5b505af115801562000d97573d6000803e3d6000fd5b5050505062000da5620021ef565b505050505050565b6060600480548060200260200160405190810160405280929190818152602001828054801562000e3357602002820191906000526020600020905b8160009054906101000a900473ffffffffffffffffffffffffffffffffffffffff1673ffffffffffffffffffffffffffffffffffffffff168152602001906001019080831162000de8575b5050505050905090565b60606000600260008473ffffffffffffffffffffffffffffffffffffffff1673ffffffffffffffffffffffffffffffffffffffff16815260200190815260200160002060010160009054906101000a900473ffffffffffffffffffffffffffffffffffffffff1690508073ffffffffffffffffffffffffffffffffffffffff166341f3004a6040518163ffffffff1660e01b8152600401600060405180830381865afa15801562000ef2573d6000803e3d6000fd5b505050506040513d6000823e3d601f19601f8201168201806040525081019062000f1d919062003666565b915050919050565b60008360405162000f369062002534565b62000f42919062002608565b604051809103906000f08015801562000f5f573d6000803e3d6000fd5b50905083600260008673ffffffffffffffffffffffffffffffffffffffff1673ffffffffffffffffffffffffffffffffffffffff16815260200190815260200160002060000160006101000a81548173ffffffffffffffffffffffffffffffffffffffff021916908373ffffffffffffffffffffffffffffffffffffffff16021790555082600260008673ffffffffffffffffffffffffffffffffffffffff1673ffffffffffffffffffffffffffffffffffffffff168152602001908152602001600020600201908162001034919062003874565b5081600260008673ffffffffffffffffffffffffffffffffffffffff1673ffffffffffffffffffffffffffffffffffffffff168152602001908152602001600020600301908162001086919062003874565b506000600260008673ffffffffffffffffffffffffffffffffffffffff1673ffffffffffffffffffffffffffffffffffffffff16815260200190815260200160002060040160006101000a81548160ff02191690831515021790555080600260008673ffffffffffffffffffffffffffffffffffffffff1673ffffffffffffffffffffffffffffffffffffffff16815260200190815260200160002060010160006101000a81548173ffffffffffffffffffffffffffffffffffffffff021916908373ffffffffffffffffffffffffffffffffffffffff16021790555043600260008673ffffffffffffffffffffffffffffffffffffffff1673ffffffffffffffffffffffffffffffffffffffff16815260200190815260200160002060050181905550600080815480929190620011be906200398a565b919050555083600384604051620011d6919062003340565b908152602001604051809103902060006101000a81548173ffffffffffffffffffffffffffffffffffffffff021916908373ffffffffffffffffffffffffffffffffffffffff16021790555060058390806001815401808255809150506001900390600052602060002001600090919091909150908162001258919062003874565b506004849080600181540180825580915050600190039060005260206000200160009091909190916101000a81548173ffffffffffffffffffffffffffffffffffffffff021916908373ffffffffffffffffffffffffffffffffffffffff1602179055507f2041b7a4351ac706257b308fda32769804e2afadd729e9b0ef211b0dd03312fc848285856000604051620012f6959493929190620039d7565b60405180910390a150505050565b60606000600260008473ffffffffffffffffffffffffffffffffffffffff1673ffffffffffffffffffffffffffffffffffffffff16815260200190815260200160002060010160009054906101000a900473ffffffffffffffffffffffffffffffffffffffff1690508073ffffffffffffffffffffffffffffffffffffffff1663ecf0a45d6040518163ffffffff1660e01b8152600401600060405180830381865afa158015620013b9573d6000803e3d6000fd5b505050506040513d6000823e3d601f19601f82011682018060405250810190620013e4919062003bb1565b915050919050565b60058181548110620013fd57600080fd5b9060005260206000200160009150905080546200141a9062003179565b80601f0160208091040260200160405190810160405280929190818152602001828054620014489062003179565b8015620014995780601f106200146d5761010080835404028352916020019162001499565b820191906000526020600020905b8154815290600101906020018083116200147b57829003601f168201915b505050505081565b600080600260008473ffffffffffffffffffffffffffffffffffffffff1673ffffffffffffffffffffffffffffffffffffffff16815260200190815260200160002060010160009054906101000a900473ffffffffffffffffffffffffffffffffffffffff1690508073ffffffffffffffffffffffffffffffffffffffff166316e31ea36040518163ffffffff1660e01b8152600401602060405180830381865afa15801562001555573d6000803e3d6000fd5b505050506040513d601f19601f820116820180604052508101906200157b9190620031c5565b915050919050565b6000606080600080600073ffffffffffffffffffffffffffffffffffffffff16600260008873ffffffffffffffffffffffffffffffffffffffff1673ffffffffffffffffffffffffffffffffffffffff16815260200190815260200160002060000160009054906101000a900473ffffffffffffffffffffffffffffffffffffffff1673ffffffffffffffffffffffffffffffffffffffff1603620016815760008060006040518060400160405280601681526020017f6163636f756e7420646f6573206e6f74206578697374000000000000000000008152509190604051806020016040528060008152509190945094509450945094506200194e565b600260008773ffffffffffffffffffffffffffffffffffffffff1673ffffffffffffffffffffffffffffffffffffffff16815260200190815260200160002060000160009054906101000a900473ffffffffffffffffffffffffffffffffffffffff16600260008873ffffffffffffffffffffffffffffffffffffffff1673ffffffffffffffffffffffffffffffffffffffff168152602001908152602001600020600201600260008973ffffffffffffffffffffffffffffffffffffffff1673ffffffffffffffffffffffffffffffffffffffff168152602001908152602001600020600301600260008a73ffffffffffffffffffffffffffffffffffffffff1673ffffffffffffffffffffffffffffffffffffffff16815260200190815260200160002060040160009054906101000a900460ff16600260008b73ffffffffffffffffffffffffffffffffffffffff1673ffffffffffffffffffffffffffffffffffffffff16815260200190815260200160002060010160009054906101000a900473ffffffffffffffffffffffffffffffffffffffff16838054620018299062003179565b80601f0160208091040260200160405190810160405280929190818152602001828054620018579062003179565b8015620018a85780601f106200187c57610100808354040283529160200191620018a8565b820191906000526020600020905b8154815290600101906020018083116200188a57829003601f168201915b50505050509350828054620018bd9062003179565b80601f0160208091040260200160405190810160405280929190818152602001828054620018eb9062003179565b80156200193c5780601f1062001910576101008083540402835291602001916200193c565b820191906000526020600020905b8154815290600101906020018083116200191e57829003601f168201915b50505050509250945094509450945094505b91939590929450565b606060006003836040516200196d919062003340565b908152602001604051809103902060009054906101000a900473ffffffffffffffffffffffffffffffffffffffff1690506000600260008373ffffffffffffffffffffffffffffffffffffffff1673ffffffffffffffffffffffffffffffffffffffff16815260200190815260200160002060010160009054906101000a900473ffffffffffffffffffffffffffffffffffffffff1690508073ffffffffffffffffffffffffffffffffffffffff166391f3410c6040518163ffffffff1660e01b8152600401600060405180830381865afa15801562001a51573d6000803e3d6000fd5b505050506040513d6000823e3d601f19601f8201168201806040525081019062001a7c919062003cf9565b92505050919050565b6003818051602081018201805184825260208301602085012081835280955050505050506000915054906101000a900473ffffffffffffffffffffffffffffffffffffffff1681565b60606005805480602002602001604051908101604052809291908181526020016000905b8282101562001ba857838290600052602060002001805462001b149062003179565b80601f016020809104026020016040519081016040528092919081815260200182805462001b429062003179565b801562001b935780601f1062001b675761010080835404028352916020019162001b93565b820191906000526020600020905b81548152906001019060200180831162001b7557829003601f168201915b50505050508152602001906001019062001af2565b50505050905090565b600080600260008473ffffffffffffffffffffffffffffffffffffffff1673ffffffffffffffffffffffffffffffffffffffff16815260200190815260200160002060010160009054906101000a900473ffffffffffffffffffffffffffffffffffffffff1690508073ffffffffffffffffffffffffffffffffffffffff1663bcc954076040518163ffffffff1660e01b8152600401602060405180830381865afa15801562001c65573d6000803e3d6000fd5b505050506040513d601f19601f8201168201806040525081019062001c8b9190620031c5565b915050919050565b6000600154905090565b60008054905090565b6000606080600080600060038760405162001cc2919062003340565b908152602001604051809103902060009054906101000a900473ffffffffffffffffffffffffffffffffffffffff169050600073ffffffffffffffffffffffffffffffffffffffff16600260008373ffffffffffffffffffffffffffffffffffffffff1673ffffffffffffffffffffffffffffffffffffffff16815260200190815260200160002060000160009054906101000a900473ffffffffffffffffffffffffffffffffffffffff1673ffffffffffffffffffffffffffffffffffffffff160362001dea5760008060006040518060400160405280601681526020017f6163636f756e7420646f6573206e6f742065786973740000000000000000000081525091906040518060200160405280600081525091909550955095509550955050620020b8565b600260008273ffffffffffffffffffffffffffffffffffffffff1673ffffffffffffffffffffffffffffffffffffffff16815260200190815260200160002060000160009054906101000a900473ffffffffffffffffffffffffffffffffffffffff16600260008373ffffffffffffffffffffffffffffffffffffffff1673ffffffffffffffffffffffffffffffffffffffff168152602001908152602001600020600201600260008473ffffffffffffffffffffffffffffffffffffffff1673ffffffffffffffffffffffffffffffffffffffff168152602001908152602001600020600301600260008573ffffffffffffffffffffffffffffffffffffffff1673ffffffffffffffffffffffffffffffffffffffff16815260200190815260200160002060040160009054906101000a900460ff16600260008673ffffffffffffffffffffffffffffffffffffffff1673ffffffffffffffffffffffffffffffffffffffff16815260200190815260200160002060010160009054906101000a900473ffffffffffffffffffffffffffffffffffffffff1683805462001f929062003179565b80601f016020809104026020016040519081016040528092919081815260200182805462001fc09062003179565b8015620020115780601f1062001fe55761010080835404028352916020019162002011565b820191906000526020600020905b81548152906001019060200180831162001ff357829003601f168201915b50505050509350828054620020269062003179565b80601f0160208091040260200160405190810160405280929190818152602001828054620020549062003179565b8015620020a55780601f106200207957610100808354040283529160200191620020a5565b820191906000526020600020905b8154815290600101906020018083116200208757829003601f168201915b5050505050925095509550955095509550505b91939590929450565b6000600383604051620020d5919062003340565b908152602001604051809103902060009054906101000a900473ffffffffffffffffffffffffffffffffffffffff1690506000600260008373ffffffffffffffffffffffffffffffffffffffff1673ffffffffffffffffffffffffffffffffffffffff16815260200190815260200160002060010160009054906101000a900473ffffffffffffffffffffffffffffffffffffffff1690508073ffffffffffffffffffffffffffffffffffffffff1663f72ead1386856040518363ffffffff1660e01b8152600401620021aa92919062003d4a565b600060405180830381600087803b158015620021c557600080fd5b505af1158015620021da573d6000803e3d6000fd5b50505050620021e8620021ef565b5050505050565b60005b600480549050811015620023675743600560026000600485815481106200221e576200221d62003d7e565b5b9060005260206000200160009054906101000a900473ffffffffffffffffffffffffffffffffffffffff1673ffffffffffffffffffffffffffffffffffffffff1673ffffffffffffffffffffffffffffffffffffffff1681526020019081526020016000206005015462002293919062003dad565b1015620023515760016002600060048481548110620022b757620022b662003d7e565b5b9060005260206000200160009054906101000a900473ffffffffffffffffffffffffffffffffffffffff1673ffffffffffffffffffffffffffffffffffffffff1673ffffffffffffffffffffffffffffffffffffffff16815260200190815260200160002060040160006101000a81548160ff021916908315150217905550600160008154809291906200234b906200398a565b91905055505b80806200235e906200398a565b915050620021f2565b50565b60606000600260008473ffffffffffffffffffffffffffffffffffffffff1673ffffffffffffffffffffffffffffffffffffffff16815260200190815260200160002060010160009054906101000a900473ffffffffffffffffffffffffffffffffffffffff1690508073ffffffffffffffffffffffffffffffffffffffff166323f147026040518163ffffffff1660e01b8152600401600060405180830381865afa1580156200241f573d6000803e3d6000fd5b505050506040513d6000823e3d601f19601f820116820180604052508101906200244a919062003ed5565b915050919050565b600080600260008473ffffffffffffffffffffffffffffffffffffffff1673ffffffffffffffffffffffffffffffffffffffff16815260200190815260200160002060010160009054906101000a900473ffffffffffffffffffffffffffffffffffffffff1690508073ffffffffffffffffffffffffffffffffffffffff1663c4d67b096040518163ffffffff1660e01b8152600401602060405180830381865afa15801562002506573d6000803e3d6000fd5b505050506040513d601f19601f820116820180604052508101906200252c9190620031c5565b915050919050565b611cf88062003f2783390190565b6000604051905090565b600080fd5b600080fd5b6000819050919050565b6200256b8162002556565b81146200257757600080fd5b50565b6000813590506200258b8162002560565b92915050565b600060208284031215620025aa57620025a96200254c565b5b6000620025ba848285016200257a565b91505092915050565b600073ffffffffffffffffffffffffffffffffffffffff82169050919050565b6000620025f082620025c3565b9050919050565b6200260281620025e3565b82525050565b60006020820190506200261f6000830184620025f7565b92915050565b6200263081620025e3565b81146200263c57600080fd5b50565b600081359050620026508162002625565b92915050565b6000806040838503121562002670576200266f6200254c565b5b600062002680858286016200263f565b925050602062002693858286016200263f565b9150509250929050565b600060208284031215620026b657620026b56200254c565b5b6000620026c6848285016200263f565b91505092915050565b600081519050919050565b600082825260208201905092915050565b60005b838110156200270b578082015181840152602081019050620026ee565b60008484015250505050565b6000601f19601f8301169050919050565b60006200273582620026cf565b620027418185620026da565b935062002753818560208601620026eb565b6200275e8162002717565b840191505092915050565b60008115159050919050565b620027808162002769565b82525050565b620027918162002556565b82525050565b600060c082019050620027ae6000830189620025f7565b620027bd6020830188620025f7565b8181036040830152620027d1818762002728565b90508181036060830152620027e7818662002728565b9050620027f8608083018562002775565b6200280760a083018462002786565b979650505050505050565b600060208201905062002829600083018462002786565b92915050565b600080fd5b600080fd5b7f4e487b7100000000000000000000000000000000000000000000000000000000600052604160045260246000fd5b620028738262002717565b810181811067ffffffffffffffff8211171562002895576200289462002839565b5b80604052505050565b6000620028aa62002542565b9050620028b8828262002868565b919050565b600067ffffffffffffffff821115620028db57620028da62002839565b5b620028e68262002717565b9050602081019050919050565b82818337600083830152505050565b6000620029196200291384620028bd565b6200289e565b90508281526020810184848401111562002938576200293762002834565b5b62002945848285620028f3565b509392505050565b600082601f8301126200296557620029646200282f565b5b81356200297784826020860162002902565b91505092915050565b6000806000606084860312156200299c576200299b6200254c565b5b6000620029ac868287016200263f565b935050602084013567ffffffffffffffff811115620029d057620029cf62002551565b5b620029de868287016200294d565b925050604084013567ffffffffffffffff81111562002a025762002a0162002551565b5b62002a10868287016200294d565b9150509250925092565b60008060006060848603121562002a365762002a356200254c565b5b600084013567ffffffffffffffff81111562002a575762002a5662002551565b5b62002a65868287016200294d565b935050602062002a78868287016200257a565b925050604062002a8b868287016200263f565b9150509250925092565b600081519050919050565b600082825260208201905092915050565b6000819050602082019050919050565b62002acc81620025e3565b82525050565b600062002ae0838362002ac1565b60208301905092915050565b6000602082019050919050565b600062002b068262002a95565b62002b12818562002aa0565b935062002b1f8362002ab1565b8060005b8381101562002b5657815162002b3a888262002ad2565b975062002b478362002aec565b92505060018101905062002b23565b5085935050505092915050565b6000602082019050818103600083015262002b7f818462002af9565b905092915050565b600081519050919050565b600082825260208201905092915050565b6000819050602082019050919050565b62002bbe8162002556565b82525050565b600082825260208201905092915050565b600062002be282620026cf565b62002bee818562002bc4565b935062002c00818560208601620026eb565b62002c0b8162002717565b840191505092915050565b62002c218162002769565b82525050565b600060e08301600083015162002c41600086018262002bb3565b506020830151848203602086015262002c5b828262002bd5565b915050604083015162002c72604086018262002bb3565b50606083015162002c87606086018262002bb3565b506080830151848203608086015262002ca1828262002bd5565b91505060a083015184820360a086015262002cbd828262002bd5565b91505060c083015162002cd460c086018262002c16565b508091505092915050565b600062002ced838362002c27565b905092915050565b6000602082019050919050565b600062002d0f8262002b87565b62002d1b818562002b92565b93508360208202850162002d2f8562002ba3565b8060005b8581101562002d71578484038952815162002d4f858262002cdf565b945062002d5c8362002cf5565b925060208a0199505060018101905062002d33565b50829750879550505050505092915050565b6000602082019050818103600083015262002d9f818462002d02565b905092915050565b600081519050919050565b600082825260208201905092915050565b6000819050602082019050919050565b600060408301600083015162002ded600086018262002bb3565b506020830151848203602086015262002e07828262002bd5565b9150508091505092915050565b600062002e22838362002dd3565b905092915050565b6000602082019050919050565b600062002e448262002da7565b62002e50818562002db2565b93508360208202850162002e648562002dc3565b8060005b8581101562002ea6578484038952815162002e84858262002e14565b945062002e918362002e2a565b925060208a0199505060018101905062002e68565b50829750879550505050505092915050565b6000602082019050818103600083015262002ed4818462002e37565b905092915050565b6000602082019050818103600083015262002ef8818462002728565b905092915050565b600060a08201905062002f176000830188620025f7565b818103602083015262002f2b818762002728565b9050818103604083015262002f41818662002728565b905062002f52606083018562002775565b62002f616080830184620025f7565b9695505050505050565b60006020828403121562002f845762002f836200254c565b5b600082013567ffffffffffffffff81111562002fa55762002fa462002551565b5b62002fb3848285016200294d565b91505092915050565b600081519050919050565b600082825260208201905092915050565b6000819050602082019050919050565b600062002ff6838362002bd5565b905092915050565b6000602082019050919050565b6000620030188262002fbc565b62003024818562002fc7565b935083602082028501620030388562002fd8565b8060005b858110156200307a578484038952815162003058858262002fe8565b9450620030658362002ffe565b925060208a019950506001810190506200303c565b50829750879550505050505092915050565b60006020820190508181036000830152620030a881846200300b565b905092915050565b600080600060608486031215620030cc57620030cb6200254c565b5b600084013567ffffffffffffffff811115620030ed57620030ec62002551565b5b620030fb868287016200294d565b935050602084013567ffffffffffffffff8111156200311f576200311e62002551565b5b6200312d868287016200294d565b925050604062003140868287016200257a565b9150509250925092565b7f4e487b7100000000000000000000000000000000000000000000000000000000600052602260045260246000fd5b600060028204905060018216806200319257607f821691505b602082108103620031a857620031a76200314a565b5b50919050565b600081519050620031bf8162002560565b92915050565b600060208284031215620031de57620031dd6200254c565b5b6000620031ee84828501620031ae565b91505092915050565b60008190508160005260206000209050919050565b600081546200321b8162003179565b620032278186620026da565b945060018216600081146200324557600181146200325c5762003293565b60ff19831686528115156020028601935062003293565b6200326785620031f7565b60005b838110156200328b578154818901526001820191506020810190506200326a565b808801955050505b50505092915050565b60006080820190508181036000830152620032b8818762002728565b90508181036020830152620032ce818662002728565b90508181036040830152620032e481856200320c565b9050620032f5606083018462002775565b95945050505050565b600081905092915050565b60006200331682620026cf565b620033228185620032fe565b935062003334818560208601620026eb565b80840191505092915050565b60006200334e828462003309565b915081905092915050565b600060408201905062003370600083018562002786565b818103602083015262003384818462002728565b90509392505050565b600067ffffffffffffffff821115620033ab57620033aa62002839565b5b602082029050602081019050919050565b600080fd5b600080fd5b600080fd5b6000620033e2620033dc84620028bd565b6200289e565b90508281526020810184848401111562003401576200340062002834565b5b6200340e848285620026eb565b509392505050565b600082601f8301126200342e576200342d6200282f565b5b815162003440848260208601620033cb565b91505092915050565b620034548162002769565b81146200346057600080fd5b50565b600081519050620034748162003449565b92915050565b600060e08284031215620034935762003492620033c1565b5b6200349f60e06200289e565b90506000620034b184828501620031ae565b600083015250602082015167ffffffffffffffff811115620034d857620034d7620033c6565b5b620034e68482850162003416565b6020830152506040620034fc84828501620031ae565b60408301525060606200351284828501620031ae565b606083015250608082015167ffffffffffffffff811115620035395762003538620033c6565b5b620035478482850162003416565b60808301525060a082015167ffffffffffffffff8111156200356e576200356d620033c6565b5b6200357c8482850162003416565b60a08301525060c0620035928482850162003463565b60c08301525092915050565b6000620035b5620035af846200338d565b6200289e565b90508083825260208201905060208402830185811115620035db57620035da620033bc565b5b835b818110156200362957805167ffffffffffffffff8111156200360457620036036200282f565b5b8086016200361389826200347a565b85526020850194505050602081019050620035dd565b5050509392505050565b600082601f8301126200364b576200364a6200282f565b5b81516200365d8482602086016200359e565b91505092915050565b6000602082840312156200367f576200367e6200254c565b5b600082015167ffffffffffffffff811115620036a0576200369f62002551565b5b620036ae8482850162003633565b91505092915050565b60006020601f8301049050919050565b600082821b905092915050565b600060088302620037067fffffffffffffffffffffffffffffffffffffffffffffffffffffffffffffffff82620036c7565b620037128683620036c7565b95508019841693508086168417925050509392505050565b6000819050919050565b6000620037556200374f620037498462002556565b6200372a565b62002556565b9050919050565b6000819050919050565b620037718362003734565b6200378962003780826200375c565b848454620036d4565b825550505050565b600090565b620037a062003791565b620037ad81848462003766565b505050565b5b81811015620037d557620037c960008262003796565b600181019050620037b3565b5050565b601f8211156200382457620037ee81620031f7565b620037f984620036b7565b8101602085101562003809578190505b620038216200381885620036b7565b830182620037b2565b50505b505050565b600082821c905092915050565b6000620038496000198460080262003829565b1980831691505092915050565b600062003864838362003836565b9150826002028217905092915050565b6200387f82620026cf565b67ffffffffffffffff8111156200389b576200389a62002839565b5b620038a7825462003179565b620038b4828285620037d9565b600060209050601f831160018114620038ec5760008415620038d7578287015190505b620038e3858262003856565b86555062003953565b601f198416620038fc86620031f7565b60005b828110156200392657848901518255600182019150602085019450602081019050620038ff565b8683101562003946578489015162003942601f89168262003836565b8355505b6001600288020188555050505b505050505050565b7f4e487b7100000000000000000000000000000000000000000000000000000000600052601160045260246000fd5b6000620039978262002556565b91507fffffffffffffffffffffffffffffffffffffffffffffffffffffffffffffffff8203620039cc57620039cb6200395b565b5b600182019050919050565b600060a082019050620039ee6000830188620025f7565b620039fd6020830187620025f7565b818103604083015262003a11818662002728565b9050818103606083015262003a27818562002728565b905062003a38608083018462002775565b9695505050505050565b600067ffffffffffffffff82111562003a605762003a5f62002839565b5b602082029050602081019050919050565b60006040828403121562003a8a5762003a89620033c1565b5b62003a9660406200289e565b9050600062003aa884828501620031ae565b600083015250602082015167ffffffffffffffff81111562003acf5762003ace620033c6565b5b62003add8482850162003416565b60208301525092915050565b600062003b0062003afa8462003a42565b6200289e565b9050808382526020820190506020840283018581111562003b265762003b25620033bc565b5b835b8181101562003b7457805167ffffffffffffffff81111562003b4f5762003b4e6200282f565b5b80860162003b5e898262003a71565b8552602085019450505060208101905062003b28565b5050509392505050565b600082601f83011262003b965762003b956200282f565b5b815162003ba884826020860162003ae9565b91505092915050565b60006020828403121562003bca5762003bc96200254c565b5b600082015167ffffffffffffffff81111562003beb5762003bea62002551565b5b62003bf98482850162003b7e565b91505092915050565b600067ffffffffffffffff82111562003c205762003c1f62002839565b5b602082029050602081019050919050565b600062003c4862003c428462003c02565b6200289e565b9050808382526020820190506020840283018581111562003c6e5762003c6d620033bc565b5b835b8181101562003cbc57805167ffffffffffffffff81111562003c975762003c966200282f565b5b80860162003ca6898262003416565b8552602085019450505060208101905062003c70565b5050509392505050565b600082601f83011262003cde5762003cdd6200282f565b5b815162003cf084826020860162003c31565b91505092915050565b60006020828403121562003d125762003d116200254c565b5b600082015167ffffffffffffffff81111562003d335762003d3262002551565b5b62003d418482850162003cc6565b91505092915050565b6000604082019050818103600083015262003d66818562002728565b905062003d77602083018462002786565b9392505050565b7f4e487b7100000000000000000000000000000000000000000000000000000000600052603260045260246000fd5b600062003dba8262002556565b915062003dc78362002556565b925082820190508082111562003de25762003de16200395b565b5b92915050565b600067ffffffffffffffff82111562003e065762003e0562002839565b5b602082029050602081019050919050565b60008151905062003e288162002625565b92915050565b600062003e4562003e3f8462003de8565b6200289e565b9050808382526020820190506020840283018581111562003e6b5762003e6a620033bc565b5b835b8181101562003e98578062003e83888262003e17565b84526020840193505060208101905062003e6d565b5050509392505050565b600082601f83011262003eba5762003eb96200282f565b5b815162003ecc84826020860162003e2e565b91505092915050565b60006020828403121562003eee5762003eed6200254c565b5b600082015167ffffffffffffffff81111562003f0f5762003f0e62002551565b5b62003f1d8482850162003ea2565b9150509291505056fe60806040523480156200001157600080fd5b5060405162001cf838038062001cf8833981810160405281019062000037919062000100565b80600360006101000a81548173ffffffffffffffffffffffffffffffffffffffff021916908373ffffffffffffffffffffffffffffffffffffffff16021790555060008081905550600060018190555060006002819055505062000132565b600080fd5b600073ffffffffffffffffffffffffffffffffffffffff82169050919050565b6000620000c8826200009b565b9050919050565b620000da81620000bb565b8114620000e657600080fd5b50565b600081519050620000fa81620000cf565b92915050565b60006020828403121562000119576200011862000096565b5b60006200012984828501620000e9565b91505092915050565b611bb680620001426000396000f3fe608060405234801561001057600080fd5b50600436106100f55760003560e01c806399c50dd111610097578063e71ef23d11610066578063e71ef23d14610244578063eb058a2f14610260578063ecf0a45d1461027c578063f72ead131461029a576100f5565b806399c50dd1146101ce578063bcc95407146101ea578063c4d67b0914610208578063e22bce2714610226576100f5565b806360f2e378116100d357806360f2e378146101545780636f94a3661461015e578063725009d31461019457806391f3410c146101b0576100f5565b806316e31ea3146100fa57806323f147021461011857806341f3004a14610136575b600080fd5b6101026102b6565b60405161010f9190610d4c565b60405180910390f35b6101206102c0565b60405161012d9190610e57565b60405180910390f35b61013e61034e565b60405161014b919061109f565b60405180910390f35b61015c6105fc565b005b61017860048036038101906101739190611101565b610616565b60405161018b9796959493929190611187565b60405180910390f35b6101ae60048036038101906101a99190611101565b6107fd565b005b6101b8610879565b6040516101c591906112cd565b60405180910390f35b6101e860048036038101906101e3919061131b565b610952565b005b6101f26109b8565b6040516101ff9190610d4c565b60405180910390f35b6102106109c1565b60405161021d9190610d4c565b60405180910390f35b61022e6109cb565b60405161023b9190610d4c565b60405180910390f35b61025e600480360381019061025991906114a9565b6109d5565b005b61027a60048036038101906102759190611564565b610b2e565b005b610284610b94565b60405161029191906116bf565b60405180910390f35b6102b460048036038101906102af91906116e1565b610c8f565b005b6000600154905090565b6060600580548060200260200160405190810160405280929190818152602001828054801561034457602002820191906000526020600020905b8160009054906101000a900473ffffffffffffffffffffffffffffffffffffffff1673ffffffffffffffffffffffffffffffffffffffff16815260200190600101908083116102fa575b5050505050905090565b60606000805467ffffffffffffffff81111561036d5761036c611352565b5b6040519080825280602002602001820160405280156103a657816020015b610393610cf4565b81526020019060019003908161038b5790505b50905060005b6000548110156105f457600860008281526020019081526020016000206040518060e0016040529081600082015481526020016001820180546103ee9061176c565b80601f016020809104026020016040519081016040528092919081815260200182805461041a9061176c565b80156104675780601f1061043c57610100808354040283529160200191610467565b820191906000526020600020905b81548152906001019060200180831161044a57829003601f168201915b5050505050815260200160028201548152602001600382015481526020016004820180546104949061176c565b80601f01602080910402602001604051908101604052809291908181526020018280546104c09061176c565b801561050d5780601f106104e25761010080835404028352916020019161050d565b820191906000526020600020905b8154815290600101906020018083116104f057829003601f168201915b505050505081526020016005820180546105269061176c565b80601f01602080910402602001604051908101604052809291908181526020018280546105529061176c565b801561059f5780601f106105745761010080835404028352916020019161059f565b820191906000526020600020905b81548152906001019060200180831161058257829003601f168201915b505050505081526020016006820160009054906101000a900460ff1615151515815250508282815181106105d6576105d561179d565b5b602002602001018190525080806105ec906117fb565b9150506103ac565b508091505090565b6004600081548092919061060f906117fb565b9190505550565b600860205280600052604060002060009150905080600001549080600101805461063f9061176c565b80601f016020809104026020016040519081016040528092919081815260200182805461066b9061176c565b80156106b85780601f1061068d576101008083540402835291602001916106b8565b820191906000526020600020905b81548152906001019060200180831161069b57829003601f168201915b5050505050908060020154908060030154908060040180546106d99061176c565b80601f01602080910402602001604051908101604052809291908181526020018280546107059061176c565b80156107525780601f1061072757610100808354040283529160200191610752565b820191906000526020600020905b81548152906001019060200180831161073557829003601f168201915b5050505050908060050180546107679061176c565b80601f01602080910402602001604051908101604052809291908181526020018280546107939061176c565b80156107e05780601f106107b5576101008083540402835291602001916107e0565b820191906000526020600020905b8154815290600101906020018083116107c357829003601f168201915b5050505050908060060160009054906101000a900460ff16905087565b600860008281526020019081526020016000206002016000815480929190610824906117fb565b91905055507f447c5d872ffc7fa2763b13dd068980191537823d15b95a6566333782d757d945600860008381526020019081526020016000206002015460405161086e9190610d4c565b60405180910390a150565b60606007805480602002602001604051908101604052809291908181526020016000905b828210156109495783829060005260206000200180546108bc9061176c565b80601f01602080910402602001604051908101604052809291908181526020018280546108e89061176c565b80156109355780601f1061090a57610100808354040283529160200191610935565b820191906000526020600020905b81548152906001019060200180831161091857829003601f168201915b50505050508152602001906001019061089d565b50505050905090565b6005819080600181540180825580915050600190039060005260206000200160009091909190916101000a81548173ffffffffffffffffffffffffffffffffffffffff021916908373ffffffffffffffffffffffffffffffffffffffff16021790555050565b60008054905090565b6000600254905090565b6000600454905090565b6000546008600080548152602001908152602001600020600001819055508360086000805481526020019081526020016000206001019081610a1791906119ef565b50600060086000805481526020019081526020016000206002018190555060006008600080548152602001908152602001600020600301819055508260086000805481526020019081526020016000206004019081610a7691906119ef565b508160086000805481526020019081526020016000206005019081610a9b91906119ef565b5080600860008054815260200190815260200160002060060160006101000a81548160ff021916908315150217905550600080815480929190610add906117fb565b91905055507f689bb0330c1c7078d60ff9632a4be061f5411d6c6d3cfc8960e175d277f6a53e60005485600080878787604051610b209796959493929190611afc565b60405180910390a150505050565b60066040518060400160405280848152602001838152509080600181540180825580915050600190039060005260206000209060020201600090919091909150600082015181600001556020820151816001019081610b8d91906119ef565b5050505050565b60606006805480602002602001604051908101604052809291908181526020016000905b82821015610c86578382906000526020600020906002020160405180604001604052908160008201548152602001600182018054610bf59061176c565b80601f0160208091040260200160405190810160405280929190818152602001828054610c219061176c565b8015610c6e5780601f10610c4357610100808354040283529160200191610c6e565b820191906000526020600020905b815481529060010190602001808311610c5157829003601f168201915b50505050508152505081526020019060010190610bb8565b50505050905090565b600782908060018154018082558091505060019003906000526020600020016000909190919091509081610cc391906119ef565b50600860008281526020019081526020016000206003016000815480929190610ceb906117fb565b91905055505050565b6040518060e001604052806000815260200160608152602001600081526020016000815260200160608152602001606081526020016000151581525090565b6000819050919050565b610d4681610d33565b82525050565b6000602082019050610d616000830184610d3d565b92915050565b600081519050919050565b600082825260208201905092915050565b6000819050602082019050919050565b600073ffffffffffffffffffffffffffffffffffffffff82169050919050565b6000610dbe82610d93565b9050919050565b610dce81610db3565b82525050565b6000610de08383610dc5565b60208301905092915050565b6000602082019050919050565b6000610e0482610d67565b610e0e8185610d72565b9350610e1983610d83565b8060005b83811015610e4a578151610e318882610dd4565b9750610e3c83610dec565b925050600181019050610e1d565b5085935050505092915050565b60006020820190508181036000830152610e718184610df9565b905092915050565b600081519050919050565b600082825260208201905092915050565b6000819050602082019050919050565b610eae81610d33565b82525050565b600081519050919050565b600082825260208201905092915050565b60005b83811015610eee578082015181840152602081019050610ed3565b60008484015250505050565b6000601f19601f8301169050919050565b6000610f1682610eb4565b610f208185610ebf565b9350610f30818560208601610ed0565b610f3981610efa565b840191505092915050565b60008115159050919050565b610f5981610f44565b82525050565b600060e083016000830151610f776000860182610ea5565b5060208301518482036020860152610f8f8282610f0b565b9150506040830151610fa46040860182610ea5565b506060830151610fb76060860182610ea5565b5060808301518482036080860152610fcf8282610f0b565b91505060a083015184820360a0860152610fe98282610f0b565b91505060c0830151610ffe60c0860182610f50565b508091505092915050565b60006110158383610f5f565b905092915050565b6000602082019050919050565b600061103582610e79565b61103f8185610e84565b93508360208202850161105185610e95565b8060005b8581101561108d578484038952815161106e8582611009565b94506110798361101d565b925060208a01995050600181019050611055565b50829750879550505050505092915050565b600060208201905081810360008301526110b9818461102a565b905092915050565b6000604051905090565b600080fd5b600080fd5b6110de81610d33565b81146110e957600080fd5b50565b6000813590506110fb816110d5565b92915050565b600060208284031215611117576111166110cb565b5b6000611125848285016110ec565b91505092915050565b600082825260208201905092915050565b600061114a82610eb4565b611154818561112e565b9350611164818560208601610ed0565b61116d81610efa565b840191505092915050565b61118181610f44565b82525050565b600060e08201905061119c600083018a610d3d565b81810360208301526111ae818961113f565b90506111bd6040830188610d3d565b6111ca6060830187610d3d565b81810360808301526111dc818661113f565b905081810360a08301526111f0818561113f565b90506111ff60c0830184611178565b98975050505050505050565b600081519050919050565b600082825260208201905092915050565b6000819050602082019050919050565b60006112438383610f0b565b905092915050565b6000602082019050919050565b60006112638261120b565b61126d8185611216565b93508360208202850161127f85611227565b8060005b858110156112bb578484038952815161129c8582611237565b94506112a78361124b565b925060208a01995050600181019050611283565b50829750879550505050505092915050565b600060208201905081810360008301526112e78184611258565b905092915050565b6112f881610db3565b811461130357600080fd5b50565b600081359050611315816112ef565b92915050565b600060208284031215611331576113306110cb565b5b600061133f84828501611306565b91505092915050565b600080fd5b600080fd5b7f4e487b7100000000000000000000000000000000000000000000000000000000600052604160045260246000fd5b61138a82610efa565b810181811067ffffffffffffffff821117156113a9576113a8611352565b5b80604052505050565b60006113bc6110c1565b90506113c88282611381565b919050565b600067ffffffffffffffff8211156113e8576113e7611352565b5b6113f182610efa565b9050602081019050919050565b82818337600083830152505050565b600061142061141b846113cd565b6113b2565b90508281526020810184848401111561143c5761143b61134d565b5b6114478482856113fe565b509392505050565b600082601f83011261146457611463611348565b5b813561147484826020860161140d565b91505092915050565b61148681610f44565b811461149157600080fd5b50565b6000813590506114a38161147d565b92915050565b600080600080608085870312156114c3576114c26110cb565b5b600085013567ffffffffffffffff8111156114e1576114e06110d0565b5b6114ed8782880161144f565b945050602085013567ffffffffffffffff81111561150e5761150d6110d0565b5b61151a8782880161144f565b935050604085013567ffffffffffffffff81111561153b5761153a6110d0565b5b6115478782880161144f565b925050606061155887828801611494565b91505092959194509250565b6000806040838503121561157b5761157a6110cb565b5b6000611589858286016110ec565b925050602083013567ffffffffffffffff8111156115aa576115a96110d0565b5b6115b68582860161144f565b9150509250929050565b600081519050919050565b600082825260208201905092915050565b6000819050602082019050919050565b60006040830160008301516116046000860182610ea5565b506020830151848203602086015261161c8282610f0b565b9150508091505092915050565b600061163583836115ec565b905092915050565b6000602082019050919050565b6000611655826115c0565b61165f81856115cb565b935083602082028501611671856115dc565b8060005b858110156116ad578484038952815161168e8582611629565b94506116998361163d565b925060208a01995050600181019050611675565b50829750879550505050505092915050565b600060208201905081810360008301526116d9818461164a565b905092915050565b600080604083850312156116f8576116f76110cb565b5b600083013567ffffffffffffffff811115611716576117156110d0565b5b6117228582860161144f565b9250506020611733858286016110ec565b9150509250929050565b7f4e487b7100000000000000000000000000000000000000000000000000000000600052602260045260246000fd5b6000600282049050600182168061178457607f821691505b6020821081036117975761179661173d565b5b50919050565b7f4e487b7100000000000000000000000000000000000000000000000000000000600052603260045260246000fd5b7f4e487b7100000000000000000000000000000000000000000000000000000000600052601160045260246000fd5b600061180682610d33565b91507fffffffffffffffffffffffffffffffffffffffffffffffffffffffffffffffff8203611838576118376117cc565b5b600182019050919050565b60008190508160005260206000209050919050565b60006020601f8301049050919050565b600082821b905092915050565b6000600883026118a57fffffffffffffffffffffffffffffffffffffffffffffffffffffffffffffffff82611868565b6118af8683611868565b95508019841693508086168417925050509392505050565b6000819050919050565b60006118ec6118e76118e284610d33565b6118c7565b610d33565b9050919050565b6000819050919050565b611906836118d1565b61191a611912826118f3565b848454611875565b825550505050565b600090565b61192f611922565b61193a8184846118fd565b505050565b5b8181101561195e57611953600082611927565b600181019050611940565b5050565b601f8211156119a35761197481611843565b61197d84611858565b8101602085101561198c578190505b6119a061199885611858565b83018261193f565b50505b505050565b600082821c905092915050565b60006119c6600019846008026119a8565b1980831691505092915050565b60006119df83836119b5565b9150826002028217905092915050565b6119f882610eb4565b67ffffffffffffffff811115611a1157611a10611352565b5b611a1b825461176c565b611a26828285611962565b600060209050601f831160018114611a595760008415611a47578287015190505b611a5185826119d3565b865550611ab9565b601f198416611a6786611843565b60005b82811015611a8f57848901518255600182019150602085019450602081019050611a6a565b86831015611aac5784890151611aa8601f8916826119b5565b8355505b6001600288020188555050505b505050505050565b6000819050919050565b6000611ae6611ae1611adc84611ac1565b6118c7565b610d33565b9050919050565b611af681611acb565b82525050565b600060e082019050611b11600083018a610d3d565b8181036020830152611b23818961113f565b9050611b326040830188611aed565b611b3f6060830187611aed565b8181036080830152611b51818661113f565b905081810360a0830152611b65818561113f565b9050611b7460c0830184611178565b9897505050505050505056fea2646970667358221220f55b8d0aee6ae8887f9e3031fff66cc9fb190a9cf4afece41d581791b604c14f64736f6c63430008110033a2646970667358221220071b06a15ce75251ee81ec19cedfa5f98589055b6194c0c6106d8c1fb5b2d93c64736f6c63430008110033",
  "immutableReferences": {},
  "source": "// SPDX-License-Identifier: GPL-3.0\r\npragma solidity >=0.8.0;\r\n\r\ncontract Maincontract {\r\n    uint256 userCounts;\r\n    uint256 verifiedUserCounts;\r\n\r\n    constructor() {\r\n        userCounts = 0;\r\n        verifiedUserCounts = 0;\r\n    }\r\n\r\n    struct UserStruct {\r\n        address walletId;\r\n        address userContractAddress;\r\n        string userName;\r\n        string password;\r\n        bool isVerified;\r\n        uint256 creationBlock;\r\n    }\r\n    struct PostStruct {\r\n        uint256 postId;\r\n        string postContent;\r\n        uint256 likeCount;\r\n        uint256 commentCount;\r\n        string timeStamp;\r\n        string userName;\r\n        bool isVerified;\r\n    }\r\n\r\n    event User(\r\n        address walletId,\r\n        address userContractAddress,\r\n        string userName,\r\n        string password,\r\n        bool isVerified\r\n    );\r\n    event Post(\r\n        uint256 postId,\r\n        string postContent,\r\n        uint256 likeCount,\r\n        uint256 commentCount,\r\n        string timeStamp,\r\n        string userName,\r\n        bool isVerified\r\n    );\r\n\r\n    mapping(address => UserStruct) public userStructs;\r\n    mapping(string => address) public userNameToWalletId;\r\n    address[] public numberToWalletId;\r\n    string[] public userNames;\r\n\r\n    function createUser(\r\n        address _walletId,\r\n        string memory _userName,\r\n        string memory _password\r\n    ) public {\r\n        address uca = address(new UserContract(_walletId));\r\n        userStructs[_walletId].walletId = _walletId;\r\n        userStructs[_walletId].userName = _userName;\r\n        userStructs[_walletId].password = _password;\r\n        userStructs[_walletId].isVerified = false;\r\n        userStructs[_walletId].userContractAddress = uca;\r\n        userStructs[_walletId].creationBlock = block.number;\r\n        userCounts++;\r\n        userNameToWalletId[_userName] = _walletId;\r\n        userNames.push(_userName);\r\n        numberToWalletId.push(_walletId);\r\n        emit User(_walletId, uca, _userName, _password, false);\r\n    }\r\n\r\n    function getAllUserNames() public view returns (string[] memory) {\r\n        return userNames;\r\n    }\r\n\r\n    function checkAndVerifyUser() public {\r\n        for (uint256 i = 0; i < numberToWalletId.length; i++) {\r\n            if (\r\n                userStructs[numberToWalletId[i]].creationBlock + 5 <\r\n                block.number\r\n            ) {\r\n                userStructs[numberToWalletId[i]].isVerified = true;\r\n                verifiedUserCounts++;\r\n            }\r\n        }\r\n    }\r\n\r\n    function getUser(address _walletId)\r\n        public\r\n        view\r\n        returns (\r\n            address,\r\n            string memory,\r\n            string memory,\r\n            bool,\r\n            address\r\n        )\r\n    {\r\n        if (userStructs[_walletId].walletId == address(0)) {\r\n            return (\r\n                address(0),\r\n                \"account does not exist\",\r\n                \"\",\r\n                false,\r\n                address(0)\r\n            );\r\n        }\r\n        return (\r\n            userStructs[_walletId].walletId,\r\n            userStructs[_walletId].userName,\r\n            userStructs[_walletId].password,\r\n            userStructs[_walletId].isVerified,\r\n            userStructs[_walletId].userContractAddress\r\n        );\r\n    }\r\n\r\n    function getUserByUserName(string memory _userName)\r\n        public\r\n        view\r\n        returns (\r\n            address,\r\n            string memory,\r\n            string memory,\r\n            bool,\r\n            address\r\n        )\r\n    {\r\n        address _walletId = userNameToWalletId[_userName];\r\n        if (userStructs[_walletId].walletId == address(0)) {\r\n            return (\r\n                address(0),\r\n                \"account does not exist\",\r\n                \"\",\r\n                false,\r\n                address(0)\r\n            );\r\n        }\r\n        return (\r\n            userStructs[_walletId].walletId,\r\n            userStructs[_walletId].userName,\r\n            userStructs[_walletId].password,\r\n            userStructs[_walletId].isVerified,\r\n            userStructs[_walletId].userContractAddress\r\n        );\r\n    }\r\n\r\n    function getUserCount() public view returns (uint256) {\r\n        return userCounts;\r\n    }\r\n\r\n    function getVerifiedUserCount() public view returns (uint256) {\r\n        return verifiedUserCounts;\r\n    }\r\n\r\n    function makePost(\r\n        address _walletId,\r\n        string memory _postContent,\r\n        string memory timeStamp\r\n    ) public {\r\n        UserContract uc = UserContract(\r\n            userStructs[_walletId].userContractAddress\r\n        );\r\n        uc.createPost(\r\n            _postContent,\r\n            timeStamp,\r\n            userStructs[_walletId].userName,\r\n            userStructs[_walletId].isVerified\r\n        );\r\n\r\n        checkAndVerifyUser();\r\n    }\r\n\r\n    function makeComment(\r\n        string memory _comment,\r\n        string memory _postOwner,\r\n        uint256 _postId\r\n    ) public {\r\n        address _walletId = userNameToWalletId[_postOwner];\r\n        UserContract uc = UserContract(\r\n            userStructs[_walletId].userContractAddress\r\n        );\r\n        uc.createComment(_comment, _postId);\r\n\r\n        checkAndVerifyUser();\r\n    }\r\n\r\n    function getComments(string memory _postOwner)\r\n        public\r\n        view\r\n        returns (string[] memory)\r\n    {\r\n        address _walletId = userNameToWalletId[_postOwner];\r\n        UserContract uc = UserContract(\r\n            userStructs[_walletId].userContractAddress\r\n        );\r\n        return uc.getComments();\r\n    }\r\n\r\n    function likePost(\r\n        string memory _userName,\r\n        uint256 _postId,\r\n        address _myWalletId\r\n    ) public {\r\n        address _walletId = userNameToWalletId[_userName];\r\n        UserContract uc = UserContract(\r\n            userStructs[_walletId].userContractAddress\r\n        );\r\n        uc.likePost(_postId);\r\n        UserContract ucf = UserContract(\r\n            userStructs[_myWalletId].userContractAddress\r\n        );\r\n        ucf.updateMylikes(_postId, _userName);\r\n\r\n        checkAndVerifyUser();\r\n    }\r\n\r\n    function followUser(address _walletId, address _followingId) public {\r\n        UserContract uc = UserContract(\r\n            userStructs[_walletId].userContractAddress\r\n        );\r\n        uc.followSomeone(_followingId);\r\n        UserContract ucf = UserContract(\r\n            userStructs[_followingId].userContractAddress\r\n        );\r\n        ucf.updateFollowersCount();\r\n\r\n        checkAndVerifyUser();\r\n    }\r\n\r\n    function getFollowing(address _walletId)\r\n        public\r\n        view\r\n        returns (address[] memory)\r\n    {\r\n        UserContract uc = UserContract(\r\n            userStructs[_walletId].userContractAddress\r\n        );\r\n        return uc.getFollowing();\r\n    }\r\n\r\n    function getFollowersCount(address _walletId)\r\n        public\r\n        view\r\n        returns (uint256)\r\n    {\r\n        UserContract uc = UserContract(\r\n            userStructs[_walletId].userContractAddress\r\n        );\r\n        return uc.getFollowersCount();\r\n    }\r\n\r\n    function getPosts(address _walletId)\r\n        public\r\n        view\r\n        returns (UserContract.PostStruct[] memory)\r\n    {\r\n        UserContract uc = UserContract(\r\n            userStructs[_walletId].userContractAddress\r\n        );\r\n        return uc.getPosts();\r\n    }\r\n\r\n    function getAllUsersAddress() public view returns (address[] memory) {\r\n        return numberToWalletId;\r\n    }\r\n\r\n    function getPostCount(address _walletId) public view returns (uint256) {\r\n        UserContract uc = UserContract(\r\n            userStructs[_walletId].userContractAddress\r\n        );\r\n        return uc.getPostCount();\r\n    }\r\n\r\n    function getCommentCount(address _walletId) public view returns (uint256) {\r\n        UserContract uc = UserContract(\r\n            userStructs[_walletId].userContractAddress\r\n        );\r\n        return uc.getCommentCount();\r\n    }\r\n\r\n    function getLikeCount(address _walletId) public view returns (uint256) {\r\n        UserContract uc = UserContract(\r\n            userStructs[_walletId].userContractAddress\r\n        );\r\n        return uc.getLikeCount();\r\n    }\r\n\r\n    function getMyLikes(address _walletId)\r\n        public\r\n        view\r\n        returns (UserContract.myLikeStruct[] memory)\r\n    {\r\n        UserContract uc = UserContract(\r\n            userStructs[_walletId].userContractAddress\r\n        );\r\n        return uc.getMyLikes();\r\n    }\r\n}\r\n\r\n///////////////////////////////////////////////////////////////////////////////////////////////////////////////////////////////////////\r\n\r\ncontract UserContract {\r\n    uint256 postCounts;\r\n    uint256 commentCounts;\r\n    uint256 likeCounts;\r\n    address owner;\r\n    uint256 followersCount;\r\n    address[] following;\r\n    myLikeStruct[] myLikes;\r\n    string[] comments;\r\n\r\n    constructor(address walletId) {\r\n        owner = walletId;\r\n        postCounts = 0;\r\n        commentCounts = 0;\r\n        likeCounts = 0;\r\n    }\r\n\r\n    struct PostStruct {\r\n        uint256 postId;\r\n        string postContent;\r\n        uint256 likeCount;\r\n        uint256 commentCount;\r\n        string timeStamp;\r\n        string userName;\r\n        bool isVerified;\r\n    }\r\n    // struct CommentStruct {\r\n    //     uint256 commentId;\r\n    //     string commentContent;\r\n    //     uint256 likeCount;\r\n    // }\r\n    struct myLikeStruct {\r\n        uint256 postId;\r\n        string userName;\r\n    }\r\n    event Post(\r\n        uint256 postId,\r\n        string postContent,\r\n        uint256 likeCount,\r\n        uint256 commentCount,\r\n        string timeStamp,\r\n        string userName,\r\n        bool isVerified\r\n    );\r\n    // event Comment(uint256 commentId, string commentContent, uint256 likeCount);\r\n    event Like(uint256 likeCount);\r\n\r\n    mapping(uint256 => PostStruct) public postStructs;\r\n\r\n    // mapping(uint256 => CommentStruct) public commentStructs;\r\n\r\n    function createPost(\r\n        string memory _postContent,\r\n        string memory timeStamp,\r\n        string memory userName,\r\n        bool isVerified\r\n    ) public {\r\n        postStructs[postCounts].postId = postCounts;\r\n        postStructs[postCounts].postContent = _postContent;\r\n        postStructs[postCounts].likeCount = 0;\r\n        postStructs[postCounts].commentCount = 0;\r\n        postStructs[postCounts].timeStamp = timeStamp;\r\n        postStructs[postCounts].userName = userName;\r\n        postStructs[postCounts].isVerified = isVerified;\r\n\r\n        postCounts++;\r\n        emit Post(\r\n            postCounts,\r\n            _postContent,\r\n            0,\r\n            0,\r\n            timeStamp,\r\n            userName,\r\n            isVerified\r\n        );\r\n    }\r\n\r\n    function createComment(string memory _commentContent, uint256 _postId)\r\n        public\r\n    {\r\n        comments.push(_commentContent);\r\n        postStructs[_postId].commentCount++;\r\n    }\r\n\r\n    function getComments() public view returns (string[] memory) {\r\n        return comments;\r\n    }\r\n\r\n    function likePost(uint256 _postId) public {\r\n        postStructs[_postId].likeCount++;\r\n        emit Like(postStructs[_postId].likeCount);\r\n    }\r\n\r\n    function updateMylikes(uint256 _postId, string memory _userName) public {\r\n        myLikes.push(myLikeStruct(_postId, _userName));\r\n    }\r\n\r\n    function followSomeone(address _walletId) public {\r\n        following.push(_walletId);\r\n    }\r\n\r\n    function updateFollowersCount() public {\r\n        followersCount++;\r\n    }\r\n\r\n    function getFollowersCount() public view returns (uint256) {\r\n        return followersCount;\r\n    }\r\n\r\n    function getFollowing() public view returns (address[] memory) {\r\n        return following;\r\n    }\r\n\r\n    function getPosts() public view returns (PostStruct[] memory) {\r\n        PostStruct[] memory posts = new PostStruct[](postCounts);\r\n        for (uint256 i = 0; i < postCounts; i++) {\r\n            posts[i] = postStructs[i];\r\n        }\r\n        return posts;\r\n    }\r\n\r\n    function getPostCount() public view returns (uint256) {\r\n        return postCounts;\r\n    }\r\n\r\n    function getCommentCount() public view returns (uint256) {\r\n        return commentCounts;\r\n    }\r\n\r\n    function getLikeCount() public view returns (uint256) {\r\n        return likeCounts;\r\n    }\r\n\r\n    function getMyLikes() public view returns (myLikeStruct[] memory) {\r\n        return myLikes;\r\n    }\r\n}\r\n",
  "sourcePath": "D:\\Users\\Desktop\\BOOOKS\\SEMESTER 7\\BCT\\Project\\DE-Verse\\smartcontract\\contracts\\Main.sol",
  "compiler": {
    "name": "solc",
    "version": "0.8.17+commit.8df45f5f.Emscripten.clang"
  },
  "schemaVersion": "3.4.10",
  "updatedAt": "2022-12-25T10:59:43.987Z",
  "networkType": "ethereum",
  "devdoc": {
    "kind": "dev",
    "methods": {},
    "version": 1
  },
  "userdoc": {
    "kind": "user",
    "methods": {},
    "version": 1
  }
}